:100000008DC300000C9457270C9488270C94B927B3
:100010000C94EA270C941B280C944C280C947D28F3
:100020000C94AE28A8C30000A6C30000A4C300001F
:10003000A2C30000A0C300009EC300009CC3000038
:100040009AC3000098C3000096C3000094C3000048
:1000500092C3000090C300008EC300000C94652A78
:100060008AC300000C9477210C949F2284C3000063
:1000700082C3000080C300007EC300007CC3000078
:100080007AC3000078C3000076C3000074C3000088
:100090000C94B3210C94D3226EC300006CC30000F7
:1000A0006AC3000068C3000066C3000064C30000A8
:1000B00062C3000060C300005EC300005CC30000B8
:1000C0005AC3000058C3000056C300000C94EF212F
:1000D0000C94072350C300000C942B220C943B2358
:1000E0004AC3000000000000003E5B4F5B3E3E6BD9
:1000F0004F6B3E1C3E7C3E1C183C7E3C181C577DC2
:10010000571C1C5E7F5E1C00183C1800FFE7C3E70D
:10011000FF0018241800FFE7DBE7FF30483A060E1F
:100120002629792926407F050507407F05253F5A66
:100130003CE73C5A7F3E1C1C08081C1C3E7F1422D6
:100140007F22145F5F005F5F06097F017F00668981
:10015000956A606060606094A2FFA29408047E04C7
:100160000810207E201008082A1C08081C2A0808ED
:100170001E101010100C1E0C1E0C30383E383006AD
:100180000E3E0E06000000000000005F00000007A9
:10019000000700147F147F14242A7F2A12231308D7
:1001A000646236495620500008070300001C2241B3
:1001B000000041221C002A1C7F1C2A08083E080857
:1001C0000080703000080808080800006060002007
:1001D000100804023E5149453E00427F40007249EA
:1001E0004949462141494D331814127F102745458E
:1001F00045393C4A494931412111090736494949A4
:1002000036464949291E0000140000004034000011
:10021000000814224114141414140041221408027A
:10022000015909063E415D594E7C1211127C7F49ED
:100230004949363E414141227F4141413E7F494942
:1002400049417F090909013E414151737F0808086E
:100250007F00417F41002040413F017F081422413F
:100260007F404040407F021C027F7F0408107F3E99
:100270004141413E7F090909063E4151215E7F0906
:10028000192946264949493203017F01033F40406D
:10029000403F1F2040201F3F4038403F6314081458
:1002A0006303047804036159494D43007F41414190
:1002B0000204081020004141417F04020102044071
:1002C00040404040000307080020545478407F28F5
:1002D0004444383844444428384444287F385454EB
:1002E000541800087E090218A4A49C787F0804040E
:1002F0007800447D40002040403D007F10284400AD
:1003000000417F40007C047804787C08040478383D
:1003100044444438FC1824241818242418FC7C086D
:10032000040408485454542404043F44243C4040EA
:10033000207C1C2040201C3C4030403C442810289D
:10034000444C9090907C4464544C440008364100E6
:100350000000770000004136080002010204023C60
:100360002623263C1EA1A161123A4040207A38542F
:1003700054555921555579412254547842215554A8
:10038000784020545579400C1E52721239555555FB
:1003900059395454545939555454580000457C41E6
:1003A0000002457D420001457C407D1211127DF026
:1003B000282528F07C545545002054547C547C0A50
:1003C000097F4932494949323A4444443A324A4819
:1003D00048303A4141217A3A42402078009DA0A01D
:1003E0007D3D4242423D3D4040403D3C24FF24246F
:1003F000487E4943662B2FFC2F2BFF0929F620C08E
:10040000887E090320545479410000447D413048DE
:10041000484A32384040227A007A0A0A727D0D1921
:10042000317D2629292F28262929292630484D4083
:1004300020380808080808080808382F10C8ACBA7F
:100440002F102834FA00007B000008142A142222FE
:10045000142A14085500550055AA55AA55AAFF5547
:10046000FF55FF000000FF00101010FF00141414CF
:10047000FF001010FF00FF1010F010F0141414FC17
:10048000001414F700FF0000FF00FF1414F404FC34
:10049000141417101F10101F101F1414141F001015
:1004A0001010F0000000001F101010101F1010108E
:1004B00010F010000000FF1010101010101010109D
:1004C000FF10000000FF140000FF00FF00001F10DD
:1004D000170000FC04F414141710171414F404F497
:1004E0000000FF00F714141414141414F700F71488
:1004F0001414171410101F101F141414F4141010D7
:10050000F010F000001F101F0000001F140000007A
:10051000FC140000F010F01010FF10FF141414FF72
:10052000141010101F00000000F010FFFFFFFFFF6D
:10053000F0F0F0F0F0FFFFFF0000000000FFFF0F01
:100540000F0F0F0F3844443844FC4A4A4A347E02A5
:10055000020606027E027E02635549416338444426
:100560003C04407E201E2006027E020299A5E7A5DB
:10057000991C2A492A1C4C7201724C304A4D4D304C
:100580003048784830BC625A463D3E494949007E71
:100590000101017E2A2A2A2A2A44445F4444405108
:1005A0004A444040444A51400000FF0103E080FFBC
:1005B000000008086B6B083612362436060F090F48
:1005C00006000018180000001010003040FF010164
:1005D000001F01011E00191D1712003C3C3C3C008D
:1005E0000000000000002100240027002A002D0048
:1005F0003000330001010000040107010A0100007E
:100600002200250028002B002E00310034000201BA
:100610000000050108010B01000020002300260056
:1006200029002C002F003200000100000301060108
:100630000901050505050705080808080202020268
:100640000A0A08080404040401010101010101016E
:100650000303030303030303040707070C0C0C0C39
:100660000C0C0C0C02020202060606060606060622
:100670000B0B0B0B0B0B0B0B0102102020080810AF
:100680002040102040800201020108040201010202
:1006900004081020408080402010080402018004DB
:1006A0000201804020100804020108040201010236
:1006B000040810204080010204081020408000003F
:1006C000090A02080B0C0D070603040100000000D4
:1006D000000000000000000000000000000000001A
:1006E0000000000000000000000011100F000000DA
:1006F00000000000000000000000000000000000FA
:100700000000000020045D05C9054F11BF1A281C18
:10071000FB1F7C241B045805BA1A231C11241FBE7E
:10072000CFEFD1E2DEBFCDBF00E00CBF13E0A0E011
:10073000B2E0E2EEFCE500E00BBF02C007900D92D4
:10074000AE33B107D9F71BBE18E0AEE3B3E001C08A
:100750001D92A33BB107E1F717E0C4E1D7E004C065
:100760002297FE010E94612EC430D107C9F70E9472
:10077000542A0C94652E44CCFB01DC0102C001908C
:100780000D9241505040D8F70895FB01DC010190D3
:100790000D920020E1F70895FB019F01423074F0B3
:1007A000453264F4642F77270E94162E805D8A33C9
:1007B0000CF0895D8193CB010097A1F71082C901EC
:1007C00000C0DC01FC01672F71917723E1F73297BC
:1007D00004C07C916D9370836291AE17BF07C8F31C
:1007E00008958130910591F46F5F7F4F19F584E48E
:1007F00093E00E94511A86E493E00E94F01B88E483
:1008000093E0B1D18AE493E00C94EF1F892B91F42B
:100810006F5F7F4F79F48AE493E00E94F51F88E4CC
:1008200093E0A7D186E493E00E94F61B84E493E072
:100830000C94571A089580E090E06FEF7FEFD1CFCE
:1008400081E090E06FEF7FEFCCCF809142039091F9
:1008500043038230910559F08330910571F001977F
:1008600091F486E493E060E473E00C94221F86E444
:1008700093E060E473E00C94A71E86E493E06EE3DB
:1008800073E00C94F51C08958EE096E040E855E284
:1008900060E070E00E946F2386E493E00E94211ED6
:1008A00084E493E00E94A81B909343038093420347
:1008B00080919F0260E00E94C22B8091A10260E0C3
:1008C0000E94C22B84E493E00E94A81B8230910511
:1008D00009F43CC08330910509F454C0019709F034
:1008E00089C020919F023091A0022230310511F47D
:1008F00080E00DC02330310511F481E008C0C9014A
:100900004297049710F08FEF02C087E1821B67E2E5
:1009100075E043E050E00E94DB262091A102309177
:10092000A2022230310511F480E00DC023303105E0
:1009300011F481E008C0C9014297049710F08FEFCD
:1009400002C087E1821B6EE175E018C020919F0212
:100950003091A0022230310511F480E00DC0233027
:10096000310511F481E008C0C9014297049710F0E5
:100970008FEF02C087E1821B65E175E043E050E044
:100980000C94DB2620919F023091A0022230310589
:1009900011F480E00DC02330310511F481E008C06E
:1009A000C9014297049710F08FEF02C087E1821BC4
:1009B00068E075E043E050E00E94DB262091A10250
:1009C0003091A2022230310511F480E00DC02330B5
:1009D000310511F481E008C0C9014297049710F075
:1009E0008FEF02C087E1821B6BEF74E043E050E0C1
:1009F0000C94DB26089560913E0370913F0384E4DC
:100A000093E00E945D1A90933F0380933E03089504
:100A100060913E0370913F0384E493E00E94221BA7
:100A200090933F0380933E0308956091400384E4D4
:100A300093E00E94FD1A8093400308956091410362
:100A400084E493E00E948A1A8093400308956091A1
:100A5000400384E493E00E94C41A80934003089505
:100A6000FC018AEB92E0918380830895FC018AEB7C
:100A700092E09183808308958130910559F46F5FEE
:100A80007F4FA9F48CE493E00E9423208EE493E04E
:100A90000C94EF1F892B59F46F5F7F4F41F48EE464
:100AA00093E00E94F51F8CE493E00C9429200895B4
:100AB00080E090E06FEF7FEFDFCF81E090E06FEFBD
:100AC0007FEFDACF0F931F939B016F3F7105B1F05A
:100AD000A8F0CB016FEF70E00E94162E8C01281B4E
:100AE000390B8CE493E06DEC70E0A9010E94352095
:100AF0008CE493E06EEC70E0A80105C08CE493E018
:100B00006DEC70E0A9010E9435201F910F910895AE
:100B1000AB018CE493E068EC70E00C9435208CE43D
:100B200093E06DEC70E00E942F208F3F910511F053
:100B30009C0109C08CE493E06EEC70E00E942F20D1
:100B40009C0121503F4FC90108958CE493E068EC6B
:100B500070E00C942F20FC018AEB92E0918380835B
:100B6000CF010C94622AFC0182EC92E09183808395
:100B70000895FC0182EC92E0918380830895809136
:100B80005003089510925003089581E0809350031C
:100B900008950F931F9305E513E0C80165E046E053
:100BA00027E00E94A81188E593E0B8010E94FC119B
:100BB0001F910F910895DF93CF93CDB7DEB729979B
:100BC0000FB6F894DEBF0FBECDBFCE01019665E52E
:100BD00073E00E94FC118B8190E020915A03821BEC
:100BE000910920EA35E0829FF001839FF00D929FEA
:100BF000F00D11248A8190E020915903821B910904
:100C00002CE330E0AC01429FC001439F900D529F06
:100C1000900D1124E80FF91F898190E0209158036D
:100C2000821B9109E80FF91FCF016CE370E00E946D
:100C3000162E9C019093520380935103CF01821B87
:100C4000930B6CE370E00E94162E70935403609334
:100C5000530329960FB6F894DEBF0FBECDBFCF91D8
:100C6000DF9108950F931F93DF93CF93CDB7DEB736
:100C700029970FB6F894DEBF0FBECDBF8E010F5F70
:100C80001F4FC80165E573E00E94FC11A8E5B3E0C1
:100C9000F80189E001900D928150E1F729960FB695
:100CA000F894DEBF0FBECDBFCF91DF911F910F91A2
:100CB00008950F931F93DF93CF93CDB7DEB72F9790
:100CC0000FB6F894DEBF0FBECDBF8B01109250035C
:100CD000CE01079665E573E00E94FC11CE010196F6
:100CE00060E072E00E94AF298F8190E0209158036C
:100CF000821B9109081B190B888590E020915903EC
:100D0000821B91092CE330E0AC01429FC001439F5C
:100D1000900D529F900D1124081B190B898590E0AE
:100D200020915A03821B910920EA35E0AC01429FD1
:100D3000C001439F900D529F900D1124081B190B69
:100D4000C8016CE370E00E94162E9C019093520340
:100D500080935103C801821B930B6CE370E00E94E7
:100D6000162E70935403609353036115710529F493
:100D7000232B19F481E080935003CE0101960E9449
:100D80004A2A2F960FB6F894DEBF0FBECDBFCF9183
:100D9000DF911F910F9108956F927F928F929F9292
:100DA000AF92BF92CF92DF92EF92FF920F931F9379
:100DB000DF93CF93CDB7DEB7C254D0400FB6F894CF
:100DC000DEBF0FBECDBF782E692E609153037091A8
:100DD00054036E010894C11CD11CC6014AE00E9454
:100DE000F6296091510370915203CE0107964AE0B3
:100DF0000E94F629CE010D9660E072E00E94AF29B4
:100E000060915303709154036A30710500F563E1FA
:100E1000E62EF12CEC0EFD1EC70161E072E00E948F
:100E2000C729C701B6010E947C29BC018E01075E5B
:100E30001F4FC8010E943A2AC601B8010E94252A04
:100E4000C8010E944A2AC7010E944F2A0EC08E0183
:100E5000015E1F4FC8014AE00E94F629C601B80191
:100E60000E94252AC8010E944A2A6091510370916C
:100E7000520357E0C52ED12CCC0EDD1E6A30710511
:100E800000F545E2E42EF12CEC0EFD1EC70161E0F9
:100E900072E00E94C729C701B6010E947C29BC01EB
:100EA0008E01055D1F4FC8010E943A2AC601B80194
:100EB0000E94252AC8010E944A2AC7010E944F2A7F
:100EC0000EC08E010F5C1F4FC8014AE00E94F62938
:100ED000C601B8010E94252AC8010E944A2A37E3A8
:100EE000E32EF12CEC0EFD1EC7014E010894811C6F
:100EF000911CB4010E94422AC70163E072E00E9483
:100F0000622927E0A22EB12CAC0EBD1EB5010E94B5
:100F10007C29BC018E01035C1F4FC8010E943A2A44
:100F20008DE0C82ED12CCC0EDD1EC601B8010E946A
:100F3000252ABC01872D962D0E943A2AC8010E94BD
:100F40004A2AC7010E944F2AC6010E944A2AC501A7
:100F50000E944A2AC4010E944A2A872D962DCE5B00
:100F6000DF4F0FB6F894DEBF0FBECDBFCF91DF913C
:100F70001F910F91FF90EF90DF90CF90BF90AF90B7
:100F80009F908F907F906F900895FC0182EC92E08B
:100F900091838083CF010C94622A882319F48CB545
:100FA000806202C08CB58F7D8CBD08959CB5937F07
:100FB000982B9CBD08952CB5382F33702C7F322B85
:100FC0003CBD2DB590E09595879595958795817059
:100FD0002E7F822B8DBD089585E361E00E94752CE4
:100FE00085E361E00E94C22B8CB580618CBD8CB51D
:100FF00080648CBD84E361E00E94C22B83E361E0E6
:101000000C94C22BFF920F931F93CF93DF938B010E
:101010000E94AD2AEB01FF24FA94FEBC0DB407FE3A
:10102000FDCF8EB58F3F11F481E008C00E94AD2A3C
:101030006C1B7D0B6017710780F380E0DF91CF910F
:101040001F910F91FF900895FC01848160E00C9442
:10105000752CFC01848161E00C94752CDC016EBD63
:101060000DB407FEFDCF8EB520E030E0FA01E20FAF
:10107000F31F80818EBD0DB407FEFDCF8EB52F5FAF
:101080003F4F82E02030380789F78FEF8EBD0DB4D7
:1010900007FEFDCF8EB58FEF8EBD0DB407FEFDCFE1
:1010A0008EB58FEF8EBD0DB407FEFDCF8EB51A96AF
:1010B0008C931A978F71853011F481E0089581E146
:1010C00015968C931597CD01C4DF80E00895FF92AB
:1010D0000F931F93CF93DF93EC010E94AD2A8B01F6
:1010E000FF24FA9409C00E94AD2A601B710B6D5257
:1010F000714010F08FE00DC0FEBC0DB407FEFDCFB7
:101100008EB58A878F3F79F38E3F11F481E005C059
:101110008DE08D83CE019DDF80E0DF91CF911F9127
:101120000F91FF900895CF93DF93EC018E81882378
:10113000A9F02F8138854FEF05C04EBD0DB407FED5
:10114000FDCF8EB52F5F3F4FC9010197825092406E
:10115000A0F338872F83CE017CDF1E82DF91CF91F1
:101160000895DF92EF92FF920F931F93CF93DF9337
:10117000EC01D62E79018A01D6DFCE0165DFCE01E2
:101180006CE271E03FDF8D2D80648EBD0DB407FEF3
:10119000FDCF8EB528E130E0D801C701022E04C092
:1011A000B695A795979587950A94D2F78EBD0DB4FD
:1011B00007FEFDCF8EB5285030408FEF283F38070F
:1011C00059F7DD2011F485E906C088E0D81611F43E
:1011D00087E801C08FEF8EBD0DB407FEFDCF8EB541
:1011E00090E02FEF2EBD0DB407FEFDCF8EB587FF2B
:1011F00002C09150B9F78A87DF91CF911F910F916B
:10120000FF90EF90DF900895CF92DF92EF92FF92E0
:101210000F931F93CF93DF93EC017A018B01690148
:10122000411551056105710511F482E133C08B85CB
:10123000833039F099E0EE0CFF1C001F111F9A95C6
:10124000D1F7CE0168E1A80197018BDF882311F067
:1012500084E020C0CE016EEFA60100DF8823D9F024
:10126000CE0168E572E0CEDE882311F485E112C07C
:10127000CE016DE020E030E040E050E072DF8823F6
:1012800041F48FEF8EBD0DB407FEFDCF8EB58823E0
:1012900071F084E18D83CE01DCDE80E0DF91CF91BF
:1012A0001F910F91FF90EF90DF90CF900895CE01A6
:1012B000D0DE81E0F3CF8F929F92AF92BF92CF9218
:1012C000DF92EF92FF920F931F93CF93DF93EC0186
:1012D0005A016B0149010115110509F46CC0C801DF
:1012E000820F931F8150924008F061C08E81882345
:1012F00071F088819981AA81BB81481759076A07D3
:101300007B0729F48F8198858816990600F5A882B5
:10131000B982CA82DB828B85833039F059E0AA0C0E
:10132000BB1CCC1CDD1C5A95D1F7CE0161E1A60196
:10133000950117DF882319F083E08D8338C0CE0133
:10134000C6DE8823A1F118861F8281E08E838F81FB
:1013500098852FEF06C02EBD0DB407FEFDCF3EB51C
:10136000019688159905B8F398878F8320E030E0BF
:101370009FEF0BC09EBD0DB407FEFDCF8EB5F701EC
:10138000E20FF31F80832F5F3F4F2017310790F349
:101390002F813885200F311F38872F838985882337
:1013A00019F02050324038F0CE01BDDE04C0CE012D
:1013B00050DE80E001C081E0DF91CF911F910F915D
:1013C000FF90EF90DF90CF90BF90AF909F908F9065
:1013D0000895EF92FF920F931F93790120E030E080
:1013E00000E012E068DF1F910F91FF90EF900895E9
:1013F0006F927F928F929F92AF92BF92CF92DF9225
:10140000EF92FF920F931F93CF93DF93EC017A013A
:101410008B012D81222309F47FC08B899C89AD89A2
:10142000BE8984179507A607B70708F475C084C05E
:10143000E114F1040105110549F41E821F8218868A
:1014400019861A861B861C861D8664C02A853B85E4
:101450004C855D85EB8DFC8D858590E0099621504E
:1014600030404040504039014A01082E04C0969453
:101470008794779467940A94D2F72F5F3F4F4F4F2A
:101480005F4F0894E108F10801091109570168014B
:1014900004C0D694C794B794A7948A95D2F70894B9
:1014A000E11CF11C011D111DA614B704C804D904C8
:1014B00028F0211531054105510549F48F89988D92
:1014C000A98DBA8D8E839F83A887B98715C0A6186A
:1014D000B708C808D90810C04E815F816885798532
:1014E0008B8D9C8D940195D40894A108B108C108F6
:1014F000D108882331F410C086E0882E912C8C0E00
:101500009D1EA114B104C104D10431F7EA86FB8603
:101510000C871D8781E001C080E0DF91CF911F9192
:101520000F91FF90EF90DF90CF90BF90AF909F9082
:101530008F907F906F900895223009F079CFE6CF99
:10154000CF93DF93EC01462F6E857F85888999893B
:101550008CD3882319F420E030E00AC08A89282F30
:1015600030E095E0220F331F9A95E1F72D593C4F5B
:10157000C901DF91CF9108950F931F93CF93DF930C
:101580008C01FC0185818823C9F1848187FF34C0E7
:10159000C80161E0D5DFEC01009781F1F801858198
:1015A000823040F483899489A589B6898C8F9D8F78
:1015B000AE8FBF8FF8018789908D9B8F8A8F878927
:1015C000908DA18DB28DCD01AA27BB279D8B8C8BD1
:1015D000E0916103F0916203309751F0BE016A5EC1
:1015E0007F4FCE0148961995888D998D9B8B8A8B5C
:1015F000F80184818F778483FFD201C080E0DF917E
:10160000CF911F910F9108952F923F924F925F9229
:101610006F927F928F929F92AF92BF92CF92DF9202
:10162000EF92FF920F931F93CF93DF93EC012A0168
:101630008D81882309F4C4C08C8180FFC1C0D6C0CD
:1016400025014E185F084B0176E0272E312C2C0E19
:101650003D1E3201AFC02A853B854C855D856FEF0D
:10166000A62E61E0B62EA222B3228D8179018A01D5
:1016700099E016950795F794E7949A95D1F7EB8D35
:10168000FC8D823049F4428D538D648D758D4E0DE5
:101690005F1D601F711F3EC0D480DA94DE20A1144C
:1016A000B104D1F4DD20C1F4211531054105510506
:1016B00049F48F89988DA98DBA8D8E839F83A887D1
:1016C000B9870AC04E815F8168857985CF01910114
:1016D000A0D3882309F474C0EB8DFC8D4E815F810B
:1016E000688579854250504060407040058404C050
:1016F000440F551F661F771F0A94D2F7868597857A
:10170000A089B189480F591F6A1F7B1F4D0D511DBC
:10171000611D711D80E092E08A199B0963018615A5
:10172000970508F46C018C8186FD06C080E0C81620
:1017300082E0D80609F072C08091A3029091A402C1
:10174000A091A502B091A602481759076A077B0726
:1017500009F464C080916305909164059501860148
:101760007401A9DD882361F18C0C9D1C12C09501C8
:101770002D593C4FA9014C0D5D1DD401F90102C04A
:1017800081918D93E417F507D9F7E21BF30B8E0EC9
:101790009F1E960140E050E08A859B85AC85BD8503
:1017A000820F931FA41FB51F8A879B87AC87BD87B5
:1017B0006C187D086114710409F04DCFA20102C0BC
:1017C0004FEF5FEFCA01DF91CF911F910F91FF9013
:1017D000EF90DF90CF90BF90AF909F908F907F90D1
:1017E0006F905F904F903F902F900895AB88BC888A
:1017F000CD88DE88EA84FB840C851D859A0140E053
:1018000050E0D601C5018E199F09A00BB10B8217BC
:101810009307A407B50708F413CF15CFCB01BA017E
:1018200040E023D2882309F0A2CFCACFCF93DF9321
:10183000EC019C012A5F3F4F8B8D9C8D41E050E075
:1018400060E070E058D38823A1F08F89988DA98D2E
:10185000BA8D0097A105B10559F48E819F81A885A5
:10186000B9858F8B988FA98FBA8F8C8180688C8374
:1018700081E0DF91CF9108952F923F924F925F9236
:101880007F928F929F92AF92BF92CF92DF92EF9210
:10189000FF920F931F93DF93CF9300D000D0CDB76B
:1018A000DEB76C01162F072F5E834D83DC01159682
:1018B0008C911597813009F069C114968C9181FF44
:1018C00065C187C1F6014389548965897689828516
:1018D0009385A485B58584179507A607B70729F0D2
:1018E000C60186DD882309F451C1812F902F9C0108
:1018F00029012D803E8012C1D6015B96ED91FC91AD
:101900005C97DA01C90119E0B695A7959795879577
:101910001A95D1F774807A9478227FEF872E71E040
:10192000972E82229322772009F04CC081149104D3
:1019300009F048C0D60116964D915D916D917C914C
:101940001997411551056105710581F457968D91DF
:101950009D910D90BC91A02D0097A105B10541F17D
:10196000F60186839783A087B1872CC0CF019E01A3
:101970002F5F3F4F4ED2882309F40FC129813A814E
:101980004B815C81D6015B96ED91FC915C978789D8
:10199000803129F088EF9FEFAFEFBFE004C088EF00
:1019A0009FEFA0E0B0E0281739074A075B0728F04F
:1019B000C6013CDF882331F4E9C0F6012683378372
:1019C0004087518780E092E088199909510182157A
:1019D000930508F45C01D6015B96ED91FC915C9750
:1019E0001696ED90FD900D911C9119978EEF9FEF3B
:1019F000AFEFBFEFE80EF91E0A1F1B1F058404C0DE
:101A0000EE0CFF1C001F111F0A94D2F786859785E4
:101A1000A089B189E80EF91E0A1F1B1FE70CF11CF3
:101A2000011D111D90E0A91692E0B90649F58091BB
:101A3000A3029091A402A091A502B091A6028E15D6
:101A40009F05A007B10761F48FEF9FEFAFEFBFEFE6
:101A50008093A3029093A402A093A502B093A60240
:101A60008091630590916405B801A7019201CCDBD8
:101A7000882309F48BC0A0E0B2E04A0E5B1E3CC094
:101A80008114910401F5F60122853385448555853D
:101A900083899489A589B689281739074A075B077E
:101AA00090F0AAD0882309F471C0E092A302F092CA
:101AB000A4020093A5021093A6028091650581609F
:101AC0008093650507C0C801B70141E0CED08823E7
:101AD00009F45CC094012D593C4FA9014A0D5B1DCE
:101AE000F901D20102C08D918193E417F507D9F76E
:101AF000E21BF30B4E0E5F1E2A183B08950140E0D7
:101B000050E0F60182859385A485B585820F931FE9
:101B1000A41FB51F82879387A487B587D6011A961D
:101B20002D913D914D915C911D972114310409F047
:101B3000E3CE53968D919D910D90BC91A02D82176F
:101B40009307A407B50748F4F601238B348B458B24
:101B5000568B84818068848311C080916103909149
:101B60006203892B59F08D819E81892B39F0D60132
:101B700014968C911497806814968C93F601848146
:101B800083FF0DC0C601F8DC882349F481E090E0B2
:101B9000D60113969C938E9312971E821D828D817F
:101BA0009E8126960FB6F894DEBF0FBECDBFCF91B3
:101BB000DF911F910F91FF90EF90DF90CF90BF903A
:101BC000AF909F908F907F905F904F903F902F901D
:101BD000089582FD77CE89CEDF93CF930F92CDB754
:101BE000DEB76983BE016F5F7F4F41E050E044DEA6
:101BF0000F90CF91DF91089580916505882389F139
:101C00004091A3025091A4026091A5027091A60296
:101C1000809163059091640523E633E0F5DA88232B
:101C200011F14091660550916705609168057091CA
:101C30006905411551056105710589F080916305BC
:101C40009091640523E633E0DFDA882361F0109297
:101C5000660510926705109268051092690510924A
:101C6000650581E0089580E00895DF92EF92FF928C
:101C70000F931F937B018C01D42E8091A30290912E
:101C8000A402A091A502B091A6028E159F05A007FF
:101C9000B107B1F0B1DF8823D1F080916305909155
:101CA0006405B801A70123E633E093DB882379F0CC
:101CB000E092A302F092A4020093A5021093A60260
:101CC000809165058D298093650581E001C080E0E4
:101CD0001F910F91FF90EF90DF9008954F925F92C8
:101CE0006F927F928F929F92AF92BF92CF92DF922C
:101CF000EF92FF920F931F93CF93DF93EC016A0152
:101D00007B0128013901423051056105710508F454
:101D10006EC089859A85AB85BC850196A11DB11DD4
:101D200084179507A607B70708F461C02B893C897B
:101D30004D895E898F89803129F499278F2D7E2DD9
:101D40006D2D09C0C701B60117E096958795779567
:101D500067951A95D1F74B015C01820E931EA41E64
:101D6000B51E8091A3029091A402A091A502B0910A
:101D7000A60288169906AA06BB0631F0C501B40171
:101D800040E073DF882399F18F89803149F4F601AF
:101D9000F070EE0FFF1FED59FC4F518240820DC0D5
:101DA000F601EF77F070EE0FFF1FEE0FFF1FED59FA
:101DB000FC4F40825182628273828091650581600E
:101DC000809365058A89823080F08D819E81AF8104
:101DD000B885880E991EAA1EBB1E80926605909239
:101DE0006705A0926805B092690581E001C080E0B6
:101DF000DF91CF911F910F91FF90EF90DF90CF90E7
:101E0000BF90AF909F908F907F906F905F904F901A
:101E10000895CF92DF92EF92FF920F931F93CF938B
:101E2000DF93EC017A018B01690189859A85AB8585
:101E3000BC850196A11DB11D84179507A607B7079C
:101E400008F44FC02B893C894D895E898F89803188
:101E500029F49927812F702F6F2D09C0C801B70170
:101E6000E7E09695879577956795EA95D1F7260FE0
:101E7000371F481F591F8091A3029091A402A0917F
:101E8000A502B091A602281739074A075B0731F06F
:101E9000CA01B90140E0E9DE882319F18F89803158
:101EA00059F4F701F070EE0FFF1FED59FC4F8081E0
:101EB0009181A0E0B0E00EC0F701EF77F070EE0F77
:101EC000FF1FEE0FFF1FED59FC4F80819181A28112
:101ED000B381BF70F60180839183A283B38381E0D5
:101EE00001C080E0DF91CF911F910F91FF90EF90A3
:101EF000DF90CF9008952F923F924F925F926F9212
:101F00007F928F929F92AF92BF92CF92DF92EF9289
:101F1000FF920F931F93DF93CF93CDB7DEB72F9729
:101F20000FB6F894DEBF0FBECDBF1C014A875B879A
:101F30006C877D873F872E87D9010D911D912D914B
:101F40003C91011511052105310549F04801590160
:101F50000894811C911CA11CB11C198610C0FC01A5
:101F600080809180A280B38019868A859B85AC850C
:101F7000BD850197A105B10511F491E09987D101C3
:101F800019968D919D910D90BC91A02D0196A11D4A
:101F9000B11D8D839E83AF83B8877501640144248E
:101FA000552432018E010F5F1F4FF101818592850B
:101FB000A385B485481659066A067B0608F08CC0CE
:101FC0008D819E81AF81B8858C159D05AE05BF05BD
:101FD00050F482E0882E912CA12CB12CB2E0CB2EB3
:101FE000D12CE12CF12CC101B701A601980111DF20
:101FF000882309F471C089819A81AB81BC81A701D2
:1020000096012F5F3F4F4F4F5F4F0097A105B105DE
:1020100019F049015A010DC0281939094A095B090B
:102020008A859B85AC85BD85281739074A075B07DC
:1020300059F00894411C511C611C711C0894C11C6E
:10204000D11CE11CF11CB1CFC101A601B7010FEFFA
:102050001FEF2FEF3FE042DE882391F43DC02601C1
:10206000370108944108510861087108C101B301A2
:10207000A2019701860132DE882371F173016201AA
:102080008C149D04AE04BF0450F3AE85BF854D9102
:102090005D916D917C91411551056105710531F09E
:1020A000C101950184011ADE8823B1F0EE85FF8518
:1020B00080829182A282B382F985FF2359F008942D
:1020C000811C911CA11CB11CD1018D929D92AD92DD
:1020D000BC92139781E001C080E02F960FB6F89470
:1020E000DEBF0FBECDBFCF91DF911F910F91FF904B
:1020F000EF90DF90CF90BF90AF909F908F907F90A8
:102100006F905F904F903F902F900895FC01138245
:10211000128288EE93E0A0E0B0E084839583A683EA
:10212000B78382ED92E091838083128E118E1486A4
:102130000895DF93CF930F92CDB7DEB7FC0169838B
:10214000A081B18112962D913C911397BE016F5FD2
:102150007F4F41E050E0F90119950F90CF91DF9149
:102160000895DC015996ED91FC915A97309719F436
:1021700020E030E018C0238934894589568982855A
:102180009385A485B585281B390B4A0B5B0B203042
:10219000B0E83B07B0E04B07B0E05B0720F02FEF63
:1021A0003FE740E050E0C9010895FC01818D928D28
:1021B000009709F0E1C90895DF93CF930F92CDB74F
:1021C000DEB7FC01818D928D009741F0BE016F5FFB
:1021D0007F4F41E050E018DA019719F02FEF3FEF01
:1021E00003C08981282F30E0C9010F90CF91DF9182
:1021F0000895EF92FF920F931F93DF93CF930F9267
:10220000CDB7DEB77C01DC0159968D919C915A9730
:10221000009719F400E010E01DC0BE016F5F7F4F12
:1022200041E050E0F1D9019719F00FEF1FEF12C014
:102230008981082F10E0D7015996ED91FC915A97AA
:10224000428553856485758541505040604070409B
:10225000CF01CED8C8010F90CF91DF911F910F9180
:10226000FF90EF900895CF93DF93EC01E98DFA8D05
:10227000309759F013821282CF01FEDA9C01E98D6A
:10228000FA8D82819381892B31F081E090E09B83EC
:102290008A8320E030E0C901DF91CF910895109248
:1022A0006F0510927005109273051092750582E00B
:1022B00090E0A0E0B0E08093760590937705A0933E
:1022C0007805B093790510928D05109297051092BC
:1022D00096058AEC92E09093950580939405109270
:1022E00099050895F999FECF72BD61BDF89A80B540
:1022F0000895F999FECF1FBA72BD61BD40BD0FB6FA
:10230000F894FA9AF99A0FBE08950F931F938C01CF
:10231000822FF80171836083538342832483358342
:1023200060E00E94752CF801808161E00E94752CAC
:1023300084E090E00E94BB2A1F910F910895FC0158
:10234000808160E00E94752C84E090E00C94BB2AB0
:102350001F93FC01862F122F60834183228361E04B
:102360000E94C22B812F61E00E94C22B1F91089511
:10237000FF920F931F93CF93DF938C01FC01818118
:1023800060E00E94C22BFF24C0E0D0E0F801818110
:102390000E94A72C90E00C2E02C0880F991F0A946F
:1023A000E2F7F82AF801828161E00E94752CF801B9
:1023B000828160E00E94752C2196C830D10531F7EA
:1023C0008F2DDF91CF911F910F91FF900895FF9274
:1023D0000F931F938C01F62EFC01818161E00E9416
:1023E000C22BF8018181628140E02F2D0E94D62C02
:1023F0001F910F91FF900895CF92DF92EF92FF927D
:102400000F931F93DF93CF9300D000D0CDB7DEB7EB
:102410008C017B016E010894C11CD11CFB01608101
:1024200041812281C60170E050E030E06EDF83E33D
:1024300098E0F8019087878381E084838383128208
:102440001182108281E090E096838583C7016FEB53
:10245000BEDFC7018DDF282F2F7722952F7030E048
:10246000A901E3E0440F551FEA95E1F7220F331F5E
:10247000420F531F8F70840FF8018083C70178DFEC
:10248000282F22952F7030E0A90163E0440F551FDB
:102490006A95E1F7220F331F420F531F8F70840F8D
:1024A000F8018183C70164DF482F282F30E087FFC0
:1024B00010C020723070B5E035952795BA95E1F7D8
:1024C000C901880F991F820F931F282F220F220FF7
:1024D00011C0C90180739070F4E095958795FA95C5
:1024E000E1F79C01E3E0220F331FEA95E1F7880F43
:1024F000991F280F4F70240FF8012283C70138DF7E
:10250000282F22952F7030E0A90163E0440F551F5A
:102510006A95E1F7220F331F420F531F8F70840F0C
:10252000F8018383C70124DF282F22952F7030E024
:10253000A901B3E0440F551FBA95E1F7220F331FED
:10254000420F531F8F70840FF8018483C70110DF7F
:10255000282F22952F7030E0A901F3E0440F551F7A
:10256000FA95E1F7220F331F420F531F8F70840F2C
:10257000F80185831682C701FBDE282F22952F7074
:1025800030E0A90173E0440F551F7A95E1F7220F5F
:10259000331F420F531F8F70840F90E08053984F6A
:1025A000F80190878783C601CADEC80126960FB658
:1025B000F894DEBF0FBECDBFCF91DF911F910F9179
:1025C000FF90EF90DF90CF900895DC0159968C91A9
:1025D0005997882329F06EBD0DB407FEFDCF0895ED
:1025E00030E840E050E070E0832F90E086239723AE
:1025F0005A96ED91FC915B979A962C919A97892B1C
:1026000021F08081822B808304C080812095282343
:1026100020835C96ED91FC915D9780819B969C91C7
:102620009B97892B80835C96ED91FC915D979081BF
:102630009B968C919B9780958923808336954F5FDD
:102640005F4F4830510581F608950F931F938C0119
:10265000DC015E96ED91FC915F9790819D968C9147
:102660009D978095892380835C96ED91FC915D9781
:1026700090819B968C919B978095892380839296DD
:10268000ED91FC91939790819C968C9180958923F4
:102690008083C8019ADFD8019296ED91FC919397BF
:1026A00080819C969C91892B80831F910F91089526
:1026B0000F931F938C01DC015E96ED91FC915F9767
:1026C00080819D969C919D97892B80835C96ED914E
:1026D000FC915D9790819B968C919B978095892327
:1026E00080839296ED91FC91939790819C968C912A
:1026F000809589238083C80168DFD8019296ED9187
:10270000FC91939780819C969C91892B80831F914B
:102710000F9108958F929F92AF92BF92CF92DF92C6
:10272000EF92FF920F931F937C01B62ED72E4A0192
:10273000A22EC32E6AE289DFC7016D2DB9DFC70162
:102740006B2DB6DFC7016C2DB3DFC7016A2DB0DF7B
:10275000C7016BE27ADFC701692DAADFC701682DC7
:10276000A7DFC701612FA4DFC701602FA1DFC70169
:102770006CE26BDF1F910F91FF90EF90DF90CF9095
:10278000BF90AF909F908F900895EF92FF920F931C
:102790001F93CF93DF93EC01FB018A01790177FD51
:1027A0002BC0888599856817790734F557FD24C0B3
:1027B0008A859B8548175907FCF4CE0131969F0105
:1027C0000F5F1F4FA7DFEE8DFF8D80819DA5892BA9
:1027D0008083EAA1FBA190818CA5809589238083C9
:1027E000CE016F2DF2DECE016E2DEFDEEAA1FBA150
:1027F00080819CA5892B8083DF91CF911F910F91C0
:10280000FF90EF900895CF92DF92EF92FF920F9397
:102810001F93CF93DF93EC01FB0179016801888559
:10282000998568177907CCF52A853B8542175307A8
:10283000A4F5C701840F951F281739071CF47901E7
:10284000E41AF50A8A01015010400E0D1F1DCE0139
:10285000BF019F015FDFEE8DFF8D80819DA5892BDC
:102860008083EAA1FBA190818CA580958923808338
:1028700006C0CE016D2DA9DECE016C2DA6DE08941A
:10288000E108F1088FEFE8168FEFF80691F7EAA15B
:10289000FBA180819CA5892B8083DF91CF911F9123
:1028A0000F91FF90EF90DF90CF900895CF92DF923D
:1028B000EF92FF920F931F93CF93DF93EC01FA01F6
:1028C000790168012885398562177307CCF58A85F7
:1028D0009B8548175907A4F5C701860F971F28172E
:1028E00039071CF47901E61AF70A9B0121503040A0
:1028F0002E0D3F1DCE01AF018F010CDFEE8DFF8D40
:1029000080819DA5892B8083EAA1FBA190818CA564
:1029100080958923808306C0CE016D2D56DECE01C1
:102920006C2D53DE0894E108F1088FEFE8168FEF65
:10293000F80691F7EAA1FBA180819CA5892B8083F1
:10294000DF91CF911F910F91FF90EF90DF90CF908B
:102950000895EF92FF920F931F93FC017B01A081DA
:10296000B18120853185028513851E960D90BC911D
:10297000A02D60E070E040E050E0FD0119951F914E
:102980000F91FF90EF900895AF92BF92CF92DF9298
:10299000EF92FF920F931F93CF93DF936C01590136
:1029A000E801DC0118962D913C9119976217730785
:1029B0000CF058C01A96ED91FC911B974E175F07CB
:1029C0000CF050C0C501860F971F281739071CF45B
:1029D0005901A61AB70ACE01840F951FE817F90707
:1029E0001CF4EF01C41BD50B9B01215030402A0D74
:1029F0003B1D8A01015010400C0F1D1FC6018ADECD
:102A0000D6015E96ED91FC915F9780819D969C9199
:102A10009D97892B80839296ED91FC91939790815D
:102A20009C968C918095892380838E010CC0C60171
:102A30006F2DCBDDC6016E2DC8DD21971C161D063E
:102A4000B4F3015010401016110614F4E501F6CF4E
:102A5000D6019296ED91FC91939780819C969C91E2
:102A6000892B8083DF91CF911F910F91FF90EF9081
:102A7000DF90CF90BF90AF9008951F93CF93DF93D7
:102A8000EC01162F66E3E1DD13701D8B113051F060
:102A9000113028F0123049F01330E1F410C0CE01AB
:102AA00068E405C0CE0168E20CC0CE0168E800DE33
:102AB00080EF90E09987888780E491E009C0CE019B
:102AC00068EEF6DD80E491E09987888780EF90E0FA
:102AD0009B878A87DF91CF911F910895662311F418
:102AE00060E201C061E2B1CDCF93DF93EC018EA132
:102AF00061E00E94C22B8EA160E00E94752C8DA126
:102B000061E00E94C22B8CA161E00E94C22BECA16B
:102B10004E2F50E0FA01EE5CF94FE491F0E0EE0F39
:102B2000FF1FE250FA4F859194919BA38AA3EDA1D8
:102B30002E2F30E0F901EE5CF94FE491F0E0EE0F5A
:102B4000FF1FE250FA4F859194919F8F8E8F4858C6
:102B5000594FFA0184918CA72858394FF901849173
:102B60008DA7898D882361F00E94EC0784E00E9484
:102B7000DB0781E00E94CD0780E00E94D60741C0BC
:102B800089A561E00E94C22B8FA161E00E94C22B47
:102B900088A560E00E94C22BE9A54E2F50E0FA0103
:102BA000EE5CF94FE491F0E0EE0FFF1FE250FA4FB8
:102BB000A591B491BD8FAC8FEFA12E2F30E0F9011C
:102BC000EE5CF94FE491F0E0EE0FFF1FE250FA4F98
:102BD000859194919B8F8A8F4858594FFA0194910F
:102BE0009BA72858394FF90184918AA78C91909519
:102BF00098239C93EA8DFB8D90818AA580958923EB
:102C000080838EA161E00E94752C65E070E080E019
:102C100090E00E94272B8EA160E00E94752C64E159
:102C200070E080E090E00E94272B8EA161E00E947E
:102C3000752C66E970E080E090E00E94272BCE01C1
:102C40006FEE03DDCE0163E033DDCE0160E830DD01
:102C5000CE0162E02DDDCE016FECF7DCCE0160E04D
:102C600027DDCE0161EC24DDCE0160E321DDCE0164
:102C70006DEEEBDCCE0164E61BDDCE0163E018DD1A
:102C8000CE0162E115DDCE0161E812DDCE0168EE14
:102C9000DCDCCE0165E80CDDCE0160E009DDCE01B3
:102CA00068E706DDCE016BECD0DCCE0169E300DD28
:102CB000CE016CE2FDDCCE0160E0FADCCE0164E323
:102CC000F7DCCE0162E0F4DCCE0167EFBEDCCE01C2
:102CD00060E2EEDCCE016AEEB8DCCE0160E0E8DC5A
:102CE000CE0160E0E5DCCE0160ECAFDCCE0163E25A
:102CF000DFDCCE0161ECA9DCCE0160E1D9DCCE01E4
:102D000065ECA3DCCE016EE3D3DCCE0168E2D0DC5F
:102D1000CE0167EC9ADCCE0166E8CADCCE0166E340
:102D200094DCCE0168E4C4DCCE016AE38EDCCE0123
:102D300065E5BEDCCE0161EB88DCCE0160E0B8DC8D
:102D4000CE0168E1B5DCCE0166EB7FDCCE0168E048
:102D5000AFDCCE0162E8ACDCCE0167E2A9DCCE01DB
:102D600062EF73DCCE0160E0A3DCCE0166E26DDCD5
:102D7000CE0161E09DDCCE0160EE67DCCE016FE04C
:102D800097DCCE0161E394DCCE016BE291DCCE01F5
:102D90006CE08EDCCE016EE08BDCCE0168E088DC7E
:102DA000CE016EE485DCCE0161EF82DCCE0167E30B
:102DB0007FDCCE0167E07CDCCE0160E179DCCE0116
:102DC00063E076DCCE016EE073DCCE0169E070DC9E
:102DD000CE0160E06DDCCE0161EE37DCCE0160E05B
:102DE00067DCCE016EE064DCCE0164E161DCCE0123
:102DF00063E05EDCCE0161E15BDCCE0167E058DCC4
:102E0000CE0161E355DCCE0161EC52DCCE0168E419
:102E10004FDCCE0168E04CDCCE016FE049DCCE0136
:102E20006CE046DCCE0161E343DCCE0166E340DCCE
:102E3000CE016FE03DDCCE0161E107DC68E770E0C8
:102E400080E090E00E94272BCE0169E2FEDBDF915B
:102E5000CF910895DF92EF92FF920F931F938C0111
:102E6000F62EE42ED22E60EF70E040E451E012D056
:102E700082EE92E0F80191838083F4A2E5A2D6A2CB
:102E800081E0818F11A617A21F910F91FF90EF9003
:102E9000DF900895FC01138212828AEF92E0918301
:102EA00080837583648357834683718760875387E4
:102EB0004287158A158614861786168621E0248B8C
:102EC0008FEF9FEF938B828B918B808B268B178A52
:102ED00008952F923F924F925F926F927F928F92BE
:102EE0009F92AF92BF92CF92DF92EF92FF920F9399
:102EF0001F93DF93CF9300D00F92CDB7DEB73C0185
:102F00007C836B836A015901FA82E982222433248B
:102F10009801241B350B37FF03C0309521953F4F97
:102F2000C5014B815C81841B950B97FF03C0909575
:102F300081959F4F821793075CF481E0282E312CF6
:102F4000C601CB80DC809C838B83C80185015C013A
:102F50008B819C81A816B90644F4C501AB80BC8066
:102F60009C838B83C80186016C012501AB81BC81E8
:102F70004A1A5B0A7801EC18FD08F7FE04C0F094C9
:102F8000E194F108F394C016D10624F088248A94C1
:102F9000982C03C0B1E08B2E912CC20162E070E04E
:102FA0000E942A2E8B0125C0D301ED91FC912114A2
:102FB000310441F00480F581E02DC301B6014B815D
:102FC0005C8107C00480F581E02DC3016B817C81A9
:102FD000A60129813A8119950E191F0917FF04C00E
:102FE000C80CD91C040D151DEB81FC813196FC83A6
:102FF000EB834B815C81A416B506B4F60F900F905D
:103000000F900F90CF91DF911F910F91FF90EF9054
:10301000DF90CF90BF90AF909F908F907F906F90F8
:103020005F904F903F902F9008954F925F926F92D4
:103030007F928F929F92AF92BF92CF92DF92EF9248
:10304000FF920F931F936C015B014A013901280124
:10305000DC01ED91FC910284F385E02D8701199547
:10306000D601ED91FC91A40141505040440D551DF5
:103070000284F385E02DC601B50193011995D601AF
:10308000ED91FC910084F185E02DC601B501A4010C
:1030900092011995D601ED91FC910894A108B1080F
:1030A000A60CB71C0084F185E02DC601B501A40172
:1030B000920119951F910F91FF90EF90DF90CF90A3
:1030C000BF90AF909F908F907F906F905F904F9048
:1030D0000895CF92DF92EF92FF920F931F93DC013E
:1030E0006B017801ED91FC918A0101501040020FB3
:1030F000131F0680F781E02D960119951F910F91FE
:10310000FF90EF90DF90CF900895CF92DF92EF92F3
:10311000FF920F931F93DC016A01C9017801ED91C1
:10312000FC9111979B0121503040280F391F0680D8
:10313000F781E02DCD01860119951F910F91FF9028
:10314000EF90DF90CF9008956F927F928F929F9231
:10315000AF92BF92CF92DF92EF92FF920F931F93A5
:10316000CF93DF935C013A0169014801EB01C60E80
:10317000D71E0DC0D501ED91FC910084F185E02DA5
:10318000C501BE01A3019401870119952196CC15B3
:10319000DD0584F3DF91CF911F910F91FF90EF90A8
:1031A000DF90CF90BF90AF909F908F907F906F9067
:1031B0000895EF92FF920F931F93FC017B01A08172
:1031C000B18120853185028513851E960D90BC91B5
:1031D000A02D60E070E040E050E0FD0119951F91E6
:1031E0000F91FF90EF9008952F923F924F925F9230
:1031F0006F927F928F929F92AF92BF92CF92DF9207
:10320000EF92FF920F931F93DF93CF93CDB7DEB76B
:103210002F970FB6F894DEBF0FBECDBF5C015E8363
:103220004D8318870F83FA86E986CB86DC011896D2
:103230008D919C911997681779070CF0ABC01A967D
:103240008D919C911B97481759070CF0A3C0EC2D4A
:10325000F0E0FF87EE87CF01880F991F8E0F9F1F29
:10326000880F991F860F971F181619060CF092C029
:10327000CF0103E0880F991F0A95E1F7840F951F8E
:10328000181619060CF086C057968C91882319F4ED
:10329000203B08F02F5F85E0289FA00111245A836E
:1032A00049832B011B011C825C81553011F480E0A5
:1032B00005C0E981FA81EC51FF4F84912C863D864F
:1032C0006D807E8043011B82C82EDD2480FF1CC0E0
:1032D000D501ED91FC91BB85B13049F40480F581B5
:1032E000E02DC501B201A4012F81388522C00684DA
:1032F000F785E02DC5016C857D85A3012E853F8571
:103300008901EF80F88423C0E985FA852F8138850B
:10331000E217F307E9F0D501ED91FC91BB85B130DF
:1033200051F40480F581E02DC501B201A401298585
:103330003A8519950DC00684F785E02DC5016C8589
:103340007D85A3012E853F858901E984FA8419953D
:10335000EB81EF5FEB832E853F85620E731E089431
:10336000811C911CE83021F0D594C7948C2DACCFF2
:103370003C813F5F3C834E855F85240E351E08945B
:10338000411C511C89819A8101969A838983363028
:1033900009F08ACF2F960FB6F894DEBF0FBECDBFCF
:1033A000CF91DF911F910F91FF90EF90DF90CF9021
:1033B000BF90AF909F908F907F906F905F904F9055
:1033C0003F902F900895CF92EF92FF920F931F930B
:1033D000CF93DF93EC01262F6A3061F42C8930E023
:1033E00083E0220F331F8A95E1F78E859F85820F38
:1033F000931F36C06D30C1F16C857D854E855F852C
:1034000008891989EA88FB88CC88EEDE2C8986E059
:10341000289FB00111248C859D85680F791F7D87B9
:103420006C878E89882301F1422F50E08AEF9FEF4D
:103430009C01429FC001439F900D529F900D11240B
:1034400028853985820F931F861797076CF403E050
:10345000440F551F0A95E1F78E859F85840F951FB0
:103460009F878E871D861C8681E090E0DF91CF913B
:103470001F910F91FF90EF90CF900895FC017587F9
:103480006487578746870895FC01662309F461E045
:10349000648B0895FC01738B628B718B608B089534
:1034A0000895FC0182E193E0918380830895FC01FB
:1034B00082E193E0918380830895DF93CF930F920D
:1034C0000F92CDB7DEB77A83698389819A81892B80
:1034D00019F482E090E014C089819A81019719F46F
:1034E00083E090E00DC089819A81029719F41A82D5
:1034F000198208C089819A81039721F481E090E0C4
:103500009A83898329813A81C9010F900F90CF91C5
:10351000DF910895DF93CF930F92CDB7DEB7698324
:103520008091B4058091B4050F90CF91DF910895FB
:103530008130910571F46F5F7F4FD9F487EB95E08F
:103540004FD189EB95E00E94B3058BEB95E00C948D
:103550003005892B71F46F5F7F4F59F48BEB95E049
:103560000E94360589EB95E00E94B90587EB95E04E
:103570003DC1089580E090E06FEF7FEFD9CF81E00B
:1035800090E06FEF7FEFD4CF0F931F93DF93CF9334
:103590000F92CDB7DEB76983898191E0892789834E
:1035A00089818823F9F487EB95E064EB70E04CEDBA
:1035B00050E020E530E00EE110E034D387EB95E0F9
:1035C0006AE47BE040E050E02AE030E004E110E013
:1035D00029D38BEB95E00E94A505BC0187EB95E014
:1035E0000BD104C089EB95E00E94320689810F90CF
:1035F000CF91DF911F910F9108950F931F93DF9348
:10360000CF930F92CDB7DEB769838981882379F490
:1036100087EB95E062E370E044E150E020E530E0C4
:103620000EE110E0FFD289EB95E00E94320689811D
:1036300091E08927898389810F90CF91DF911F9134
:103640000F9108950F931F93DF93CF930F920F92D3
:10365000CDB7DEB77A83698389819A81892B29F472
:1036600081E090E09A83898369C089819A8101977A
:1036700019F41A82198262C089819A81029771F5C0
:103680008BEB95E00E948F05835C9140A8F487EB5B
:1036900095E06AE070E046E450E02AE530E008E2B8
:1036A00010E0C0D28BEB95E00E948F05BC01625EFA
:1036B0007F4F8BEB95E00FC087EB95E06AE070E001
:1036C00046E450E02AE530E008E210E0ABD28BEBB4
:1036D00095E064EB70E00E94620530C089819A81B8
:1036E000039761F58BEB95E00E94A5050597A8F47B
:1036F00087EB95E06AEA70E046E450E023E230E0D0
:1037000008E210E08FD28BEB95E00E94A505BC018A
:103710006F5F7F4F8BEB95E00FC087EB95E06AEA18
:1037200070E046E450E023E230E008E210E07AD2B4
:103730008BEB95E061E070E00E94880529813A8179
:10374000C9010F900F90CF91DF911F910F910895B4
:103750008091A70260E00E94C22B8091A90260E0E4
:103760000E94C22B8091AB0260E00E94C22B80912C
:10377000A7020E94A72C892B31F087EB95E0C1D1DD
:1037800081E090E00BC08091A9020E94A72C892BB8
:1037900051F087EB95E061D082E090E09093B60520
:1037A0008093B50510C08091AB020E94A72C892B95
:1037B00031F087EB95E07FD083E090E0EFCF10927F
:1037C000B6051092B5058091B5059091B60508959E
:1037D000FC0182E193E091838083CF010C94622A03
:1037E000FC018AE193E0918380830895FC018AE1E2
:1037F00093E09183808308957093C0056093BF0523
:1038000008958130910589F46F5F7F4FD9F481EC81
:1038100095E06AE049E028E01DDB8FEE95E00E942C
:10382000B30581EF95E00C943005892B59F46F5F57
:103830007F4F41F481EF95E00E9436058FEE95E0D1
:103840000C94B905089580E090E06FEF7FEFD9CF39
:1038500081E090E06FEF7FEFD4CF0F931F9301ECE7
:1038600015E0C80161E010DEC80160E070E04CE3E3
:1038700050E004DEC80165E072E00E949826C801AD
:1038800060E070E040E550E0F9DDC8016CE072E016
:103890000E949826C80162E0F7DDC80160E070E090
:1038A0004CED50E0EBDDC80163E172E00E94982628
:1038B0001F910F910895EF92FF920F931F9301ECC8
:1038C00015E0C8016FEF7FEFE5DDC80161E0DCDDE9
:1038D000C8016AE070E04CE350E0D0DDC80169E166
:1038E00072E00E949826C8016AEA70E04CE350E05A
:1038F000C5DDC80167E272E00E949826C80165E054
:10390000C3DDC8016AE070E046E450E0B7DD81EF56
:10391000E82E85E0F82EC7010E948F05BC01C80182
:103920004AE050E00E947B26C80164E670E046E46D
:1039300050E0A4DDC80167E372E00E949826C80148
:103940006AEA70E046E450E099DDC7010E94A505EF
:10395000BC01C8014AE050E00E947B26C8016DEC22
:1039600070E046E450E08ADDC80169E372E00E943D
:1039700098261F910F91FF90EF9008954F925F92BC
:103980006F927F928F929F92AF92BF92CF92DF926F
:10399000EF92FF920F931F93490138015E2C4F2C39
:1039A000F89491ECA92E95E0B92EC5012E2D3F2D4E
:1039B0008601EE24FF2439DBC501B401A301252DC6
:1039C000342DEE24EA94FE2C30DB78941F910F9175
:1039D000FF90EF90DF90CF90BF90AF909F908F902F
:1039E0007F906F905F904F900895CF92DF92EF920B
:1039F000FF920F931F938C01FB010190F081E02D4A
:103A0000E130F10519F1E130F10538F0E230F1056E
:103A1000B1F1339709F06EC050C08EE096E06DE3CF
:103A200072E00E949826F894C80165EA70E047E3C6
:103A300050E025E030E007E310E0BCE8EB2EF12C8D
:103A4000ACE3CA2ED12C9ADF789454C08EE096E075
:103A500064E472E00E949826F894C80165E070E082
:103A600047E350E025EA30E007E310E0FCE8EF2E02
:103A7000F12CECE3CE2ED12C81DF78943BC0F8946E
:103A800081EC95E065E000DD81EC95E06FEF7FEF84
:103A900001DD81EC95E06AE070E046E450E0EEDCA8
:103AA00081EF95E00E948F05BC0181EC95E04AE032
:103AB00050E00E947B2678941DC0F89481EC95E03C
:103AC00065E0E2DC81EC95E06FEF7FEFE3DC81EC19
:103AD00095E06AEA70E046E450E0D0DC81EF95E0E2
:103AE0000E94A505BC0181EC95E04AE050E00E94EF
:103AF0007B2678941F910F91FF90EF90DF90CF90ED
:103B00000895EF92FF920F931F9301EF15E0C80104
:103B10000E94A5057C01C8010E94A5059093C005DF
:103B20008093BF058091AD0260E00E94C22B01EC42
:103B300015E0C8016FEF7FEFADDCC80162E0A4DCE7
:103B4000C80160E070E040E050E098DCC8016BE440
:103B500072E00E949826C80166E970E040E050E0FB
:103B60008DDCC80160E572E00E949826C80162E21F
:103B700071E040E050E082DCC8016CE572E00E9438
:103B80009626C801B7014AE050E00E946B26C801A2
:103B900061E07ADCC80160E070E04CE350E06EDC8C
:103BA000C80165E072E00E949826C80160E070E0FC
:103BB00040E550E063DCC8016CE072E00E949826AA
:103BC000C80162E061DCC80160E070E04CED50E0EB
:103BD00055DCC8016EE572E00E9498261F910F9196
:103BE000FF90EF900895EF92FF920F931F937B0148
:103BF00001EC15E0C8016FEF7FEF4CDCC80162E01B
:103C000043DCC80168E171E040E050E037DCC80106
:103C1000B7014AE050E00E946B261F910F91FF9080
:103C2000EF900895EF92FF920F931F9381EC95E030
:103C3000EE24FF240E94C4141F910F91FF90EF9077
:103C400008950F931F9301EC15E0C8010E947415AD
:103C5000C80163E00E943D15C80160E070E00E9469
:103C6000A9141F910F9108950F931F938091AD0296
:103C700060E00E94C22B01EC15E0C80160E070E03A
:103C800009DCC8016CE000DCC8016BE470E04CE3C7
:103C900050E0F4DB6091BD057091BE05C8014AE0BB
:103CA00050E00E946B268091AD020E948E2B909373
:103CB000BE058093BD05C8016FEF7FEFEBDBC80148
:103CC0006CE0E2DBC8016BE470E04CE350E0D6DB73
:103CD0006091BD057091BE05C8014AE050E0FBD778
:103CE0001F910F910895AF92BF92CF92DF92EF9202
:103CF000FF920F931F935B0111ECC12E15E0D12EA3
:103D0000C60162E370E04CED50E020E530E004E1F4
:103D100010E0EE24FF240E94C414C6016FEF7FEF71
:103D2000B9DBC60162E0B0DBC60162E370E04CEDD6
:103D300050E0A4DBC601B5010E94A9261F910F9196
:103D4000FF90EF90DF90CF90BF90AF900895CF920B
:103D5000DF92EF92FF920F931F93DF93CF9300D0E8
:103D600000D0CDB7DEB78C016B017E010894E11C59
:103D7000F11C11C08FEE95E00E94DB05C7016FEECC
:103D800075E00E94CC06C801B701ADDFC7010E94F3
:103D90004A2AC80169DFF6018081882359F78081AA
:103DA000882321F48FEE95E00E94C505C80166E4E2
:103DB00070E047E350E02CED30E006E910E032DF40
:103DC00026960FB6F894DEBF0FBECDBFCF91DF9120
:103DD0001F910F91FF90EF90DF90CF900895AF92D9
:103DE000BF92CF92DF92EF92FF920F931F935B01EE
:103DF00001ECC02E05E0D02EC60164EB70E04CED66
:103E000050E020E530E004E110E0EE24FF240E94C1
:103E1000C414C6016FEF7FEF3DDBC60162E034DB07
:103E2000C60164EB70E04CED50E028DBC601B50143
:103E300090D71F910F91FF90EF90DF90CF90BF90A0
:103E4000AF9008958F929F92AF92BF92CF92DF92E0
:103E5000EF92FF920F931F93DF93CF93CDB7DEB70F
:103E600062970FB6F894DEBF0FBECDBF7C016B0129
:103E70004E010894811C911C87E0A82EB12CAC0E39
:103E8000BD1E4FC081EF95E00E948F05BC018FEEF3
:103E900095E00E945906C4016FEE75E00E94CC06C1
:103EA000C701E2DE6091BF057091C005C7019BDECE
:103EB000C501B4010E943A2AC701B50190DFC501CE
:103EC0000E944A2AC4010E944A2A26C0C70168E10A
:103ED00071E040E050E02AE030E004E110E0A2DED2
:103EE0008091BF059091C005892B29F48FEE95E054
:103EF0000E94C50511C08FEE95E00E9432068FEE3C
:103F000095E00E94C2058091BF059091C005019780
:103F10009093C0058093BF058EE096E06FE672E057
:103F200007D7F60180818823D1F18091BF05909158
:103F3000C005892BA1F18FEE95E00E94BF05882373
:103F400009F4A0CFC3CF8EE096E061E872E0F0D62E
:103F50008E01035F1F4FC8016FEE75E00E94CC0613
:103F6000C701B8013CDFC8010E944A2AC70166E4C4
:103F700070E047E350E02CED30E006E910E052DE5F
:103F80006091BF057091C005C7012DDE81EF95E0FE
:103F90000E94A505892B41F4F601108205C0F601A7
:103FA0008081882369F7CFCF62960FB6F894DEBF81
:103FB0000FBECDBFCF91DF911F910F91FF90EF907A
:103FC000DF90CF90BF90AF909F908F900895FC01AD
:103FD0008AE193E091838083CF010C94622AFC01F3
:103FE00082E293E0918380830895FC0182E293E072
:103FF00091838083089583EF95E00C948610CF938E
:10400000DF93EC016115710519F420E030E00FC079
:10401000DB010D900020E9F71197A61BB70BE88193
:10402000F9810280F381E02DAD0119959C01C90150
:10403000DF91CF910895FC0182E293E09183808328
:10404000CF010C94622AFC018AE293E09183808381
:104050000895FC018AE293E091838083089583EBC5
:1040600095E00E94721190E0089583EB95E00C9426
:104070007911FC018AE293E091838083CF010C9453
:10408000622A0F931F93CF93DF93BC018230910577
:1040900010F462E070E0E091B108F091B208A0E0A5
:1040A000B0E040E050E024C08081918186179707FE
:1040B000D0F08617970771F482819381109729F0C9
:1040C00013969C938E9312972CC09093B208809372
:1040D000B10827C04115510519F08417950718F448
:1040E000EF018D01AC01DF01828193819C01F90117
:1040F0003097D1F641155105F9F0CA01861B970B8F
:104100008430910580F48A819B810115110521F08D
:10411000F8019383828304C09093B2088093B1081E
:10412000FE01329645C0FE01E80FF91F61937193BD
:104130000297998388833CC08091AF089091B00822
:10414000892B41F48091B1029091B2029093B00812
:104150008093AF084091B3025091B40241155105CC
:1041600041F44DB75EB78091AF029091B002481B09
:10417000590B2091AF083091B00824173507B0F4DF
:10418000CA01821B930B8617970780F0AB014E5F25
:104190005F4F8417950750F0420F531F5093B0089C
:1041A0004093AF08F9016193719302C0E0E0F0E041
:1041B000CF01DF91CF911F910F910895CF93DF939E
:1041C0009C01009709F48FC0EC0122971B821A8290
:1041D0006091B1087091B2086115710581F4888110
:1041E0009981820F931F2091AF083091B008281752
:1041F000390739F5D093B008C093AF0874C0DB011C
:1042000040E050E0AC17BD0708F1BB83AA83FE0174
:1042100021913191E20FF31FAE17BF0779F48D9111
:104220009C911197280F391F2E5F3F4F39832883A8
:1042300012968D919C9113979B838A83411551050A
:1042400071F4D093B208C093B1084DC012968D910D
:104250009C911397AD01009711F0DC01D3CFDA01E7
:104260001396DC93CE931297FA0121913191E20FCC
:10427000F31FCE17DF0769F488819981280F391F52
:104280002E5F3F4FFA01318320838A819B81938384
:104290008283E0E0F0E0DB0112968D919C91139710
:1042A000009719F0BC01FD01F6CFAB014E5F5F4FE7
:1042B000DB018D919C91840F951F2091AF08309167
:1042C000B0082817390779F4309729F41092B2080A
:1042D0001092B10802C01382128242505040509393
:1042E000B0084093AF08DF91CF91089508951F92D1
:1042F0000F920FB60F920BB60F9211242F933F938C
:104300004F938F939F93EF93FF938091C00082FD13
:1043100019C04091C60080912C06282F30E02F5FF5
:104320003F4F2F73307080912D0690E0281739078A
:1043300059F0E0912C06F0E0E25FF94F42A32093A0
:104340002C0602C08091C600FF91EF919F918F9142
:104350004F913F912F910F900BBE0F900FBE0F907A
:104360001F90189508951F920F920FB60F920BB6DB
:104370000F9211242F933F934F938F939F93EF931B
:10438000FF938091C80082FD19C04091CE008091BA
:10439000CE06282F30E02F5F3F4F2F733070809173
:1043A000CF0690E02817390759F0E091CE06F0E0EB
:1043B000E055F94F42A32093CE0602C08091CE0073
:1043C000FF91EF919F918F914F913F912F910F907E
:1043D0000BBE0F900FBE0F901F90189508951F925F
:1043E0000F920FB60F920BB60F9211242F933F939B
:1043F0004F938F939F93EF93FF938091D00082FD13
:1044000019C04091D60080917007282F30E02F5FAF
:104410003F4F2F7330708091710790E02817390754
:1044200059F0E0917007F0E0EE5AF84F42A3209364
:10443000700702C08091D600FF91EF919F918F91FC
:104440004F913F912F910F900BBE0F900FBE0F9089
:104450001F90189508951F920F920FB60F920BB6EA
:104460000F9211242F933F934F938F939F93EF932A
:10447000FF938091300182FD19C0409136018091F7
:104480001208282F30E02F5F3F4F2F73307080913C
:10449000130890E02817390759F0E0911208F0E06E
:1044A000EC50F84F42A32093120802C080913601CD
:1044B000FF91EF919F918F914F913F912F910F908D
:1044C0000BBE0F900FBE0F901F90189580912C0679
:1044D00020912D0690E0805C9F4F821B91098F7385
:1044E0009070892B09F002DF8091CE062091CF06D3
:1044F00090E0805C9F4F821B91098F739070892B95
:1045000009F030DF809170072091710790E0805CA6
:104510009F4F821B91098F739070892B09F05EDF8A
:10452000809112082091130890E0805C9F4F821BBD
:1045300091098F739070892B09F08CCF08951F9289
:104540000F920FB60F920BB60F9211242F938F93E9
:104550009F93EF93FF9390912E0680912F069817CB
:1045600031F48091C1008F7D8093C10010C0E09133
:104570002F06F0E0E059F94F208180912F0690E05E
:1045800001968F73907080932F062093C600FF9141
:10459000EF919F918F912F910F900BBE0F900FBEB7
:1045A0000F901F9018951F920F920FB60F920BB697
:1045B0000F9211242F938F939F93EF93FF939091DA
:1045C000D0068091D106981731F48091C9008F7D73
:1045D0008093C90010C0E091D106F0E0EE5EF84F84
:1045E00020818091D10690E001968F739070809326
:1045F000D1062093CE00FF91EF919F918F912F9143
:104600000F900BBE0F900FBE0F901F9018951F922A
:104610000F920FB60F920BB60F9211242F938F9318
:104620009F93EF93FF939091720780917307981770
:1046300031F48091D1008F7D8093D10010C0E09142
:104640007307F0E0EC54F84F20818091730790E0FD
:1046500001968F739070809373072093D600FF911B
:10466000EF919F918F912F910F900BBE0F900FBEE6
:104670000F901F9018951F920F920FB60F920BB6C6
:104680000F9211242F938F939F93EF93FF93909109
:10469000140880911508981731F4809131018F7DAD
:1046A0008093310110C0E0911508F0E0EA5AF74F0D
:1046B00020818091150890E001968F73907080930F
:1046C000150820933601FF91EF919F918F912F91C3
:1046D0000F900BBE0F900FBE0F901F901895AF92CA
:1046E000BF92DF92EF92FF920F931F93CF93DF93CE
:1046F000EC017A018B01DD24403081EE580780E027
:10470000680780E0780711F0DD24D39491E0A92EAA
:10471000B12CE889F989DD2069F0C5010C8C02C053
:10472000880F991F0A94E2F7808360E079E08DE3B7
:1047300090E005C0108260E874E88EE190E0A80186
:1047400097010E943D2E21503040404050405695E8
:1047500047953795279580E12030380720F0DD20F8
:1047600011F0DD24D6CFEC85FD853083EE85FF8505
:1047700020831D8EEA89FB89408121E030E0C90158
:10478000088C02C0880F991F0A94E2F7482B4083D7
:10479000EA89FB894081C901098C02C0880F991FF1
:1047A0000A94E2F7482B4083EA89FB894081C901DA
:1047B0000A8C02C0880F991F0A94E2F7482B4083A5
:1047C000EA89FB8980810B8C02C0220F331F0A9477
:1047D000E2F7209528232083DF91CF911F910F913D
:1047E000FF90EF90DF90BF90AF900895FC01268D71
:1047F000878D30E0205C3F4F281B31092F733070CC
:10480000C9010895FC01968D878D981719F42FEF33
:104810003FEF06C0878DE80FF11D82A1282F30E001
:10482000C9010895DC015E969C915E975F968C911C
:104830005F97981719F42FEF3FEF10C05F968C9198
:104840005F97FD01E80FF11D92A15F968C915F9734
:104850008F5F8F735F968C93292F30E0C901089585
:10486000DC015D968C915D97882339F05096ED912F
:10487000FC915197808186FFF9CF5D961C92089537
:10488000DC0190968C919097282F30E02F5F3F4F5E
:104890002F73307091968C91919790E0281739077B
:1048A000C9F390968C919097FD01E80FF11DEE5998
:1048B000FF4F608390962C9390975296ED91FC91C8
:1048C0005397208181E090E05B960C905B9702C04B
:1048D000880F991F0A94E2F7282B208381E05D96C8
:1048E0008C935D975096ED91FC91519780818064F7
:1048F000808381E090E008951F931092110610923A
:10490000100628EE33E040E050E02093120630938A
:104910001306409314065093150662E373E07093F8
:104920000F0660930E0610922F0680912F0680933B
:104930002E0610922D0680912D0680932C0685EC74
:1049400090E090931B0680931A0684EC90E090937D
:104950001D0680931C0680EC90E090931F068093C8
:104960001E0681EC90E0909321068093200682EC55
:1049700090E0909323068093220686EC90E090933B
:1049800025068093240614E010932606B3E0B09326
:104990002706A7E0A0932806F5E0F0932906E1E0BA
:1049A000E0932A061092B3061092B2062093B40642
:1049B0003093B5064093B6065093B7067093B10690
:1049C0006093B0061092D1068091D1068093D006F4
:1049D0001092CF068091CF068093CE068DEC90E0AA
:1049E0009093BD068093BC068CEC90E09093BF063C
:1049F0008093BE0688EC90E09093C1068093C00639
:104A000089EC90E09093C3068093C2068AEC90E014
:104A10009093C5068093C4068EEC90E09093C706F1
:104A20008093C6061093C806B093C906A093CA0621
:104A3000F093CB06E093CC061092550710925407E2
:104A400020935607309357074093580750935907C0
:104A50007093530760935207109273078091730706
:104A6000809372071092710780917107809370078D
:104A700085ED90E090935F0780935E0784ED90E072
:104A8000909361078093600780ED90E090936307B7
:104A90008093620781ED90E09093650780936407AF
:104AA00082ED90E0909367078093660786ED90E033
:104AB000909369078093680710936A07B0936B0718
:104AC000A0936C07F0936D07E0936E071092F707C1
:104AD0001092F6072093F8073093F9074093FA07EE
:104AE0005093FB077093F5076093F4071092150835
:104AF0008091150880931408109213088091130870
:104B00008093120885E391E0909301088093000858
:104B100084E391E0909303088093020880E391E09E
:104B2000909305088093040881E391E0909307082F
:104B30008093060882E391E0909309088093080827
:104B400086E391E090930B0880930A0810930C0879
:104B5000B0930D08A0930E08F0930F08E09310088F
:104B60001F910895CF92DF92EF92FF920F931F93C0
:104B7000CF93DF937C016B018A01C0E0D0E00FC0CE
:104B8000D6016D916D01D701ED91FC910190F081FD
:104B9000E02DC7011995C80FD91F0150104001150C
:104BA000110571F7CE01DF91CF911F910F91FF9009
:104BB000EF90DF90CF900895EF92FF920F931F93A5
:104BC0008C01DC01ED91FC910190F081E02D6DE014
:104BD00019957C01D801ED91FC910190F081E02DB7
:104BE000C8016AE019959C012E0D3F1DC9011F9156
:104BF0000F91FF90EF9008954F925F927F928F9266
:104C00009F92AF92BF92CF92DF92EF92FF920F935B
:104C10001F93DF93CF93CDB7DEB7A1970FB6F8946C
:104C2000DEBF0FBECDBF2C01742ECB01223008F4A5
:104C30002AE019A231E2C32ED12CCC0EDD1E822E29
:104C40009924AA24BB24672D752FA50194010E94E5
:104C50003D2E79018A01C801B701A5019401C7D78A
:104C6000472D461B0894C108D1084A3014F4405D12
:104C700001C0495CF6014083E114F104010511050E
:104C800021F07E2C5F2DC801DECFC201B601B7D95D
:104C9000A1960FB6F894DEBF0FBECDBFCF91DF91C6
:104CA0001F910F91FF90EF90DF90CF90BF90AF904A
:104CB0009F908F907F905F904F900895DC01211519
:104CC000310541F4ED91FC910190F081E02D642FCC
:104CD0001995089591CFEF92FF920F931F939A0128
:104CE0007B0100E010E0B801A701E8DF1F910F9100
:104CF000FF90EF900895CF92DF92EF92FF920F9383
:104D00001F936C017B019A0100E010E0B801A7013C
:104D1000D5DF8C01C60150DF080F191FC8011F9194
:104D20000F91FF90EF90DF90CF90089568C908959C
:104D3000EF92FF920F931F937C0161D98C01C70101
:104D40003BDF080F191FC8011F910F91FF90EF90D3
:104D50000895AF92BF92CF92DF92EF92FF920F939E
:104D60001F93CF93DF935C016B01EE24FF24C0E01F
:104D7000D0E00FC0D501ED91FC9100811181C601F9
:104D8000BE011DD2682FC501F8011995E80EF91E64
:104D90002196F60184819581C817D90758F3C70178
:104DA000DF91CF911F910F91FF90EF90DF90CF9007
:104DB000BF90AF900895883008F078C0E82FF0E0F9
:104DC000EE0FFF1FEA56F74F718360838330D9F0EF
:104DD000843030F4813009F444C0823060F439C04A
:104DE000853051F18530D8F0863009F446C08730DF
:104DF00009F05CC04FC0809169008C7F842B809348
:104E00006900E89A089580916900440F551F440F86
:104E1000551F837F842B80936900E99A08958091C0
:104E2000690074E0440F551F7A95E1F78F7C842B5D
:104E300080936900EA9A08958091690066E0440FC2
:104E4000551F6A95E1F78F73842B80936900EB9A65
:104E5000089580916A008C7F842B80936A00EC9A7D
:104E6000089580916A00440F551F440F551F837F9A
:104E7000842B80936A00ED9A089580916A0024E063
:104E8000440F551F2A95E1F78F7C842B80936A008D
:104E9000EE9A089580916A0096E0440F551F9A9506
:104EA000E1F78F73842B80936A00EF9A08951F9225
:104EB0000F920FB60F920BB60F9211242F933F93C0
:104EC0004F935F936F937F938F939F93AF93BF9312
:104ED000EF93FF9380919A0890919B08892B29F07A
:104EE000E0919A08F0919B081995FF91EF91BF917D
:104EF000AF919F918F917F916F915F914F913F9172
:104F00002F910F900BBE0F900FBE0F901F90189512
:104F10001F920F920FB60F920BB60F9211242F9380
:104F20003F934F935F936F937F938F939F93AF9331
:104F3000BF93EF93FF9380919C0890919D08892BDC
:104F400029F0E0919C08F0919D081995FF91EF914F
:104F5000BF91AF919F918F917F916F915F914F9191
:104F60003F912F910F900BBE0F900FBE0F901F908F
:104F700018951F920F920FB60F920BB60F92112435
:104F80002F933F934F935F936F937F938F939F9351
:104F9000AF93BF93EF93FF9380919E0890919F08EA
:104FA000892B29F0E0919E08F0919F081995FF91B7
:104FB000EF91BF91AF919F918F917F916F915F9191
:104FC0004F913F912F910F900BBE0F900FBE0F90FE
:104FD0001F9018951F920F920FB60F920BB60F925B
:104FE00011242F933F934F935F936F937F938F93EE
:104FF0009F93AF93BF93EF93FF938091A0089091FD
:10500000A108892B29F0E091A008F091A108199539
:10501000FF91EF91BF91AF919F918F917F916F9190
:105020005F914F913F912F910F900BBE0F900FBE4C
:105030000F901F9018951F920F920FB60F920BB6FC
:105040000F9211242F933F934F935F936F937F930E
:105050008F939F93AF93BF93EF93FF9380919608A5
:1050600090919708892B29F0E0919608F091970884
:105070001995FF91EF91BF91AF919F918F917F9182
:105080006F915F914F913F912F910F900BBE0F90B9
:105090000FBE0F901F9018951F920F920FB60F9290
:1050A0000BB60F9211242F933F934F935F936F93FF
:1050B0007F938F939F93AF93BF93EF93FF938091D1
:1050C000980890919908892B29F0E0919808F0911F
:1050D00099081995FF91EF91BF91AF919F918F9191
:1050E0007F916F915F914F913F912F910F900BBEE8
:1050F0000F900FBE0F901F9018951F920F920FB632
:105100000F920BB60F9211242F933F934F935F93FF
:105110006F937F938F939F93AF93BF93EF93FF937F
:105120008091A2089091A308892B29F0E091A20810
:10513000F091A3081995FF91EF91BF91AF919F91C5
:105140008F917F916F915F914F913F912F910F9030
:105150000BBE0F900FBE0F901F9018951F920F92CD
:105160000FB60F920BB60F9211242F933F934F93CC
:105170005F936F937F938F939F93AF93BF93EF93BF
:10518000FF938091A4089091A508892B29F0E091C4
:10519000A408F091A5081995FF91EF91BF91AF91E7
:1051A0009F918F917F916F915F914F913F912F913F
:1051B0000F900BBE0F900FBE0F901F901895FC0123
:1051C000848195816817790748F40190F081E02D7A
:1051D000309721F0E60FF71F8081089580E0089551
:1051E0000F931F93CF93DF93EC018B016F5F7F4F82
:1051F000888199811AD4009711F480E005C09983C1
:1052000088831B830A8381E0DF91CF911F910F91E7
:105210000895CF93DF93EC0188819981892B29F040
:105220008A819B818617970758F4CE01D9DF88239E
:1052300041F08C819D81892B19F4E881F9811082DC
:1052400081E0DF91CF910895EF92FF920F931F932A
:10525000CF93DF93EC017B016C817D81E114F1043C
:10526000B9F04115510591F08A01060F171FB801D9
:10527000D0DF882369F0888199812C813D81820F5C
:10528000931FB7010E94C5031D830C8381E001C0F9
:1052900080E0DF91CF911F910F91FF90EF900895E3
:1052A000CF93DF93EC0188819981009711F00E94E0
:1052B000DE20198218821D821C821B821A82DF91D5
:1052C000CF9108950F931F93182F092F6115710522
:1052D00059F0DB010D900020E9F71197A61BB70BE1
:1052E000AD01B2DF882319F4812F902FD9DF812FF0
:1052F000902F1F910F9108950F931F93182F092F2F
:10530000FB0160817181448155819EDF882319F4FE
:10531000812F902FC5DF812F902F1F910F9108951E
:10532000EF92FF920F931F93CF93DF93EC017B01DA
:105330008A01BA016EDF882319F4CE01B1DF07C0FC
:105340001D830C8388819981B7010E94C503CE011A
:10535000DF91CF911F910F91FF90EF900895CF9320
:10536000DF93EC01198218821B821A821D821C8233
:105370006115710549F0DB010D900020E9F71197E7
:10538000A61BB70BAD01CCDFDF91CF910895CF9372
:10539000DF93EC01198218821B821A821D821C8203
:1053A0006115710549F0DB010D900020E9F71197B7
:1053B000A61BB70BAD01B4DFDF91CF9108950F931A
:1053C0001F93182F092F6115710551F0DB010D9006
:1053D0000020E9F71197A61BB70BAD01A1DF01C0B3
:1053E0005FDF812F902F1F910F910895EF92FF9211
:1053F0000F931F93DF93CF93CDB7DEB761970FB6AF
:10540000F894DEBF0FBECDBF8C01CB01F801118235
:10541000108213821282158214827E010894E11C8C
:10542000F11CB70150E00E94CC03C801B701C7DFEF
:1054300061960FB6F894DEBF0FBECDBFCF91DF915E
:105440001F910F91FF90EF900895CF93DF93EC01A0
:10545000FB018617970751F0608171816115710515
:1054600021F0448155815CDF01C01ADFCE01DF915C
:10547000CF910895FC01118210821382128215824D
:105480001482E3CFFC0111821082138212821582F2
:105490001482DBCFFC01808191810C94DE20FC0121
:1054A000808191810C94DE20CF93DF936ED00E9497
:1054B0004404C6E6D2E20E9425042097E1F306D810
:1054C000FACF08950C94DE2008951F920F920FB624
:1054D0000F9211242F933F938F939F93AF93BF937A
:1054E0008091AA089091AB08A091AC08B091AD084A
:1054F0003091AE080196A11DB11D232F2D5F2D37D0
:1055000020F02D570196A11DB11D2093AE08809368
:10551000AA089093AB08A093AC08B093AD08809113
:10552000A6089091A708A091A808B091A908019693
:10553000A11DB11D8093A6089093A708A093A80869
:10554000B093A908BF91AF919F918F913F912F91F7
:105550000F900FBE0F901F9018958FB7F894209161
:10556000AA083091AB084091AC085091AD088FBFAC
:10557000B901CA010895019739F0880F991F880F62
:10558000991F02970197F1F70895789484B5826086
:1055900084BD84B5816084BD85B5826085BD85B5D7
:1055A000816085BDEEE6F0E0808181608083E1E886
:1055B000F0E01082808182608083808181608083BE
:1055C000E0E8F0E0808181608083E1EBF0E08081C1
:1055D00084608083E0EBF0E0808181608083E1E99A
:1055E000F0E0808182608083808181608083E0E957
:1055F000F0E0808181608083E1EAF0E08081826078
:105600008083808181608083E0EAF0E08081816036
:105610008083E1E2F1E0808182608083808181602B
:105620008083E0E2F1E0808181608083EAE7F0E05E
:1056300080818460808380818260808380818160BA
:1056400080838081806880831092C1000895EF92EA
:10565000FF920F931F93CF93DF937B018C013FB792
:10566000F8948091A6089091A708A091A808B091FD
:10567000A90826B5A89B05C02F3F19F00196A11DCA
:10568000B11D3FBFBA2FA92F982F8827820F911DD8
:10569000A11DB11D52E0880F991FAA1FBB1F5A956B
:1056A000D1F7EC012FC0A2D23FB7F8948091A608A1
:1056B0009091A708A091A808B091A90826B5A89B29
:1056C00005C02F3F19F00196A11DB11D3FBFBA2F94
:1056D000A92F982F8827820F911DA11DB11D32E09F
:1056E000880F991FAA1FBB1F3A95D1F78C1B9D0BE2
:1056F000885E9340C0F20894E108F108010911099D
:10570000C851DC4FE114F1040105110561F6DF9188
:10571000CF911F910F91FF90EF900895382F86330E
:1057200008F0365320917B00832F869586958695C9
:1057300090E08170907043E0880F991F4A95E1F7DF
:10574000277F282B20937B0037708091B5028295AC
:10575000880F880F807C832B80937C0080917A0057
:10576000806480937A0080917A0086FDFCCF20913E
:10577000780040917900942F80E030E0282B392B7D
:10578000C9010895CF93DF93482F50E0CA0188588C
:10579000994FFC0134914E5C594FFA018491882352
:1057A00069F190E0880F991FFC01EC51FA4FA59127
:1057B000B491FC01E250FA4FC591D491662351F4A3
:1057C0002FB7F8948C91932F909589238C9388818F
:1057D00089230BC0623061F42FB7F8948C91932F1A
:1057E000909589238C938881832B88832FBF06C053
:1057F0009FB7F8948C91832B8C939FBFDF91CF91AF
:105800000895893009F449C08A30A0F4843051F1F8
:10581000853040F4823079F1833000F5813009F031
:1058200063C026C0873079F1883098F5863009F05A
:105830005BC025C08D3009F442C08E3028F48B3017
:10584000B1F18C30C0F52DC0803109F442C08131F6
:1058500009F445C08F3009F047C037C080918000FF
:105860008F7703C0809180008F7D809380000895A2
:1058700084B58F7702C084B58F7D84BD08958091F3
:10588000B0008F7703C08091B0008F7D8093B0000F
:105890000895809190008F7707C0809190008F7D50
:1058A00003C080919000877F80939000089580913D
:1058B000A0008F7707C08091A0008F7D03C08091EA
:1058C000A000877F8093A0000895809120018F77AA
:1058D00003C0809120018F7D8093200108958091E5
:1058E0002001877F809320010895FF920F931F93DB
:1058F000F62E482F50E0CA018254994FFC012491A2
:10590000CA018858994FFC0114914E5C594FFA0115
:1059100004910023C1F0222311F0822F72DFE02FC7
:10592000F0E0EE0FFF1FE250FA4FA591B4919FB740
:10593000F894FF2021F48C911095812302C08C9162
:10594000812B8C939FBF1F910F91FF9008950F9310
:105950001F93482F50E0CA018254994FFC012491B3
:10596000CA018858994FFC0104914E5C594FFA01C5
:105970001491112319F420E030E014C0222311F017
:10598000822F3FDF812F90E0880F991F885E994F0B
:10599000FC01A591B4918C9120E030E0802311F0BE
:1059A00021E030E0C9011F910F910895BF92CF927D
:1059B000DF92EF92FF920F931F93CF93DF93E82E26
:1059C000F62EB42EC7E0D0E0022F10E087E0C82EFC
:1059D000D12CBB2059F4B6016C1B7D0BC80102C051
:1059E000959587956A95E2F7BC0107C0B8010C2E22
:1059F00002C0759567950A94E2F761708E2D75DF88
:105A00008F2D61E072DF8F2D60E06FDF21979FEFB8
:105A1000CF3FD907F1F6DF91CF911F910F91FF9002
:105A2000EF90DF90CF90BF9008956F927F928F920A
:105A30009F92AF92BF92CF92DF92EF92FF920F931D
:105A40001F93CF93DF938C01009729F4CB010E9421
:105A500041208C01BBC08EEFE82E8FEFF82EE00EB8
:105A6000F11E4801860E971E8E149F0408F4ACC0E8
:105A7000D7014D915C91119746175707B8F0453003
:105A8000510508F4A3C0CA0104978617970708F4C4
:105A90009DC042505040461B570BF4014193519317
:105AA0006D937C93CF010E94DE2090C05B01A41A0D
:105AB000B50A3801640E751EA091B108B091B20804
:105AC000CC24DD24E0E0F0E047C0A615B705A9F539
:105AD000CD91DC911197CE0102968A159B0568F154
