:100000008DC300000C9468270C9499270C94CA2780
:100010000C94FB270C942C280C945D280C948E28AF
:100020000C94BF28A8C30000A6C30000A4C300000E
:10003000A2C30000A0C300009EC300009CC3000038
:100040009AC3000098C3000096C3000094C3000048
:1000500092C3000090C300008EC300000C94772A66
:100060008AC300000C946C210C94942284C3000079
:1000700082C3000080C300007EC300007CC3000078
:100080007AC3000078C3000076C3000074C3000088
:100090000C94A8210C94C8226EC300006CC300000D
:1000A0006AC3000068C3000066C3000064C30000A8
:1000B00062C3000060C300005EC300005CC30000B8
:1000C0005AC3000058C3000056C300000C94E4213A
:1000D0000C94FC2250C300000C9420220C9430237A
:1000E0004AC3000000000000003E5B4F5B3E3E6BD9
:1000F0004F6B3E1C3E7C3E1C183C7E3C181C577DC2
:10010000571C1C5E7F5E1C00183C1800FFE7C3E70D
:10011000FF0018241800FFE7DBE7FF30483A060E1F
:100120002629792926407F050507407F05253F5A66
:100130003CE73C5A7F3E1C1C08081C1C3E7F1422D6
:100140007F22145F5F005F5F06097F017F00668981
:10015000956A606060606094A2FFA29408047E04C7
:100160000810207E201008082A1C08081C2A0808ED
:100170001E101010100C1E0C1E0C30383E383006AD
:100180000E3E0E06000000000000005F00000007A9
:10019000000700147F147F14242A7F2A12231308D7
:1001A000646236495620500008070300001C2241B3
:1001B000000041221C002A1C7F1C2A08083E080857
:1001C0000080703000080808080800006060002007
:1001D000100804023E5149453E00427F40007249EA
:1001E0004949462141494D331814127F102745458E
:1001F00045393C4A494931412111090736494949A4
:1002000036464949291E0000140000004034000011
:10021000000814224114141414140041221408027A
:10022000015909063E415D594E7C1211127C7F49ED
:100230004949363E414141227F4141413E7F494942
:1002400049417F090909013E414151737F0808086E
:100250007F00417F41002040413F017F081422413F
:100260007F404040407F021C027F7F0408107F3E99
:100270004141413E7F090909063E4151215E7F0906
:10028000192946264949493203017F01033F40406D
:10029000403F1F2040201F3F4038403F6314081458
:1002A0006303047804036159494D43007F41414190
:1002B0000204081020004141417F04020102044071
:1002C00040404040000307080020545478407F28F5
:1002D0004444383844444428384444287F385454EB
:1002E000541800087E090218A4A49C787F0804040E
:1002F0007800447D40002040403D007F10284400AD
:1003000000417F40007C047804787C08040478383D
:1003100044444438FC1824241818242418FC7C086D
:10032000040408485454542404043F44243C4040EA
:10033000207C1C2040201C3C4030403C442810289D
:10034000444C9090907C4464544C440008364100E6
:100350000000770000004136080002010204023C60
:100360002623263C1EA1A161123A4040207A38542F
:1003700054555921555579412254547842215554A8
:10038000784020545579400C1E52721239555555FB
:1003900059395454545939555454580000457C41E6
:1003A0000002457D420001457C407D1211127DF026
:1003B000282528F07C545545002054547C547C0A50
:1003C000097F4932494949323A4444443A324A4819
:1003D00048303A4141217A3A42402078009DA0A01D
:1003E0007D3D4242423D3D4040403D3C24FF24246F
:1003F000487E4943662B2FFC2F2BFF0929F620C08E
:10040000887E090320545479410000447D413048DE
:10041000484A32384040227A007A0A0A727D0D1921
:10042000317D2629292F28262929292630484D4083
:1004300020380808080808080808382F10C8ACBA7F
:100440002F102834FA00007B000008142A142222FE
:10045000142A14085500550055AA55AA55AAFF5547
:10046000FF55FF000000FF00101010FF00141414CF
:10047000FF001010FF00FF1010F010F0141414FC17
:10048000001414F700FF0000FF00FF1414F404FC34
:10049000141417101F10101F101F1414141F001015
:1004A0001010F0000000001F101010101F1010108E
:1004B00010F010000000FF1010101010101010109D
:1004C000FF10000000FF140000FF00FF00001F10DD
:1004D000170000FC04F414141710171414F404F497
:1004E0000000FF00F714141414141414F700F71488
:1004F0001414171410101F101F141414F4141010D7
:10050000F010F000001F101F0000001F140000007A
:10051000FC140000F010F01010FF10FF141414FF72
:10052000141010101F00000000F010FFFFFFFFFF6D
:10053000F0F0F0F0F0FFFFFF0000000000FFFF0F01
:100540000F0F0F0F3844443844FC4A4A4A347E02A5
:10055000020606027E027E02635549416338444426
:100560003C04407E201E2006027E020299A5E7A5DB
:10057000991C2A492A1C4C7201724C304A4D4D304C
:100580003048784830BC625A463D3E494949007E71
:100590000101017E2A2A2A2A2A44445F4444405108
:1005A0004A444040444A51400000FF0103E080FFBC
:1005B000000008086B6B083612362436060F090F48
:1005C00006000018180000001010003040FF010164
:1005D000001F01011E00191D1712003C3C3C3C008D
:1005E0000000000000002100240027002A002D0048
:1005F0003000330001010000040107010A0100007E
:100600002200250028002B002E00310034000201BA
:100610000000050108010B01000020002300260056
:1006200029002C002F003200000100000301060108
:100630000901050505050705080808080202020268
:100640000A0A08080404040401010101010101016E
:100650000303030303030303040707070C0C0C0C39
:100660000C0C0C0C02020202060606060606060622
:100670000B0B0B0B0B0B0B0B0102102020080810AF
:100680002040102040800201020108040201010202
:1006900004081020408080402010080402018004DB
:1006A0000201804020100804020108040201010236
:1006B000040810204080010204081020408000003F
:1006C000090A02080B0C0D070603040100000000D4
:1006D000000000000000000000000000000000001A
:1006E0000000000000000000000011100F000000DA
:1006F00000000000000000000000000000000000FA
:100700000000000026049305FB058111F31A5C1C10
:100710000C20712421048E05EE1A571C11241FBED3
:10072000CFEFD1E2DEBFCDBF00E00CBF13E0A0E011
:10073000B2E0E6E0FDE500E00BBF02C007900D92DD
:10074000A430B107D9F71BBE18E0A4E0B3E001C0A4
:100750001D92AA37B107E1F717E0C4E1D7E004C062
:100760002297FE010E94732EC430D107C9F70E9460
:10077000652A0C94772E44CCFB01DC0102C0019069
:100780000D9241505040D8F70895FB01DC010190D3
:100790000D920020E1F70895FB019F01423074F0B3
:1007A000453264F4642F77270E94282E805D8A33B7
:1007B0000CF0895D8193CB010097A1F71082C901EC
:1007C00000C0DC01FC01672F71917723E1F73297BC
:1007D00004C07C916D9370836291AE17BF07C8F31C
:1007E000089581309105A9F46F5F7F4F49F58AE044
:1007F00093E00E94831A8CE093E00E94241C8EE018
:1008000093E0E7D180E193E00E94002082E193E051
:100810005DC1892BA9F46F5F7F4F91F482E193E072
:100820005BD180E193E00E9406208EE093E0D7D177
:100830008CE093E00E942A1C8AE093E00C94891AD1
:10084000089580E090E06FEF7FEFCBCF81E090E004
:100850006FEF7FEFC6CF809108039091090382303C
:10086000910559F08330910571F0019791F48CE076
:1008700093E066E073E00C943B1F8CE093E066E04D
:1008800073E00C94BF1E8CE093E064E073E00C9482
:10089000981C089585ED95E040E855E260E070E031
:1008A0000E9464238CE093E00E94391E8AE093E06A
:1008B0000E94DC1B909309038093080380916502DA
:1008C00060E00E94D42B8091670260E00E94D42BEC
:1008D0008AE093E00E94DC1B8230910509F43CC061
:1008E0008330910509F454C0019709F089C0209123
:1008F0006502309166022230310511F480E00DC0AE
:100900002330310511F481E008C0C90142970497F2
:1009100010F08FEF02C087E1821B61E575E043E0D4
:1009200050E00E94EC26209167023091680222304C
:10093000310511F480E00DC02330310511F481E060
:1009400008C0C9014297049710F08FEF02C087E1F9
:10095000821B6CE375E018C020916502309166023D
:100960002230310511F480E00DC02330310511F43F
:1009700081E008C0C9014297049710F08FEF02C0D0
:1009800087E1821B63E375E043E050E00C94EC26C2
:1009900020916502309166022230310511F480E029
:1009A0000DC02330310511F481E008C0C901429720
:1009B000049710F08FEF02C087E1821B6AE175E0B7
:1009C00043E050E00E94EC262091670230916802DB
:1009D0002230310511F480E00DC02330310511F4CF
:1009E00081E008C0C9014297049710F08FEF02C060
:1009F00087E1821B61E075E043E050E00C94EC2657
:100A0000089564E670E080E090E00E94392B8091C8
:100A100067020E94B92C892B61F0609104037091E8
:100A200005038AE093E00E948F1A90930503809358
:100A30000403089564E670E080E090E00E94392BA2
:100A4000809165020E94B92C892B61F060910403AA
:100A5000709105038AE093E00E94561B9093050372
:100A6000809304030895609106038AE093E00E9456
:100A7000311B80930603089564E670E080E090E007
:100A80000E94392B809167020E94B92C892B41F07A
:100A9000609107038AE093E00E94BC1A80930603EA
:100AA000089564E670E080E090E00E94392B809128
:100AB00065020E94B92C892B41F0609106038AE0FF
:100AC00093E00E94F81A809306030895FC0180E8E1
:100AD00092E0918380830895FC0180E892E0918305
:100AE000808308958130910559F46F5F7F4FA9F499
:100AF00084E193E00E94182086E193E00C940020AA
:100B0000892B59F46F5F7F4F41F486E193E00E9497
:100B1000062084E193E00C941E20089580E090E08C
:100B20006FEF7FEFDFCF81E090E06FEF7FEFDACF05
:100B30000F931F939B016F3F7105B1F0A8F0CB019C
:100B40006FEF70E00E94282E8C01281B390B84E186
:100B500093E06DEC70E0A9010E942A2084E193E00B
:100B60006EEC70E0A80105C084E193E06DEC70E0EC
:100B7000A9010E942A201F910F910895AB0184E1E1
:100B800093E068EC70E00C942A2084E193E06DEC33
:100B900070E00E9424208F3F910511F09C0109C054
:100BA00084E193E06EEC70E00E9424209C012150CF
:100BB0003F4FC901089584E193E068EC70E00C9424
:100BC0002420FC0180E892E091838083CF010C9483
:100BD000742AFC0188E892E0918380830895FC01E7
:100BE00088E892E0918380830895809118030895A6
:100BF0006093180308950F931F930DE113E0C8014C
:100C000065E046E027E00E94DA1180E293E0B80157
:100C10000E942E121F910F910895DF93CF93CDB7AD
:100C2000DEB729970FB6F894DEBF0FBECDBFCE0159
:100C300001966DE173E00E942E128B8190E020916D
:100C40002203821B910920EA35E0829FF001839FF5
:100C5000F00D929FF00D11248A8190E020912103E4
:100C6000821B91092CE330E0AC01429FC001439FFD
:100C7000900D529F900D1124E80FF91F898190E08B
:100C800020912003821B9109E80FF91FCF016CE32B
:100C900070E00E94282E9C0190931A038093190300
:100CA000CF01821B930B6CE370E00E94282E70939F
:100CB0001C0360931B0329960FB6F894DEBF0FBE8A
:100CC000CDBFCF91DF9108950F931F93DF93CF9303
:100CD000CDB7DEB729970FB6F894DEBF0FBECDBFF4
:100CE0008E010F5F1F4FC8016DE173E00E942E124D
:100CF000A0E2B3E0F80189E001900D928150E1F7A4
:100D000029960FB6F894DEBF0FBECDBFCF91DF910D
:100D10001F910F9108950F931F93DF93CF93CDB73A
:100D2000DEB72F970FB6F894DEBF0FBECDBF8B0195
:100D300010921803CE0107966DE173E00E942E1207
:100D4000CE01019660E072E00E94C0298F8190E0A0
:100D500020912003821B9109081B190B888590E0C4
:100D600020912103821B91092CE330E0AC01429FCA
:100D7000C001439F900D529F900D1124081B190B29
:100D8000898590E020912203821B910920EA35E0B9
:100D9000AC01429FC001439F900D529F900D1124C2
:100DA000081B190BC8016CE370E00E94282E9C01FF
:100DB00090931A0380931903C801821B930B6CE371
:100DC00070E00E94282E70931C0360931B03611532
:100DD000710529F4232B19F481E080931803CE01C7
:100DE00001960E945B2A2F960FB6F894DEBF0FBEC5
:100DF000CDBFCF91DF911F910F9108956F927F9298
:100E00008F929F92AF92BF92CF92DF92EF92FF921A
:100E10000F931F93DF93CF93CDB7DEB7C254D0406B
:100E20000FB6F894DEBF0FBECDBF782E692E60914D
:100E30001B0370911C036E010894C11CD11CC601D8
:100E40004AE00E94072A6091190370911A03CE01AB
:100E500007964AE00E94072ACE010D9660E072E0F4
:100E60000E94C02960911B0370911C036A307105B8
:100E700000F563E1E62EF12CEC0EFD1EC70161E0EA
:100E800072E00E94D829C701B6010E948D29BC01D9
:100E90008E01075E1F4FC8010E944B2AC601B80190
:100EA0000E94362AC8010E945B2AC7010E94602A5C
:100EB0000EC08E01015E1F4FC8014AE00E94072A42
:100EC000C601B8010E94362AC8010E945B2A6091BF
:100ED000190370911A0357E0C52ED12CCC0EDD1EDC
:100EE0006A30710500F545E2E42EF12CEC0EFD1E92
:100EF000C70161E072E00E94D829C701B6010E94D3
:100F00008D29BC018E01055D1F4FC8010E944B2A2F
:100F1000C601B8010E94362AC8010E945B2AC70197
:100F20000E94602A0EC08E010F5C1F4FC8014AE06C
:100F30000E94072AC601B8010E94362AC8010E94F1
:100F40005B2A37E3E32EF12CEC0EFD1EC7014E01A8
:100F50000894811C911CB4010E94532AC70163E0CC
:100F600072E00E94732927E0A22EB12CAC0EBD1EA8
:100F7000B5010E948D29BC018E01035C1F4FC80181
:100F80000E944B2A9DE0C92ED12CCC0EDD1EC6013D
:100F9000B8010E94362ABC01872D962D0E944B2A4B
:100FA000C8010E945B2AC7010E94602AC6010E94F4
:100FB0005B2AC5010E945B2AC4010E945B2A872D1F
:100FC000962DCE5BDF4F0FB6F894DEBF0FBECDBFC0
:100FD000CF91DF911F910F91FF90EF90DF90CF9015
:100FE000BF90AF909F908F907F906F900895FC017D
:100FF00088E892E091838083CF010C94742A88233F
:1010000019F48CB5806202C08CB58F7D8CBD0895BB
:101010009CB5937F982B9CBD08952CB5382F3370C9
:101020002C7F322B3CBD2DB590E0959587959595FD
:10103000879581702E7F822B8DBD089585E361E0B9
:101040000E94872C85E361E00E94D42B8CB58061DF
:101050008CBD8CB580648CBD84E361E00E94D42B90
:1010600083E361E00C94D42BFF920F931F93CF93F3
:10107000DF938B010E94BF2AEB01FF24FA94FEBC90
:101080000DB407FEFDCF8EB58F3F11F481E008C08F
:101090000E94BF2A6C1B7D0B6017710780F380E0F4
:1010A000DF91CF911F910F91FF900895FC018481F2
:1010B00060E00C94872CFC01848161E00C94872C07
:1010C000DC016EBD0DB407FEFDCF8EB520E030E033
:1010D000FA01E20FF31F80818EBD0DB407FEFDCF34
:1010E0008EB52F5F3F4F82E02030380789F78FEFB2
:1010F0008EBD0DB407FEFDCF8EB58FEF8EBD0DB446
:1011000007FEFDCF8EB58FEF8EBD0DB407FEFDCF70
:101110008EB51A968C931A978F71853011F481E0F1
:10112000089581E115968C931597CD01C4DF80E079
:101130000895FF920F931F93CF93DF93EC010E94CA
:10114000BF2A8B01FF24FA9409C00E94BF2A601BAA
:10115000710B6D52714010F08FE00DC0FEBC0DB4EC
:1011600007FEFDCF8EB58A878F3F79F38E3F11F44E
:1011700081E005C08DE08D83CE019DDF80E0DF91B1
:10118000CF911F910F91FF900895CF93DF93EC01C2
:101190008E818823A9F02F8138854FEF05C04EBD81
:1011A0000DB407FEFDCF8EB52F5F3F4FC9010197EC
:1011B00082509240A0F338872F83CE017CDF1E82BD
:1011C000DF91CF910895DF92EF92FF920F931F93DB
:1011D000CF93DF93EC01D62E79018A01D6DFCE01C1
:1011E00065DFCE016CE271E03FDF8D2D80648EBD46
:1011F0000DB407FEFDCF8EB528E130E0D801C70160
:10120000022E04C0B695A795979587950A94D2F7B4
:101210008EBD0DB407FEFDCF8EB5285030408FEF48
:10122000283F380759F7DD2011F485E906C088E02A
:10123000D81611F487E801C08FEF8EBD0DB407FEFC
:10124000FDCF8EB590E02FEF2EBD0DB407FEFDCF84
:101250008EB587FF02C09150B9F78A87DF91CF9191
:101260001F910F91FF90EF90DF900895CF92DF9242
:10127000EF92FF920F931F93CF93DF93EC017A01CC
:101280008B016901411551056105710511F482E178
:1012900033C08B85833039F099E0EE0CFF1C001FC2
:1012A000111F9A95D1F7CE0168E1A80197018BDF54
:1012B000882311F084E020C0CE016EEFA60100DF8C
:1012C0008823D9F0CE0168E572E0CEDE882311F4E0
:1012D00085E112C0CE016DE020E030E040E050E05A
:1012E00072DF882341F48FEF8EBD0DB407FEFDCF72
:1012F0008EB5882371F084E18D83CE01DCDE80E041
:10130000DF91CF911F910F91FF90EF90DF90CF90E1
:101310000895CE01D0DE81E0F3CF8F929F92AF92FD
:10132000BF92CF92DF92EF92FF920F931F93CF93D2
:10133000DF93EC015A016B0149010115110509F414
:101340006CC0C801820F931F8150924008F061C0A9
:101350008E81882371F088819981AA81BB81481789
:1013600059076A077B0729F48F81988588169906A3
:1013700000F5A882B982CA82DB828B85833039F07E
:1013800059E0AA0CBB1CCC1CDD1C5A95D1F7CE0130
:1013900061E1A601950117DF882319F083E08D83B1
:1013A00038C0CE01C6DE8823A1F118861F8281E0F5
:1013B0008E838F8198852FEF06C02EBD0DB407FE5A
:1013C000FDCF3EB5019688159905B8F398878F83B0
:1013D00020E030E09FEF0BC09EBD0DB407FEFDCFB7
:1013E0008EB5F701E20FF31F80832F5F3F4F201769
:1013F000310790F32F813885200F311F38872F83D5
:101400008985882319F02050324038F0CE01BDDEA6
:1014100004C0CE0150DE80E001C081E0DF91CF91B9
:101420001F910F91FF90EF90DF90CF90BF90AF9002
:101430009F908F900895EF92FF920F931F937901E1
:1014400020E030E000E012E068DF1F910F91FF9094
:10145000EF9008956F927F928F929F92AF92BF927A
:10146000CF92DF92EF92FF920F931F93CF93DF9370
:10147000EC017A018B012D81222309F47FC08B8935
:101480009C89AD89BE8984179507A607B70708F41C
:1014900075C084C0E114F1040105110549F41E82F0
:1014A0001F82188619861A861B861C861D8664C0B4
:1014B0002A853B854C855D85EB8DFC8D858590E08F
:1014C0000996215030404040504039014A01082ED1
:1014D00004C096948794779467940A94D2F72F5F08
:1014E0003F4F4F4F5F4F0894E108F1080109110980
:1014F0005701680104C0D694C794B794A7948A95FD
:10150000D2F70894E11CF11C011D111DA614B704AB
:10151000C804D90428F0211531054105510549F4C5
:101520008F89988DA98DBA8D8E839F83A887B9875F
:1015300015C0A618B708C808D90810C04E815F8129
:10154000688579858B8D9C8D940195D40894A1082C
:10155000B108C108D108882331F410C086E0882E74
:10156000912C8C0E9D1EA114B104C104D10431F73D
:10157000EA86FB860C871D8781E001C080E0DF9151
:10158000CF911F910F91FF90EF90DF90CF90BF9080
:10159000AF909F908F907F906F900895223009F0C8
:1015A00079CFE6CFCF93DF93EC01462F6E857F8511
:1015B000888999898CD3882319F420E030E00AC007
:1015C0008A89282F30E095E0220F331F9A95E1F7A2
:1015D000255D3C4FC901DF91CF9108950F931F9373
:1015E000CF93DF938C01FC0185818823C9F184812D
:1015F00087FF34C0C80161E0D5DFEC01009781F1BD
:10160000F8018581823040F483899489A589B6895F
:101610008C8F9D8FAE8FBF8FF8018789908D9B8FA8
:101620008A8F8789908DA18DB28DCD01AA27BB2786
:101630009D8B8C8BE0912903F0912A03309751F018
:10164000BE016A5E7F4FCE0148961995888D998DAF
:101650009B8B8A8BF80184818F778483FFD201C0B2
:1016600080E0DF91CF911F910F9108952F923F92CB
:101670004F925F926F927F928F929F92AF92BF92A2
:10168000CF92DF92EF92FF920F931F93CF93DF934E
:10169000EC012A018D81882309F4C4C08C8180FF6C
:1016A000C1C0D6C025014E185F084B0176E0272E39
:1016B000312C2C0E3D1E3201AFC02A853B854C8556
:1016C0005D856FEFA62E61E0B62EA222B3228D813A
:1016D00079018A0199E016950795F794E7949A9510
:1016E000D1F7EB8DFC8D823049F4428D538D648DA2
:1016F000758D4E0D5F1D601F711F3EC0D480DA9442
:10170000DE20A114B104D1F4DD20C1F4211531058E
:101710004105510549F48F89988DA98DBA8D8E8325
:101720009F83A887B9870AC04E815F8168857985C4
:10173000CF019101A0D3882309F474C0EB8DFC8DF7
:101740004E815F816885798542505040604070408D
:10175000058404C0440F551F661F771F0A94D2F7F3
:1017600086859785A089B189480F591F6A1F7B1FFD
:101770004D0D511D611D711D80E092E08A199B097C
:1017800063018615970508F46C018C8186FD06C0FF
:1017900080E0C81682E0D80609F072C08091690224
:1017A00090916A02A0916B02B0916C0248175907A0
:1017B0006A077B0709F464C080912B0590912C0582
:1017C000950186017401A9DD882361F18C0C9D1CB3
:1017D00012C09501255D3C4FA9014C0D5D1DD40142
:1017E000F90102C081918D93E417F507D9F7E21B47
:1017F000F30B8E0E9F1E960140E050E08A859B857C
:10180000AC85BD85820F931FA41FB51F8A879B8758
:10181000AC87BD876C187D086114710409F04DCF49
:10182000A20102C04FEF5FEFCA01DF91CF911F917C
:101830000F91FF90EF90DF90CF90BF90AF909F906F
:101840008F907F906F905F904F903F902F90089572
:10185000AB88BC88CD88DE88EA84FB840C851D8536
:101860009A0140E050E0D601C5018E199F09A00BF6
:10187000B10B82179307A407B50708F413CF15CF50
:10188000CB01BA0140E023D2882309F0A2CFCACF0E
:10189000CF93DF93EC019C012A5F3F4F8B8D9C8D92
:1018A00041E050E060E070E058D38823A1F08F89D8
:1018B000988DA98DBA8D0097A105B10559F48E8137
:1018C0009F81A885B9858F8B988FA98FBA8F8C81BE
:1018D00080688C8381E0DF91CF9108952F923F92B1
:1018E0004F925F927F928F929F92AF92BF92CF92D0
:1018F000DF92EF92FF920F931F93DF93CF9300D06D
:1019000000D0CDB7DEB76C01162F072F5E834D8355
:10191000DC0115968C911597813009F069C11496F8
:101920008C9181FF65C187C1F6014389548965891E
:10193000768982859385A485B58584179507A60742
:10194000B70729F0C60186DD882309F451C1812F2C
:10195000902F9C0129012D803E8012C1D6015B96FB
:10196000ED91FC915C97DA01C90119E0B695A79554
:10197000979587951A95D1F774807A9478227FEF9E
:10198000872E71E0972E82229322772009F04CC097
:101990008114910409F048C0D60116964D915D91CD
:1019A0006D917C911997411551056105710581F47F
:1019B00057968D919D910D90BC91A02D0097A105FA
:1019C000B10541F1F60186839783A087B1872CC0CA
:1019D000CF019E012F5F3F4F4ED2882309F40FC1E4
:1019E00029813A814B815C81D6015B96ED91FC9116
:1019F0005C978789803129F088EF9FEFAFEFBFE0D8
:101A000004C088EF9FEFA0E0B0E0281739074A072D
:101A10005B0728F0C6013CDF882331F4E9C0F601FA
:101A2000268337834087518780E092E0881999099F
:101A300051018215930508F45C01D6015B96ED9186
:101A4000FC915C971696ED90FD900D911C91199765
:101A50008EEF9FEFAFEFBFEFE80EF91E0A1F1B1FBF
:101A6000058404C0EE0CFF1C001F111F0A94D2F75E
:101A700086859785A089B189E80EF91E0A1F1B1F6C
:101A8000E70CF11C011D111D90E0A91692E0B906AA
:101A900049F58091690290916A02A0916B02B09120
:101AA0006C028E159F05A007B10761F48FEF9FEFC1
:101AB000AFEFBFEF8093690290936A02A0936B022D
:101AC000B0936C0280912B0590912C05B801A70171
:101AD0009201CCDB882309F48BC0A0E0B2E04A0E6F
:101AE0005B1E3CC08114910401F5F601228533850B
:101AF0004485558583899489A589B689281739072E
:101B00004A075B0790F0AAD0882309F471C0E092DD
:101B10006902F0926A0200936B0210936C0280914A
:101B20002D05816080932D0507C0C801B70141E0F4
:101B3000CED0882309F45CC09401255D3C4FA901F7
:101B40004A0D5B1DF901D20102C08D918193E4170A
:101B5000F507D9F7E21BF30B4E0E5F1E2A183B0860
:101B6000950140E050E0F60182859385A485B58516
:101B7000820F931FA41FB51F82879387A487B58701
:101B8000D6011A962D913D914D915C911D9721148E
:101B9000310409F0E3CE53968D919D910D90BC9147
:101BA000A02D82179307A407B50748F4F601238BED
:101BB000348B458B568B84818068848311C08091DF
:101BC000290390912A03892B59F08D819E81892BBD
:101BD00039F0D60114968C911497806814968C93E2
:101BE000F601848183FF0DC0C601F8DC882349F427
:101BF00081E090E0D60113969C938E9312971E82FB
:101C00001D828D819E8126960FB6F894DEBF0FBE91
:101C1000CDBFCF91DF911F910F91FF90EF90DF909B
:101C2000CF90BF90AF909F908F907F905F904F909C
:101C30003F902F90089582FD77CE89CEDF93CF938A
:101C40000F92CDB7DEB76983BE016F5F7F4F41E072
:101C500050E044DE0F90CF91DF91089580912D05E3
:101C6000882389F14091690250916A0260916B0268
:101C700070916C0280912B0590912C052BE233E042
:101C8000F5DA882311F140912E0550912F056091CE
:101C9000300570913105411551056105710589F0D7
:101CA00080912B0590912C052BE233E0DFDA88231D
:101CB00061F010922E0510922F05109230051092AF
:101CC000310510922D0581E0089580E00895DF929E
:101CD000EF92FF920F931F937B018C01D42E809182
:101CE000690290916A02A0916B02B0916C028E150C
:101CF0009F05A007B107B1F0B1DF8823D1F0809133
:101D00002B0590912C05B801A7012BE233E093DB62
:101D1000882379F0E0926902F0926A0200936B02E4
:101D200010936C0280912D058D2980932D0581E003
:101D300001C080E01F910F91FF90EF90DF90089518
:101D40004F925F926F927F928F929F92AF92BF92CB
:101D5000CF92DF92EF92FF920F931F93CF93DF9377
:101D6000EC016A017B01280139014230510561050E
:101D7000710508F46EC089859A85AB85BC8501968E
:101D8000A11DB11D84179507A607B70708F461C008
:101D90002B893C894D895E898F89803129F4992767
:101DA0008F2D7E2D6D2D09C0C701B60117E09695C8
:101DB0008795779567951A95D1F74B015C01820E4F
:101DC000931EA41EB51E8091690290916A02A09193
:101DD0006B02B0916C0288169906AA06BB0631F018
:101DE000C501B40140E073DF882399F18F89803108
:101DF00049F4F601F070EE0FFF1FE55DFC4F5182D4
:101E000040820DC0F601EF77F070EE0FFF1FEE0F6E
:101E1000FF1FE55DFC4F4082518262827382809198
:101E20002D05816080932D058A89823080F08D8117
:101E30009E81AF81B885880E991EAA1EBB1E809216
:101E40002E0590922F05A0923005B092310581E0C9
:101E500001C080E0DF91CF911F910F91FF90EF9033
:101E6000DF90CF90BF90AF909F908F907F906F90BA
:101E70005F904F900895CF92DF92EF92FF920F9371
:101E80001F93CF93DF93EC017A018B016901898560
:101E90009A85AB85BC850196A11DB11D8417950758
:101EA000A607B70708F44FC02B893C894D895E8986
:101EB0008F89803129F49927812F702F6F2D09C0C8
:101EC000C801B701E7E09695879577956795EA95FC
:101ED000D1F7260F371F481F591F80916902909133
:101EE0006A02A0916B02B0916C02281739074A0769
:101EF0005B0731F0CA01B90140E0E9DE882319F13E
:101F00008F89803159F4F701F070EE0FFF1FE55D06
:101F1000FC4F80819181A0E0B0E00EC0F701EF7727
:101F2000F070EE0FFF1FEE0FFF1FE55DFC4F80818D
:101F30009181A281B381BF70F60180839183A283D6
:101F4000B38381E001C080E0DF91CF911F910F91B9
:101F5000FF90EF90DF90CF9008952F923F924F9295
:101F60005F926F927F928F929F92AF92BF92CF9229
:101F7000DF92EF92FF920F931F93DF93CF93CDB732
:101F8000DEB72F970FB6F894DEBF0FBECDBF1C0192
:101F90004A875B876C877D873F872E87D9010D91A4
:101FA0001D912D913C91011511052105310549F037
:101FB000480159010894811C911CA11CB11C19866F
:101FC00010C0FC0180809180A280B38019868A8530
:101FD0009B85AC85BD850197A105B10511F491E004
:101FE0009987D10119968D919D910D90BC91A02D4D
:101FF0000196A11DB11D8D839E83AF83B8877501A6
:1020000064014424552432018E010F5F1F4FF101FA
:1020100081859285A385B485481659066A067B0694
:1020200008F08CC08D819E81AF81B8858C159D058F
:10203000AE05BF0550F482E0882E912CA12CB12C66
:10204000B2E0CB2ED12CE12CF12CC101B701A601BD
:10205000980111DF882309F471C089819A81AB81CD
:10206000BC81A70196012F5F3F4F4F4F5F4F0097F5
:10207000A105B10519F049015A010DC02819390906
:102080004A095B098A859B85AC85BD852817390778
:102090004A075B0759F00894411C511C611C711CD4
:1020A0000894C11CD11CE11CF11CB1CFC101A601D7
:1020B000B7010FEF1FEF2FEF3FE042DE882391F4CF
:1020C0003DC0260137010894410851086108710894
:1020D000C101B301A2019701860132DE882371F1AB
:1020E000730162018C149D04AE04BF0450F3AE85ED
:1020F000BF854D915D916D917C91411551056105B3
:10210000710531F0C101950184011ADE8823B1F017
:10211000EE85FF8580829182A282B382F985FF23BA
:1021200059F00894811C911CA11CB11CD1018D9205
:102130009D92AD92BC92139781E001C080E02F96F2
:102140000FB6F894DEBF0FBECDBFCF91DF911F91C8
:102150000F91FF90EF90DF90CF90BF90AF909F9046
:102160008F907F906F905F904F903F902F90089549
:10217000FC011382128288EE93E0A0E0B0E0848339
:102180009583A683B78388E992E091838083128E3A
:10219000118E14860895DF93CF930F92CDB7DEB7DB
:1021A000FC016983A081B18112962D913C91139716
:1021B000BE016F5F7F4F41E050E0F90119950F902C
:1021C000CF91DF910895DC015996ED91FC915A97DA
:1021D000309719F420E030E018C02389348945890C
:1021E000568982859385A485B585281B390B4A0BB2
:1021F0005B0B2030B0E83B07B0E04B07B0E05B077B
:1022000020F02FEF3FE740E050E0C9010895FC01C6
:10221000818D928D009709F0E1C90895DF93CF93E6
:102220000F92CDB7DEB7FC01818D928D009741F002
:10223000BE016F5F7F4F41E050E018DA019719F05F
:102240002FEF3FEF03C08981282F30E0C9010F90A5
:10225000CF91DF910895EF92FF920F931F93DF9339
:10226000CF930F92CDB7DEB77C01DC0159968D91EB
:102270009C915A97009719F400E010E01DC0BE0130
:102280006F5F7F4F41E050E0F1D9019719F00FEFF8
:102290001FEF12C08981082F10E0D7015996ED91E8
:1022A000FC915A974285538564857585415050400D
:1022B00060407040CF01CED8C8010F90CF91DF9120
:1022C0001F910F91FF90EF900895CF93DF93EC0152
:1022D000E98DFA8D309759F013821282CF01FEDA20
:1022E0009C01E98DFA8D82819381892B31F081E007
:1022F00090E09B838A8320E030E0C901DF91CF9199
:102300000895109237051092380510923B051092EF
:102310003D0582E090E0A0E0B0E080933E05909320
:102320003F05A0934005B0934105109255051092CA
:102330005F0510925E0580E992E090935D058093C1
:102340005C05109261050895F999FECF72BD61BDDB
:10235000F89A80B50895F999FECF1FBA72BD61BD94
:1023600040BD0FB6F894FA9AF99A0FBE08950F93EC
:102370001F938C01822FF801718360835383428302
:102380002483358360E00E94872CF801808161E01E
:102390000E94872C84E090E00E94CD2A1F910F912B
:1023A0000895FC01808160E00E94872C84E090E029
:1023B0000C94CD2A1F93FC01862F122F608341833A
:1023C000228361E00E94D42B812F61E00E94D42BF4
:1023D0001F910895FF920F931F93CF93DF938C016A
:1023E000FC01818160E00E94D42BFF24C0E0D0E09A
:1023F000F80181810E94B92C90E00C2E02C0880F58
:10240000991F0A94E2F7F82AF801828161E00E949C
:10241000872CF801828160E00E94872C2196C830C9
:10242000D10531F78F2DDF91CF911F910F91FF9043
:102430000895FF920F931F938C01F62EFC0181816A
:1024400061E00E94D42BF8018181628140E02F2D50
:102450000E94E82C1F910F91FF900895CF92DF9278
:10246000EF92FF920F931F93DF93CF9300D000D092
:10247000CDB7DEB78C017B016E010894C11CD11C65
:10248000FB01608141812281C60170E050E030E0B3
:102490006EDF83E398E0F8019087878381E084838F
:1024A000838312821182108281E090E0968385837B
:1024B000C7016FEBBEDFC7018DDF282F2F77229575
:1024C0002F7030E0A901E3E0440F551FEA95E1F7D2
:1024D000220F331F420F531F8F70840FF801808328
:1024E000C70178DF282F22952F7030E0A90163E023
:1024F000440F551F6A95E1F7220F331F420F531FF8
:102500008F70840FF8018183C70164DF482F282F63
:1025100030E087FF10C020723070B5E03595279508
:10252000BA95E1F7C901880F991F820F931F282FD1
:10253000220F220F11C0C90180739070F4E09595AD
:102540008795FA95E1F79C01E3E0220F331FEA95A6
:10255000E1F7880F991F280F4F70240FF80122838D
:10256000C70138DF282F22952F7030E0A90163E0E2
:10257000440F551F6A95E1F7220F331F420F531F77
:102580008F70840FF8018383C70124DF282F2295E1
:102590002F7030E0A901B3E0440F551FBA95E1F761
:1025A000220F331F420F531F8F70840FF801848353
:1025B000C70110DF282F22952F7030E0A901F3E02A
:1025C000440F551FFA95E1F7220F331F420F531F97
:1025D0008F70840FF80185831682C701FBDE282FD8
:1025E00022952F7030E0A90173E0440F551F7A95B2
:1025F000E1F7220F331F420F531F8F70840F90E0BB
:102600008053984FF80190878783C601CADEC801BE
:1026100026960FB6F894DEBF0FBECDBFCF91DF91E7
:102620001F910F91FF90EF90DF90CF900895DC0104
:1026300059968C915997882329F06EBD0DB407FEE9
:10264000FDCF089530E840E050E070E0832F90E047
:10265000862397235A96ED91FC915B979A962C913D
:102660009A97892B21F08081822B808304C08081FE
:102670002095282320835C96ED91FC915D978081C5
:102680009B969C919B97892B80835C96ED91FC9106
:102690005D9790819B968C919B97809589238083F1
:1026A00036954F5F5F4F4830510581F608950F937F
:1026B0001F938C01DC015E96ED91FC915F979081F8
:1026C0009D968C919D978095892380835C96ED9152
:1026D000FC915D9790819B968C919B978095892327
:1026E00080839296ED91FC91939790819C968C912A
:1026F000809589238083C8019ADFD8019296ED9155
:10270000FC91939780819C969C91892B80831F914B
:102710000F9108950F931F938C01DC015E96ED914C
:10272000FC915F9780819D969C919D97892B8083DA
:102730005C96ED91FC915D9790819B968C919B9717
:102740008095892380839296ED91FC919397908157
:102750009C968C91809589238083C80168DFD8017D
:102760009296ED91FC91939780819C969C91892BF8
:1027700080831F910F9108958F929F92AF92BF9285
:10278000CF92DF92EF92FF920F931F937C01B62EB0
:10279000D72E4A01A22EC32E6AE289DFC7016D2D12
:1027A000B9DFC7016B2DB6DFC7016C2DB3DFC701E1
:1027B0006A2DB0DFC7016BE27ADFC701692DAADF9E
:1027C000C701682DA7DFC701612FA4DFC701602FF4
:1027D000A1DFC7016CE26BDF1F910F91FF90EF90BB
:1027E000DF90CF90BF90AF909F908F900895EF9221
:1027F000FF920F931F93CF93DF93EC01FB018A01AC
:10280000790177FD2BC0888599856817790734F59C
:1028100057FD24C08A859B8548175907FCF4CE01D3
:1028200031969F010F5F1F4FA7DFEE8DFF8D8081D7
:102830009DA5892B8083EAA1FBA190818CA5809521
:1028400089238083CE016F2DF2DECE016E2DEFDE67
:10285000EAA1FBA180819CA5892B8083DF91CF9188
:102860001F910F91FF90EF900895CF92DF92EF921A
:10287000FF920F931F93CF93DF93EC01FB0179013C
:1028800068018885998568177907CCF52A853B8585
:1028900042175307A4F5C701840F951F281739075E
:1028A0001CF47901E41AF50A8A01015010400E0D5A
:1028B0001F1DCE01BF019F015FDFEE8DFF8D808167
:1028C0009DA5892B8083EAA1FBA190818CA5809591
:1028D0008923808306C0CE016D2DA9DECE016C2D2B
:1028E000A6DE0894E108F1088FEFE8168FEFF806EE
:1028F00091F7EAA1FBA180819CA5892B8083DF91C0
:10290000CF911F910F91FF90EF90DF90CF9008959E
:10291000CF92DF92EF92FF920F931F93CF93DF93AB
:10292000EC01FA017901680128853985621773077E
:10293000CCF58A859B8548175907A4F5C701860FF2
:10294000971F281739071CF47901E61AF70A9B012B
:10295000215030402E0D3F1DCE01AF018F010CDF05
:10296000EE8DFF8D80819DA5892B8083EAA1FBA13F
:1029700090818CA580958923808306C0CE016D2D22
:1029800056DECE016C2D53DE0894E108F1088FEF7E
:10299000E8168FEFF80691F7EAA1FBA180819CA5CC
:1029A000892B8083DF91CF911F910F91FF90EF9042
:1029B000DF90CF900895EF92FF920F931F93FC0149
:1029C0007B01A081B18120853185028513851E960A
:1029D0000D90BC91A02D60E070E040E050E0FD0162
:1029E00019951F910F91FF90EF900895AF92BF92AC
:1029F000CF92DF92EF92FF920F931F93CF93DF93CB
:102A00006C015901E801DC0118962D913C91199750
:102A1000621773070CF058C01A96ED91FC911B9742
:102A20004E175F070CF050C0C501860F971F28177F
:102A300039071CF45901A61AB70ACE01840F951F55
:102A4000E817F9071CF4EF01C41BD50B9B012150BB
:102A500030402A0D3B1D8A01015010400C0F1D1FF4
:102A6000C6018ADED6015E96ED91FC915F9780816A
:102A70009D969C919D97892B80839296ED91FC91D8
:102A8000939790819C968C918095892380838E0169
:102A90000CC0C6016F2DCBDDC6016E2DC8DD2197A0
:102AA0001C161D06B4F3015010401016110614F444
:102AB000E501F6CFD6019296ED91FC919397808136
:102AC0009C969C91892B8083DF91CF911F910F91D0
:102AD000FF90EF90DF90CF90BF90AF9008951F933D
:102AE000CF93DF93EC01162F66E3E1DD13701D8BAE
:102AF000113051F0113028F0123049F01330E1F468
:102B000010C0CE0168E405C0CE0168E20CC0CE0161
:102B100068E800DE80EF90E09987888780E491E0A4
:102B200009C0CE0168EEF6DD80E491E099878887E0
:102B300080EF90E09B878A87DF91CF911F91089566
:102B4000662311F460E201C061E2B1CDCF93DF935F
:102B5000EC018EA161E00E94D42B8EA160E00E9466
:102B6000872C8DA161E00E94D42B8CA161E00E9492
:102B7000D42BECA14E2F50E0FA01EE5CF94FE4911A
:102B8000F0E0EE0FFF1FE250FA4F859194919BA366
:102B90008AA3EDA12E2F30E0F901EE5CF94FE4910C
:102BA000F0E0EE0FFF1FE250FA4F859194919F8F56
:102BB0008E8F4858594FFA0184918CA72858394F65
:102BC000F90184918DA7898D882361F00E941E08E8
:102BD00084E00E940D0881E00E94FF0780E00E94CF
:102BE000080841C089A561E00E94D42B8FA161E053
:102BF0000E94D42B88A560E00E94D42BE9A54E2F1B
:102C000050E0FA01EE5CF94FE491F0E0EE0FFF1FA7
:102C1000E250FA4FA591B491BD8FAC8FEFA12E2F4A
:102C200030E0F901EE5CF94FE491F0E0EE0FFF1FA8
:102C3000E250FA4F859194919B8F8A8F4858594F53
:102C4000FA0194919BA72858394FF90184918AA7DA
:102C50008C91909598239C93EA8DFB8D90818AA509
:102C60008095892380838EA161E00E94872C65E096
:102C700070E080E090E00E94392B8EA160E00E941D
:102C8000872C64E170E080E090E00E94392B8EA1F7
:102C900061E00E94872C66E970E080E090E00E948D
:102CA000392BCE016FEE03DDCE0163E033DDCE01C3
:102CB00060E830DDCE0162E02DDDCE016FECF7DCA7
:102CC000CE0160E027DDCE0161EC24DDCE0160E3C2
:102CD00021DDCE016DEEEBDCCE0164E61BDDCE0125
:102CE00063E018DDCE0162E115DDCE0161E812DDA1
:102CF000CE0168EEDCDCCE0165E80CDDCE0160E0E3
:102D000009DDCE0168E706DDCE016BECD0DCCE013B
:102D100069E300DDCE016CE2FDDCCE0160E0FADCAF
:102D2000CE0164E3F7DCCE0162E0F4DCCE0167EFB4
:102D3000BEDCCE0160E2EEDCCE016AEEB8DCCE0194
:102D400060E0E8DCCE0160E0E5DCCE0160ECAFDC09
:102D5000CE0163E2DFDCCE0161ECA9DCCE0160E1F3
:102D6000D9DCCE0165ECA3DCCE016EE3D3DCCE0171
:102D700068E2D0DCCE0167EC9ADCCE0166E8CADC02
:102D8000CE0166E394DCCE0168E4C4DCCE016AE3E4
:102D90008EDCCE0165E5BEDCCE0161EB88DCCE01C8
:102DA00060E0B8DCCE0168E1B5DCCE0166EB7FDC2B
:102DB000CE0168E0AFDCCE0162E8ACDCCE0167E2B8
:102DC000A9DCCE0162EF73DCCE0160E0A3DCCE01B2
:102DD00066E26DDCCE0161E09DDCCE0160EE67DC79
:102DE000CE016FE097DCCE0161E394DCCE016BE2B3
:102DF00091DCCE016CE08EDCCE016EE08BDCCE018E
:102E000068E088DCCE016EE485DCCE0161EF82DC17
:102E1000CE0167E37FDCCE0167E07CDCCE0160E1C0
:102E200079DCCE0163E076DCCE016EE073DCCE01AE
:102E300069E070DCCE0160E06DDCCE0161EE37DC74
:102E4000CE0160E067DCCE016EE064DCCE0164E1BF
:102E500061DCCE0163E05EDCCE0161E15BDCCE01D2
:102E600067E058DCCE0161E355DCCE0161EC52DC59
:102E7000CE0168E44FDCCE0168E04CDCCE016FE0AF
:102E800049DCCE016CE046DCCE0161E343DCCE01DF
:102E900066E340DCCE016FE03DDCCE0161E107DCA2
:102EA00068E770E080E090E00E94392BCE0169E293
:102EB000FEDBDF91CF910895DF92EF92FF920F93A7
:102EC0001F938C01F62EE42ED22E60EF70E040E4CA
:102ED00051E012D088EA92E0F80191838083F4A255
:102EE000E5A2D6A281E0818F11A617A21F910F91B2
:102EF000FF90EF90DF900895FC011382128280EC26
:102F000092E09183808375836483578346837187BE
:102F1000608753874287158A15861486178616861A
:102F200021E0248B8FEF9FEF938B828B918B808B93
:102F3000268B178A08952F923F924F925F926F923D
:102F40007F928F929F92AF92BF92CF92DF92EF9239
:102F5000FF920F931F93DF93CF9300D00F92CDB7C3
:102F6000DEB73C017C836B836A015901FA82E982F6
:102F7000222433249801241B350B37FF03C03095DE
:102F800021953F4FC5014B815C81841B950B97FFB9
:102F900003C0909581959F4F821793075CF481E061
:102FA000282E312CC601CB80DC809C838B83C8010A
:102FB00085015C018B819C81A816B90644F4C5018A
:102FC000AB80BC809C838B83C80186016C0125018A
:102FD000AB81BC814A1A5B0A7801EC18FD08F7FE48
:102FE00004C0F094E194F108F394C016D10624F0E3
:102FF00088248A94982C03C0B1E08B2E912CC201B6
:1030000062E070E00E943C2E8B0125C0D301ED915F
:10301000FC912114310441F00480F581E02DC301BD
:10302000B6014B815C8107C00480F581E02DC301AE
:103030006B817C81A60129813A8119950E191F099E
:1030400017FF04C0C80CD91C040D151DEB81FC81B1
:103050003196FC83EB834B815C81A416B506B4F6F4
:103060000F900F900F900F90CF91DF911F910F91C4
:10307000FF90EF90DF90CF90BF90AF909F908F9098
:103080007F906F905F904F903F902F9008954F9258
:103090005F926F927F928F929F92AF92BF92CF92E8
:1030A000DF92EF92FF920F931F936C015B014A0135
:1030B00039012801DC01ED91FC910284F385E02DBA
:1030C00087011995D601ED91FC91A4014150504022
:1030D000440D551D0284F385E02DC601B501930111
:1030E0001995D601ED91FC910084F185E02DC60182
:1030F000B501A40192011995D601ED91FC910894B6
:10310000A108B108A60CB71C0084F185E02DC6010A
:10311000B501A401920119951F910F91FF90EF90B5
:10312000DF90CF90BF90AF909F908F907F906F90E7
:103130005F904F900895CF92DF92EF92FF920F939E
:103140001F93DC016B017801ED91FC918A01015024
:103150001040020F131F0680F781E02D960119958C
:103160001F910F91FF90EF90DF90CF900895CF9235
:10317000DF92EF92FF920F931F93DC016A01C90166
:103180007801ED91FC9111979B0121503040280F5F
:10319000391F0680F781E02DCD01860119951F9119
:1031A0000F91FF90EF90DF90CF9008956F927F92F4
:1031B0008F929F92AF92BF92CF92DF92EF92FF9247
:1031C0000F931F93CF93DF935C013A01690148018C
:1031D000EB01C60ED71E0DC0D501ED91FC91008408
:1031E000F185E02DC501BE01A30194018701199568
:1031F0002196CC15DD0584F3DF91CF911F910F91BE
:10320000FF90EF90DF90CF90BF90AF909F908F9006
:103210007F906F900895EF92FF920F931F93FC01A0
:103220007B01A081B18120853185028513851E96A1
:103230000D90BC91A02D60E070E040E050E0FD01F9
:1032400019951F910F91FF90EF9008952F923F9243
:103250004F925F926F927F928F929F92AF92BF92A6
:10326000CF92DF92EF92FF920F931F93DF93CF9352
:10327000CDB7DEB72F970FB6F894DEBF0FBECDBF28
:103280005C015E834D8318870F83FA86E986CB86BF
:10329000DC0118968D919C911997681779070CF0AD
:1032A000ABC01A968D919C911B97481759070CF04B
:1032B000A3C0EC2DF0E0FF87EE87CF01880F991FA8
:1032C0008E0F9F1F880F991F860F971F18161906BC
:1032D0000CF092C0CF0103E0880F991F0A95E1F727
:1032E000840F951F181619060CF086C057968C91FE
:1032F000882319F4203B08F02F5F85E0289FA00168
:1033000011245A8349832B011B011C825C81553097
:1033100011F480E005C0E981FA81EC51FF4F8491FE
:103320002C863D866D807E8043011B82C82EDD2465
:1033300080FF1CC0D501ED91FC91BB85B13049F4F3
:103340000480F581E02DC501B201A4012F813885EB
:1033500022C00684F785E02DC5016C857D85A3011B
:103360002E853F858901EF80F88423C0E985FA85A1
:103370002F813885E217F307E9F0D501ED91FC9133
:10338000BB85B13051F40480F581E02DC501B20157
:10339000A40129853A8519950DC00684F785E02D8D
:1033A000C5016C857D85A3012E853F858901E98452
:1033B000FA841995EB81EF5FEB832E853F85620ED2
:1033C000731E0894811C911CE83021F0D594C79499
:1033D0008C2DACCF3C813F5F3C834E855F85240EB6
:1033E000351E0894411C511C89819A8101969A834B
:1033F0008983363009F08ACF2F960FB6F894DEBF56
:103400000FBECDBFCF91DF911F910F91FF90EF9035
:10341000DF90CF90BF90AF909F908F907F906F90F4
:103420005F904F903F902F900895CF92EF92FF9230
:103430000F931F93CF93DF93EC01262F6A3061F433
:103440002C8930E083E0220F331F8A95E1F78E85C7
:103450009F85820F931F36C06D30C1F16C857D85CD
:103460004E855F8508891989EA88FB88CC88EEDE5D
:103470002C8986E0289FB00111248C859D85680FDA
:10348000791F7D876C878E89882301F1422F50E058
:103490008AEF9FEF9C01429FC001439F900D529F76
:1034A000900D112428853985820F931F8617970761
:1034B0006CF403E0440F551F0A95E1F78E859F8554
:1034C000840F951F9F878E871D861C8681E090E064
:1034D000DF91CF911F910F91FF90EF90CF900895C2
:1034E000FC0175876487578746870895FC0166232A
:1034F00009F461E0648B0895FC01738B628B718B1E
:10350000608B08950895FC0188ED92E0918380839B
:103510000895FC0188ED92E0918380830895DF9304
:10352000CF930F920F92CDB7DEB77A8369838981EB
:103530009A81892B19F482E090E014C089819A81E4
:10354000019719F483E090E00DC089819A81029778
:1035500019F41A82198208C089819A81039721F48B
:1035600081E090E09A83898329813A81C9010F9093
:103570000F90CF91DF910895DF93CF930F92CDB746
:10358000DEB76983898191E089278983898189816F
:103590000F90CF91DF9108958130910571F46F5FA5
:1035A0007F4FD9F48EE795E04FD180E895E00E94F7
:1035B000E90582E895E00C946605892B71F46F5F4C
:1035C0007F4F59F482E895E00E946C0580E895E011
:1035D0000E94EF058EE795E03DC1089580E090E000
:1035E0006FEF7FEFD9CF81E090E06FEF7FEFD4CF27
:1035F0000F931F93DF93CF930F92CDB7DEB76983FD
:10360000898191E08927898389818823F9F48EE76C
:1036100095E064EB70E04CED50E020E530E00EE129
:1036200010E018D38EE795E06AE47BE040E050E0DC
:103630002AE030E004E110E00DD382E895E00E943A
:10364000DB05BC018EE795E00BD104C080E895E076
:103650000E94640689810F90CF91DF911F910F9195
:1036600008950F931F93DF93CF930F92CDB7DEB7DB
:1036700069838981882379F48EE795E062E370E0BD
:1036800044E150E020E530E00EE110E0E3D280E8D4
:1036900095E00E946406898191E089278983898168
:1036A0000F90CF91DF911F910F9108950F931F936A
:1036B000DF93CF930F920F92CDB7DEB77A836983F2
:1036C00089819A81892B29F481E090E09A8389830A
:1036D00069C089819A81019719F41A82198262C09E
:1036E00089819A81029771F582E895E00E94C5056B
:1036F000835C9140A8F48EE795E06AE070E046E4D0
:1037000050E02AE530E008E210E0A4D282E895E03B
:103710000E94C505BC01625E7F4F82E895E00FC044
:103720008EE795E06AE070E046E450E02AE530E09C
:1037300008E210E08FD282E895E064EB70E00E942E
:10374000980530C089819A81039761F582E895E0F8
:103750000E94DB050597A8F48EE795E06AEA70E021
:1037600046E450E023E230E008E210E073D282E861
:1037700095E00E94DB05BC016F5F7F4F82E895E01A
:103780000FC08EE795E06AEA70E046E450E023E27D
:1037900030E008E210E05ED282E895E061E070E09F
:1037A0000E94BE0529813A81C9010F900F90CF91E7
:1037B000DF911F910F91089580916D0260E00E944A
:1037C000D42B80916F0260E00E94D42B8091710213
:1037D00060E00E94D42B80916D020E94B92C892B4D
:1037E00031F08EE795E0A5D181E090E00BC08091AB
:1037F0006F020E94B92C892B51F08EE795E06BD1B6
:1038000082E090E090937D0580937C0510C08091CC
:1038100071020E94B92C892B31F08EE795E0F8D027
:1038200083E090E0EFCF10927D0510927C058091AF
:103830007C0590917D050895FC0188ED92E09183CF
:103840008083CF010C94742AFC0180EE92E0918376
:1038500080830895FC0180EE92E091838083089537
:10386000709387056093860508958130910589F4EA
:103870006F5F7F4FD9F488E895E062E240E22EE185
:103880001BDB86EB95E00E94E90588EB95E00C9444
:103890006605892B59F46F5F7F4F41F488EB95E003
:1038A0000E946C0586EB95E00C94EF05089580E08E
:1038B00090E06FEF7FEFD9CF81E090E06FEF7FEF87
:1038C000D4CF4F925F926F927F928F929F92AF92DE
:1038D000BF92CF92DF92EF92FF920F931F93490115
:1038E00038015E2C4F2CF89488E8A82E85E0B82E7D
:1038F000C5012E2D3F2D8601EE24FF24C8DBC50116
:10390000B401A301252D342DEE24EA94FE2CBFDB57
:1039100078941F910F91FF90EF90DF90CF90BF9020
:10392000AF909F908F907F906F905F904F90089591
:10393000CF92DF92EF92FF920F931F93FB010190C2
:10394000F081E02DE130F10589F0E130F10538F04A
:10395000E230F105D9F0339709F053C035C065EA7C
:1039600070E047E350E025E030E006C065E070E03D
:1039700047E350E025EA30E007E310E0FCE8EF2EF3
:10398000F12CECE3CE2ED12C9CDF3BC0F89488E8E0
:1039900095E065E0ABDD88E895E06FEF7FEFACDDAB
:1039A00088E895E06AE070E046E450E099DD88EB55
:1039B00095E00E94C505BC0188E895E04AE050E02A
:1039C0000E948C2678941DC0F89488E895E065E004
:1039D0008DDD88E895E06FEF7FEF8EDD88E895E07C
:1039E0006AEA70E046E450E07BDD88EB95E00E94F7
:1039F000DB05BC0188E895E04AE050E00E948C2697
:103A000078941F910F91FF90EF90DF90CF900895E1
:103A1000EF92FF920F931F9308E815E0C8016FEF34
:103A20007FEF6ADDC80161E061DDC8016AE070E036
:103A30004CE350E055DDC80169E072E00E94A92620
:103A4000C8016AEA70E04CE350E04ADDC80167E172
:103A500072E00E94A926C80165E048DDC8016AE05D
:103A600070E046E450E03CDDA8EBEA2EA5E0FA2E3B
:103A7000C7010E94C505BC01C8014AE050E00E9490
:103A80008C26C80164E670E046E450E029DDC801F8
:103A900067E272E00E94A926C8016AEA70E046E483
:103AA00050E01EDDC7010E94DB05BC01C8014AE0F1
:103AB00050E00E948C26C8016DEC70E046E450E0B6
:103AC0000FDDC80169E272E00E94A9261F910F91E3
:103AD000FF90EF9008950F931F9308E815E0C80139
:103AE00061E004DDC80160E070E04CE350E0F8DC28
:103AF000C8016DE272E00E94A926C80160E070E092
:103B000040E550E0EDDCC80164E372E00E94A926C4
:103B1000C80162E0EBDCC80160E070E04CED50E011
:103B2000DFDCC8016BE372E00E94A9261F910F91B0
:103B30000895EF92FF920F931F9308EB15E0C801D1
:103B40000E94DB057C01C8010E94DB05909387057C
:103B5000809386058091730260E00E94D42B08E870
:103B600015E0C8016FEF7FEFC7DCC80162E0BEDC83
:103B7000C80160E070E040E050E0B2DCC80161E400
:103B800072E00E94A926C80166E970E040E050E0BA
:103B9000A7DCC80166E472E00E94A926C80162E2BF
:103BA00071E040E050E09CDCC80162E572E00E94F8
:103BB000A726C801B7014AE050E00E947C26C80150
:103BC00061E094DCC80160E070E04CE350E088DC28
:103BD000C8016DE272E00E94A926C80160E070E0B1
:103BE00040E550E07DDCC80164E372E00E94A92654
:103BF000C80162E07BDCC80160E070E04CED50E0A1
:103C00006FDCC80164E572E00E94A9261F910F9144
:103C1000FF90EF900895EF92FF920F931F937B0117
:103C200008E815E0C8016FEF7FEF66DCC80162E0CD
:103C30005DDCC80168E171E040E050E051DCC801A2
:103C4000B7014AE050E00E947C261F910F91FF903F
:103C5000EF900895EF92FF920F931F9388E895E0FD
:103C6000EE24FF240E94F6141F910F91FF90EF9015
:103C700008950F931F9308E815E0C8010E94A61548
:103C8000C80163E00E946F15C80160E070E00E9407
:103C9000DB141F910F9108950F931F93809173026E
:103CA00060E00E94D42B08E815E0C80160E070E0F5
:103CB00023DCC8016CE01ADCC8016BE470E04CE363
:103CC00050E00EDC6091840570918505C8014AE0E2
:103CD00050E00E947C26809173020E94A02B90935A
:103CE000850580938405C8016FEF7FEF05DCC8016F
:103CF0006CE0FCDBC8016BE470E04CE350E0F0DB0F
:103D00006091840570918505C8014AE050E0F4D7C0
:103D10001F910F910895AF92BF92CF92DF92EF92D1
:103D2000FF920F931F935B01B8E8CB2EB5E0DB2E1B
:103D3000C60162E370E04CED50E020E530E004E1C4
:103D400010E0EE24FF240E94F614C6016FEF7FEF0F
:103D5000D3DBC60162E0CADBC60162E370E04CED72
:103D600050E0BEDBC601B5010E94BA261F910F913B
:103D7000FF90EF90DF90CF90BF90AF900895CF92DB
:103D8000DF92EF92FF920F931F93DF93CF9300D0B8
:103D900000D0CDB7DEB78C016B017E010894E11C29
:103DA000F11C11C086EB95E00E940D06C70166EB81
:103DB00075E00E94FE06C801B701ADDFC7010E9491
:103DC0005B2AC80169DFF6018081882359F7808169
:103DD000882329F486EB95E061E00E94F805C8018C
:103DE00066E470E047E350E02CED30E006E910E0D7
:103DF00031DF26960FB6F894DEBF0FBECDBFCF9150
:103E0000DF911F910F91FF90EF90DF90CF90089579
:103E1000AF92BF92CF92DF92EF92FF920F931F93D8
:103E20005B0118E8C12E15E0D12EC60164EB70E0ED
:103E30004CED50E020E530E004E110E0EE24FF24FA
:103E40000E94F614C6016FEF7FEF56DBC60162E0F9
:103E50004DDBC60164EB70E04CED50E041DBC60188
:103E6000B50188D71F910F91FF90EF90DF90CF9011
:103E7000BF90AF9008958F929F92AF92BF92CF92D2
:103E8000DF92EF92FF920F931F93DF93CF93CDB703
:103E9000DEB762970FB6F894DEBF0FBECDBF7C01D0
:103EA0006B014E010894811C911C07E0A02EB12CDF
:103EB000AC0EBD1E4CC088EB95E00E94C505BC0150
:103EC00086EB95E00E948B06C40166EB75E00E94CC
:103ED000FE06C701E1DE6091860570918705C70186
:103EE0009ADEC501B4010E944B2AC701B50190DFDB
:103EF000C5010E945B2AC4010E945B2A28C0C70139
:103F000068E171E040E050E02AE030E004E110E0D8
:103F1000A1DE8091860590918705892B31F486EB8F
:103F200095E061E00E94F80512C086EB95E00E94E2
:103F3000640686EB95E060E00E94F80580918605B6
:103F40009091870501979093870580938605F601E8
:103F500080818823A9F18091860590918705892B1E
:103F600079F186EB95E00E94F505882309F4A3CF4B
:103F7000C6CF8E01035F1F4FC80166EB75E00E943C
:103F8000FE06C701B80144DFC8010E945B2AC701D1
:103F900066E470E047E350E02CED30E006E910E025
:103FA00059DE6091860570918705C70134DE88EB84
:103FB00095E00E94DB05892B41F4F601108205C0D3
:103FC000F6018081882369F7D4CF62960FB6F89402
:103FD000DEBF0FBECDBFCF91DF911F910F91FF903C
:103FE000EF90DF90CF90BF90AF909F908F9008950B
:103FF000FC0180EE92E091838083CF010C94742ABF
:10400000FC0188EE92E0918380830895FC0188EEA4
:1040100092E09183808308958AEB95E00C94B81028
:10402000FC0188EE92E091838083CF010C94742A86
:10403000FC0180EF92E0918380830895FC0180EF82
:1040400092E09183808308958BE795E00E94A4110C
:1040500090E008958BE795E00C94AB11FC0180EFA4
:1040600092E091838083CF010C94742A0F931F9365
:10407000CF93DF93BC018230910510F462E070E0D1
:10408000E0917808F0917908A0E0B0E040E050E0DD
:1040900024C08081918186179707D0F086179707F3
:1040A00071F482819381109729F013969C938E93DB
:1040B00012972CC0909379088093780827C04115F7
:1040C000510519F08417950718F4EF018D01AC0123
:1040D000DF01828193819C01F9013097D1F641156E
:1040E0005105F9F0CA01861B970B8430910580F4C5
:1040F0008A819B810115110521F0F8019383828348
:1041000004C09093790880937808FE01329645C0E8
:10411000FE01E80FF91F61937193029799838883D9
:104120003CC08091760890917708892B41F480916A
:104130007702909178029093770880937608409167
:10414000790250917A024115510541F44DB75EB79D
:104150008091750290917602481B590B2091760848
:104160003091770824173507B0F4CA01821B930BEE
:104170008617970780F0AB014E5F5F4F8417950756
:1041800050F0420F531F5093770840937608F9017F
:104190006193719302C0E0E0F0E0CF01DF91CF9135
:1041A0001F910F910895CF93DF939C01009709F41D
:1041B0008FC0EC0122971B821A826091780870915F
:1041C00079086115710581F488819981820F931FA7
:1041D00020917608309177082817390739F5D09360
:1041E0007708C093760874C0DB0140E050E0AC175C
:1041F000BD0708F1BB83AA83FE0121913191E20F33
:10420000F31FAE17BF0779F48D919C911197280F7A
:10421000391F2E5F3F4F3983288312968D919C91D1
:1042200013979B838A834115510571F4D0937908C4
:10423000C09378084DC012968D919C911397AD0153
:10424000009711F0DC01D3CFDA011396DC93CE9303
:104250001297FA0121913191E20FF31FCE17DF0778
:1042600069F488819981280F391F2E5F3F4FFA0129
:10427000318320838A819B8193838283E0E0F0E015
:10428000DB0112968D919C911397009719F0BC0158
:10429000FD01F6CFAB014E5F5F4FDB018D919C912D
:1042A000840F951F209176083091770828173907D9
:1042B00079F4309729F4109279081092780802C0A6
:1042C00013821282425050405093770840937608F0
:1042D000DF91CF91089508951F920F920FB60F921C
:1042E0000BB60F9211242F933F934F938F939F936D
:1042F000EF93FF938091C00082FD19C04091C600EA
:104300008091F305282F30E02F5F3F4F2F733070DF
:104310008091F40590E02817390759F0E091F305F2
:10432000F0E0EB52FA4F42A32093F30502C08091D4
:10433000C600FF91EF919F918F914F913F912F91E7
:104340000F900BBE0F900FBE0F901F901895089501
:104350001F920F920FB60F920BB60F9211242F934C
:104360003F934F938F939F93EF93FF938091C80058
:1043700082FD19C04091CE0080919506282F30E033
:104380002F5F3F4F2F7330708091960690E0281773
:10439000390759F0E0919506F0E0E958F94F42A34A
:1043A0002093950602C08091CE00FF91EF919F91DE
:1043B0008F914F913F912F910F900BBE0F900FBE99
:1043C0000F901F90189508951F920F920FB60F929D
:1043D0000BB60F9211242F933F934F938F939F937C
:1043E000EF93FF938091D00082FD19C04091D600D9
:1043F00080913707282F30E02F5F3F4F2F733070A9
:104400008091380790E02817390759F0E091370775
:10441000F0E0E75EF84F42A32093370702C0809197
:10442000D600FF91EF919F918F914F913F912F91E6
:104430000F900BBE0F900FBE0F901F901895089510
:104440001F920F920FB60F920BB60F9211242F935B
:104450003F934F938F939F93EF93FF9380913001FE
:1044600082FD19C0409136018091D907282F30E094
:104470002F5F3F4F2F7330708091DA0790E028173D
:10448000390759F0E091D907F0E0E554F84F42A31D
:104490002093D90702C080913601FF91EF919F913F
:1044A0008F914F913F912F910F900BBE0F900FBEA8
:1044B0000F901F9018958091F3052091F40590E0DE
:1044C000805C9F4F821B91098F739070892B09F03C
:1044D00002DF809195062091960690E0805C9F4FC8
:1044E000821B91098F739070892B09F030DF8091C6
:1044F00037072091380790E0805C9F4F821B91091D
:104500008F739070892B09F05EDF8091D90720911D
:10451000DA0790E0805C9F4F821B91098F73907047
:10452000892B09F08CCF08951F920F920FB60F922E
:104530000BB60F9211242F938F939F93EF93FF93BA
:104540009091F5058091F605981731F48091C1009E
:104550008F7D8093C10010C0E091F605F0E0E95C2A
:10456000F94F20818091F60590E001968F7390704D
:104570008093F6052093C600FF91EF919F918F9154
:104580002F910F900BBE0F900FBE0F901F9018959C
:104590001F920F920FB60F920BB60F9211242F930A
:1045A0008F939F93EF93FF93909197068091980636
:1045B000981731F48091C9008F7D8093C90010C095
:1045C000E0919806F0E0E752F94F2081809198063B
:1045D00090E001968F739070809398062093CE00A0
:1045E000FF91EF919F918F912F910F900BBE0F90A4
:1045F0000FBE0F901F9018951F920F920FB60F923B
:104600000BB60F9211242F938F939F93EF93FF93E9
:104610009091390780913A07981731F48091D10031
:104620008F7D8093D10010C0E0913A07F0E0E5580B
:10463000F84F208180913A0790E001968F73907037
:1046400080933A072093D600FF91EF919F918F912D
:104650002F910F900BBE0F900FBE0F901F901895CB
:104660001F920F920FB60F920BB60F9211242F9339
:104670008F939F93EF93FF939091DB078091DC07DB
:10468000981731F4809131018F7D8093310110C0F2
:10469000E091DC07F0E0E35EF74F20818091DC07DA
:1046A00090E001968F7390708093DC072093360121
:1046B000FF91EF919F918F912F910F900BBE0F90D3
:1046C0000FBE0F901F901895AF92BF92DF92EF929E
:1046D000FF920F931F93CF93DF93EC017A018B012D
:1046E000DD24403081EE580780E0680780E07807DD
:1046F00011F0DD24D39491E0A92EB12CE889F98939
:10470000DD2069F0C5010C8C02C0880F991F0A9446
:10471000E2F7808360E079E08DE390E005C01082ED
:1047200060E874E88EE190E0A80197010E944F2EA6
:104730002150304040405040569547953795279539
:1047400080E12030380720F0DD2011F0DD24D6CFC5
:10475000EC85FD853083EE85FF8520831D8EEA89FB
:10476000FB89408121E030E0C901088C02C0880F3C
:10477000991F0A94E2F7482B4083EA89FB8940811C
:10478000C901098C02C0880F991F0A94E2F7482BCF
:104790004083EA89FB894081C9010A8C02C0880FE5
:1047A000991F0A94E2F7482B4083EA89FB898081AC
:1047B0000B8C02C0220F331F0A94E2F720952823A6
:1047C0002083DF91CF911F910F91FF90EF90DF90A9
:1047D000BF90AF900895FC01268D878D30E0205C5E
:1047E0003F4F281B31092F733070C9010895FC0118
:1047F000968D878D981719F42FEF3FEF06C0878DA0
:10480000E80FF11D82A1282F30E0C9010895DC01D5
:104810005E969C915E975F968C915F97981719F4BE
:104820002FEF3FEF10C05F968C915F97FD01E80F6F
:10483000F11D92A15F968C915F978F5F8F735F964A
:104840008C93292F30E0C9010895DC015D968C918D
:104850005D97882339F05096ED91FC9151978081B6
:1048600086FFF9CF5D961C920895DC0190968C919D
:104870009097282F30E02F5F3F4F2F733070919625
:104880008C91919790E028173907C9F390968C91F5
:104890009097FD01E80FF11DEE59FF4F6083909650
:1048A0002C9390975296ED91FC915397208181E043
:1048B00090E05B960C905B9702C0880F991F0A945A
:1048C000E2F7282B208381E05D968C935D975096CC
:1048D000ED91FC91519780818064808381E090E02C
:1048E00008951F931092D8051092D70528EE33E053
:1048F00040E050E02093D9053093DA054093DB0582
:104900005093DC0568EF72E07093D6056093D5058F
:104910001092F6058091F6058093F5051092F40546
:104920008091F4058093F30585EC90E09093E20587
:104930008093E10584EC90E09093E4058093E30597
:1049400080EC90E09093E6058093E50581EC90E0A3
:104950009093E8058093E70582EC90E09093EA0558
:104960008093E90586EC90E09093EC058093EB054D
:1049700014E01093ED05B3E0B093EE05A7E0A0932B
:10498000EF05F5E0F093F005E1E0E093F10510921A
:104990007A061092790620937B0630937C0640932A
:1049A0007D0650937E06709378066093770610928A
:1049B00098068091980680939706109296068091AB
:1049C0009606809395068DEC90E0909384068093F4
:1049D00083068CEC90E0909386068093850688ECA5
:1049E00090E0909388068093870689EC90E09093FE
:1049F0008A06809389068AEC90E090938C068093D7
:104A00008B068EEC90E090938E0680938D0610932B
:104A10008F06B0939006A0939106F0939206E093D0
:104A2000930610921C0710921B0720931D073093CA
:104A30001E0740931F075093200770931A07609337
:104A4000190710923A0780913A078093390710921C
:104A50003807809138078093370785ED90E0909371
:104A600026078093250784ED90E090932807809394
:104A7000270780ED90E090932A078093290781ED26
:104A800090E090932C0780932B0782ED90E0909319
:104A90002E0780932D0786ED90E09093300780934A
:104AA0002F0710933107B0933207A0933307F09389
:104AB0003407E09335071092BE071092BD0720938C
:104AC000BF073093C0074093C1075093C20770934C
:104AD000BC076093BB071092DC078091DC078093D2
:104AE000DB071092DA078091DA078093D90785E314
:104AF00091E09093C8078093C70784E391E0909377
:104B0000CA078093C90780E391E09093CC07809314
:104B1000CB0781E391E09093CE078093CD0782E3AA
:104B200091E09093D0078093CF0786E391E0909334
:104B3000D2078093D1071093D307B093D407A093E3
:104B4000D507F093D607E093D7071F910895CF922A
:104B5000DF92EF92FF920F931F93CF93DF937C012D
:104B60006B018A01C0E0D0E00FC0D6016D916D01EC
:104B7000D701ED91FC910190F081E02DC7011995CD
:104B8000C80FD91F015010400115110571F7CE0152
:104B9000DF91CF911F910F91FF90EF90DF90CF9019
:104BA0000895EF92FF920F931F938C01DC01ED911A
:104BB000FC910190F081E02D6DE019957C01D80108
:104BC000ED91FC910190F081E02DC8016AE019950A
:104BD0009C012E0D3F1DC9011F910F91FF90EF9079
:104BE0000895CF93DF93EC016115710519F420E06E
:104BF00030E00FC0DB010D900020E9F71197A61BF4
:104C0000B70BE881F9810280F381E02DAD011995A0
:104C10009C01C901DF91CF9108954F925F927F92DD
:104C20008F929F92AF92BF92CF92DF92EF92FF92BC
:104C30000F931F93DF93CF93CDB7DEB7A1970FB636
:104C4000F894DEBF0FBECDBF2C01742ECB012230F5
:104C500008F42AE019A231E2C32ED12CCC0EDD1EBD
:104C6000822E9924AA24BB24672D752FA5019401B7
:104C70000E944F2E79018A01C801B701A501940154
:104C8000C8D7472D461B0894C108D1084A3014F4F0
:104C9000405D01C0495CF6014083E114F104010567
:104CA000110521F07E2C5F2DC801DECFC201B601B7
:104CB00098DFA1960FB6F894DEBF0FBECDBFCF919F
:104CC000DF911F910F91FF90EF90DF90CF90BF90F9
:104CD000AF909F908F907F905F904F900895DC01F0
:104CE0002115310541F4ED91FC910190F081E02D09
:104CF000642F1995089591CFEF92FF920F931F9310
:104D00009A017B0100E010E0B801A701E8DF1F91E4
:104D10000F91FF90EF900895CF92DF92EF92FF9264
:104D20000F931F936C017B019A0100E010E0B80122
:104D3000A701D5DF8C01C60134DF080F191FC80198
:104D40001F910F91FF90EF90DF90CF90089549CF82
:104D50000895EF92FF920F931F937C0142DF8C0125
:104D6000C7011FDF080F191FC8011F910F91FF9086
:104D7000EF900895AF92BF92CF92DF92EF92FF92A1
:104D80000F931F93CF93DF935C016B01EE24FF24FD
:104D9000C0E0D0E00FC0D501ED91FC910081118100
:104DA000C601BE011DD2682FC501F8011995E80E94
:104DB000F91E2196F60184819581C817D90758F309
:104DC000C701DF91CF911F910F91FF90EF90DF907E
:104DD000CF90BF90AF900895883008F078C0E82F4A
:104DE000F0E0EE0FFF1FE35AF74F718360838330CB
:104DF000D9F0843030F4813009F444C0823060F45A
:104E000039C0853051F18530D8F0863009F446C07C
:104E1000873009F05CC04FC0809169008C7F842B83
:104E200080936900E89A089580916900440F551FA6
:104E3000440F551F837F842B80936900E99A08955E
:104E40008091690074E0440F551F7A95E1F78F7CDB
:104E5000842B80936900EA9A08958091690066E046
:104E6000440F551F6A95E1F78F73842B8093690077
:104E7000EB9A089580916A008C7F842B80936A005E
:104E8000EC9A089580916A00440F551F440F551FF6
:104E9000837F842B80936A00ED9A089580916A0045
:104EA00024E0440F551F2A95E1F78F7C842B8093D3
:104EB0006A00EE9A089580916A0096E0440F551FAB
:104EC0009A95E1F78F73842B80936A00EF9A089587
:104ED0001F920F920FB60F920BB60F9211242F93C1
:104EE0003F934F935F936F937F938F939F93AF9372
:104EF000BF93EF93FF938091610890916208892B93
:104F000029F0E0916108F09162081995FF91EF9105
:104F1000BF91AF919F918F917F916F915F914F91D1
:104F20003F912F910F900BBE0F900FBE0F901F90CF
:104F300018951F920F920FB60F920BB60F92112475
:104F40002F933F934F935F936F937F938F939F9391
:104F5000AF93BF93EF93FF938091630890916408A0
:104F6000892B29F0E0916308F09164081995FF916D
:104F7000EF91BF91AF919F918F917F916F915F91D1
:104F80004F913F912F910F900BBE0F900FBE0F903E
:104F90001F9018951F920F920FB60F920BB60F929B
:104FA00011242F933F934F935F936F937F938F932E
:104FB0009F93AF93BF93EF93FF9380916508909178
:104FC0006608892B29F0E0916508F091660819952B
:104FD000FF91EF91BF91AF919F918F917F916F91D1
:104FE0005F914F913F912F910F900BBE0F900FBE8D
:104FF0000F901F9018951F920F920FB60F920BB63D
:105000000F9211242F933F934F935F936F937F934E
:105010008F939F93AF93BF93EF93FF938091670814
:1050200090916808892B29F0E0916708F091680851
:105030001995FF91EF91BF91AF919F918F917F91C2
:105040006F915F914F913F912F910F900BBE0F90F9
:105050000FBE0F901F9018951F920F920FB60F92D0
:105060000BB60F9211242F933F934F935F936F933F
:105070007F938F939F93AF93BF93EF93FF93809111
:105080005D0890915E08892B29F0E0915D08F09110
:105090005E081995FF91EF91BF91AF919F918F910C
:1050A0007F916F915F914F913F912F910F900BBE28
:1050B0000F900FBE0F901F9018951F920F920FB672
:1050C0000F920BB60F9211242F933F934F935F9340
:1050D0006F937F938F939F93AF93BF93EF93FF93C0
:1050E00080915F0890916008892B29F0E0915F081A
:1050F000F09160081995FF91EF91BF91AF919F9149
:105100008F917F916F915F914F913F912F910F9070
:105110000BBE0F900FBE0F901F9018951F920F920D
:105120000FB60F920BB60F9211242F933F934F930C
:105130005F936F937F938F939F93AF93BF93EF93FF
:10514000FF938091690890916A08892B29F0E0917A
:105150006908F0916A081995FF91EF91BF91AF919D
:105160009F918F917F916F915F914F913F912F917F
:105170000F900BBE0F900FBE0F901F9018951F92AF
:105180000F920FB60F920BB60F9211242F933F93ED
:105190004F935F936F937F938F939F93AF93BF933F
:1051A000EF93FF9380916B0890916C08892B29F005
:1051B000E0916B08F0916C081995FF91EF91BF9108
:1051C000AF919F918F917F916F915F914F913F919F
:1051D0002F910F900BBE0F900FBE0F901F90189540
:1051E000FC01848195816817790748F40190F0816A
:1051F000E02D309721F0E60FF71F8081089580E0C1
:1052000008950F931F93CF93DF93EC018B016F5F92
:105210007F4F888199811BD4009711F480E005C0ED
:10522000998388831B830A8381E0DF91CF911F914B
:105230000F910895CF93DF93EC0188819981892B99
:1052400029F08A819B818617970758F4CE01D9DF10
:10525000882341F08C819D81892B19F4E881F981A3
:10526000108281E0DF91CF910895EF92FF920F932A
:105270001F93CF93DF93EC017B016C817D81E1145F
:10528000F104B9F04115510591F08A01060F171F7D
:10529000B801D0DF882369F0888199812C813D8114
:1052A000820F931FB7010E94C5031D830C8381E009
:1052B00001C080E0DF91CF911F910F91FF90EF909F
:1052C0000895CF93DF93EC0188819981009711F0C5
:1052D0000E94D320198218821D821C821B821A828E
:1052E000DF91CF9108950F931F93182F092F611508
:1052F000710559F0DB010D900020E9F71197A61B0D
:10530000B70BAD01B2DF882319F4812F902FD9DFBD
:10531000812F902F1F910F9108950F931F93182F96
:10532000092FFB0160817181448155819EDF8823B3
:1053300019F4812F902FC5DF812F902F1F910F918E
:105340000895EF92FF920F931F93CF93DF93EC0199
:105350007B018A01BA016EDF882319F4CE01B1DF27
:1053600007C01D830C8388819981B7010E94C50302
:10537000CE01DF91CF911F910F91FF90EF90089593
:10538000CF93DF93EC01198218821B821A821D824F
:105390001C826115710549F0DB010D900020E9F7D1
:1053A0001197A61BB70BAD01CCDFDF91CF9108950C
:1053B000CF93DF93EC01198218821B821A821D821F
:1053C0001C826115710549F0DB010D900020E9F7A1
:1053D0001197A61BB70BAD01B4DFDF91CF910895F4
:1053E0000F931F93182F092F6115710551F0DB01E1
:1053F0000D900020E9F71197A61BB70BAD01A1DFB7
:1054000001C05FDF812F902F1F910F910895EF92C0
:10541000FF920F931F93DF93CF93CDB7DEB76197C2
:105420000FB6F894DEBF0FBECDBF8C01CB01F801E3
:105430001182108213821282158214827E010894D6
:10544000E11CF11CB70150E00E94CC03C801B70178
:10545000C7DF61960FB6F894DEBF0FBECDBFCF9108
:10546000DF911F910F91FF90EF900895CF93DF93FD
:10547000EC01FB018617970751F06081718161157E
:10548000710521F0448155815CDF01C01ADFCE0136
:10549000DF91CF910895FC01118210821382128254
:1054A00015821482E3CFFC011182108213821282D2
:1054B00015821482DBCFFC01808191810C94D32072
:1054C000FC01808191810C94D320CF93DF936FD026
:1054D0000E944A04CBE5D2E20E942B042097E1F31C
:1054E0000E945B22F9CF08950C94D32008951F9257
:1054F0000F920FB60F9211242F933F938F939F9388
:10550000AF93BF938091710890917208A091730836
:10551000B0917408309175080196A11DB11D232F1B
:105520002D5F2D3720F02D570196A11DB11D209321
:1055300075088093710890937208A0937308B093D4
:10554000740880916D0890916E08A0916F08B091D9
:1055500070080196A11DB11D80936D0890936E088F
:10556000A0936F08B0937008BF91AF919F918F91F6
:105570003F912F910F900FBE0F901F9018958FB7EE
:10558000F8942091710830917208409173085091FD
:1055900074088FBFB901CA010895019739F0880FC7
:1055A000991F880F991F02970197F1F70895789432
:1055B00084B5826084BD84B5816084BD85B5826018
:1055C00085BD85B5816085BDEEE6F0E080818160B6
:1055D0008083E1E8F0E010828081826080838081B6
:1055E00081608083E0E8F0E0808181608083E1EB8E
:1055F000F0E0808184608083E0EBF0E08081816076
:105600008083E1E9F0E08081826080838081816035
:105610008083E0E9F0E0808181608083E1EAF0E06E
:10562000808182608083808181608083E0EAF0E015
:10563000808181608083E1E2F1E08081826080830B
:10564000808181608083E0E2F1E0808181608083FD
:10565000EAE7F0E0808184608083808182608083DB
:105660008081816080838081806880831092C10006
:105670000895EF92FF920F931F93CF93DF937B01D7
:105680008C013FB7F89480916D0890916E08A091BD
:105690006F08B091700826B5A89B05C02F3F19F080
:1056A0000196A11DB11D3FBFBA2FA92F982F8827A2
:1056B000820F911DA11DB11D52E0880F991FAA1FD5
:1056C000BB1F5A95D1F7EC012FC0A2D23FB7F89477
:1056D00080916D0890916E08A0916F08B09170084C
:1056E00026B5A89B05C02F3F19F00196A11DB11D3D
:1056F0003FBFBA2FA92F982F8827820F911DA11D78
:10570000B11D32E0880F991FAA1FBB1F3A95D1F730
:105710008C1B9D0B885E9340C0F20894E108F10851
:1057200001091109C851DC4FE114F104010511050B
:1057300061F6DF91CF911F910F91FF90EF90089547
:10574000382F863308F0365320917B00832F8695BF
:105750008695869590E08170907043E0880F991F40
:105760004A95E1F7277F282B20937B0037708091A3
:105770007B028295880F880F807C832B80937C002E
:1057800080917A00806480937A0080917A0086FD0F
:10579000FCCF2091780040917900942F80E030E098
:1057A000282B392BC9010895CF93DF93482F50E060
:1057B000CA018858994FFC0134914E5C594FFA0147
:1057C0008491882369F190E0880F991FFC01EC51C6
:1057D000FA4FA591B491FC01E250FA4FC591D491D2
:1057E000662351F42FB7F8948C91932F90958923C9
:1057F0008C93888189230BC0623061F42FB7F894B1
:105800008C91932F909589238C938881832B888307
:105810002FBF06C09FB7F8948C91832B8C939FBFAA
:10582000DF91CF910895893009F449C08A30A0F4FE
:10583000843051F1853040F4823079F1833000F5C5
:10584000813009F063C026C0873079F1883098F53F
:10585000863009F05BC025C08D3009F442C08E301F
:1058600028F48B30B1F18C30C0F52DC0803109F4B3
:1058700042C0813109F445C08F3009F047C037C0BC
:10588000809180008F7703C0809180008F7D80930E
:105890008000089584B58F7702C084B58F7D84BD64
:1058A00008958091B0008F7703C08091B0008F7D04
:1058B0008093B0000895809190008F7707C0809109
:1058C00090008F7D03C080919000877F809390002F
:1058D00008958091A0008F7707C08091A0008F7DF0
:1058E00003C08091A000877F8093A00008958091DD
:1058F00020018F7703C0809120018F7D809320014C
:10590000089580912001877F809320010895FF9260
:105910000F931F93F62E482F50E0CA018254994FDF
:10592000FC012491CA018858994FFC0114914E5CE6
:10593000594FFA0104910023C1F0222311F0822F64
:1059400072DFE02FF0E0EE0FFF1FE250FA4FA5915B
:10595000B4919FB7F894FF2021F48C911095812386
:1059600002C08C91812B8C939FBF1F910F91FF9050
:1059700008950F931F93482F50E0CA018254994F06
:10598000FC012491CA018858994FFC0104914E5C96
:10599000594FFA011491112319F420E030E014C09A
:1059A000222311F0822F3FDF812F90E0880F991F73
:1059B000885E994FFC01A591B4918C9120E030E074
:1059C000802311F021E030E0C9011F910F9108956B
:1059D000BF92CF92DF92EF92FF920F931F93CF93DC
:1059E000DF93E82EF62EB42EC7E0D0E0022F10E0B1
:1059F00087E0C82ED12CBB2059F4B6016C1B7D0B5F
:105A0000C80102C0959587956A95E2F7BC0107C069
:105A1000B8010C2E02C0759567950A94E2F7617083
:105A20008E2D75DF8F2D61E072DF8F2D60E06FDFCF
:105A300021979FEFCF3FD907F1F6DF91CF911F91CB
:105A40000F91FF90EF90DF90CF90BF9008956F92ED
:105A50007F928F929F92AF92BF92CF92DF92EF92FE
:105A6000FF920F931F93CF93DF938C01009729F43C
:105A7000CB010E9436208C01BBC08EEFE82E8FEF49
:105A8000F82EE00EF11E4801860E971E8E149F041C
:105A900008F4ACC0D7014D915C9111974617570798
:105AA000B8F04530510508F4A3C0CA010497861721
:105AB000970708F49DC042505040461B570BF40115
:105AC000419351936D937C93CF010E94D32090C05A
:105AD0005B01A41AB50A3801640E751EA0917808FE
