:100000000C948E030C94F42C0C94252D0C94562DEA
:100010000C94872D0C94B82D0C94E92D0C941A2E69
:100020000C944B2E0C94BB030C94BB030C94BB039D
:100030000C94BB030C94BB030C94BB030C94BB0348
:100040000C94BB030C94BB030C94BB030C94BB0338
:100050000C94BB030C94BB030C94BB030C94633053
:100060000C94BB030C94AF250C94DB260C94BB03BF
:100070000C94BB030C94BB030C94BB030C94BB0308
:100080000C94BB030C94BB030C94BB030C94BB03F8
:100090000C94EB250C940F270C94BB030C94BB031E
:1000A0000C94BB030C94BB030C94BB030C94BB03D8
:1000B0000C94BB030C94BB030C94BB030C94BB03C8
:1000C0000C94BB030C94BB030C94BB030C94272629
:1000D0000C9443270C94BB030C9463260C94772751
:1000E0000C94BB0300000000003E5B4F5B3E3E6B88
:1000F0004F6B3E1C3E7C3E1C183C7E3C181C577DC2
:10010000571C1C5E7F5E1C00183C1800FFE7C3E70D
:10011000FF0018241800FFE7DBE7FF30483A060E1F
:100120002629792926407F050507407F05253F5A66
:100130003CE73C5A7F3E1C1C08081C1C3E7F1422D6
:100140007F22145F5F005F5F06097F017F00668981
:10015000956A606060606094A2FFA29408047E04C7
:100160000810207E201008082A1C08081C2A0808ED
:100170001E101010100C1E0C1E0C30383E383006AD
:100180000E3E0E06000000000000005F00000007A9
:10019000000700147F147F14242A7F2A12231308D7
:1001A000646236495620500008070300001C2241B3
:1001B000000041221C002A1C7F1C2A08083E080857
:1001C0000080703000080808080800006060002007
:1001D000100804023E5149453E00427F40007249EA
:1001E0004949462141494D331814127F102745458E
:1001F00045393C4A494931412111090736494949A4
:1002000036464949291E0000140000004034000011
:10021000000814224114141414140041221408027A
:10022000015909063E415D594E7C1211127C7F49ED
:100230004949363E414141227F4141413E7F494942
:1002400049417F090909013E414151737F0808086E
:100250007F00417F41002040413F017F081422413F
:100260007F404040407F021C027F7F0408107F3E99
:100270004141413E7F090909063E4151215E7F0906
:10028000192946264949493203017F01033F40406D
:10029000403F1F2040201F3F4038403F6314081458
:1002A0006303047804036159494D43007F41414190
:1002B0000204081020004141417F04020102044071
:1002C00040404040000307080020545478407F28F5
:1002D0004444383844444428384444287F385454EB
:1002E000541800087E090218A4A49C787F0804040E
:1002F0007800447D40002040403D007F10284400AD
:1003000000417F40007C047804787C08040478383D
:1003100044444438FC1824241818242418FC7C086D
:10032000040408485454542404043F44243C4040EA
:10033000207C1C2040201C3C4030403C442810289D
:10034000444C9090907C4464544C440008364100E6
:100350000000770000004136080002010204023C60
:100360002623263C1EA1A161123A4040207A38542F
:1003700054555921555579412254547842215554A8
:10038000784020545579400C1E52721239555555FB
:1003900059395454545939555454580000457C41E6
:1003A0000002457D420001457C407D1211127DF026
:1003B000282528F07C545545002054547C547C0A50
:1003C000097F4932494949323A4444443A324A4819
:1003D00048303A4141217A3A42402078009DA0A01D
:1003E0007D3D4242423D3D4040403D3C24FF24246F
:1003F000487E4943662B2FFC2F2BFF0929F620C08E
:10040000887E090320545479410000447D413048DE
:10041000484A32384040227A007A0A0A727D0D1921
:10042000317D2629292F28262929292630484D4083
:1004300020380808080808080808382F10C8ACBA7F
:100440002F102834FA00007B000008142A142222FE
:10045000142A14085500550055AA55AA55AAFF5547
:10046000FF55FF000000FF00101010FF00141414CF
:10047000FF001010FF00FF1010F010F0141414FC17
:10048000001414F700FF0000FF00FF1414F404FC34
:10049000141417101F10101F101F1414141F001015
:1004A0001010F0000000001F101010101F1010108E
:1004B00010F010000000FF1010101010101010109D
:1004C000FF10000000FF140000FF00FF00001F10DD
:1004D000170000FC04F414141710171414F404F497
:1004E0000000FF00F714141414141414F700F71488
:1004F0001414171410101F101F141414F4141010D7
:10050000F010F000001F101F0000001F140000007A
:10051000FC140000F010F01010FF10FF141414FF72
:10052000141010101F00000000F010FFFFFFFFFF6D
:10053000F0F0F0F0F0FFFFFF0000000000FFFF0F01
:100540000F0F0F0F3844443844FC4A4A4A347E02A5
:10055000020606027E027E02635549416338444426
:100560003C04407E201E2006027E020299A5E7A5DB
:10057000991C2A492A1C4C7201724C304A4D4D304C
:100580003048784830BC625A463D3E494949007E71
:100590000101017E2A2A2A2A2A44445F4444405108
:1005A0004A444040444A51400000FF0103E080FFBC
:1005B000000008086B6B083612362436060F090F48
:1005C00006000018180000001010003040FF010164
:1005D000001F01011E00191D1712003C3C3C3C008D
:1005E0000000000000002100240027002A002D0048
:1005F0003000330001010000040107010A0100007E
:100600002200250028002B002E00310034000201BA
:100610000000050108010B01000020002300260056
:1006200029002C002F003200000100000301060108
:100630000901050505050705080808080202020268
:100640000A0A08080404040401010101010101016E
:100650000303030303030303040707070C0C0C0C39
:100660000C0C0C0C02020202060606060606060622
:100670000B0B0B0B0B0B0B0B0102102020080810AF
:100680002040102040800201020108040201010202
:1006900004081020408080402010080402018004DB
:1006A0000201804020100804020108040201010236
:1006B000040810204080010204081020408000003F
:1006C000090A02080B0C0D070603040100000000D4
:1006D000000000000000000000000000000000001A
:1006E0000000000000000000000011100F000000DA
:1006F00000000000000000000000000000000000FA
:10070000000000003004D50548070213F11C6D1EDF
:100710001B24B8282904CE05EA1C661E11241FBE1E
:10072000CFEFD1E2DEBFCDBF00E00CBF13E0A0E011
:10073000B2E0EAEEFEE600E00BBF02C007900D92C9
:10074000AE33B107D9F71BBE18E0AEE3B3E001C08A
:100750001D92A83CB107E1F717E0C4E1D7E004C05F
:100760002297FE010E946437C430D107C9F70E9466
:1007700050300C9468370C940000FB01DC0102C07F
:1007800001900D9241505040D8F70895FB01DC01D3
:100790008D91019080190110D9F3990B0895FB01F7
:1007A000DC0101900D920020E1F70895FB019F010B
:1007B000423074F0453264F4642F77270E94193771
:1007C000805D8A330CF0895D8193CB010097A1F79E
:1007D0001082C9010C94EC03DC01FC01672F7191BC
:1007E0007723E1F7329704C07C916D937083629117
:1007F000AE17BF07C8F3089581309105A1F46F5F6C
:100800007F4F31F584E493E00E94851C86E493E0F9
:100810000E94271E8EE493E00E94360780E593E055
:100820000E94A5050895892B99F46F5F7F4F81F48D
:1008300080E593E00E94AB058EE493E00E943C07C4
:1008400086E493E00E942D1E84E493E00E948B1CBA
:10085000089580E090E06FEF7FEF0E94FC03089521
:1008600081E090E06FEF7FEF0E94FC03089580919C
:100870004203909143038230910571F083309105DA
:1008800091F00197B1F486E493E060E473E041E411
:1008900053E00E94B921089586E493E060E473E098
:1008A0000E942321089586E493E06EE373E00E94A2
:1008B0004C1F089583E296E040E855E260E070E066
:1008C0000E94AB2786E493E00E94722084E493E0C8
:1008D0000E94DB1D909343038093420383E061E019
:1008E0000E94A1328BE061E00E94A13288E360E0C7
:1008F0000E94A13289E360E00E94A13280919F02B0
:1009000060E00E94A1328091A10260E00E94A132C9
:1009100084E493E00E94DB1D8230910509F43CC021
:100920008330910509F455C0019709F08AC02091E0
:100930009F023091A0022230310511F480E00DC0F9
:100940002330310511F481E008C0C90142970497B2
:1009500010F08FEF02C087E1821B60E775E043E093
:1009600050E00E94782C2091A1023091A202223006
:10097000310511F480E00DC02330310511F481E020
:1009800008C0C9014297049710F08FEF02C087E1B9
:10099000821B6DE575E018C020919F023091A00286
:1009A0002230310511F480E00DC02330310511F4FF
:1009B00081E008C0C9014297049710F08FEF02C090
:1009C00087E1821B64E575E043E050E00E94782CEB
:1009D000089520919F023091A0022230310511F438
:1009E00080E00DC02330310511F481E008C0C90159
:1009F0004297049710F08FEF02C087E1821B6BE3F0
:100A000075E043E050E00E94782C2091A1023091E3
:100A1000A2022230310511F480E00DC023303105EF
:100A200011F481E008C0C9014297049710F08FEFDC
:100A300002C087E1821B62E275E043E050E00E9461
:100A4000782C089564E670E080E090E00E94253103
:100A50008091A1020E948733892B61F060913E034F
:100A600070913F0384E493E00E94911C90933F03B4
:100A700080933E03089564E670E080E090E00E9479
:100A8000253180919F020E948733892B61F060910C
:100A90003E0370913F0384E493E00E94511D9093C4
:100AA0003F0380933E0308956091400384E493E004
:100AB0000E942B1D80934003089564E670E080E05F
:100AC00090E00E9425318091A1020E948733892BFA
:100AD00031F084E493E061E473E00E94BE1C089569
:100AE00064E670E080E090E00E94253180919F02F2
:100AF0000E948733892B31F084E493E060E473E053
:100B00000E94F81C089580E090E00E94DD3520E00E
:100B100030E040EB52E40E94DB3420E635EE40ED5D
:100B20005EE30E949336089580E090E00E94DD35F8
:100B300020E635EE40ED5EE30E94443520E030E0F3
:100B400040EB52E40E94DC340895FC018AEB92E011
:100B5000918380830895FC018AEB92E091838083E6
:100B600008958130910561F46F5F7F4FB1F482E5A4
:100B700093E00E94292484E593E00E940F240895C5
:100B8000892B59F46F5F7F4F41F484E593E00E9415
:100B9000152482E593E00E942F24089580E090E0E0
:100BA0006FEF7FEF0E94B105089581E090E06FEF55
:100BB0007FEF0E94B10508950F931F939B016F3F34
:100BC0007105B1F0A8F0CB016FEF70E00E9419370A
:100BD0008C01281B390B82E593E06DEC70E0A901D4
:100BE0000E943B2482E593E06EEC70E0A80105C012
:100BF00082E593E06DEC70E0A9010E943B241F9117
:100C00000F910895AB0182E593E068EC70E00E94DB
:100C10003B24089582E593E06DEC70E00E9435245A
:100C20008F3F910511F09C0109C082E593E06EECC5
:100C300070E00E9435249C0121503F4FC901089566
:100C400082E593E068EC70E00E9435240895FC0191
:100C50008AEB92E091838083CF010E9460300895F7
:100C60008F929F92AF92BF92CF92DF92EF92FF92BC
:100C70000F931F93CF93DF938C01EB0104960E9497
:100C80005D244C01209709F43FC0CE014996883C71
:100C9000910518F4CFEAD0E005C08D52914010F0D4
:100CA000C3E1D1E083E0A82EB12CA00EB11EC50196
:100CB0000E944924B40180E090E00E94DD356B0180
:100CC0007C01BE016A507040C8010E9494059B01DE
:100CD000AC01C701B6010E944035882334F4C50138
:100CE00068EC70E00E9459243DC02A96C801BE01FC
:100CF0000E9494059B01AC01C701B6010E948F368A
:100D0000181684F5C5012CC0BC0180E090E00E945B
:100D1000DD356B017C01C8016AE070E00E9494053A
:100D20009B01AC01C701B6010E94403588232CF419
:100D3000C80103960E94492411C0C80162E070E016
:100D40000E9494059B01AC01C701B6010E948F3639
:100D5000181624F4C80103960E944E24C801039675
:100D60000E945324C401DF91CF911F910F91FF90F6
:100D7000EF90DF90CF90BF90AF909F908F900895AD
:100D80006F927F928F929F92AF92BF92CF92DF929B
:100D9000EF92FF920F931F93CF93DF93EC01FB0130
:100DA000808123E0822E912C8C0E9D1E882309F4D5
:100DB0003DC0C4010E94492494E0692E712C6C0E40
:100DC0007D1EC3010E945D247C01CE016AE570E0B6
:100DD0000E9494055B016C0100E010E0C801B701BE
:100DE0000E94DD35A60195010E944035882334F428
:100DF000C40168EC70E00E9459241EC0C3010E9427
:100E00005D247C01CE0164E670E00E9494055B01E4
:100E10006C0100E010E0C801B7010E94DD35A601B9
:100E200095010E948F3618163CF403C0C4010E943D
:100E30004E24C4010E945324CE0104960E945D24D6
:100E4000BC01CE010E9483050E94B135CB01DF9128
:100E5000CF911F910F91FF90EF90DF90CF90BF90B7
:100E6000AF909F908F907F906F900895FC0182ECDF
:100E700092E0918380830895FC0182EC92E091835B
:100E800080830895809156030895609356030895D2
:100E90000F931F930BE513E0C80165E046E027E0E0
:100EA0000E945C138EE593E0B8010E94B0131F917D
:100EB0000F910895DF93CF93CDB7DEB729970FB683
:100EC000F894DEBF0FBECDBFCE0101966BE573E097
:100ED0000E94B0138B8190E020916003821B9109E6
:100EE00020E13EE0829FF001839FF00D929FF00D84
:100EF00011248A8190E020915F03821B91092CE3E9
:100F000030E0AC01429FC001439F900D529F900D75
:100F10001124E80FF91F898190E020915E03821B64
:100F20009109E80FF91FCF016CE370E00E941937B7
:100F30009C019093580380935703CF01821B930B1E
:100F40006CE370E00E94193770935A036093590361
:100F500029960FB6F894DEBF0FBECDBFCF91DF91BB
:100F600008950F931F93DF93CF93CDB7DEB72997E3
:100F70000FB6F894DEBF0FBECDBF8E010F5F1F4FBF
:100F8000C8016BE573E00E94B013AEE5B3E0F80171
:100F900089E001900D928150E1F729960FB6F894FF
:100FA000DEBF0FBECDBFCF91DF911F910F9108958E
:100FB0000F931F93DF93CF93CDB7DEB72F970FB665
:100FC000F894DEBF0FBECDBF8B0110925603CE0149
:100FD00007966BE573E00E94B013CE01019660E0C6
:100FE00072E00E949E2F8F8190E020915E03821B11
:100FF0009109081B190B888590E020915F03821BE3
:1010000091092CE330E0AC01429FC001439F900D59
:10101000529F900D1124081B190B898590E0209197
:101020006003821B910920E13EE0AC01429FC001B8
:10103000439F900D529F900D1124081B190BC8015E
:101040006CE370E00E9419379C01909358038093E1
:101050005703C801821B930B6CE370E00E941937A1
:1010600070935A03609359036115710529F4232B7A
:1010700019F481E080935603CE0101960E9444301A
:101080002F960FB6F894DEBF0FBECDBFCF91DF9184
:101090001F910F9108956F927F928F929F92AF92BE
:1010A000BF92CF92DF92EF92FF920F931F93DF9345
:1010B000CF93CDB7DEB7C254D0400FB6F894DEBFA1
:1010C0000FBECDBF782E692E6091590370915A03DF
:1010D0006E010894C11CD11CC6014AE00E94E92F90
:1010E0006091570370915803CE0107964AE00E9421
:1010F000E92FCE010D9660E072E00E949E2F609174
:10110000590370915A036A30710500F563E1E62EC8
:10111000F12CEC0EFD1EC70161E072E00E94B72FBA
:10112000C701B6010E94672FBC018E01075E1F4FE9
:10113000C8010E943030C601B8010E941930C801B0
:101140000E944430C7010E944A300EC08E01015EE9
:101150001F4FC8014AE00E94E92FC601B8010E9452
:101160001930C8010E9444306091570370915803B0
:1011700057E0C52ED12CCC0EDD1E6A30710500F56E
:1011800045E2E42EF12CEC0EFD1EC70161E072E099
:101190000E94B72FC701B6010E94672FBC018E01C4
:1011A000055D1F4FC8010E943030C601B8010E9482
:1011B0001930C8010E944430C7010E944A300EC055
:1011C0008E010F5C1F4FC8014AE00E94E92FC60143
:1011D000B8010E941930C8010E94443037E3E32E61
:1011E000F12CEC0EFD1EC7014E010894811C911CD0
:1011F000B4010E943A30C70163E072E00E944B2FB5
:1012000027E0A22EB12CAC0EBD1EB5010E94672FA7
:10121000BC018E01035C1F4FC8010E9430309DE06D
:10122000C92ED12CCC0EDD1EC601B8010E9419308A
:10123000BC01872D962D0E943030C8010E94443099
:10124000C7010E944A30C6010E944430C5010E9475
:101250004430C4010E944430872D962DCE5BDF4F71
:101260000FB6F894DEBF0FBECDBFCF91DF911F91B7
:101270000F91FF90EF90DF90CF90BF90AF909F9035
:101280008F907F906F900895FC0182EC92E09183A3
:101290008083CF010E9460300895882319F48CB5B3
:1012A000806202C08CB58F7D8CBD08959CB5937F04
:1012B000982B9CBD08952CB5382F33702C7F322B82
:1012C0003CBD2DB590E09595879595958795817056
:1012D0002E7F822B8DBD089585E361E00E945433FB
:1012E00085E361E00E94A1328CB580618CBD8CB534
:1012F00080648CBD84E361E00E94A13283E361E0FD
:101300000E94A1320895FF920F931F93CF93DF9312
:101310008B010E94AB30EB01FF24FA94FEBC0DB4AC
:1013200007FEFDCF8EB58F3F11F481E008C00E940B
:10133000AB306C1B7D0B6017710780F380E0DF9191
:10134000CF911F910F91FF900895FC01848160E07F
:101350000E9454330895FC01848161E00E9454335B
:101360000895DC016EBD0DB407FEFDCF8EB520E003
:1013700030E0FA01E20FF31F80818EBD0DB407FE4D
:10138000FDCF8EB52F5F3F4F82E02030380789F7C1
:101390008FEF8EBD0DB407FEFDCF8EB58FEF8EBDE6
:1013A0000DB407FEFDCF8EB58FEF8EBD0DB407FED9
:1013B000FDCF8EB51A968C931A978F71853011F4E4
:1013C00081E0089581E115968C931597CD010E94D7
:1013D000AB0980E00895FF920F931F93CF93DF93A3
:1013E000EC010E94AB308B01FF24FA9409C00E94EB
:1013F000AB30601B710B6D52714010F08FE00DC06F
:10140000FEBC0DB407FEFDCF8EB58A878F3F79F302
:101410008E3F11F481E006C08DE08D83CE010E94E5
:10142000AB0980E0DF91CF911F910F91FF9008955C
:10143000CF93DF93EC018E818823B1F02F81388523
:101440004FEF05C04EBD0DB407FEFDCF8EB52F5F2B
:101450003F4FC901019782509240A0F338872F83F4
:10146000CE010E94AB091E82DF91CF910895DF92D9
:10147000EF92FF920F931F93CF93DF93EC01D62E41
:1014800079018A010E94180ACE010E94A509CE01A5
:101490006CE271E00E9483098D2D80648EBD0DB4D5
:1014A00007FEFDCF8EB528E130E0D801C701022E3E
:1014B00004C0B695A795979587950A94D2F78EBDE7
:1014C0000DB407FEFDCF8EB5285030408FEF283F7A
:1014D000380759F7DD2011F485E906C088E0D816F1
:1014E00011F487E801C08FEF8EBD0DB407FEFDCF6C
:1014F0008EB590E02FEF2EBD0DB407FEFDCF8EB55B
:1015000087FF02C09150B9F78A87DF91CF911F9171
:101510000F91FF90EF90DF900895CF92DF92EF92BE
:10152000FF920F931F93CF93DF93EC017A018B010E
:101530006901411551056105710511F482E137C05A
:101540008B85833039F099E0EE0CFF1C001F111FD2
:101550009A95D1F7CE0168E1A80197010E94370A58
:10156000882311F084E023C0CE016EEFA6010E9413
:10157000B1098823E9F0CE0168E572E00E94830991
:10158000882311F485E113C0CE016DE020E030E046
:1015900040E050E00E94370A882341F48FEF8EBD6F
:1015A0000DB407FEFDCF8EB5882379F084E18D83DD
:1015B000CE010E94AB0980E0DF91CF911F910F9186
:1015C000FF90EF90DF90CF900895CE010E94AB097D
:1015D00081E0F2CF8F929F92AF92BF92CF92DF9233
:1015E000EF92FF920F931F93CF93DF93EC015A0179
:1015F0006B0149010115110509F470C0C801820F82
:10160000931F8150924008F064C08E81882371F04E
:1016100088819981AA81BB81481759076A077B078E
:1016200029F48F8198858816990610F5A882B982C9
:10163000CA82DB828B85833039F059E0AA0CBB1C4F
:10164000CC1CDD1C5A95D1F7CE0161E1A6019501B4
:101650000E94370A882319F083E08D833AC0CE01B7
:101660000E94EB098823A9F118861F8281E08E83EE
:101670008F8198852FEF06C02EBD0DB407FEFDCFDC
:101680003EB5019688159905B8F398878F8320E0B9
:1016900030E09FEF0BC09EBD0DB407FEFDCF8EB5B1
:1016A000F701E20FF31F80832F5F3F4F20173107B1
:1016B00090F32F813885200F311F38872F8389853C
:1016C000882319F02050324048F0CE010E94180AB9
:1016D00005C0CE010E94AB0980E001C081E0DF912E
:1016E000CF911F910F91FF90EF90DF90CF90BF901F
:1016F000AF909F908F900895EF92FF920F931F935A
:10170000790120E030E000E012E00E94EA0A1F9137
:101710000F91FF90EF9008956F927F928F929F921A
:10172000AF92BF92CF92DF92EF92FF920F931F93EF
:10173000CF93DF93EC017A018B012D81222309F4F1
:1017400080C08B899C89AD89BE8984179507A607BF
:10175000B70708F476C085C0E114F104010511054E
:1017600049F41E821F82188619861A861B861C86DB
:101770001D8665C02A853B854C855D85EB8DFC8D7E
:10178000858590E009962150304040405040390115
:101790004A01082E04C096948794779467940A941B
:1017A000D2F72F5F3F4F4F4F5F4F0894E108F1088A
:1017B000010911095701680104C0D694C794B79470
:1017C000A7948A95D2F70894E11CF11C011D111D04
:1017D000A614B704C804D90428F021153105410521
:1017E000510549F48F89988DA98DBA8D8E839F8379
:1017F000A887B98716C0A618B708C808D90811C0A5
:101800004E815F81688579858B8D9C8D94010E94C6
:10181000B2100894A108B108C108D108882331F496
:1018200010C086E0882E912C8C0E9D1EA114B10450
:10183000C104D10429F7EA86FB860C871D8781E065
:1018400001C080E0DF91CF911F910F91FF90EF9049
:10185000DF90CF90BF90AF909F908F907F906F90D0
:101860000895223009F078CFE6CFCF93DF93EC01D3
:10187000462F6E857F85888999890E94DB0F882392
:1018800019F420E030E00AC08A89282F30E095E082
:10189000220F331F9A95E1F727593C4FC901DF9179
:1018A000CF9108950F931F93CF93DF938C01FC0189
:1018B00085818823D9F1848187FF35C0C80161E023
:1018C0000E94350CEC01009789F1F8018581823086
:1018D00040F483899489A589B6898C8F9D8FAE8FBA
:1018E000BF8FF8018789908D9B8F8A8F8789908D14
:1018F000A18DB28DCD01AA27BB279D8B8C8BE0914A
:101900006703F0916803309751F0BE016A5E7F4F24
:10191000CE0148961995888D998D9B8B8A8BF801FD
:1019200084818F7784830E94A00F01C080E0DF91C3
:10193000CF911F910F9108952F923F924F925F92F6
:101940006F927F928F929F92AF92BF92CF92DF92CF
:10195000EF92FF920F931F93CF93DF93EC012A0135
:101960008D81882309F4C6C08C8180FFC3C0D8C094
:1019700025014E185F084B0176E0272E312C2C0EE6
:101980003D1E3201B1C02A853B854C855D856FEFD8
:10199000A62E61E0B62EA222B3228D8179018A01A2
:1019A00099E016950795F794E7949A95D1F7EB8D02
:1019B000FC8D823049F4428D538D648D758D4E0DB2
:1019C0005F1D601F711F3FC0D480DA94DE20A11418
:1019D000B104D9F4DD20C9F42115310541055105C3
:1019E00049F48F89988DA98DBA8D8E839F83A8879E
:1019F000B9870BC04E815F8168857985CF019101E0
:101A00000E94B210882309F475C0EB8DFC8D4E81C5
:101A10005F81688579854250504060407040058400
:101A200004C0440F551F661F771F0A94D2F786859E
:101A30009785A089B189480F591F6A1F7B1F4D0DDB
:101A4000511D611D711D80E092E08A199B0963019F
:101A50008615970508F46C018C8186FD06C080E030
:101A6000C81682E0D80609F073C08091A302909155
:101A7000A402A091A502B091A602481759076A07CF
:101A80007B0709F465C08091690590916A0595010D
:101A9000860174010E94EA0A882361F18C0C9D1C66
:101AA00012C0950127593C4FA9014C0D5D1DD40171
:101AB000F90102C081918D93E417F507D9F7E21B74
:101AC000F30B8E0E9F1E960140E050E08A859B85A9
:101AD000AC85BD85820F931FA41FB51F8A879B8786
:101AE000AC87BD876C187D086114710409F04BCF79
:101AF000A20102C04FEF5FEFCA01DF91CF911F91AA
:101B00000F91FF90EF90DF90CF90BF90AF909F909C
:101B10008F907F906F905F904F903F902F9008959F
:101B2000AB88BC88CD88DE88EA84FB840C851D8563
:101B30009A0140E050E0D601C5018E199F09A00B23
:101B4000B10B82179307A407B50708F411CF13CF81
:101B5000CB01BA0140E00E94DB0F882309F0A1CF3E
:101B6000C9CFCF93DF93EC019C012A5F3F4F8B8D50
:101B70009C8D41E050E060E070E00E9425118823D8
:101B8000A1F08F89988DA98DBA8D0097A105B10517
:101B900059F48E819F81A885B9858F8B988FA98FE5
:101BA000BA8F8C8180688C8381E0DF91CF9108951A
:101BB0002F923F924F925F927F928F929F92AF921D
:101BC000BF92CF92DF92EF92FF920F931F93DF931A
:101BD000CF9300D000D0CDB7DEB76C01162F072F02
:101BE0005E834D83DC0115968C911597813009F049
:101BF00070C114968C9181FF6CC18EC1F60143892E
:101C000054896589768982859385A485B5858417ED
:101C10009507A607B70731F0C6010E948C0B8823F1
:101C200009F457C1812F902F9C0129012D803E80FE
:101C300017C1D6015B96ED91FC915C97DA01C90161
:101C400019E0B695A795979587951A95D1F7748061
:101C50007A9478227FEF872E71E0972E822293224A
:101C6000772009F04EC08114910409F04AC0D601D2
:101C700016964D915D916D917C9119974115510585
:101C80006105710581F457968D919D910D90BC91E0
:101C9000A02D0097A105B10549F1F6018683978330
:101CA000A087B1872EC0CF019E012F5F3F4F0E94BA
:101CB000B210882309F414C129813A814B815C81D7
:101CC000D6015B96ED91FC915C978789803129F074
:101CD00088EF9FEFAFEFBFE004C088EF9FEFA0E079
:101CE000B0E0281739074A075B0730F0C6010E94A9
:101CF000B10D882331F4EDC0F60126833783408788
:101D0000518780E092E08819990951018215930565
:101D100008F45C01D6015B96ED91FC915C971696F8
:101D2000ED90FD900D911C9119978EEF9FEFAFEF05
:101D3000BFEFE80EF91E0A1F1B1F058404C0EE0C3E
:101D4000FF1C001F111F0A94D2F786859785A08972
:101D5000B189E80EF91E0A1F1B1FE70CF11C011DBB
:101D6000111D90E0A91692E0B90651F58091A302E9
:101D70009091A402A091A502B091A6028E159F0594
:101D8000A007B10761F48FEF9FEFAFEFBFEF809334
:101D9000A3029093A402A093A502B093A6028091FF
:101DA000690590916A05B801A70192010E948D0A08
:101DB000882309F48EC0A0E0B2E04A0E5B1E3EC04C
:101DC0008114910409F5F6012285338544855585F2
:101DD00083899489A589B689281739074A075B073B
:101DE00098F00E94A00F882309F473C0E092A30228
:101DF000F092A4020093A5021093A60280916B05B5
:101E0000816080936B0508C0C801B70141E00E9462
:101E1000DB0F882309F45DC0940127593C4FA901C9
:101E20004A0D5B1DD201F90102C08D918193E41727
:101E3000F507D9F7E21BF30B4E0E5F1E2A183B087D
:101E4000950140E050E0F60182859385A485B58533
:101E5000820F931FA41FB51F82879387A487B5871E
:101E6000D6011A962D913D914D915C911D972114AB
:101E7000310409F0DECE53968D919D910D90BC9169
:101E8000A02D82179307A407B50748F4F601238B0A
:101E9000348B458B568B84818068848311C08091FC
:101EA000670390916803892B59F08D819E81892B5E
:101EB00039F0D60114968C911497806814968C93FF
:101EC000F601848183FF0EC0C6010E94520C882354
:101ED00049F481E090E0D60113969C938E9312977B
:101EE0001E821D828D819E8126960FB6F894DEBFDC
:101EF0000FBECDBFCF91DF911F910F91FF90EF905B
:101F0000DF90CF90BF90AF909F908F907F905F9029
:101F10004F903F902F90089582FD70CE83CEDF9337
:101F2000CF930F92CDB7DEB76983BE016F5F7F4F4E
:101F300041E050E00E94D80D0F90CF91DF910895BD
:101F400080916B05882399F14091A3025091A402DE
:101F50006091A5027091A6028091690590916A0531
:101F600029E633E00E948D0A882319F140916C051F
:101F700050916D0560916E0570916F054115510589
:101F80006105710591F08091690590916A0529E6D6
:101F900033E00E948D0A882361F010926C05109244
:101FA0006D0510926E0510926F0510926B0581E021
:101FB000089580E00895DF92EF92FF920F931F93B0
:101FC0007B018C01D42E8091A3029091A402A09158
:101FD000A502B091A6028E159F05A007B107C1F01A
:101FE0000E94A00F8823D9F08091690590916A051D
:101FF000B801A70129E633E00E947C0B882379F021
:10200000E092A302F092A4020093A5021093A6020C
:1020100080916B058D2980936B0581E001C080E084
:102020001F910F91FF90EF90DF9008954F925F9274
:102030006F927F928F929F92AF92BF92CF92DF92D8
:10204000EF92FF920F931F93CF93DF93EC016A01FE
:102050007B0128013901423051056105710508F401
:102060006FC089859A85AB85BC850196A11DB11D80
:1020700084179507A607B70708F462C02B893C8927
:102080004D895E898F89803129F499278F2D7E2D86
:102090006D2D09C0C701B60117E096958795779514
:1020A00067951A95D1F74B015C01820E931EA41E11
:1020B000B51E8091A3029091A402A091A502B091B7
:1020C000A60288169906AA06BB0639F0C501B40116
:1020D00040E00E94DB0F882399F18F89803149F419
:1020E000F601F070EE0FFF1FE759FC4F518240825E
:1020F0000DC0F601EF77F070EE0FFF1FEE0FFF1F20
:10210000E759FC4F408251826282738280916B0555
:10211000816080936B058A89823080F08D819E81F9
:10212000AF81B885880E991EAA1EBB1E80926C05D1
:1021300090926D05A0926E05B0926F0581E001C08E
:1021400080E0DF91CF911F910F91FF90EF90DF9092
:10215000CF90BF90AF909F908F907F906F905F9047
:102160004F900895CF92DF92EF92FF920F931F93BB
:10217000CF93DF93EC017A018B01690189859A8500
:10218000AB85BC850196A11DB11D84179507A607D7
:10219000B70708F450C02B893C894D895E898F8927
:1021A000803129F49927812F702F6F2D09C0C80124
:1021B000B701E7E09695879577956795EA95D1F70A
:1021C000260F371F481F591F8091A3029091A40228
:1021D000A091A502B091A602281739074A075B070C
:1021E00039F0CA01B90140E00E94DB0F882319F1E0
:1021F0008F89803159F4F701F070EE0FFF1FE75916
:10220000FC4F80819181A0E0B0E00EC0F701EF7734
:10221000F070EE0FFF1FEE0FFF1FE759FC4F80819C
:102220009181A281B381BF70F60180839183A283E3
:10223000B38381E001C080E0DF91CF911F910F91C6
:10224000FF90EF90DF90CF9008952F923F924F92A2
:102250005F926F927F928F929F92AF92BF92CF9236
:10226000DF92EF92FF920F931F93DF93CF93CDB73F
:10227000DEB72F970FB6F894DEBF0FBECDBF1C019F
:102280004A875B876C877D873F872E87D9010D91B1
:102290001D912D913C91011511052105310549F044
:1022A000480159010894811C911CA11CB11C19867C
:1022B00010C0FC0180809180A280B38019868A853D
:1022C0009B85AC85BD850197A105B10511F491E011
:1022D0009987D10119968D919D910D90BC91A02D5A
:1022E0000196A11DB11D8D839E83AF83B8877501B3
:1022F00064014424552432018E010F5F1F4FF10108
:1023000081859285A385B485481659066A067B06A1
:1023100008F090C08D819E81AF81B8858C159D0598
:10232000AE05BF0550F482E0882E912CA12CB12C73
:10233000B2E0CB2ED12CE12CF12CC101B701A601CA
:1023400098010E94B210882309F474C089819A818F
:10235000AB81BC81A70196012F5F3F4F4F4F5F4F6D
:102360000097A105B10519F049015A010DC02819BE
:1023700039094A095B098A859B85AC85BD85281783
:1023800039074A075B0759F00894411C511C611C2E
:10239000711C0894C11CD11CE11CF11CB0CFC101FF
:1023A000A601B7010FEF1FEF2FEF3FE00E941610BD
:1023B000882399F43FC02601370108944108510849
:1023C00061087108C101B301A201970186010E9451
:1023D0001610882379F1730162018C149D04AE04F8
:1023E000BF0448F3AE85BF854D915D916D917C91A1
:1023F000411551056105710539F0C101950184014F
:102400000E9416108823B1F0EE85FF8580829182AC
:10241000A282B382F985FF2359F00894811C911C94
:10242000A11CB11CD1018D929D92AD92BC921397CB
:1024300081E001C080E02F960FB6F894DEBF0FBE9A
:10244000CDBFCF91DF911F910F91FF90EF90DF9063
:10245000CF90BF90AF909F908F907F906F905F9044
:102460004F903F902F900895FC011382128288EEC6
:1024700093E0A0E0B0E084839583A683B78382EDE8
:1024800092E091838083128E118E14860895DF93DB
:10249000CF930F92CDB7DEB7FC016983A081B181E4
:1024A00012962D913C911397BE016F5F7F4F41E0D3
:1024B00050E0F90119950F90CF91DF910895DC015B
:1024C0005996ED91FC915A97309719F420E030E03D
:1024D00018C0238934894589568982859385A485C6
:1024E000B585281B390B4A0B5B0B2030B0E83B0746
:1024F000B0E04B07B0E05B0720F02FEF3FE740E094
:1025000050E0C9010895FC01818D928D009711F072
:102510000E94520C0895DF93CF930F92CDB7DEB790
:10252000FC01818D928D009749F0BE016F5F7F4F56
:1025300041E050E00E949C0C019719F02FEF3FEF13
:1025400003C08981282F30E0C9010F90CF91DF911E
:102550000895EF92FF920F931F93DF93CF930F9203
:10256000CDB7DEB77C01DC0159968D919C915A97CD
:10257000009719F400E010E01FC0BE016F5F7F4FAD
:1025800041E050E00E949C0C019719F00FEF1FEF03
:1025900013C08981082F10E0D7015996ED91FC9165
:1025A0005A974285538564857585415050406040F7
:1025B0007040CF010E948C0BC8010F90CF91DF912A
:1025C0001F910F91FF90EF900895CF93DF93EC014F
:1025D000E98DFA8D309761F013821282CF010E944B
:1025E000D80D9C01E98DFA8D82819381892B31F080
:1025F00081E090E09B838A8320E030E0C901DF9195
:10260000CF91089510927505109276051092790574
:1026100010927B0582E090E0A0E0B0E080937C0522
:1026200090937D05A0937E05B0937F05109293054E
:1026300010929D0510929C058AEC92E090939B0568
:1026400080939A0510929F050895F999FECF72BD67
:1026500061BDF89A80B50895F999FECF1FBA72BD91
:1026600061BD40BD0FB6F894FA9AF99A0FBE08956D
:102670000F931F938C01822FF80171836083538322
:1026800042832483358360E00E945433F8018081C3
:1026900061E00E94543384E090E00E94B9301F91C1
:1026A0000F910895FC01808160E00E94543384E022
:1026B00090E00E94B93008951F93FC01862F122FDD
:1026C00060834183228361E00E94A132812F61E017
:1026D0000E94A1321F910895FF920F931F93CF93F1
:1026E000DF938C01FC01818160E00E94A132FF2414
:1026F000C0E0D0E0F80181810E94873390E00C2E89
:1027000002C0880F991F0A94E2F7F82AF801828123
:1027100061E00E945433F801828160E00E945433EA
:102720002196C830D10531F78F2DDF91CF911F91C0
:102730000F91FF900895FF920F931F938C01F62E37
:10274000FC01818161E00E94A132F80181816281F6
:1027500040E02F2D0E94B7331F910F91FF900895F5
:10276000CF92DF92EF92FF920F931F93DF93CF935D
:1027700000D000D0CDB7DEB78C017B016E0108948C
:10278000C11CD11CFB01608141812281C60170E026
:1027900050E030E00E94381383E398E0F80190871E
:1027A000878381E08483838312821182108281E097
:1027B00090E096838583C7016FEB0E949B13C7014E
:1027C0000E946C13282F2F7722952F7030E0A901DB
:1027D000E3E0440F551FEA95E1F7220F331F420F44
:1027E000531F8F70840FF8018083C7010E946C1300
:1027F000282F22952F7030E0A90163E0440F551F68
:102800006A95E1F7220F331F420F531F8F70840F19
:10281000F8018183C7010E946C13482F282F30E0F4
:1028200087FF10C020723070B5E035952795BA95B6
:10283000E1F7C901880F991F820F931F282F220FDC
:10284000220F11C0C90180739070F4E095958795AF
:10285000FA95E1F79C01E3E0220F331FEA95E1F7D7
:10286000880F991F280F4F70240FF8012283C7018A
:102870000E946C13282F22952F7030E0A90163E08D
:10288000440F551F6A95E1F7220F331F420F531F64
:102890008F70840FF8018383C7010E946C13282F67
:1028A00022952F7030E0A901B3E0440F551FBA956F
:1028B000E1F7220F331F420F531F8F70840FF8016F
:1028C0008483C7010E946C13282F22952F7030E05B
:1028D000A901F3E0440F551FFA95E1F7220F331FCA
:1028E000420F531F8F70840FF80185831682C70132
:1028F0000E946C13282F22952F7030E0A90173E0FD
:10290000440F551F7A95E1F7220F331F420F531FD3
:102910008F70840F90E08053984FF80190878783E1
:10292000C6010E945213C80126960FB6F894DEBF66
:102930000FBECDBFCF91DF911F910F91FF90EF9010
:10294000DF90CF900895DC0159968C915997882398
:1029500029F06EBD0DB407FEFDCF089530E840E0CC
:1029600050E070E0832F90E0862397235A96ED91F4
:10297000FC915B979A962C919A97892B21F08081F4
:10298000822B808304C080812095282320835C963D
:10299000ED91FC915D9780819B969C919B97892BF3
:1029A00080835C96ED91FC915D9790819B968C91D4
:1029B0009B9780958923808336954F5F5F4F483082
:1029C000510581F608950F931F938C01DC015E96EB
:1029D000ED91FC915F9790819D968C919D9780954C
:1029E000892380835C96ED91FC915D9790819B9605
:1029F0008C919B978095892380839296ED91FC9191
:102A0000939790819C968C91809589238083C801AF
:102A10000E94A314D8019296ED91FC919397808126
:102A20009C969C91892B80831F910F9108950F9301
:102A30001F938C01DC015E96ED91FC915F97808184
:102A40009D969C919D97892B80835C96ED91FC913E
:102A50005D9790819B968C919B978095892380832D
:102A60009296ED91FC91939790819C968C91809594
:102A700089238083C8010E94A314D8019296ED9106
:102A8000FC91939780819C969C91892B80831F91C8
:102A90000F9108958F929F92AF92BF92CF92DF9243
:102AA000EF92FF920F931F937C01B62ED72E4A010F
:102AB000A22EC32E6AE20E94E314C7016D2D0E946C
:102AC0001715C7016B2D0E941715C7016C2D0E94A9
:102AD0001715C7016A2D0E941715C7016BE20E94E6
:102AE000E314C701692D0E941715C701682D0E94C4
:102AF0001715C701612F0E941715C701602F0E948B
:102B00001715C7016CE20E94E3141F910F91FF900B
:102B1000EF90DF90CF90BF90AF909F908F900895EF
:102B2000EF92FF920F931F93CF93DF93EC01FB0182
:102B30008A01790177FD2EC0888599856817790704
:102B40004CF557FD27C08A859B854817590714F512
:102B5000CE0131969F010F5F1F4F0E944A15EE8DE7
:102B6000FF8D80819DA5892B8083EAA1FBA19081A7
:102B70008CA5809589238083CE016F2D0E94A3149C
:102B8000CE016E2D0E94A314EAA1FBA180819CA519
:102B9000892B8083DF91CF911F910F91FF90EF9050
:102BA0000895CF92DF92EF92FF920F931F93CF93EE
:102BB000DF93EC01FB01790168018885998568172D
:102BC0007907E4F52A853B8542175307BCF5C70111
:102BD000840F951F281739071CF47901E41AF50AA8
:102BE0008A01015010400E0D1F1DCE01BF019F0133
:102BF0000E944A15EE8DFF8D80819DA5892B8083D3
:102C0000EAA1FBA190818CA580958923808308C0CF
:102C1000CE016D2D0E94A314CE016C2D0E94A31431
:102C20000894E108F1088FEFE8168FEFF80681F7B6
:102C3000EAA1FBA180819CA5892B8083DF91CF91A4
:102C40001F910F91FF90EF90DF90CF900895CF925A
:102C5000DF92EF92FF920F931F93CF93DF93EC01DC
:102C6000FA01790168012885398562177307E4F54F
:102C70008A859B8548175907BCF5C701860F971FA2
:102C8000281739071CF47901E61AF70A9B0121502D
:102C900030402E0D3F1DCE01AF018F010E944A151D
:102CA000EE8DFF8D80819DA5892B8083EAA1FBA1FC
:102CB00090818CA580958923808308C0CE016D2DDD
:102CC0000E94A314CE016C2D0E94A3140894E10865
:102CD000F1088FEFE8168FEFF80681F7EAA1FBA164
:102CE00080819CA5892B8083DF91CF911F910F91CB
:102CF000FF90EF90DF90CF900895EF92FF920F93A7
:102D00001F93FC017B01A081B18120853185028563
:102D100013851E960D90BC91A02D60E070E040E000
:102D200050E0FD0119951F910F91FF90EF900895CC
:102D3000AF92BF92CF92DF92EF92FF920F931F93C9
:102D4000CF93DF936C015901E801DC0118962D91B6
:102D50003C911997621773070CF05BC01A96ED91BE
:102D6000FC911B974E175F070CF053C0C501860FEF
:102D7000971F281739071CF45901A61AB70ACE0164
:102D8000840F951FE817F9071CF4EF01C41BD50B3E
:102D90009B01215030402A0D3B1D8A0101501040FB
:102DA0000C0F1D1FC6010E944A15D6015E96ED91BB
:102DB000FC915F9780819D969C919D97892B808344
:102DC0009296ED91FC91939790819C968C91809531
:102DD000892380838E010EC0C6016F2D0E94A3142B
:102DE000C6016E2D0E94A31421971C161D06A4F384
:102DF000015010401016110614F4E501F6CFD6016B
:102E00009296ED91FC91939780819C969C91892B51
:102E10008083DF91CF911F910F91FF90EF90DF9012
:102E2000CF90BF90AF9008951F93CF93DF93EC01A5
:102E3000162F66E30E94E31413701D8B113051F0BE
:102E4000113028F0123049F01330F1F411C0CE01E6
:102E500068E405C0CE0168E20DC0CE0168E80E94BA
:102E6000171580EF90E09987888780E491E00AC089
:102E7000CE0168EE0E94171580E491E0998788875B
:102E800080EF90E09B878A87DF91CF911F91089513
:102E9000662311F460E201C061E20E94E314089528
:102EA000CF93DF93EC018EA161E00E94A1328EA14D
:102EB00060E00E9454338DA161E00E94A1328CA198
:102EC00061E00E94A132ECA14E2F50E0FA01EE5CCD
:102ED000F94FE491F0E0EE0FFF1FE250FA4F8591B9
:102EE00094919BA38AA3EDA12E2F30E0F901EE5C13
:102EF000F94FE491F0E0EE0FFF1FE250FA4F859199
:102F000094919F8F8E8F4858594FFA0184918CA7C6
:102F10002858394FF90184918DA7898D882361F054
:102F20000E946C0984E00E945B0981E00E944D09C7
:102F300080E00E94560941C089A561E00E94A1324B
:102F40008FA161E00E94A13288A560E00E94A132B9
:102F5000E9A54E2F50E0FA01EE5CF94FE491F0E064
:102F6000EE0FFF1FE250FA4FA591B491BD8FAC8FC9
:102F7000EFA12E2F30E0F901EE5CF94FE491F0E083
:102F8000EE0FFF1FE250FA4F859194919B8F8A8F2D
:102F90004858594FFA0194919BA72858394FF90185
:102FA00084918AA78C91909598239C93EA8DFB8DB0
:102FB00090818AA58095892380838EA161E00E94FB
:102FC000543365E070E080E090E00E9425318EA1EE
:102FD00060E00E94543364E170E080E090E00E9481
:102FE00025318EA161E00E94543366E970E080E0F3
:102FF00090E00E942531CE016FEE0E94E314CE01D5
:1030000063E00E941715CE0160E80E941715CE01FB
:1030100062E00E941715CE016FEC0E94E314CE010E
:1030200060E00E941715CE0161EC0E941715CE01D9
:1030300060E30E941715CE016DEE0E94E314CE01ED
:1030400064E60E941715CE0163E00E941715CE01B9
:1030500062E10E941715CE0161E80E941715CE01AA
:1030600068EE0E94E314CE0165E80E941715CE01B8
:1030700060E00E941715CE0168E70E941715CE0187
:103080006BEC0E94E314CE0169E30E941715CE0198
:103090006CE20E941715CE0160E00E941715CE0168
:1030A00064E30E941715CE0162E00E941715CE015D
:1030B00067EF0E94E314CE0160E20E941715CE0173
:1030C0006AEE0E94E314CE0160E00E941715CE0163
:1030D00060E00E941715CE0160EC0E94E314CE015F
:1030E00063E20E941715CE0161EC0E94E314CE0149
:1030F00060E10E941715CE0165EC0E94E314CE0139
:103100006EE30E941715CE0168E20E941715CE01EA
:1031100067EC0E94E314CE0166E80E941715CE0109
:1031200066E30E94E314CE0168E40E941715CE0105
:103130006AE30E94E314CE0165E50E941715CE01F3
:1031400061EB0E94E314CE0160E00E941715CE01EE
:1031500068E10E941715CE0166EB0E94E314CE01D0
:1031600068E00E941715CE0162E80E941715CE0193
:1031700067E20E941715CE0162EF0E94E314CE01B0
:1031800060E00E941715CE0166E20E94E314CE01B2
:1031900061E00E941715CE0160EE0E94E314CE019B
:1031A0006FE00E941715CE0161E30E941715CE0152
:1031B0006BE20E941715CE016CE00E941715CE013C
:1031C0006EE00E941715CE0168E00E941715CE012F
:1031D0006EE40E941715CE0161EF0E941715CE0113
:1031E00067E30E941715CE0167E00E941715CE0114
:1031F00060E10E941715CE0163E00E941715CE0111
:103200006EE00E941715CE0169E00E941715CE01ED
:1032100060E00E941715CE0161EE0E94E314CE011A
:1032200060E00E941715CE016EE00E941715CE01D6
:1032300064E10E941715CE0163E00E941715CE01CC
:1032400061E10E941715CE0167E00E941715CE01BB
:1032500061E30E941715CE0161EC0E941715CE01A3
:1032600068E40E941715CE0168E00E941715CE0190
:103270006FE00E941715CE016CE00E941715CE0179
:1032800061E30E941715CE0166E30E941715CE0177
:103290006FE00E941715CE0161E10E94E31468E718
:1032A00070E080E090E00E942531CE0169E20E944A
:1032B000E314DF91CF910895DF92EF92FF920F9385
:1032C0001F938C01F62EE42ED22E60EF70E040E4C6
:1032D00051E00E947D1982EE92E0F8019183808393
:1032E000F4A2E5A2D6A281E0818F11A617A21F91B8
:1032F0000F91FF90EF90DF900895FC0113821282EE
:103300008AEF92E091838083758364835783468339
:103310007187608753874287158A158614861786BA
:10332000168621E0248B8FEF9FEF938B828B918BFE
:10333000808B268B178A08952F923F924F925F922F
:103340006F927F928F929F92AF92BF92CF92DF92B5
:10335000EF92FF920F931F93DF93CF9300D00F92C2
:10336000CDB7DEB73C017C836B836A015901FA82D9
:10337000E982222433249801241B350B37FF03C034
:10338000309521953F4FC5014B815C81841B950B86
:1033900097FF03C0909581959F4F821793075CF428
:1033A00081E0282E312CC601CB80DC809C838B836E
:1033B000C80185015C018B819C81A816B90644F483
:1033C000C501AB80BC809C838B83C80186016C01E6
:1033D0002501AB81BC814A1A5B0A7801EC18FD0813
:1033E000F7FE04C0F094E194F108F394C016D106FE
:1033F00024F088248A94982C03C0B1E08B2E912C61
:10340000C20162E070E00E942D378B0125C0D3011C
:10341000ED91FC912114310441F00480F581E02DFF
:10342000C301B6014B815C8107C00480F581E02DAA
:10343000C3016B817C81A60129813A8119950E19FE
:103440001F0917FF04C0C80CD91C040D151DEB8102
:10345000FC813196FC83EB834B815C81A416B5061D
:10346000B4F60F900F900F900F90CF91DF911F91B6
:103470000F91FF90EF90DF90CF90BF90AF909F9013
:103480008F907F906F905F904F903F902F90089516
:103490004F925F926F927F928F929F92AF92BF9264
:1034A000CF92DF92EF92FF920F931F936C015B011B
:1034B0004A0139012801DC01ED91FC910284F38578
:1034C000E02D87011995D601ED91FC91A4014150A1
:1034D0005040440D551D0284F385E02DC601B50111
:1034E00093011995D601ED91FC910084F185E02DB1
:1034F000C601B501A40192011995D601ED91FC9187
:103500000894A108B108A60CB71C0084F185E02D31
:10351000C601B501A401920119951F910F91FF9069
:10352000EF90DF90CF90BF90AF909F908F907F9063
:103530006F905F904F900895CF92DF92EF92FF923D
:103540000F931F93DC016B017801ED91FC918A01CF
:1035500001501040020F131F0680F781E02D9601E5
:1035600019951F910F91FF90EF90DF90CF900895E4
:10357000CF92DF92EF92FF920F931F93DC016A01CB
:10358000C9017801ED91FC9111979B0121503040C8
:10359000280F391F0680F781E02DCD01860119958E
:1035A0001F910F91FF90EF90DF90CF9008956F9251
:1035B0007F928F929F92AF92BF92CF92DF92EF92C3
:1035C000FF920F931F93CF93DF935C013A01690140
:1035D0004801EB01C60ED71E0DC0D501ED91FC913F
:1035E0000084F185E02DC501BE01A301940187018E
:1035F00019952196CC15DD0584F3DF91CF911F91AC
:103600000F91FF90EF90DF90CF90BF90AF909F9081
:103610008F907F906F900895EF92FF920F931F937A
:10362000FC017B01A081B181208531850285138554
:103630001E960D90BC91A02D60E070E040E050E03F
:10364000FD0119951F910F91FF90EF9008952F9212
:103650003F924F925F926F927F928F929F92AF9222
:10366000BF92CF92DF92EF92FF920F931F93DF935F
:10367000CF93CDB7DEB72F970FB6F894DEBF0FBE4E
:10368000CDBF5C015E834D8318870F83FA86E98680
:10369000CB86DC0118968D919C9119976817790754
:1036A0000CF0ABC01A968D919C911B974817590747
:1036B0000CF0A3C0EC2DF0E0FF87EE87CF01880F60
:1036C000991F8E0F9F1F880F991F860F971F18161F
:1036D00019060CF092C0CF0103E0880F991F0A95DC
:1036E000E1F7840F951F181619060CF086C057963F
:1036F0008C91882319F4203B08F02F5F85E0289FE8
:10370000A00111245A8349832B011B011C825C8177
:10371000553011F480E005C0E981FA81EC51FF4F8A
:1037200084912C863D866D807E8043011B82C82E4D
:10373000DD2480FF1CC0D501ED91FC91BB85B1302B
:1037400049F40480F581E02DC501B201A4012F8167
:10375000388522C00684F785E02DC5016C857D85FE
:10376000A3012E853F858901EF80F88423C0E98578
:10377000FA852F813885E217F307E9F0D501ED913D
:10378000FC91BB85B13051F40480F581E02DC50179
:10379000B201A40129853A8519950DC00684F785E3
:1037A000E02DC5016C857D85A3012E853F858901AE
:1037B000E984FA841995EB81EF5FEB832E853F85D1
:1037C000620E731E0894811C911CE83021F0D59480
:1037D000C7948C2DACCF3C813F5F3C834E855F8589
:1037E000240E351E0894411C511C89819A81019632
:1037F0009A838983363009F08ACF2F960FB6F894D2
:10380000DEBF0FBECDBFCF91DF911F910F91FF9013
:10381000EF90DF90CF90BF90AF909F908F907F9070
:103820006F905F904F903F902F900895CF92EF92BE
:10383000FF920F931F93CF93DF93EC01262F6A30F3
:1038400061F42C8930E083E0220F331F8A95E1F781
:103850008E859F85820F931F37C06D30C9F16C85AF
:103860007D854E855F8508891989EA88FB88CC8823
:103870000E94271B2C8986E0289FB00111248C858B
:103880009D85680F791F7D876C878E89882301F15C
:10389000422F50E08AEF9FEF9C01429FC001439F5F
:1038A000900D529F900D112428853985820F931F0A
:1038B000861797076CF403E0440F551F0A95E1F74C
:1038C0008E859F85840F951F9F878E871D861C86FA
:1038D00081E090E0DF91CF911F910F91FF90EF90E9
:1038E000CF900895FC0175876487578746870895B0
:1038F000FC01662309F461E0648B0895FC01738B7D
:10390000628B718B608B08950895FC0182E193E0D6
:10391000918380830895FC0182E193E09183808309
:103920000895DF93CF930F920F92CDB7DEB77A83CE
:10393000698389819A81892B19F482E090E014C00F
:1039400089819A81019719F483E090E00DC0898103
:103950009A81029719F41A82198208C089819A8182
:10396000039721F481E090E09A83898329813A8149
:10397000C9010F900F90CF91DF910895FB018081D5
:1039800091E089278083E08108958130910581F459
:103990006F5F7F4FF1F48CEB95E00E94271E84EC63
:1039A00095E00E94360786EC95E00E94A5050895F3
:1039B000892B79F46F5F7F4F61F486EC95E00E946C
:1039C000AB0584EC95E00E943C078CEB95E00E94EF
:1039D0002D1E089580E090E06FEF7FEF0E94C51CE0
:1039E000089581E090E06FEF7FEF0E94C51C08957D
:1039F0000F931F93FB01808191E089278083808151
:103A0000882311F58CEB95E064EB70E04CED50E011
:103A100020E530E00EE110E00E9463208CEB95E0A1
:103A20006AE47BE040E050E02AE030E004E110E0AE
:103A30000E94632086EC95E00E942006BC018CEB7E
:103A400095E00E94331E04C084EC95E00E94B1070B
:103A50001F910F9108950F931F93DF93CF930F92B0
:103A6000CDB7DEB769838981882381F48CEB95E03B
:103A700062E370E044E150E020E530E00EE110E068
:103A80000E94632084EC95E00E94B107898191E057
:103A90008927898389810F90CF91DF911F910F91A1
:103AA00008950F931F93DF93CF930F920F92CDB78B
:103AB000DEB77A83698389819A81892B29F481E031
:103AC00090E09A8389836DC089819A81019719F466
:103AD0001A82198266C089819A81029781F586ECE3
:103AE00095E00E940A06835C9140B0F48CEB95E06F
:103AF0006AE070E046E450E02AE530E008E210E0D9
:103B00000E94632086EC95E00E940A06BC01625E7A
:103B10007F4F86EC95E010C08CEB95E06AE070E09A
:103B200046E450E02AE530E008E210E00E9463201D
:103B300086EC95E064EB70E00E94DC0532C0898180
:103B40009A81039771F586EC95E00E94200605970F
:103B5000B0F48CEB95E06AEA70E046E450E023E2D2
:103B600030E008E210E00E94632086EC95E00E94BD
:103B70002006BC016F5F7F4F86EC95E010C08CEB98
:103B800095E06AEA70E046E450E023E230E008E2C3
:103B900010E00E94632086EC95E061E070E00E94F6
:103BA000020629813A81C9010F900F90CF91DF91D0
:103BB0001F910F9108958091A70260E00E94A132A9
:103BC0008091A90260E00E94A1328091AB0260E086
:103BD0000E94A1328091A7020E948733892B39F07D
:103BE0008CEB95E00E94C31F81E090E00CC08091B7
:103BF000A9020E948733892B59F08CEB95E00E9433
:103C0000E01E82E090E09093BB058093BA0511C05E
:103C10008091AB020E948733892B39F08CEB95E0C1
:103C20000E94741E83E090E0EECF1092BB051092CC
:103C3000BA058091BA059091BB050895FC0182E117
:103C400093E091838083CF010E9460300895FC014E
:103C50008AE193E0918380830895FC018AE193E0F7
:103C60009183808308957093D5056093D40508955A
:103C700081309105C9F46F5F7F4F39F58EEC95E087
:103C800069E072E00E949E2F86ED95E062E240E2DC
:103C90002EE10E945C1984E096E00E94360786E0DF
:103CA00096E00E94A5050895892B79F46F5F7F4FF8
:103CB00061F486E096E00E94AB0584E096E00E9405
:103CC0003C078EEC95E00E944430089580E090E03F
:103CD0006FEF7FEF0E94381E089581E090E06FEF54
:103CE0007FEF0E94381E0895EF92FF920F931F936B
:103CF00006ED15E0C8016FEF7FEF0E947E1CC80142
:103D000061E00E94781CC8016AE070E04CE350E07A
:103D10000E94721CC8016BE072E00E94322CC80144
:103D20006AEA70E04CE350E00E94721CC80169E14D
:103D300072E00E94322CC80165E00E94781CC80124
:103D40006AE070E046E450E00E94721C86E0E82ED3
:103D500086E0F82EC7010E940A06BC01C8014AE0AD
:103D600050E00E94D82AC80164E670E046E450E0C2
:103D70000E94721CC80169E272E00E94322CC801E4
:103D80006AEA70E046E450E00E94721CC7010E949B
:103D90002006BC01C8014AE050E00E94D82AC801B0
:103DA0006DEC70E046E450E00E94721CC8016BE2CA
:103DB00072E00E94322C1F910F91FF90EF900895B6
:103DC0000F931F9306ED15E0C80161E00E94781C77
:103DD000C80160E070E04CE350E00E94721CC80132
:103DE0006FE272E00E94322CC80160E070E040E5B2
:103DF00050E00E94721CC80166E372E00E94322CFF
:103E0000C80162E00E94781CC80160E070E04CEDDF
:103E100050E00E94721CC8016DE372E00E94322CD7
:103E20001F910F9108954F925F926F927F928F92A0
:103E30009F92AF92BF92CF92DF92EF92FF920F9339
:103E40001F93490138015E2C4F2CF89496EDA92E52
:103E500095E0B92EC5012E2D3F2D8601EE24FF24BD
:103E60000E94481AC501B401A301252D342DEE246A
:103E7000EA94FE2C0E94481A78941F910F91FF90AB
:103E8000EF90DF90CF90BF90AF909F908F907F90FA
:103E90006F905F904F900895CF92DF92EF92FF92D4
:103EA0000F931F93FB010190F081E02DE130F105AC
:103EB00089F0E130F10538F0E230F105E1F03397B7
:103EC00009F05AC039C065EA70E047E350E025E0E8
:103ED00030E006C065E070E047E350E025EA30E0FE
:103EE00007E310E0FCE8EF2EF12CECE3CE2ED12C12
:103EF0000E94131F41C0F89486ED95E065E00E9492
:103F0000781C86ED95E06FEF7FEF0E947E1C86EDBA
:103F100095E06AE070E046E450E00E94721C86E0A2
:103F200096E00E940A06BC0186ED95E04AE050E06A
:103F30000E94D82A789420C0F89486ED95E065E038
:103F40000E94781C86ED95E06FEF7FEF0E947E1C4B
:103F500086ED95E06AEA70E046E450E00E94721C4B
:103F600086E096E00E942006BC0186ED95E04AE0DE
:103F700050E00E94D82A78941F910F91FF90EF9003
:103F8000DF90CF900895EF92FF920F931F9306E07A
:103F900016E0C8010E9420067C01C8010E9420068C
:103FA000880F991F9093D5058093D4058091AD0219
:103FB00060E00E94A13206ED15E0C8016FEF7FEFCF
:103FC0000E947E1CC80162E00E94781CC80160E06B
:103FD00070E040E050E00E94721CC80163E472E0AF
:103FE0000E94322CC80166E970E040E050E00E9477
:103FF000721CC80168E472E00E94322CC80162E2BF
:1040000071E040E050E00E94721CC80164E572E07B
:104010000E94352BC801B7014AE050E00E94C72A30
:10402000C80161E00E94781CC80160E070E04CE3C8
:1040300050E00E94721CC8016FE272E00E94322CB4
:10404000C80160E070E040E550E00E94721CC801C9
:1040500066E372E00E94322CC80162E00E94781C84
:10406000C80160E070E04CED50E00E94721CC80195
:1040700066E572E00E94322C1F910F91FF90EF9045
:104080000895EF92FF920F931F937B0106ED15E0C9
:10409000C8016FEF7FEF0E947E1CC80162E00E94A2
:1040A000781CC80168E171E040E050E00E94721C99
:1040B000C801B7014AE050E00E94C72A1F910F9142
:1040C000FF90EF900895EF92FF920F931F9386ED6C
:1040D00095E0EE24FF240E9498161F910F91FF9007
:1040E000EF9008950F931F9306ED15E0C8010E940D
:1040F0005017C80163E00E941417C80160E070E027
:104100000E947D161F910F910895CF93DF93EB01CD
:104110000E94AB302091CA053091CB054091CC056F
:104120005091CD05621B730B840B950B693C710597
:104130008105910508F445C086ED95E060E070E0EA
:104140000E947E1C86ED95E06CE00E94781C86ED56
:1041500095E06BE470E04CE350E00E94721C6091CB
:10416000C8057091C90586ED95E04AE050E00E94CF
:10417000C72A86ED95E06FEF7FEF0E947E1C86EDEB
:1041800095E06CE00E94781C86ED95E06BE470E0B1
:104190004CE350E00E94721C86ED95E0BE014AE0BF
:1041A00050E00E94C72AD093C905C093C8050E9459
:1041B000AB306093CA057093CB058093CC05909388
:1041C000CD05DF91CF910895EF92FF920F931F934A
:1041D000CF93DF93EB018EEC95E00E94C02E8823F5
:1041E00059F586ED95E062E370E04CED50E020E596
:1041F00030E004E110E0EE24FF240E94981686EDE2
:1042000095E06FEF7FEF0E947E1C86ED95E062E007
:104210000E94781C86ED95E062E370E04CED50E082
:104220000E94721C86ED95E0BE010E94452C8EEC2A
:1042300095E0BE010E941930DF91CF911F910F913F
:10424000FF90EF900895AF92BF92CF92DF92EF92DE
:10425000FF920F931F93DF93CF9300D000D0CDB781
:10426000DEB77C018B01B2E0AB2EB12CA80EB91EDB
:104270006E010894C11CD11C18C084E096E00E9415
:104280005A07C60164E076E00E944B08C701B601F8
:104290000E94E420C6010E944430C501B8010E947A
:1042A000C006BC01C7010E948520F80180818823D7
:1042B00021F78081882329F484E096E061E00E9460
:1042C0004507C501B8010E94C006BC01C7010E9494
:1042D000852026960FB6F894DEBF0FBECDBFCF91D6
:1042E000DF911F910F91FF90EF90DF90CF90BF90E3
:1042F000AF900895EF92FF920F931F93CF93DF93A8
:10430000EB018EEC95E00E94C02E882359F586EDD6
:1043100095E064EB70E04CED50E020E530E004E126
:1043200010E0EE24FF240E94981686ED95E06FEFD2
:104330007FEF0E947E1C86ED95E062E00E94781C73
:1043400086ED95E064EB70E04CED50E00E94721C4D
:1043500086ED95E0BE010E94452C8EEC95E0BE01F5
:104360000E941930DF91CF911F910F91FF90EF9034
:1043700008952F923F925F926F927F928F929F92B9
:10438000AF92BF92CF92DF92EF92FF920F931F9363
:10439000DF93CF93CDB7DEB764970FB6F894DEBF47
:1043A0000FBECDBF5C017C8B6B8B7A01FA018081E3
:1043B000882309F47EC0FB018081882309F079C03D
:1043C00086ED95E06FEF7FEF0E947E1C86ED95E015
:1043D00063E00E94781C86ED95E06BE470E04CE3AE
:1043E00050E00E94721C86ED95E067E672E00E9444
:1043F000322C86ED95E060E070E00E947E1C86ED38
:1044000095E06BE470E04CE350E00E94721C86ED96
:1044100095E067E672E00E94322C86ED95E06FEF42
:104420007FEF0E947E1C86ED95E06BE470E04CE32C
:1044300050E00E94721C8501095F1F4FC8016CE2A9
:1044400071E00E948305AB01BC0186ED95E022E09E
:1044500030E00E941C2C86ED95E064E572E00E943D
:10446000352BC80164E670E00E948305AB01BC01F6
:1044700086ED95E022E030E00E941C2C86ED95E070
:1044800063E772E00E94352BC80164E670E00E9489
:104490008305AB01BC0186ED95E022E030E00E948F
:1044A0001C2C86ED95E066E772E00E94352BF70143
:1044B0001082F7018081882309F06BC0EB89FC89A9
:1044C0008081882309F465C08091D4059091D50539
:1044D000892B09F45EC086ED95E06FEF7FEF0E94B7
:1044E0007E1C86ED95E063E00E94781C86ED95E0E9
:1044F0006BE470E04CE350E00E94721C86ED95E0A6
:1045000067E672E00E94322C86ED95E060E070E094
:104510000E947E1C86ED95E063E00E94781C86ED8B
:1045200095E06BE470E04CE350E00E94721C86ED75
:1045300095E067E672E00E94322C83E296E068E73D
:1045400072E00E94322C8501095F1F4FC8016CE2A6
:1045500071E00E948305AB01BC0183E296E022E09A
:1045600030E00E941F2CC8016CE271E00E948305BC
:1045700020E030E04FE253E40E94403588234CF4C1
:10458000C8016FEA70E00E9494050E94B1353B01BA
:1045900004C08CE2682E81E0782E07E0802E912CFA
:1045A0008A0C9B1C12E0212E312C2A0C3B1C55241A
:1045B000BCC0C10160E070E00E9430066C01BC012B
:1045C00080E090E00E94DD357B018C01C4016AE04F
:1045D00070E00E9494059B01AC01C801B7010E94E4
:1045E000403588230CF0E5C0552009F0E2C084E096
:1045F00096E00E94B10784E096E060E00E944507E3
:1046000083E296E06EE772E00E94322C21C0C40182
:10461000B3010E94830520E030E048EC51E40E94A1
:10462000DC340E94B1359B01AC01C101B9010E948B
:1046300030066C016816790670F4552061F484E048
:1046400096E00E94B10784E096E060E00E94450792
:104650005524539404C0C614D70408F4552484E0A8
:1046600096E00E9442078823B9F5552031F084E096
:1046700096E06AE070E00E94D807CE01019664E0FF
:1046800076E00E944B08C401B6010E9483050E9497
:10469000B1359B01AC01C501B9010E948520609133
:1046A000D4057091D505C5010E944120CE01079621
:1046B000BE016F5F7F4F0E943030C501BE01695F50
:1046C0007F4F0E947A21CE0107960E944430CE018E
:1046D00001960E94443029C0C50168E171E040E0C4
:1046E00050E02AE030E004E110E00E946320809175
:1046F000D4059091D505892B31F484E096E061E0F2
:104700000E94450712C084E096E00E94B10784E051
:1047100096E060E00E9445078091D4059091D50510
:1047200001979093D5058093D405EB89FC8980810E
:10473000882309F44DC08091D4059091D505892B2B
:1047400009F446C08091D4059091D50580FD31CF04
:104750005ECFC10160E070E00E9430068E01035F11
:104760001F4FC80164E076E00E944B08C501B80104
:104770000E947A21C8010E944430C50166E470E0BD
:1047800047E350E02CED30E006E910E00E946320A2
:104790006091D4057091D505C5010E94412086E045
:1047A00096E00E942006892BC9F4EB89FC891082CF
:1047B00015C0C4016AE070E00E9494059B01AC0141
:1047C000C801B7010E948F3618160CF447CF47CFA7
:1047D000EB89FC8980818823D9F6BBCF64960FB61C
:1047E000F894DEBF0FBECDBFCF91DF911F910F9127
:1047F000FF90EF90DF90CF90BF90AF909F908F9001
:104800007F906F905F903F902F900895FC018AE118
:1048100093E091838083CF010E9460300895FC0172
:1048200082E293E0918380830895FC0182E293E029
:1048300091838083089588E096E00E943412089561
:10484000FC0182E293E091838083CF010E9460307B
:104850000895FC018AE293E0918380830895FC012E
:104860008AE293E091838083089589EB95E00E942A
:10487000251390E0089589EB95E00E942C1308958C
:10488000FC018AE293E091838083CF010E94603033
:1048900008958BE060E00E94543308958BE061E05E
:1048A0000E945433089583E060E070E00E94C131BB
:1048B000089583E00E94C13108950F931F93CF9311
:1048C000DF93C0E0D0E000E010E089E30E948D318A
:1048D000080F191F2196CA30D105B9F7C8016AE03F
:1048E00070E00E942D37CB01DF91CF911F910F9186
:1048F00008950F931F93CF93DF93BC0182309105EE
:1049000010F462E070E0E091C608F091C708A0E002
:10491000B0E040E050E024C0808191818617970785
:10492000D0F08617970771F482819381109729F050
:1049300013969C938E9312972CC09093C7088093E4
:10494000C60827C04115510519F08417950718F4BA
:10495000EF018D01AC01DF01828193819C01F9019E
:104960003097D1F641155105F9F0CA01861B970B16
:104970008430910580F48A819B810115110521F015
:10498000F8019383828304C09093C7088093C6087C
:10499000FE01329645C0FE01E80FF91F6193719345
:1049A0000297998388833CC08091C4089091C50880
:1049B000892B41F48091B1029091B2029093C50885
:1049C0008093C4084091B3025091B402411551053F
:1049D00041F44DB75EB78091AF029091B002481B91
:1049E000590B2091C4083091C50824173507B0F43D
:1049F000CA01821B930B8617970780F0AB014E5FAD
:104A00005F4F8417950750F0420F531F5093C5080E
:104A10004093C408F9016193719302C0E0E0F0E0B3
:104A2000CF01DF91CF911F910F910895CF93DF9325
:104A30009C01009709F48FC0EC0122971B821A8217
:104A40006091C6087091C7086115710581F488816D
:104A50009981820F931F2091C4083091C5082817AF
:104A6000390739F5D093C508C093C40874C0DB0179
:104A700040E050E0AC17BD0708F1BB83AA83FE01FC
:104A800021913191E20FF31FAE17BF0779F48D9199
:104A90009C911197280F391F2E5F3F4F3983288330
:104AA00012968D919C9113979B838A834115510592
:104AB00071F4D093C708C093C6084DC012968D916B
:104AC0009C911397AD01009711F0DC01D3CFDA016F
:104AD0001396DC93CE931297FA0121913191E20F54
:104AE000F31FCE17DF0769F488819981280F391FDA
:104AF0002E5F3F4FFA01318320838A819B8193830C
:104B00008283E0E0F0E0DB0112968D919C91139797
:104B1000009719F0BC01FD01F6CFAB014E5F5F4F6E
:104B2000DB018D919C91840F951F2091C4083091D9
:104B3000C5082817390779F4309729F41092C70867
:104B40001092C60802C01382128242505040509305
:104B5000C5084093C408DF91CF91089508951F922E
:104B60000F920FB60F920BB60F9211242F933F9313
:104B70004F938F939F93EF93FF938091C00082FD9B
:104B800019C04091C60080914106282F30E02F5F68
:104B90003F4F2F7330708091420690E028173907FD
:104BA00059F0E0914106F0E0ED5DF94F42A320930A
:104BB000410602C08091C600FF91EF919F918F91B5
:104BC0004F913F912F910F900BBE0F900FBE0F9002
:104BD0001F90189508951F920F920FB60F920BB663
:104BE0000F9211242F933F934F938F939F93EF93A3
:104BF000FF938091C80082FD19C04091CE00809142
:104C0000E306282F30E02F5F3F4F2F7330708091E5
:104C1000E40690E02817390759F0E091E306F0E048
:104C2000EB53F94F42A32093E30602C08091CE00DC
:104C3000FF91EF919F918F914F913F912F910F9005
:104C40000BBE0F900FBE0F901F90189508951F92E6
:104C50000F920FB60F920BB60F9211242F933F9322
:104C60004F938F939F93EF93FF938091D00082FD9A
:104C700019C04091D60080918507282F30E02F5F22
:104C80003F4F2F7330708091860790E028173907C7
:104C900059F0E0918507F0E0E959F84F42A32093DD
:104CA000850702C08091D600FF91EF919F918F916F
:104CB0004F913F912F910F900BBE0F900FBE0F9011
:104CC0001F90189508951F920F920FB60F920BB672
:104CD0000F9211242F933F934F938F939F93EF93B2
:104CE000FF938091300182FD19C04091360180917F
:104CF0002708282F30E02F5F3F4F2F7330708091AF
:104D0000280890E02817390759F0E0912708F0E0CB
:104D1000E75FF74F42A32093270802C08091360136
:104D2000FF91EF919F918F914F913F912F910F9014
:104D30000BBE0F900FBE0F901F90189580914106EB
:104D40002091420690E0805C9F4F821B91098F73F7
:104D50009070892B11F00E94AE258091E30620917E
:104D6000E40690E0805C9F4F821B91098F739070E6
:104D7000892B11F00E94EA258091850720918607F2
:104D800090E0805C9F4F821B91098F739070892BFC
:104D900011F00E942626809127082091280890E093
:104DA000805C9F4F821B91098F739070892B11F04B
:104DB0000E94622608951F920F920FB60F920BB6B3
:104DC0000F9211242F938F939F93EF93FF939091C2
:104DD000430680914406981731F48091C1008F7D7D
:104DE0008093C10010C0E0914406F0E0EB57F94F0A
:104DF00020818091440690E001968F73907080939B
:104E000044062093C600FF91EF919F918F912F91BF
:104E10000F900BBE0F900FBE0F901F9018951F9212
:104E20000F920FB60F920BB60F9211242F938F9300
:104E30009F93EF93FF939091E5068091E606981774
:104E400031F48091C9008F7D8093C90010C0E0913A
:104E5000E606F0E0E95DF84F20818091E60690E0FB
:104E600001968F7390708093E6062093CE00FF9199
:104E7000EF919F918F912F910F900BBE0F900FBECE
:104E80000F901F9018951F920F920FB60F920BB6AE
:104E90000F9211242F938F939F93EF93FF939091F1
:104EA000870780918807981731F48091D1008F7D12
:104EB0008093D10010C0E0918807F0E0E753F84FED
:104EC00020818091880790E001968F739070809385
:104ED00088072093D600FF91EF919F918F912F919A
:104EE0000F900BBE0F900FBE0F901F9018951F9242
:104EF0000F920FB60F920BB60F9211242F938F9330
:104F00009F93EF93FF939091290880912A08981717
:104F100031F4809131018F7D8093310110C0E09197
:104F20002A08F0E0E559F74F208180912A0890E0A7
:104F300001968F73907080932A0820933601FF9119
:104F4000EF919F918F912F910F900BBE0F900FBEFD
:104F50000F901F901895AF92BF92DF92EF92FF9241
:104F60000F931F93CF93DF93EC017A018B01DD2424
:104F7000403081EE580780E0680780E0780711F044
:104F8000DD24D39491E0A92EB12CE889F989DD20A4
:104F900069F0C5010C8C02C0880F991F0A94E2F7D2
:104FA000808360E079E08DE390E005C0108260E8E6
:104FB00074E88EE190E0A80197010E9440372150EB
:104FC000304040405040569547953795279580E1B1
:104FD0002030380720F0DD2011F0DD24D6CFEC851D
:104FE000FD853083EE85FF8520831D8EEA89FB8950
:104FF000408121E030E0C901088C02C0880F991F70
:105000000A94E2F7482B4083EA89FB894081C90171
:10501000098C02C0880F991F0A94E2F7482B40833D
:10502000EA89FB894081C9010A8C02C0880F991F57
:105030000A94E2F7482B4083EA89FB8980810B8C34
:1050400002C0220F331F0A94E2F720952823208301
:10505000DF91CF911F910F91FF90EF90DF90BF9064
:10506000AF900895FC01268D878D30E0205C3F4F86
:10507000281B31092F733070C9010895FC01968DEA
:10508000878D981719F42FEF3FEF06C0878DE80F33
:10509000F11D82A1282F30E0C9010895DC015E9640
:1050A0009C915E975F968C915F97981719F42FEFFC
:1050B0003FEF10C05F968C915F97FD01E80FF11DE7
:1050C00092A15F968C915F978F5F8F735F968C93A1
:1050D000292F30E0C9010895DC015D968C915D9720
:1050E000882339F05096ED91FC915197808186FF8D
:1050F000F9CF5D961C920895DC0190968C91909763
:10510000282F30E02F5F3F4F2F73307091968C9196
:10511000919790E028173907C9F390968C91909752
:10512000FD01E80FF11DEE59FF4F608390962C931F
:1051300090975296ED91FC915397208181E090E0F9
:105140005B960C905B9702C0880F991F0A94E2F758
:10515000282B208381E05D968C935D975096ED918E
:10516000FC91519780818064808381E090E0089574
:105170001F93109226061092250628EE33E040E099
:1051800050E0209327063093280640932906509339
:105190002A0662E373E0709324066093230610925C
:1051A0004406809144068093430610924206809103
:1051B00042068093410685EC90E090933006809300
:1051C0002F0684EC90E0909332068093310680ECB9
:1051D00090E0909334068093330681EC90E09093B6
:1051E00036068093350682EC90E0909338068093E3
:1051F000370686EC90E090933A068093390614E0E7
:1052000010933B06B3E0B0933C06A7E0A0933D06A5
:10521000F5E0F0933E06E1E0E0933F061092C80609
:105220001092C7062093C9063093CA064093CB0656
:105230005093CC067093C6066093C5061092E6069E
:105240008091E6068093E5061092E4068091E406DC
:105250008093E3068DEC90E09093D2068093D10684
:105260008CEC90E09093D4068093D30688EC90E089
:105270009093D6068093D50689EC90E09093D8065B
:105280008093D7068AEC90E09093DA068093D90653
:105290008EEC90E09093DC068093DB061093DD06A5
:1052A000B093DE06A093DF06F093E006E093E106FC
:1052B00010926A071092690720936B0730936C076E
:1052C00040936D0750936E0770936807609367076C
:1052D000109288078091880780938707109286072D
:1052E000809186078093850785ED90E09093740701
:1052F0008093730784ED90E0909376078093750711
:1053000080ED90E0909378078093770781ED90E0AF
:1053100090937A078093790782ED90E090937C07D1
:1053200080937B0786ED90E090937E0780937D07C6
:1053300010937F07B0938007A0938107F0938207B3
:10534000E093830710920C0810920B0820930D082D
:1053500030930E0840930F085093100870930A087A
:105360006093090810922A0880912A0880932908DE
:1053700010922808809128088093270885E391E0FF
:10538000909316088093150884E391E09093180891
:105390008093170880E391E090931A08809319088E
:1053A00081E391E090931C0880931B0882E391E0D5
:1053B00090931E0880931D0886E391E09093200847
:1053C00080931F0810932108B0932208A09323080C
:1053D000F0932408E09325081F910895CF92DF925F
:1053E000EF92FF920F931F93CF93DF937C016B019A
:1053F0008A01C0E0D0E00FC0D6016D916D01D701E8
:10540000ED91FC910190F081E02DC7011995C80F35
:10541000D91F015010400115110571F7CE01DF9120
:10542000CF911F910F91FF90EF90DF90CF90089553
:10543000EF92FF920F931F938C01DC01ED91FC9191
:105440000190F081E02D6DE019957C01D801ED917E
:10545000FC910190F081E02DC8016AE019959C0152
:105460002E0D3F1DC9011F910F91FF90EF900895E0
:10547000CF93DF93EC016115710519F420E030E062
:105480000FC0DB010D900020E9F71197A61BB70BA9
:10549000E881F9810280F381E02DAD0119959C012D
:1054A000C901DF91CF9108954F925F927F928F92C1
:1054B0009F92AF92BF92CF92DF92EF92FF920F93A3
:1054C0001F93DF93CF93CDB7DEB7A1970FB6F894B4
:1054D000DEBF0FBECDBF2C01742ECB01223008F4ED
:1054E0002AE019A231E2C32ED12CCC0EDD1E822E71
:1054F0009924AA24BB24672D752FA50194010E942D
:10550000403779018A01C801B701A50194010E94C1
:10551000FA36472D461B0894C108D1084A3014F4C6
:10552000405D01C0495CF6014083E114F1040105CE
:10553000110521F07E2C5F2DC801DDCFC201B6011F
:105540000E94382AA1960FB6F894DEBF0FBECDBFD9
:10555000CF91DF911F910F91FF90EF90DF90CF904F
:10556000BF90AF909F908F907F905F904F900895E5
:10557000DC012115310541F4ED91FC910190F081A0
:10558000E02D642F199508950E94542A0895EF92F2
:10559000FF920F931F939A017B0100E010E0B80186
:1055A000A7010E94B82A1F910F91FF90EF900895D4
:1055B000CF92DF92EF92FF920F931F936C017B01CA
:1055C0009A0100E010E0B801A7010E94B82A8C01FE
:1055D000C6010E94182A080F191FC8011F910F91B8
:1055E000FF90EF90DF90CF900895CF92DF92EF92EF
:1055F000FF920F931F93CF93DF93EC016A017B011E
:105600002115310541F4E881F9810190F081E02D07
:10561000642F19951FC02A303105D1F477FF17C0C8
:10562000E881F9810190F081E02D6DE219958C01FE
:1056300044275527BA014C195D096E097F09CE012F
:105640002AE00E94542A9801280F391F04C02AE03A
:105650000E94542A9C01C901DF91CF911F910F91A3
:10566000FF90EF90DF90CF9008950E94382A089520
:105670007F928F929F92AF92BF92CF92DF92EF92E2
:10568000FF920F931F93CF93DF934C017A018B010D
:10569000722ECB01BA01A80197010E94F636882329
:1056A00021F0C40161E972E021C0C0E0D0E05701FF
:1056B0006801E894D7F8C601B5012FEF3FEF4FE737
:1056C0005FE70E94F636882351F4C601B5012FEF3B
:1056D0003FEF4FE75FE70E944035181614F0C1E036
:1056E000D0E0219739F0C40165E972E00E94382AC0
:1056F000EC0193C0C801B7012FEF3FEF4FE75FE424
:105700000E948F36181654F0C801B7012FEF3FEFF3
:105710004FE75FEC0E944035882324F4C40169E917
:1057200072E0E4CFC801B70120E030E040E050E093
:105730000E94403587FD03C0C0E0D0E00EC0D40118
:10574000ED91FC910190F081E02DC4016DE219957D
:10575000EC0117FB109517F9109520E030E040E0C0
:105760005FE3DD240BC0CA01B90120E030E040E274
:1057700051E40E9444359B01AC01D394D71498F3B3
:10578000C801B7010E94DC345B016C010E94B13595
:105790007B018C01C401B801A7012AE030E00E941E
:1057A000B82AC80FD91F772039F0C4016DE972E01B
:1057B0000E94382AC80FD91FC801B7010E94DD35E1
:1057C0009B01AC01C601B5010E94DB3424C020E07E
:1057D00030E040E251E40E9493367B018C010E944C
:1057E000AC355B016C01CC24B7FCC094DC2CC4014B
:1057F000B601A5012AE030E00E94F52AC80FD91FA2
:10580000C601B5010E94DF359B01AC01C801B7019B
:105810000E94DB347A947720D1F6CE01DF91CF91CC
:105820001F910F91FF90EF90DF90CF90BF90AF90BE
:105830009F908F907F9008950E94382B0895EF924B
:10584000FF920F931F937C010E94382B8C01C7019C
:105850000E94182A080F191FC8011F910F91FF906D
:10586000EF900895EF92FF920F931F937C010E9497
:10587000382A8C01C7010E94182A080F191FC80175
:105880001F910F91FF90EF900895AF92BF92CF922A
:10589000DF92EF92FF920F931F93CF93DF935C0100
:1058A0006B01EE24FF24C0E0D0E010C0D501ED91E3
:1058B000FC9100811181C601BE010E947C2E682FDF
:1058C000C501F8011995E80EF91E2196F6018481AB
:1058D0009581C817D90750F3C701DF91CF911F9168
:1058E0000F91FF90EF90DF90CF90BF90AF90089511
:1058F000883008F078C0E82FF0E0EE0FFF1FE55584
:10590000F74F718360838330D9F0843030F4813075
:1059100009F444C0823060F439C0853051F18530DB
:10592000D8F0863009F446C0873009F05CC04FC01B
:10593000809169008C7F842B80936900E89A089598
:1059400080916900440F551F440F551F837F842B9E
:1059500080936900E99A08958091690074E0440F8A
:10596000551F7A95E1F78F7C842B80936900EA9A22
:1059700008958091690066E0440F551F6A95E1F72C
:105980008F73842B80936900EB9A089580916A004D
:105990008C7F842B80936A00EC9A089580916A0032
:1059A000440F551F440F551F837F842B80936A003B
:1059B000ED9A089580916A0024E0440F551F2A95BE
:1059C000E1F78F7C842B80936A00EE9A0895809192
:1059D0006A0096E0440F551F9A95E1F78F73842B68
:1059E00080936A00EF9A08951F920F920FB60F925C
:1059F0000BB60F9211242F933F934F935F936F93A6
:105A00007F938F939F93AF93BF93EF93FF93809177
:105A1000AF089091B008892B29F0E091AF08F09180
:105A2000B0081995FF91EF91BF91AF919F918F9120
:105A30007F916F915F914F913F912F910F900BBE8E
:105A40000F900FBE0F901F9018951F920F920FB6D8
:105A50000F920BB60F9211242F933F934F935F93A6
:105A60006F937F938F939F93AF93BF93EF93FF9326
:105A70008091B1089091B208892B29F0E091B1088A
:105A8000F091B2081995FF91EF91BF91AF919F915D
:105A90008F917F916F915F914F913F912F910F90D7
:105AA0000BBE0F900FBE0F901F9018951F920F9274
:105AB0000FB60F920BB60F9211242F933F934F9373
:105AC0005F936F937F938F939F93AF93BF93EF9366
:105AD000FF938091B3089091B408892B29F0E0914D
