:100000000C9497030C9436460C9467460C949846CF
:100010000C94C9460C94FA460C942B470C945C47FC
:100020000C948D470C94C4030C94C4030C94C40327
:100030000C94C4030C94C4030C94C4030C94C40324
:100040000C94C4030C94C4030C94C4030C94C40314
:100050000C94C4030C94C4030C94C4030C942F4B51
:100060000C94C4030C94DD3E0C9409400C94C4031E
:100070000C94C4030C94C4030C94C4030C94C403E4
:100080000C94C4030C94C4030C94C4030C94C403D4
:100090000C94193F0C943D400C94C4030C94C4037D
:1000A0000C94C4030C94C4030C94C4030C94C403B4
:1000B0000C94C4030C94C4030C94C4030C94C403A4
:1000C0000C94C4030C94C4030C94C4030C94553FC7
:1000D0000C9471400C94C4030C94913F0C94A54073
:1000E0000C94C4037C3C3E5E2B3D3F2F5B5D3B2C60
:1000F0002A225C0000000000003E5B4F5B3E3E6B2E
:100100004F6B3E1C3E7C3E1C183C7E3C181C577DB1
:10011000571C1C5E7F5E1C00183C1800FFE7C3E7FD
:10012000FF0018241800FFE7DBE7FF30483A060E0F
:100130002629792926407F050507407F05253F5A56
:100140003CE73C5A7F3E1C1C08081C1C3E7F1422C6
:100150007F22145F5F005F5F06097F017F00668971
:10016000956A606060606094A2FFA29408047E04B7
:100170000810207E201008082A1C08081C2A0808DD
:100180001E101010100C1E0C1E0C30383E3830069D
:100190000E3E0E06000000000000005F0000000799
:1001A000000700147F147F14242A7F2A12231308C7
:1001B000646236495620500008070300001C2241A3
:1001C000000041221C002A1C7F1C2A08083E080847
:1001D00000807030000808080808000060600020F7
:1001E000100804023E5149453E00427F40007249DA
:1001F0004949462141494D331814127F102745457E
:1002000045393C4A49493141211109073649494993
:1002100036464949291E0000140000004034000001
:10022000000814224114141414140041221408026A
:10023000015909063E415D594E7C1211127C7F49DD
:100240004949363E414141227F4141413E7F494932
:1002500049417F090909013E414151737F0808085E
:100260007F00417F41002040413F017F081422412F
:100270007F404040407F021C027F7F0408107F3E89
:100280004141413E7F090909063E4151215E7F09F6
:10029000192946264949493203017F01033F40405D
:1002A000403F1F2040201F3F4038403F6314081448
:1002B0006303047804036159494D43007F41414180
:1002C0000204081020004141417F04020102044061
:1002D00040404040000307080020545478407F28E5
:1002E0004444383844444428384444287F385454DB
:1002F000541800087E090218A4A49C787F080404FE
:100300007800447D40002040403D007F102844009C
:1003100000417F40007C047804787C08040478382D
:1003200044444438FC1824241818242418FC7C085D
:10033000040408485454542404043F44243C4040DA
:10034000207C1C2040201C3C4030403C442810288D
:10035000444C9090907C4464544C440008364100D6
:100360000000770000004136080002010204023C50
:100370002623263C1EA1A161123A4040207A38541F
:100380005455592155557941225454784221555498
:10039000784020545579400C1E52721239555555EB
:1003A00059395454545939555454580000457C41D6
:1003B0000002457D420001457C407D1211127DF016
:1003C000282528F07C545545002054547C547C0A40
:1003D000097F4932494949323A4444443A324A4809
:1003E00048303A4141217A3A42402078009DA0A00D
:1003F0007D3D4242423D3D4040403D3C24FF24245F
:10040000487E4943662B2FFC2F2BFF0929F620C07D
:10041000887E090320545479410000447D413048CE
:10042000484A32384040227A007A0A0A727D0D1911
:10043000317D2629292F28262929292630484D4073
:1004400020380808080808080808382F10C8ACBA6F
:100450002F102834FA00007B000008142A142222EE
:10046000142A14085500550055AA55AA55AAFF5537
:10047000FF55FF000000FF00101010FF00141414BF
:10048000FF001010FF00FF1010F010F0141414FC07
:10049000001414F700FF0000FF00FF1414F404FC24
:1004A000141417101F10101F101F1414141F001005
:1004B0001010F0000000001F101010101F1010107E
:1004C00010F010000000FF1010101010101010108D
:1004D000FF10000000FF140000FF00FF00001F10CD
:1004E000170000FC04F414141710171414F404F487
:1004F0000000FF00F714141414141414F700F71478
:100500001414171410101F101F141414F4141010C6
:10051000F010F000001F101F0000001F140000006A
:10052000FC140000F010F01010FF10FF141414FF62
:10053000141010101F00000000F010FFFFFFFFFF5D
:10054000F0F0F0F0F0FFFFFF0000000000FFFF0FF1
:100550000F0F0F0F3844443844FC4A4A4A347E0295
:10056000020606027E027E02635549416338444416
:100570003C04407E201E2006027E020299A5E7A5CB
:10058000991C2A492A1C4C7201724C304A4D4D303C
:100590003048784830BC625A463D3E494949007E61
:1005A0000101017E2A2A2A2A2A44445F44444051F8
:1005B0004A444040444A51400000FF0103E080FFAC
:1005C000000008086B6B083612362436060F090F38
:1005D00006000018180000001010003040FF010154
:1005E000001F01011E00191D1712003C3C3C3C007D
:1005F0000000000000002100240027002A002D0038
:100600003000330001010000040107010A0100006D
:100610002200250028002B002E00310034000201AA
:100620000000050108010B01000020002300260046
:1006300029002C002F0032000001000003010601F8
:100640000901050505050705080808080202020258
:100650000A0A08080404040401010101010101015E
:100660000303030303030303040707070C0C0C0C29
:100670000C0C0C0C02020202060606060606060612
:100680000B0B0B0B0B0B0B0B01021020200808109F
:1006900020401020408002010201080402010102F2
:1006A00004081020408080402010080402018004CB
:1006B0000201804020100804020108040201010226
:1006C000040810204080010204081020408000002F
:1006D000090A02080B0C0D070603040100000000C4
:1006E000000000000000000000000000000000000A
:1006F0000000000000000000000011100F000000CA
:1007000000000000000000000000000000000000E9
:100710000000000006058708A90D59224D2FF6306C
:100720005A38E641FF048008462FEF305338112431
:100730001FBECFEFD1E2DEBFCDBF00E00CBF14E0A3
:10074000A0E0B2E0E6E3F5EA00E00BBF02C00790EC
:100750000D92AE37B107D9F71BBE1AE0AEE7B4E091
:1007600001C01D92AF30B107E1F717E0C4E2D7E056
:1007700004C02297FE010E944B52C431D107C9F731
:100780000E941C4B0C948E520C940000A0E0B0E030
:10079000ECECF3E00C945F52EC01A880B980CA80C5
:1007A000DB80A114B104C104D10441F484E2A82E79
:1007B00089EDB82E8BE5C82E87E0D82EC601B5018D
:1007C0002DE133EF41E050E00E942E5227EA31E460
:1007D00040E050E00E94C6517B018C01C601B5018A
:1007E0002DE133EF41E050E00E942E52CA01B901E1
:1007F0002CEE34EF4FEF5FEF0E94C6516E0D7F1D60
:10080000801F911F97FF04C0615070408040904846
:10081000688379838A839B839B01AC015F77B901ED
:10082000CA01CDB7DEB7EAE00C947B520E94C60342
:1008300008958EEF93E00E94C60308956093FE032F
:100840007093FF0380930004909301040895FB01CB
:10085000DC0104C08D910190801921F44150504079
:10086000C8F7881B990B0895FB01DC0102C00190B9
:100870000D9241505040D8F70895FC0181918617A0
:1008800021F08823D9F7992708953197CF0108954A
:10089000FB01DC018D91019080190110D9F3990BB6
:1008A0000895FB01DC0101900D920020E1F708950D
:1008B000FB01DC014150504048F001900D920020B6
:1008C000C9F701C01D9241505040E0F70895FB0167
:1008D0009F01E8944230C4F04532B4F44A3029F420
:1008E00097FB1EF4909581959F4F642F77270E9468
:1008F000E551805D8A330CF0895D8193CB010097CF
:10090000A1F716F45DE251931082C9010C94D20450
:10091000FA01CF93FF93EF93223044F1253234F55F
:10092000C22FE894CA3049F497FB3EF49095809525
:10093000709561957F4F8F4F9F4F2C2F3327442702
:100940005527FF93EF930E940C52EF91FF91605D4A
:100950006A330CF0695D6193B901CA01605070405F
:100960008040904051F716F4CDE2C19310828F91F0
:100970009F91CF910C94D204FB019F01423074F0FF
:10098000453264F4642F77270E94E551805D8A33F5
:100990000CF0895D8193CB010097A1F71082C9010A
:1009A0000C94D204DC01FC01672F71917723E1F7ED
:1009B000329704C07C916D9370836291AE17BF072C
:1009C000C8F308958130910581F46F5F7F4FB1F4D2
:1009D00084E894E00E94FB2E85E894E00E94B83001
:1009E0008EE894E00E9437380895892B39F46F5FC0
:1009F0007F4F21F48AE894E00E946108089580E026
:100A000090E06FEF7FEF0E94E204089581E090E0B4
:100A10006FEF7FEF0E94E20408958091820490912D
:100A200083048230910571F08330910591F0019734
:100A3000B1F485E894E060E874E041E854E00E9495
:100A40004935089585E894E060E874E00E94B63482
:100A5000089585E894E06EE774E00E94D53108952A
:100A60008AE697E040E855E260E070E00E94D940F5
:100A700085E894E00E94453384E894E00E94673062
:100A8000909383048093820483E061E00E946D4D23
:100A90008BE061E00E946D4D88E360E00E946D4D47
:100AA00089E360E00E946D4D8091020460E00E9445
:100AB0006D4D8091040460E00E946D4D8091820430
:100AC000909183048230910509F43CC083309105F4
:100AD00009F455C0019709F08AC0209102043091B1
:100AE00003042230310511F480E00DC023303105BC
:100AF00011F481E008C0C9014297049710F08FEF0C
:100B000002C087E1821B62E476E043E050E00E948D
:100B1000BA4520910404309105042230310511F4C6
:100B200080E00DC02330310511F481E008C0C90117
:100B30004297049710F08FEF02C087E1821B6FE2AB
:100B400076E018C020910204309103042230310570
:100B500011F480E00DC02330310511F481E008C0AC
:100B6000C9014297049710F08FEF02C087E1821B02
:100B700066E276E043E050E00E94BA450895209195
:100B80000204309103042230310511F480E00DC0DD
:100B90002330310511F481E008C0C9014297049760
:100BA00010F08FEF02C087E1821B6FE076E043E038
:100BB00050E00E94BA45209104043091050422308F
:100BC000310511F480E00DC02330310511F481E0CE
:100BD00008C0C9014297049710F08FEF02C087E167
:100BE000821B68EF75E043E050E00E94BA4508952B
:100BF00064E670E080E090E00E94F14B8091040494
:100C00000E94534E892B51F084E894E06EE774E023
:100C10000E94FC2E90937F0480937E04089564E6E6
:100C200070E080E090E00E94F14B809102040E940D
:100C3000534E892B51F084E894E06EE774E00E94F3
:100C4000E42F90937F0480937E04089584E894E0D9
:100C500060E874E00E94C22F80938004089564E6E7
:100C600070E080E090E00E94F14B809104040E94CB
:100C7000534E892B31F084E894E061E874E00E94DF
:100C80001E2F089564E670E080E090E00E94F14B32
:100C9000809102040E94534E892B31F084E894E045
:100CA00060E874E00E94542F089580E090E00E9474
:100CB000A95020E030E040EB52E40E94A74F20E62C
:100CC00035EE40ED5EE30E945F51089580E090E0D4
:100CD0000E94A95020E635EE40ED5EE30E941050E0
:100CE00020E030E040EB52E40E94A84F08950F93BB
:100CF0001F93F80100811181DB0160E070E0E0E00A
:100D0000F0E080E090E00DC02D913C9111978217AA
:100D1000930710F09C0101C0FB016F5F7F4F12969B
:100D2000C9016017710780F3EE0FFF1FE40FF51F75
:100D3000808191811F910F9108958F929F92AF9220
:100D4000BF92CF92DF92EF92FF920F931F93CF93B8
:100D5000DF934A01F801A080B180FB0140E050E040
:100D6000CC24DD2480E090E00CC02081318182170A
:100D7000930710F09C0101C06A014F5F5F4F3296EC
:100D8000C9014A155B0588F37601EE0CFF1C8B0147
:100D90000E0D1F1DF8016081718180E090E00E94BE
:100DA000A9502FE832EC45EF5EE30E945F510E94AC
:100DB0007850E801D401AE0DBF1DA601E0E0F0E0DF
:100DC00008EE13E014C028813981261B370B37FF4A
:100DD00003C0309521953F4F2017310724F4ED9142
:100DE000FC91119789014F5F5F4F229612964A1529
:100DF0005B0548F3CF01DF91CF911F910F91FF90D9
:100E0000EF90DF90CF90BF90AF909F908F9008951C
:100E1000AF92BF92CF92DF92EF92FF920F931F9308
:100E2000CF93DF93B42EA52EF8016701E080F18007
:100E3000EB01DB0140E050E0E0E0F0E080E090E03A
:100E40000DC02D913C9111978217930710F09C01D2
:100E500001C0FA014F5F5F4F1296C9014E155F0541
:100E600080F3EE0FFF1FE60FF71F6081718180E0B6
:100E700090E00E94A9502CE53FE842EC5EE30E941E
:100E80005F510E9478502B2D3A2DC901FC0140E0A2
:100E900050E000E010E0A8EEB3E020C020813181F6
:100EA0002C153D0539F48AE697E060E072E00E9477
:100EB000634417C088819981861B970B97FF03C0F5
:100EC000909581959F4F8A179B0714F0980101C058
:100ED000DC014F5F5F4F2296329689014E155F0508
:100EE000E8F2C801DF91CF911F910F91FF90EF9031
:100EF000DF90CF90BF90AF9008952F923F924F9286
:100F00005F926F927F928F929F92AF92BF92CF9299
:100F1000DF92EF92FF920F931F93DF93CF9300D056
:100F200000D0CDB7DEB77C836B83F9012701380190
:100F3000808091808114910409F4A4C089E190E03B
:100F4000FB01918380831401220C331C260E371E73
:100F5000F101918380837E836D8381E090E09A83A9
:100F600089833DC0ED81FE816281738180E090E0E4
:100F70000E94A9509B01AC01C301B2010E945F51C4
:100F80005B016C0160E070E080E89FE3A3019201E7
:100F90000E94A74F7B018C01ED81FE8160817181F0
:100FA00080E090E00E94A9509B01AC01C801B7010C
:100FB0000E945F519B01AC01C601B5010E94A84F80
:100FC0000E947D50ED81FE817383628329813A8185
:100FD0002F5F3F4F3A8329833296FE83ED838981C9
:100FE0009A818815990508F4BDCFF401E150F048C5
:100FF000EE0FFF1F2B813C81E20FF31FFE83ED8379
:101000003AC0ED81FE816081718180E090E00E94B4
:10101000A9509B01AC01C301B2010E945F515B0169
:101020006C0160E070E080E89FE3A30192010E9400
:10103000A74F7B018C01F1016081718180E090E01C
:101040000E94A9509B01AC01C801B7010E945F51E9
:101050009B01AC01C601B5010E94A84F0E947D50C2
:10106000ED81FE81718360833297FE83ED832EEFE5
:101070003FEF220E331E08948108910881149104D9
:1010800009F0BFCF26960FB6F894DEBF0FBECDBFD6
:10109000CF91DF911F910F91FF90EF90DF90CF9054
:1010A000BF90AF909F908F907F906F905F904F9088
:1010B0003F902F900895FC0189E194E09183808313
:1010C0000895FC0189E194E0918380830895813043
:1010D000910561F46F5F7F4F91F48FE894E00E9477
:1010E000383B81E994E00E9437380895892B39F420
:1010F0006F5F7F4F21F48FE894E00E943E3B08959C
:1011000080E090E06FEF7FEF0E946708089581E034
:1011100090E06FEF7FEF0E946708089581E994E007
:101120000E94033B0895EF92FF920F931F93DF936A
:10113000CF9300D000D0CDB7DEB77C018E010F5F1A
:101140001F4FC80161E974E00E946138C701B8010E
:1011500040E050E025E030E00E949E4AC8010E9435
:10116000104BC70126960FB6F894DEBF0FBECDBF59
:10117000CF91DF911F910F91FF90EF9008952F92E3
:101180003F924F925F926F927F928F929F92AF9217
:10119000BF92CF92DF92EF92FF920F931F93DF9354
:1011A000CF93CDB7DEB7E6970FB6F894DEBF0FBE8C
:1011B000CDBFB42E2901CE0107960E94064B39E01F
:1011C000632E32E0732ECE010796B3010E943E4992
:1011D0004C01CE010D966B2D4AE00E946D4AC40170
:1011E000BE01635F7F4F0E945A49B3010E943E498E
:1011F0004C01CE014396B2014AE00E940D4AC4015F
:10120000BE016D5E7F4F0E945A49B3010E943E4964
:101210004C0129E1222E312C2C0E3D1EC101B801BA
:101220004AE00E940D4AC401B1010E945A49B3012B
:101230000E943E498C019FE1492E512C4C0E5D1EAF
:10124000C201B7014AE00E940D4AC801B2010E94E2
:101250005A49B3010E943E498C0185E2882E912CA7
:101260008C0E9D1EC401B6014AE00E940D4AC801C1
:10127000B4010E945A49B3010E943E497C018E018B
:10128000055D1F4FC8016A2D4AE00E946D4AC701E3
:10129000B8010E945A49BC017E010894E11CF11C6E
:1012A000C7010E94FC4AC8010E94104BC4010E9461
:1012B000104BC2010E94104BC1010E94104BCE0185
:1012C00043960E94104BCE010D960E94104BCE010A
:1012D00007960E94164B8E010F5C1F4FC801B70185
:1012E0000E94FC4A81E994E0B8010E94F938C801E3
:1012F0000E94104BC7010E94104BE6960FB6F8945F
:10130000DEBF0FBECDBFCF91DF911F910F91FF9038
:10131000EF90DF90CF90BF90AF909F908F907F9095
:101320006F905F904F903F902F9008950F931F9371
:101330009B016F3F7105B1F0A8F0CB016FEF70E03A
:101340000E94E5518C01281B390B8FE894E06DEC6D
:1013500070E0A9010E944A3B8FE894E06EEC70E0D7
:10136000A80105C08FE894E06DEC70E0A9010E942F
:101370004A3B1F910F910895AB018FE894E068EC10
:1013800070E00E944A3B08958FE894E06DEC70E0B5
:101390000E94443B8F3F910511F09C0109C08FE8EA
:1013A00094E06EEC70E00E94443B9C0121503F4F62
:1013B000C90108958FE894E068EC70E00E94443B16
:1013C0000895FC0189E194E091838083CF010E941C
:1013D0002C4B08956F927F928F929F92AF92BF9203
:1013E000CF92DF92EF92FF920F931F93CF93DF93F1
:1013F0004C01EB0104960E946C3B3C01209709F4E0
:101400003EC0CE014996883C910518F4CFEAD0E061
:1014100005C08D52914010F0C3E1D1E084010D5F11
:101420001F4FC8010E94583BB30180E090E00E942A
:10143000A9505B016C01BE016A507040C4010E945A
:1014400066069B01AC01C601B5010E940C508823C1
:1014500034F4C80168EC70E00E94683B4EC02A96E4
:10146000C401BE010E9466069B01AC01C601B50124
:101470000E945B5118160CF040C0C8013CC00E948D
:10148000774B5B016C01A6019501205D3740404020
:1014900050408091920490919304A0919404B09153
:1014A000950482179307A407B507BCF5C40164E14E
:1014B00070E00E9466067B018C01B30180E090E041
:1014C0000E94A950A80197010E940C5088232CF576
:1014D000C40103960E94583BA0929204B0929304D8
:1014E000C0929404D092950404C0C40103960E9453
:1014F0005D3BC40103960E94623BC301DF91CF9123
:101500001F910F91FF90EF90DF90CF90BF90AF9021
:101510009F908F907F906F900895C40165E070E078
:101520000E9466067B018C01B30180E090E00E947E
:10153000A950A80197010E945B511816D4F6D5CF87
:101540006F927F928F929F92AF92BF92CF92DF92D3
:10155000EF92FF920F931F93CF93DF93EC018B01D8
:1015600094E0C92ED12CCC0EDD1EC6010E946C3B2E
:101570003C01F80180818823D1F183E0882E912CF1
:101580008C0E9D1EC4010E94583BCE016AE570E09E
:101590000E9466067B018C01B30180E090E00E940E
:1015A000A950A80197010E940C50882334F4C4016B
:1015B00068EC70E00E94683B58C0C6010E946C3B1A
:1015C0007C01CE0164E670E00E9466065B016C015E
:1015D00000E010E0C801B7010E94A950A6019501E2
:1015E0000E945B5118160CF040C0C4013CC00E9420
:1015F000774B5B016C01A6019501205D37404040AF
:1016000050408091920490919304A0919404B091E1
:10161000950482179307A407B507ECF5CE0164E1A2
:1016200070E00E9466067B018C01B30180E090E0CF
:101630000E94A950A80197010E940C5088235CF5D4
:10164000CE0103960E94583BA0929204B09293045C
:10165000C0929404D092950404C0CE0103960E94D7
:101660005D3BCE0103960E94623BCE01B3010E9416
:1016700055060E947D50CB01DF91CF911F910F91B4
:10168000FF90EF90DF90CF90BF90AF909F908F90A2
:101690007F906F900895CE0165E070E00E9466062D
:1016A0007B018C01B30180E090E00E94A950A80169
:1016B00097010E945B511816A4F6CFCF2F923F924C
:1016C0004F925F926F927F928F929F92AF92BF9252
:1016D000CF92DF92EF92FF920F931F93DF93CF93FE
:1016E000CDB7DEB7C655D6400FB6F894DEBF0FBEF5
:1016F000CDBFC55BD94F99838883CB54D640C35B9C
:10170000D94F79836883CD54D640C15BD94F598373
:101710004883CF54D640CF5AD94F39832883C155F7
:10172000D64058011A8219828C010D5F1F4FC801E3
:101730000E94583BC8016FEF70E00E94683BC55B98
:10174000D94FE880F980CB54D64084E090E0E80E91
:10175000F91EC55BD94F9881CB54D640CD5AD94F8D
:101760009883C355D640C45BD94FE881CC54D6404A
:10177000CC5AD94FE883C455D640C7010E946C3B70
:10178000BC01CD5AD94F8881C355D640CC5AD94FC8
:101790009881C455D6400E94550620E030E048E4C8
:1017A00053E40E940C50882324F4F501808188239F
:1017B00021F7C8010E94623B49E2842E43E0942E47
:1017C0008C0E9D1EC701B401AE01475F5F4F20E93B
:1017D00031E08E010F5F1F4FEE24CC240E94883B26
:1017E0008AE697E06BE072E00E9463441401C75BF5
:1017F000D94F99828882C954D640C401CB5AD94F57
:101800008882C555D640CA5AD94F9883C655D64006
:101810008E01075B194F1AC0C75BD94FE881F98168
:10182000C954D64061917191C75BD94FF983E88360
:10183000C954D6408AE697E04AE050E00E94F5435A
:101840008AE697E06DE072E00E946344C75BD94F7F
:1018500088819981C954D64080179107E9F68AE6B4
:1018600097E06BE072E00E946344C55BD94F8881CA
:101870009981CB54D6400296CB5AD94F6881C55531
:10188000D640CA5AD94F7881C655D64040E951E072
:101890003E010894611C711C93010F2EFAE9EF2E92
:1018A000F9E9FF2EF9E10F2FFEE31F2FF02D0E9423
:1018B0007D07C55BD94FA880B980CB54D64008942A
:1018C000A11CB11C39E0832E912C8C0E9D1EC501EC
:1018D000CB5AD94F6881C555D640CA5AD94F78815D
:1018E000C655D640A40120E931E083010E94770665
:1018F0006C01C501CB5AD94F6881C555D640CA5A2B
:10190000D94F7881C655D640A40120E931E076014F
:101910000E9408072C01C501CB5AD94F6881C555D3
:10192000D640CA5AD94F7881C655D640A40120E97D
:1019300031E00E949D06C35BD94FE881F981CD5407
:10194000D640D182C082C15BD94FE881F981CF54A2
:10195000D64051824082CF5AD94FE881F981C15592
:10196000D640918380838AE697E06BE072E00EC0F8
:10197000F101619171911F018AE697E04AE050E020
:101980000E94F5438AE697E06DE072E00E946344AE
:10199000C75BD94F88819981C954D640281639062A
:1019A00039F78AE697E06BE072E00E9463448E01AB
:1019B000075F1F4F29E2E22E23E0F22EEC0EFD1E00
:1019C00010C0F801619171918F018AE697E04AE0B9
:1019D00050E00E94F5438AE697E06DE072E00E94D5
:1019E00063440E151F0569F78AE697E06BE072E025
:1019F0000E946344C55BD94F88819981CB54D640FE
:101A00000796C55BD94F99838883CB54D640CE01C6
:101A10000396C55BD94F68817981CB54D6400E942B
:101A2000AC0EC15BD94FE881F981CF54D6406081BB
:101A30007181CD5AD94F8881C355D640CC5AD94FE0
:101A40009881C455D6400E9455063B014C01C35BAA
:101A5000D94FE881F981CD54D64060817181CD5A4A
:101A6000D94F8881C355D640CC5AD94F9881C45597
:101A7000D6400E9455065B016C01CF5AD94FE881D0
:101A8000F981C155D64060817181CD5AD94F888185
:101A9000C355D640CC5AD94F9881C455D6400E94E0
:101AA00055067B018C01C55BD94F88819981CB5448
:101AB000D6400297C55BD94F99838883CB54D640D3
:101AC000C401B3010E947D501B012C01C601B50168
:101AD0000E947D503B014C01C801B7010E947D501E
:101AE0005B016C01C55BD94F88819981CB54D6408D
:101AF000BE016D5F7F4F40E020E030E08101730167
:101B00006501AA240E94BF08CE0103960E94104BD3
:101B1000CA5AD94F0FB6F894DEBF0FBECDBFCF91D2
:101B2000DF911F910F91FF90EF90DF90CF90BF90CA
:101B3000AF909F908F907F906F905F904F903F906D
:101B40002F900895089580919604089560939604C7
:101B500008950F931F930BE914E0C80165E046E078
:101B600027E00E94D2258EE994E0B8010E94262643
:101B70001F910F910895DF93CF93CDB7DEB72997CB
:101B80000FB6F894DEBF0FBECDBFCE0101966BE954
:101B900074E00E9426268B8190E02091A004821B95
:101BA000910920E13EE0829FF001839FF00D929F1A
:101BB000F00D11248A8190E020919F04821B9109ED
:101BC0002CE330E0AC01429FC001439F900D529F37
:101BD000900D1124E80FF91F898190E020919E0457
:101BE000821B9109E80FF91FCF016CE370E00E949E
:101BF000E5519C019093980480939704CF01821B38
:101C0000930B6CE370E00E94E55170939A0460932B
:101C1000990429960FB6F894DEBF0FBECDBFCF91C1
:101C2000DF9108950F931F93DF93CF93CDB7DEB766
:101C300029970FB6F894DEBF0FBECDBF8E010F5FA0
:101C40001F4FC8016BE974E00E942626AEE9B4E09C
:101C5000F80189E001900D928150E1F729960FB6C5
:101C6000F894DEBF0FBECDBFCF91DF911F910F91D2
:101C700008950F931F93DF93CF93CDB7DEB72F97C0
:101C80000FB6F894DEBF0FBECDBF8B011092960445
:101C9000CE0107966BE974E00E942626CE010196DC
:101CA0006FE072E00E9491498F8190E020919E0444
:101CB000821B9109081B190B888590E020919F04D5
:101CC000821B91092CE330E0AC01429FC001439F8D
:101CD000900D529F900D1124081B190B898590E0DF
:101CE0002091A004821B910920E13EE0AC01429FBB
:101CF000C001439F900D529F900D1124081B190B9A
:101D0000C8016CE370E00E94E5519C019093980437
:101D100080939704C801821B930B6CE370E00E94D0
:101D2000E55170939A04609399046115710529F443
:101D3000232B19F481E080939604CE0101960E9432
:101D4000104B2F960FB6F894DEBF0FBECDBFCF91CC
:101D5000DF911F910F9108952F923F924F925F92C2
:101D60006F927F928F929F92AF92BF92CF92DF92AB
:101D7000EF92FF920F931F93DF93CF93CDB7DEB710
:101D8000C457D0400FB6F894DEBF0FBECDBFE49667
:101D90008FAFE497E5969FAFE5972090A50430902C
:101DA000A6045090A2047090A10440909E046090FC
:101DB0009F04A090A0044E010894811C911CC401B2
:101DC0006FE072E00E949149CE0107966FE072E0E9
:101DD0000E949149CE010D966FE072E00E949149F8
:101DE00089E08A1568F189E1C82ED12CCC0EDD1E60
:101DF000C60160E172E00E94AA4903E1E02EF12CE5
:101E0000EC0EFD1EC7016A2D4AE00E946D4AC60114
:101E1000B7010E945A49BC018E01015E1F4FC801E3
:101E20000E94FC4AC401B8010E94E54AC8010E9410
:101E3000104BC7010E94104BC6010E94164B0FC0E9
:101E40008E010B5D1F4FC8016A2D4AE00E946D4A4A
:101E5000C401B8010E94E54AC8010E94104B17E076
:101E6000812E912C8C0E9D1E89E0861568F1B1E3C0
:101E7000CB2ED12CCC0EDD1EC60160E172E00E949B
:101E8000AA49ABE2EA2EF12CEC0EFD1EC701662D2D
:101E90004AE00E946D4AC601B7010E945A49BC013E
:101EA0008E01095C1F4FC8010E94FC4AC401B801A1
:101EB0000E94E54AC8010E94104BC7010E94104BC6
:101EC000C6010E94164B0FC08E01035C1F4FC80154
:101ED000662D4AE00E946D4AC401B8010E94E54A9D
:101EE000C8010E94104BFDE08F2E912C8C0E9D1E80
:101EF00089E0841568F1E9E4CE2ED12CCC0EDD1EEC
:101F0000C60160E172E00E94AA4973E4E72EF12C59
:101F1000EC0EFD1EC701642D4AE00E946D4AC60109
:101F2000B7010E945A49BC018E01015B1F4FC801D5
:101F30000E94FC4AC401B8010E94E54AC8010E94FF
:101F4000104BC7010E94104BC6010E94164B0FC0D8
:101F50008E010B5A1F4FC801642D4AE00E946D4A42
:101F6000C401B8010E94E54AC8010E94104B6BE50C
:101F7000A62EB12CAC0EBD1EC501672D4AE00E94F5
:101F80006D4A51E6C52ED12CCC0EDD1EC601652D45
:101F90004AE00E946D4A47E6E42EF12CEC0EFD1E4D
:101FA000C701B1014AE00E940D4A8E0103591F4F3B
:101FB000C8012E010894411C511CB2010E94064B1D
:101FC000C80162E172E00E943E4937E0632E712C45
:101FD0006C0E7D1EB3010E945A4962E172E00E94BC
:101FE0003E492DE0822E912C8C0E9D1EB4010E9444
:101FF0005A4964E172E00E943E49B5010E945A4983
:1020000066E172E00E943E49B6010E945A4966E1CB
:1020100072E00E943E49B7010E945A49BC01E49611
:102020008FADE497E5969FADE5970E94FC4AC80105
:102030000E94164BC7010E94104BC6010E94104B14
:10204000C5010E94104BC4010E94104BC3010E94A5
:10205000104BC2010E94104BE4968FADE497E596B9
:102060009FADE597CC58DF4F0FB6F894DEBF0FBE9B
:10207000CDBFCF91DF911F910F91FF90EF90DF9037
:10208000CF90BF90AF909F908F907F906F905F9018
:102090004F903F902F9008956F927F928F929F92D2
:1020A000AF92BF92CF92DF92EF92FF920F931F9366
:1020B000DF93CF93CDB7DEB7C254D0400FB6F894BC
:1020C000DEBF0FBECDBF782E692E6091990470914E
:1020D0009A046E010894C11CD11CC6014AE00E94FA
:1020E0000D4A6091970470919804CE0107964AE0DA
:1020F0000E940D4ACE010D966FE072E00E94914958
:102100006091990470919A046A30710500F563E159
:10211000E62EF12CEC0EFD1EC70160E172E00E947C
:10212000AA49C701B6010E945A49BC018E01075E47
:102130001F4FC8010E94FC4AC601B8010E94E54A2F
:10214000C8010E94104BC7010E94164B0EC08E01A1
:10215000015E1F4FC8014AE00E940D4AC601B80146
:102160000E94E54AC8010E94104B6091970470914B
:10217000980457E0C52ED12CCC0EDD1E6A307105B7
:1021800000F545E2E42EF12CEC0EFD1EC70160E1E6
:1021900072E00E94AA49C701B6010E945A49BC01D7
:1021A0008E01055D1F4FC8010E94FC4AC601B8019F
:1021B0000E94E54AC8010E94104BC7010E94164BBD
:1021C0000EC08E010F5C1F4FC8014AE00E940D4AED
:1021D000C601B8010E94E54AC8010E94104B37E3CE
:1021E000E32EF12CEC0EFD1EC7014E010894811C5C
:1021F000911CB4010E94064BC70162E172E00E948B
:102200003E4927E0A22EB12CAC0EBD1EB5010E94A6
:102210005A49BC018E01035C1F4FC8010E94FC4A51
:102220009DE0C92ED12CCC0EDD1EC601B8010E9446
:10223000E54ABC01872D962D0E94FC4AC8010E94E8
:10224000104BC7010E94164BC6010E94104BC501DE
:102250000E94104BC4010E94104B872D962DCE5B1F
:10226000DF4F0FB6F894DEBF0FBECDBFCF91DF9129
:102270001F910F91FF90EF90DF90CF90BF90AF90A4
:102280009F908F907F906F900895882319F48CB55C
:10229000806202C08CB58F7D8CBD08959CB5937F04
:1022A000982B9CBD08952CB5382F33702C7F322B82
:1022B0003CBD2DB590E09595879595958795817056
:1022C0002E7F822B8DBD089585E361E00E94204E14
:1022D00085E361E00E946D4D8CB580618CBD8CB54D
:1022E00080648CBD84E361E00E946D4D83E361E016
:1022F0000E946D4D0895FF920F931F93CF93DF932C
:102300008B010E94774BEB01FF24FA94FEBC0DB4C5
:1023100007FEFDCF8EB58F3F11F481E008C00E940B
:10232000774B6C1B7D0B6017710780F380E0DF91AA
:10233000CF911F910F91FF900895FC01673020F01D
:1023400086E1858380E008956330B9F0643028F435
:10235000613069F0623070F407C06530A1F065301B
:1023600078F06630A9F412C084E090E011C080E0FB
:1023700090E00EC085E090E00BC081E090E008C0E6
:1023800086E090E005C082E090E002C083E090E04B
:102390000E94531181E00895FC01848160E00E9455
:1023A000204E0895FC01848161E00E94204E089532
:1023B000DC016EBD0DB407FEFDCF8EB520E030E030
:1023C000FA01E20FF31F80818EBD0DB407FEFDCF31
:1023D0008EB52F5F3F4F82E02030380789F78FEFAF
:1023E0008EBD0DB407FEFDCF8EB58FEF8EBD0DB443
:1023F00007FEFDCF8EB58FEF8EBD0DB407FEFDCF6E
:102400008EB51A968C931A978F71853011F481E0EE
:10241000089581E115968C931597CD010E94D211F4
:1024200080E00895FF920F931F93CF93DF93EC0109
:102430000E94774B8B01FF24FA9409C00E94774BCE
:10244000601B710B6D52714010F08FE00DC0FEBC2F
:102450000DB407FEFDCF8EB58A878F3F79F38E3F8F
:1024600011F481E006C08DE08D83CE010E94D2116F
:1024700080E0DF91CF911F910F91FF900895CF934E
:10248000DF93EC018E818823B1F02F8138854FEFE7
:1024900005C04EBD0DB407FEFDCF8EB52F5F3F4F7B
:1024A000C901019782509240A0F338872F83CE0153
:1024B0000E94D2111E82DF91CF910895DF92EF9298
:1024C000FF920F931F93CF93DF93EC01D62E7901E8
:1024D0008A010E943F12CE010E94CC11CE016CE213
:1024E00071E00E947B118D2D80648EBD0DB407FEBE
:1024F000FDCF8EB528E130E0D801C701022E04C01F
:10250000B695A795979587950A94D2F78EBD0DB489
:1025100007FEFDCF8EB5285030408FEF283F38079B
:1025200059F7DD2011F485E906C088E0D81611F4CA
:1025300087E801C08FEF8EBD0DB407FEFDCF8EB5CD
:1025400090E02FEF2EBD0DB407FEFDCF8EB587FFB7
:1025500002C09150B9F78A87DF91CF911F910F91F7
:10256000FF90EF90DF900895CF92DF92EF92FF926D
:102570000F931F93CF93DF93EC017A018B016901D5
:10258000411551056105710511F482E137C08B8554
:10259000833039F099E0EE0CFF1C001F111F9A9553
:1025A000D1F7CE0168E1A80197010E945E1288234D
:1025B00011F084E023C0CE016EEFA6010E94D81175
:1025C0008823E9F0CE0168E572E00E947B11882340
:1025D00011F485E113C0CE016DE020E030E040E071
:1025E00050E00E945E12882341F48FEF8EBD0DB43F
:1025F00007FEFDCF8EB5882379F084E18D83CE016F
:102600000E94D21180E0DF91CF911F910F91FF9036
:10261000EF90DF90CF900895CE010E94D21181E01B
:10262000F2CF8F929F92AF92BF92CF92DF92EF92B2
:10263000FF920F931F93CF93DF93EC015A016B012D
:1026400049010115110509F470C0C801820F931FDB
:102650008150924008F064C08E81882371F0888197
:102660009981AA81BB81481759076A077B0729F41A
:102670008F8198858816990610F5A882B982CA823A
:10268000DB828B85833039F059E0AA0CBB1CCC1C53
:10269000DD1C5A95D1F7CE0161E1A60195010E949A
:1026A0005E12882319F083E08D833AC0CE010E9428
:1026B00012128823A9F118861F8281E08E838F81F0
:1026C00098852FEF06C02EBD0DB407FEFDCF3EB599
:1026D000019688159905B8F398878F8320E030E03C
:1026E0009FEF0BC09EBD0DB407FEFDCF8EB5F70169
:1026F000E20FF31F80832F5F3F4F2017310790F3C6
:102700002F813885200F311F38872F8389858823B3
:1027100019F02050324048F0CE010E943F1205C00F
:10272000CE010E94D21180E001C081E0DF91CF9103
:102730001F910F91FF90EF90DF90CF90BF90AF90DF
:102740009F908F900895EF92FF920F931F937901BE
:1027500020E030E000E012E00E9411131F910F9181
:10276000FF90EF900895BF92CF92DF92EF92FF9289
:102770000F931F93CF93DF93EC01B62E1B86198620
:102780001E821D824C830E94774B6B018C8161E01D
:102790000E946D4DCE010E94D2110E94641183E00F
:1027A0000E94531180E09FEF9EBD0DB407FEFDCF48
:1027B0002EB58F5F8A30C1F7CE010E94CC1109C0BF
:1027C0000E94774B6C197D09615D774010F081E0C4
:1027D0005EC0CE0160E020E030E040E050E00E94CA
:1027E0005E12182F8A87813059F7CE0168E02AEAF5
:1027F00031E040E050E00E945E1282FF02C01B8781
:1028000011C080E02FEF2EBD0DB407FEFDCF9EB5A9
:102810008F5F8430C1F79A879A3A11F082E037C00F
:1028200082E08B878B85823021F0EE24FF248701A4
:102830000FC0E12CF12C012D60E4162F09C00E947D
:10284000774B6C197D09615D774010F088E01FC0FF
:10285000CE0167E320E030E040E050E00E945E12ED
:10286000CE0169E2A80197010E945E128A8788233F
:1028700031F78B85823031F5CE016AE320E030E01C
:1028800040E050E00E945E12882339F086E08D839C
:10289000CE010E94D21180E01CC08FEF8EBD0DB41E
:1028A00007FEFDCF8EB5807C803C11F483E08B87E2
:1028B00080E09FEF9EBD0DB407FEFDCF2EB58F5F6C
:1028C0008330C1F7CE010E94D211CE016B2D0E9440
:1028D0009D11DF91CF911F910F91FF90EF90DF90AD
:1028E000CF90BF900895CF93DF93EB01DC0190E090
:1028F00020E03EE28C91803269F0283029F4FE011C
:10290000E90FF11D30839F5FFE01E90FF11D8C91EE
:1029100080839F5F2F5F11962B3061F7C90FD11D08
:102920001882DF91CF910895CF93DF93EC01DB0103
:1029300080E090E020E2FD01E80FF91F208301967E
:102940008B309105C1F757E040E021C02E3219F0DD
:1029500084EE90E007C05A3019F15AE048E017C001
:102960003217F1F0FC01019634913323C9F7541763
:10297000B8F02132A8F02F3798F4822F81568A318F
:1029800008F42052FD01E40FF11D20834F5F2991CF
:102990002223E1F690E08C91803219F091E001C0A1
:1029A00090E0892FDF91CF9108956F927F928F925F
:1029B0009F92AF92BF92CF92DF92EF92FF920F93CE
:1029C0001F93CF93DF93EC017A018B012D8122239A
:1029D00009F480C08B899C89AD89BE8984179507CD
:1029E000A607B70708F476C085C0E114F104010515
:1029F000110549F41E821F82188619861A861B86C5
:102A00001C861D8665C02A853B854C855D85EB8DC2
:102A1000FC8D858590E00996215030404040504023
:102A200039014A01082E04C09694879477946794DC
:102A30000A94D2F72F5F3F4F4F4F5F4F0894E10842
:102A4000F108010911095701680104C0D694C7941F
:102A5000B794A7948A95D2F70894E11CF11C011D44
:102A6000111DA614B704C804D90428F02115310596
:102A70004105510549F48F89988DA98DBA8D8E83B2
:102A80009F83A887B98716C0A618B708C808D908B1
:102A900011C04E815F81688579858B8D9C8D9401F5
:102AA0000E94E41E0894A108B108C108D108882337
:102AB00031F410C086E0882E912C8C0E9D1EA1143E
:102AC000B104C104D10429F7EA86FB860C871D876F
:102AD00081E001C080E0DF91CF911F910F91FF90C5
:102AE000EF90DF90CF90BF90AF909F908F907F90AE
:102AF0006F900895223009F078CFE6CFCF93DF931F
:102B0000EC01462F6E857F85888999890E94C81CB3
:102B1000882319F420E030E00AC08A89282F30E0A9
:102B200095E0220F331F9A95E1F727553B4FC901D6
:102B3000DF91CF9108950F931F93CF93DF938C0173
:102B4000FC0185818823D9F1848187FF35C0C801C4
:102B500061E00E947E15EC01009789F1F801858102
:102B6000823040F483899489A589B6898C8F9D8FA2
:102B7000AE8FBF8FF8018789908D9B8F8A8F878951
:102B8000908DA18DB28DCD01AA27BB279D8B8C8BFB
:102B9000E091A704F091A804309751F0BE016A5E5D
:102BA0007F4FCE0148961995888D998D9B8B8A8B86
:102BB000F80184818F7784830E94691C01C080E0C2
:102BC000DF91CF911F910F910895CF93DF93EC0187
:102BD0000E949B15882311F01D8281E0DF91CF9127
:102BE00008956F927F928F929F92AF92BF92CF92F1
:102BF000DF92EF92FF920F931F93DF93CF9300D05A
:102C00000F92CDB7DEB77C015A016B01DC0115963E
:102C10008C911597813009F08FC014968C9181FFAB
:102C20008BC09EC00097A105B10511F481E085C05D
:102C3000F7016284738484849584C701B601A50179
:102C40000E94D514882309F477C0D7015B968D9133
:102C50009C915C97A114B104C104D10489F45796E6
:102C60004D915D916D917C915A970E94571F8823D9
:102C700009F462C0F701178A108E118E128E3DC0C2
:102C8000D70116964D915D916D917C9119979E019A
:102C90002F5F3F4F0E94E41E882309F44DC0D701E7
:102CA0005B96ED91FC915C9749815A816B817C81A7
:102CB0008789803129F088EF9FEFAFEFBFE004C034
:102CC00088EF9FEFA0E0B0E0481759076A077B073D
:102CD000A0F4CF010E94571F882371F1F7014681AC
:102CE000578160857185838D948D0FEF1FEF2FEFD6
:102CF0003FE00E94481E8823F9F0D7015396AD9219
:102D0000BD92CD92DC92569714968C911497806860
:102D100014968C93C7010E949B15882369F0B60115
:102D2000A5016A147B048C049D0410F4B401A30172
:102D3000C7010E94D51401C080E00F900F900F9042
:102D40000F90CF91DF911F910F91FF90EF90DF9047
:102D5000CF90BF90AF909F908F907F906F9008958D
:102D6000F70183899489A589B68984179507A607F1
:102D7000B70708F057CFE0CF2F923F924F925F9264
:102D80006F927F928F929F92AF92BF92CF92DF927B
:102D9000EF92FF920F931F93CF93DF93EC012A01E1
:102DA0008D81882309F4C6C08C8180FFC3C0D8C040
:102DB00025014E185F084B0176E0272E312C2C0E92
:102DC0003D1E3201B1C02A853B854C855D856FEF84
:102DD000A62E61E0B62EA222B3228D8179018A014E
:102DE00099E016950795F794E7949A95D1F7EB8DAE
:102DF000FC8D823049F4428D538D648D758D4E0D5E
:102E00005F1D601F711F3FC0D480DA94DE20A114C3
:102E1000B104D9F4DD20C9F421153105410551056E
:102E200049F48F89988DA98DBA8D8E839F83A88749
:102E3000B9870BC04E815F8168857985CF0191018B
:102E40000E94E41E882309F475C0EB8DFC8D4E8131
:102E50005F816885798542505040604070400584AC
:102E600004C0440F551F661F771F0A94D2F786854A
:102E70009785A089B189480F591F6A1F7B1F4D0D87
:102E8000511D611D711D80E092E08A199B0963014B
:102E90008615970508F46C018C8186FD06C080E0DC
:102EA000C81682E0D80609F073C08091060490919C
:102EB0000704A0910804B0910904481759076A074C
:102EC0007B0709F465C08091A9069091AA06950137
:102ED000860174010E941113882361F18C0C9D1CE2
:102EE00012C0950127553B4FA9014C0D5D1DD40122
:102EF000F90102C081918D93E417F507D9F7E21B20
:102F0000F30B8E0E9F1E960140E050E08A859B8554
:102F1000AC85BD85820F931FA41FB51F8A879B8731
:102F2000AC87BD876C187D086114710409F04BCF24
:102F3000A20102C04FEF5FEFCA01DF91CF911F9155
:102F40000F91FF90EF90DF90CF90BF90AF909F9048
:102F50008F907F906F905F904F903F902F9008954B
:102F6000AB88BC88CD88DE88EA84FB840C851D850F
:102F70009A0140E050E0D601C5018E199F09A00BCF
:102F8000B10B82179307A407B50708F411CF13CF2D
:102F9000CB01BA0140E00E94C81C882309F0A1CFF0
:102FA000C9CFCF92DF92EF92FF920F931F93DF93DF
:102FB000CF930F92CDB7DEB76C01FC0185818230D3
:102FC00070F0E284F38404851585C601BE016F5F4D
:102FD0007F4F41E050E00E94BC16019769F020E06D
:102FE00030E0C9010F90CF91DF911F910F91FF90B9
:102FF000EF90DF90CF900895F60182859385A485A8
:10300000B5854F96A11DB11D82879387A487B5878B
:10301000F5E016950795F794E794FA95D1F78E2D7C
:103020008F70282F30E0E5E0220F331FEA95E1F79B
:1030300027553B4FD6CF0F931F93CF93DF938C0130
:10304000EB01FC018581823010F182859385A48596
:10305000B5858F719070A070B0700097A105B10513
:10306000B1F40AC088818823A1F0853E29F08E3210
:1030700019F08B8583FF0EC0C801BE0140E250E00D
:103080000E94BC16982F803269F387FF02C09FEF21
:1030900001C090E0892FDF91CF911F910F9108958A
:1030A0000F931F93CF93DF93EC018B018D818823C6
:1030B00009F041C0FB0187898031B1F482E08D8342
:1030C0001F8A188E198E1A8E808D918DA0E0B0E027
:1030D00045E0880F991FAA1FBB1F4A95D1F78B8B1C
:1030E0009C8BAD8BBE8B15C0803229F583E08D8320
:1030F000FB01428D538D648D758D4F8B588F698F79
:103100007A8F9E012D5E3F4FC8010E94B01F882319
:1031100091F01C8F0B8F81E08C831E821F8218869A
:1031200019861A861B861C861D861E861F86188A8F
:10313000198A1A8A01C080E0DF91CF911F910F9107
:1031400008951F93CF93DF93EC01142FE62FF0E047
:1031500075E0EE0FFF1F7A95E1F7E755FB4F83858A
:10316000817121F0842F827409F054C06A8B8091A0
:10317000060490910704A0910804B09109048E8779
:103180009F87A88BB98B84899589A0E0B0E0BC01AA
:1031900055274427828D938DA0E0B0E0482B592B12
:1031A0006A2B7B2B4F8B588F698F7A8F838590E0AA
:1031B00088719070009751F4848D958DA68DB78D90
:1031C0008B8B9C8BAD8BBE8B81E00CC0409711F537
:1031D0009E012D5E3F4F8B8D9C8D0E94B01F8823DA
:1031E000C9F084E08D83812F8F708C831E821F82B3
:1031F000188619861A861B861C861D8616FD02C037
:1032000081E009C0CE0140E050E060E070E00E9443
:10321000F11501C080E0DF91CF911F910895CF9308
:10322000DF93EC019C012A5F3F4F8B8D9C8D41E029
:1032300050E060E070E00E941F208823A1F08F8999
:10324000988DA98DBA8D0097A105B10559F48E818D
:103250009F81A885B9858F8B988FA98FBA8F8C8114
:1032600080688C8381E0DF91CF9108952F923F9207
:103270004F925F927F928F929F92AF92BF92CF9226
:10328000DF92EF92FF920F931F93DF93CF9300D0C3
:1032900000D0CDB7DEB76C01162F072F5E834D83AC
:1032A000DC0115968C911597813009F070C1149648
:1032B0008C9181FF6CC18EC1F60143895489658967
:1032C000768982859385A485B58584179507A60799
:1032D000B70731F0C6010E94D514882309F457C1FD
:1032E000812F902F9C0129012D803E8017C1D6018E
:1032F0005B96ED91FC915C97DA01C90119E0B695F6
:10330000A795979587951A95D1F774807A94782226
:103310007FEF872E71E0972E82229322772009F08B
:103320004EC08114910409F04AC0D60116964D9101
:103330005D916D917C91199741155105610571055C
:1033400081F457968D919D910D90BC91A02D009781
:10335000A105B10549F1F60186839783A087B1875E
:103360002EC0CF019E012F5F3F4F0E94E41E882395
:1033700009F414C129813A814B815C81D6015B96A5
:10338000ED91FC915C978789803129F088EF9FEF60
:10339000AFEFBFE004C088EF9FEFA0E0B0E02817D8
:1033A00039074A075B0730F0C6010E940F198823CE
:1033B00031F4EDC0F601268337834087518780E0E2
:1033C00092E08819990951018215930508F45C016E
:1033D000D6015B96ED91FC915C971696ED90FD9071
:1033E0000D911C9119978EEF9FEFAFEFBFEFE80E95
:1033F000F91E0A1F1B1F058404C0EE0CFF1C001FD2
:10340000111F0A94D2F786859785A089B189E80EA5
:10341000F91E0A1F1B1FE70CF11C011D111D90E076
:10342000A91692E0B90651F580910604909107041F
:10343000A0910804B09109048E159F05A007B1075B
:1034400061F48FEF9FEFAFEFBFEF8093060490938F
:103450000704A0930804B09309048091A9069091F1
:10346000AA06B801A70192010E94B412882309F4A8
:103470008EC0A0E0B2E04A0E5B1E3EC081149104F3
:1034800009F5F6012285338544855585838994891C
:10349000A589B689281739074A075B0798F00E9463
:1034A000691C882309F473C0E0920604F0920704B3
:1034B00000930804109309048091AB068160809307
:1034C000AB0608C0C801B70141E00E94C81C8823B0
:1034D00009F45DC0940127553B4FA9014A0D5B1DBE
:1034E000D201F90102C08D918193E417F507D9F754
:1034F000E21BF30B4E0E5F1E2A183B08950140E0BD
:1035000050E0F60182859385A485B585820F931FCF
:10351000A41FB51F82879387A487B587D6011A9603
:103520002D913D914D915C911D972114310409F02D
:10353000DECE53968D919D910D90BC91A02D82175A
:103540009307A407B50748F4F601238B348B458B0A
:10355000568B84818068848311C08091A7049091E8
:10356000A804892B59F08D819E81892B39F0D601D1
:1035700014968C911497806814968C93F60184812C
:1035800083FF0EC0C6010E949B15882349F481E089
:1035900090E0D60113969C938E9312971E821D8203
:1035A0008D819E8126960FB6F894DEBF0FBECDBFEB
:1035B000CF91DF911F910F91FF90EF90DF90CF900F
:1035C000BF90AF909F908F907F905F904F903F9073
:1035D0002F90089582FD70CE83CEDF93CF930F920C
:1035E000CDB7DEB76983BE016F5F7F4F41E050E02A
:1035F0000E9436190F90CF91DF910895DF92EF92DC
:10360000FF920F931F93CF93DF93EC010E940F194A
:10361000882309F44EC0EB8DFC8DEE80FF80088579
:1036200019858EEF9FEFAFEFBFEFE80EF91E0A1F6F
:103630001B1F058404C0EE0CFF1C001F111F0A9401
:10364000D2F786859785A089B189E80EF91E0A1FF1
:103650001B1FD4800894E108F108010911090BC06F
:10366000C801B7016D0D711D811D911D0E94A41C23
:103670008823F9F0DA94DD2099F7EB8DFC8D20E0BA
:1036800032E040E050E0058404C0220F331F441FA5
:10369000551F0A94D2F78B899C89AD89BE89820F08
:1036A000931FA41FB51F8B8B9C8BAD8BBE8B81E0B2
:1036B00001C080E0DF91CF911F910F91FF90EF90BB
:1036C000DF9008956F927F928F929F92AF92BF92F8
:1036D000CF92DF92EF92FF920F931F93DF93CF93DE
:1036E000CDB7DEB72B970FB6F894DEBF0FBECDBFB8
:1036F0005C016B01822EDC0115968C91882309F008
:10370000D2C0CA018E010F5F1F4FB8010E949414EE
:10371000882309F4C8C0F601838D948DD5015C9689
:103720009C938E935B971682178210861186D60122
:103730001A961D921D921D921C921D979924380174
:1037400041C0C6010E94D117FC01009709F4ABC02B
:1037500085E016950795F794E7948A95D1F71E2D85
:103760001F708081882311F0853ED1F4992091F457
:10377000D50152961C93529720910604309107046C
:1037800040910804509109041E962D933D934D934A
:103790005C9351978081882399F49924939421C054
:1037A000C301BF014BE050E00E942704009751F491
:1037B000882D8073803309F476C0C501612F6FC0F6
:1037C00099249394F601E284F38404851585838912
:1037D0009489A589B689E816F9060A071B0708F433
:1037E000B0CF882D8271823109F05DC0992041F0FF
:1037F000C50161E00E947E158C01009789F453C0D9
:10380000D60115968C91823009F44DC0C6010E94F4
:10381000FE1A882309F447C0F501128A09EA14E068
:1038200080E2D8011D928A95E9F7D801FE01319610
:103830008BE001900D928150E1F7E091A704F091A7
:10384000A804309739F0B801625F7F4FC8014096F5
:10385000199509C081E298E2F801918B808B80E094
:1038600098E097878687D80150968D919C915197C3
:1038700053969C938E93529759969C938E935897F8
:103880001E968D919C911F9757969C938E93569759
:103890000E94691C882339F0C501F5016289482D11
:1038A0000E94A11801C080E02B960FB6F894DEBFED
:1038B0000FBECDBFCF91DF911F910F91FF90EF9081
:1038C000DF90CF90BF90AF909F908F907F906F9040
:1038D00008958091AB06882399F140910604509198
:1038E000070460910804709109048091A9069091E1
:1038F000AA0629EA34E00E94B412882319F1409103
:10390000AC065091AD066091AE067091AF064115C0
:1039100051056105710591F08091A9069091AA0663
:1039200029EA34E00E94B412882361F01092AC06B8
:103930001092AD061092AE061092AF061092AB0632
:1039400081E0089580E00895EF92FF920F931F9316
:103950007B018C010E94691C8823A9F0E9EAF4E04C
:10396000119286E0E93AF807D9F7E0920604F0925E
:10397000070400930804109309048091AB0681604A
:103980008093AB0681E01F910F91FF90EF90089517
:10399000DF92EF92FF920F931F937B018C01D42E45
:1039A0008091060490910704A0910804B091090445
:1039B0008E159F05A007B107C1F00E94691C8823DE
:1039C000D9F08091A9069091AA06B801A70129EA29
:1039D00034E00E94A313882379F0E0920604F09269
:1039E000070400930804109309048091AB068D2905
:1039F0008093AB0681E001C080E01F910F91FF90A2
:103A0000EF90DF9008958F929F92AF92BF92CF92E6
:103A1000DF92EF92FF920F931F93CF93DF936C018E
:103A2000142F7093AA066093A906442321F48824D6
:103A30009924540140C0453008F01CC160E070E09A
:103A400080E090E040E00E94C81C882309F412C185
:103A5000C12FD0E02197FE0174E0EE0FFF1F7A9591
:103A6000E1F7E755FB4FE254FE4F8081EE5BF140FA
:103A700090E08F779070892B09F0FCC0E653FE4FE1
:103A800080819181A281B38184369105A105B10520
:103A900008F4F0C064E0CC0FDD1F6A95E1F7C1596E
:103AA000D94F88809980AA80BB8081149104A10499
:103AB000B10409F4DFC0C501B40140E00E94C81C94
:103AC000882309F4D7C08091B4049091B504805044
:103AD000924009F0CFC02091B904222309F4CAC052
:103AE0008091B7049091B804892B09F4C3C08091E8
:103AF000B604882309F4BEC0F601228B8091B60477
:103B00008483158661E070E007C04F5FF60145874A
:103B10004150483008F0AEC0F6014585848190E000
:103B20009B01042E02C0220F331F0A94E2F7821772
:103B3000930759F72091BF043091C0042115310536
:103B400019F040E050E008C02091CD043091CE043F
:103B50004091CF045091D004F601258336834783EA
:103B60005087E090B704F090B80400E010E0E80C53
:103B7000F91C0A1D1B1DE38AF48A058B168B8091A4
:103B8000BA049091BB04918F808F6091B90470E06A
:103B900080E090E00E94C6516E0D7F1D801F911F36
:103BA000F601628F738F848F958F2091BA043091C4
:103BB000BB0455E0220F331F5A95E1F721503E4FC9
:103BC000232F3327269540E050E0260F371F481F4C
:103BD000591F26873787408B518B8091BC04909169
:103BE000BD04009719F0A0E0B0E008C08091C904BE
:103BF0009091CA04A091CB04B091CC0485017401CA
:103C0000E21AF30A040B150BA8019701280F391FBC
:103C10004A1F5B1FF601058404C0569547953795EA
:103C200027950A94D2F72187328743875487253F07
:103C3000FFE03F07F0E04F07F0E05F0710F48CE093
:103C400006C0255F3F4F4040504028F480E1F60118
:103C5000878B81E010C08091D5049091D604A0910B
:103C6000D704B091D804F601828F938FA48FB58FBB
:103C700080E2EECF80E0DF91CF911F910F91FF9016
:103C8000EF90DF90CF90BF90AF909F908F9008956E
:103C90004F925F926F927F928F929F92AF92BF925C
:103CA000CF92DF92EF92FF920F931F93CF93DF9308
:103CB000EC016A017B01280139014230510561059F
:103CC000710508F46FC089859A85AB85BC8501961E
:103CD000A11DB11D84179507A607B70708F462C098
:103CE0002B893C894D895E898F89803129F49927F8
:103CF0008F2D7E2D6D2D09C0C701B60117E0969559
:103D00008795779567951A95D1F74B015C01820EDF
:103D1000931EA41EB51E8091060490910704A091E5
:103D20000804B091090488169906AA06BB0639F062
:103D3000C501B40140E00E94C81C882399F18F8915
:103D4000803149F4F601F070EE0FFF1FE755FB4F8D
:103D5000518240820DC0F601EF77F070EE0FFF1F29
:103D6000EE0FFF1FE755FB4F408251826282738244
:103D70008091AB0681608093AB068A89823080F0A7
:103D80008D819E81AF81B885880E991EAA1EBB1EAB
:103D90008092AC069092AD06A092AE06B092AF06AD
:103DA00081E001C080E0DF91CF911F910F91FF90E2
:103DB000EF90DF90CF90BF90AF909F908F907F90CB
:103DC0006F905F904F900895CF92DF92EF92FF92A5
:103DD0000F931F93CF93DF93EC017A018B0169015D
:103DE00089859A85AB85BC850196A11DB11D841777
:103DF0009507A607B70708F450C02B893C894D8961
:103E00005E898F89803129F49927812F702F6F2D3A
:103E100009C0C801B701E7E0969587957795679542
:103E2000EA95D1F7260F371F481F591F80910604C6
:103E300090910704A0910804B0910904281739074C
:103E40004A075B0739F0CA01B90140E00E94C81C6B
:103E5000882319F18F89803159F4F701F070EE0F42
:103E6000FF1FE755FB4F80819181A0E0B0E00EC0BD
:103E7000F701EF77F070EE0FFF1FEE0FFF1FE75512
:103E8000FB4F80819181A281B381BF70F601808355
:103E90009183A283B38381E001C080E0DF91CF9161
:103EA0001F910F91FF90EF90DF90CF900895AF9208
:103EB000BF92CF92DF92EF92FF920F931F93DF9307
:103EC000CF9300D00F92CDB7DEB76C017A018B0192
:103ED00082E090E0A0E0B0E0F60180839183A283CD
:103EE000B3835E010894A11CB11CC601B801A701EF
:103EF00095010E94E41E882319F1C601B801A701AB
:103F000000E010E020E030E00E94481E8823C1F06D
:103F1000E980FA800B811C81F6018789803129F0C4
:103F200088EF9FEFAFEFBFE004C088EF9FEFA0E006
:103F3000B0E0E816F9060A071B07B8F281E001C0F5
:103F400080E00F900F900F900F90CF91DF911F9115
:103F50000F91FF90EF90DF90CF90BF90AF900895BA
:103F60004F925F926F927F928F929F92AF92BF9289
:103F7000CF92DF92EF92FF920F931F93DF93CF9335
:103F800000D00F92CDB7DEB76C0149835A836B83A3
:103F90007C833901EE24FF2487012E010894411C03
:103FA000511C812CA2E09A2EA12CB12C49815A815E
:103FB0006B817C81C60192010E94E41E882351F12D
:103FC000D501C401F601058404C0880F991FAA1FFA
:103FD000BB1F0A94D2F7E80EF91E0A1F1B1F298186
:103FE0003A814B815C818789803129F088EF9FEF8E
:103FF000AFEFBFE004C088EF9FEFA0E0B0E028176C
:1040000039074A075B0790F2F301E082F1820283ED
:10401000138381E00F900F900F900F90CF91DF915D
:104020001F910F91FF90EF90DF90CF90BF90AF90D6
:104030009F908F907F906F905F904F9008952F92F8
:104040003F924F925F926F927F928F929F92AF9228
:10405000BF92CF92DF92EF92FF920F931F93DF9365
:10406000CF93CDB7DEB72F970FB6F894DEBF0FBE54
:10407000CDBF1C014A875B876C877D873F872E8772
:10408000D9010D911D912D913C910115110521052D
:10409000310549F0480159010894811C911CA11C6B
:1040A000B11C198610C0FC0180809180A280B38071
:1040B00019868A859B85AC85BD850197A105B105CB
:1040C00011F491E09987D10119968D919D910D90F0
:1040D000BC91A02D0196A11DB11D8D839E83AF8340
:1040E000B887750164014424552432018E010F5FA5
:1040F0001F4FF10181859285A385B4854816590625
:104100006A067B0608F090C08D819E81AF81B885DC
:104110008C159D05AE05BF0550F482E0882E912CCC
:10412000A12CB12CB2E0CB2ED12CE12CF12CC10171
:10413000B701A60198010E94E41E882309F474C007
:1041400089819A81AB81BC81A70196012F5F3F4F86
:104150004F4F5F4F0097A105B10519F049015A0172
:104160000DC0281939094A095B098A859B85AC85E8
:10417000BD85281739074A075B0759F00894411C89
:10418000511C611C711C0894C11CD11CE11CF11C48
:10419000B0CFC101A601B7010FEF1FEF2FEF3FE036
:1041A0000E94481E882399F43FC0260137010894D5
:1041B0004108510861087108C101B301A2019701CA
:1041C00086010E94481E882379F1730162018C14D4
:1041D0009D04AE04BF0448F3AE85BF854D915D914B
:1041E0006D917C91411551056105710539F0C10151
:1041F000950184010E94481E8823B1F0EE85FF8559
:1042000080829182A282B382F985FF2359F00894BB
:10421000811C911CA11CB11CD1018D929D92AD926B
:10422000BC92139781E001C080E02F960FB6F894FE
:10423000DEBF0FBECDBFCF91DF911F910F91FF90D9
:10424000EF90DF90CF90BF90AF909F908F907F9036
:104250006F905F904F903F902F900895FC011382D4
:10426000128288EE93E0A0E0B0E084839583A68379
:10427000B78389E294E091838083128E118E148635
:1042800008959C01245F3F4FC9010895DF93CF93A8
:104290000F92CDB7DEB7FC016983A081B181129680
:1042A0002D913C911397BE016F5F7F4F41E050E02D
:1042B000F90119950F90CF91DF910895DC0159967E
:1042C000ED91FC915A97309719F420E030E018C036
:1042D000238934894589568982859385A485B58546
:1042E000281B390B4A0B5B0B2030B0E83B07B0E0D2
:1042F0004B07B0E05B0720F02FEF3FE740E050E0D6
:10430000C9010895DC015996ED91FC915A973097B7
:1043100011F480E008958581811181E00895CF93A3
:10432000DF93EC01898D9A8D009741F00E94E5158D
:10433000898D9A8D0E94443E1A8E198EDF91CF91FD
:104340000895FC01818D928D009711F00E949B15BC
:104350000895DF93CF930F92CDB7DEB7FC01818D27
:10436000928D009749F0BE016F5F7F4F41E050E0B2
:104370000E94BC16019719F02FEF3FEF03C089810F
:10438000282F30E0C9010F90CF91DF910895EF926F
:10439000FF920F931F93DF93CF930F92CDB7DEB7AA
:1043A0007C01DC0159968D919C915A97009719F4E4
:1043B00000E010E01FC0BE016F5F7F4F41E050E0A2
:1043C0000E94BC16019719F00FEF1FEF13C08981EF
:1043D000082F10E0D7015996ED91FC915A9742852C
:1043E0005385648575854150504060407040CF01D1
:1043F0000E94D514C8010F90CF91DF911F910F91AA
:10440000FF90EF900895CF93DF93EC01E98DFA8D43
:10441000309761F013821282CF010E9436199C01FD
:10442000E98DFA8D82819381892B31F081E090E0D2
:104430009B838A8320E030E0C901DF91CF9108950A
:10444000EF92FF920F931F93CF93DF93EC01F62E21
:10445000E72E8A011B821A8288EE93E0A0E0B0E08A
:104460008C839D83AE83BF8389E294E099838883A4
:104470008DE190E00E94A73D9A8F898F009791F07F
:10448000DC018F2D9E2D9C01F9018DE101900D9293
:104490008150E1F7CE010C96B8014CE050E00E944B
:1044A0005804188EDF91CF911F910F91FF90EF90DC
:1044B00008951092B5061092B6061092B9061092A1
:1044C000BB0682E090E0A0E0B0E08093BC06909351
:1044D000BD06A093BE06B093BF061092D3061092FD
:1044E000DD061092DC0681E294E09093DB06809377
:1044F000DA061092DF0608959F92AF92BF92CF9294
:10450000DF92EF92FF920F931F93DF93CF93CDB77C
:10451000DEB7C756D0400FB6F894DEBF0FBECDBF92
:10452000B82EA92E7B01942E8E01085B1F4F74C0FC
:10453000F8018081882309F478C0853E09F46CC0B5
:104540008E3209F469C0F801838583FD65C0198A3C
:10455000188A81E2C82E84E0D82EDF86CE861B8A98
:10456000C8018E010F5F1F4FB8010E947314F7013D
:10457000618D728DCE010E96A801292D0E94621BBD
:10458000882309F452C0888999899EA78DA7DCA643
:10459000CBA68A898FA78B8988AB8C899D89AE89A8
:1045A000BF8989AB9AABABABBCAB888D998DAA8D1B
:1045B000BB8D8DAB9EABAFABB8AF8C8D9D8DAE8DF3
:1045C000BF8D89AF9AAFABAFBCAF88A18DAF89A1CA
:1045D0009AA1ABA1BCA1FE01FE9680839183A28328
:1045E000B3838DA19EA1AFA1B8A5FE01EE5BFF4FE5
:1045F00080839183A283B38389A59AA5FE01EA5B98
:10460000FF4F918380838B2D9A2DBE01655D7F4F77
:10461000A8010E9420220DC0F701818D928DB80162
:104620000E941B1818160CF483CF8B2D9A2D0E9414
:104630002E218B2D9A2DC959DF4F0FB6F894DEBF6E
:104640000FBECDBFCF91DF911F910F91FF90EF90E3
:10465000DF90CF90BF90AF909F9008952F923F92A0
:104660004F925F926F927F928F929F92AF92BF9282
:10467000CF92DF92EF92FF920F931F93DF93CF932E
:10468000CDB7DEB7C754D0400FB6F894DEBF0FBE2B
:10469000CDBF582E492EFB013A01190184A595A5DD
:1046A000998B888B21E234E03F872E8786A58A8B01
:1046B00087A58B8B80A991A9A2A9B3A98C8B9D8B6F
:1046C000AE8BBF8B84A995A9A6A9B7A9888F998F0E
:1046D000AA8FBB8F80AD91ADA2ADB3AD8C8F9D8FF6
:1046E000AE8FBF8F84AD88A3FD9681919191A191EA
:1046F000B19189A39AA3ABA3BCA381919191A191FC
:10470000B1918DA39EA3AFA3B8A7808191819AA7F1
:1047100089A71EA61DA63CA72BA718AA7A018E0161
:10472000025F1F4F3BE2A32EB12CAC0EBD1E4E010B
:104730000894811C911C35C0D7018C918F3221F4D3
:104740000894E11CF11C2DC0422F4E194D3008F089
:104750004CE0C42EDD24C401B701A6010E94580418
:10476000F401EC0DFD1D1082C5010E94E515C50187
:10477000B801A40121E00E94621B882351F4E52DB9
:10478000F42D1382128281E294E09183808315825A
:1047900066C0EC0CFD1CC8010E94E515C50158015E
:1047A0008C01C7016FE270E00E943D049C010097FC
:1047B00019F6E618F708F101F182E082E52DF42DF3
:1047C000D80112968D919C9113979383828381E2F5
:1047D00094E09183808314968C911497848315962A
:1047E0008C911597858316962D913D914D915C91F5
:1047F000199726833783408751871A962D913D91CB
:104800004D915C911D9722873387448755871E966B
:104810002D913D914D915C91519726873787408B23
:10482000518B52968C915297828B53962D913D913C
:104830004D915C915697238B348B458B568B5796B5
:104840002D913D914D915C915A97278B308F418FDF
:10485000528F5B968D919C915C97948F838F852D61
:10486000942DC95BDF4F0FB6F894DEBF0FBECDBFEE
:10487000CF91DF911F910F91FF90EF90DF90CF903C
:10488000BF90AF909F908F907F906F905F904F9070
:104890003F902F9008959F92AF92BF92CF92DF9258
:1048A000EF92FF920F931F93DF93CF93CDB7DEB7B5
:1048B000C657D0400FB6F894DEBF0FBECDBFC82E8E
:1048C000992E8A01D22E43E0A42EB12CAC0EBD1E2F
:1048D000C501A8019E012F5F3F4F0E942E23E98052
:1048E000FA80E00EF11EF701808141E254E0288554
:1048F000882309F03FC08D819E819BA38AA359A381
:1049000048A38F818CA32DA389859A85AB85BC850F
:104910008EA39FA3A8A7B9A78D859E85AF85B889CB
:104920008AA79BA7ACA7BDA789899A89AB89BC89AF
:104930008EA79FA7A8ABB9AB8D898AAB8E899F89BB
:10494000A88DB98D8BAB9CABADABBEAB8A8D9B8D6F
:10495000AC8DBD8D8FAB98AFA9AFBAAF8E8D9F8D4B
:104960009CAF8BAF8C2D992DBE01605E7F4F48E1CF
:1049700052E09FC0FE01FF96118210825EAF4DAFE4
:10498000FE01EE5BFF4F10822223A9F02250CE01E0
:10499000CD96223048F46AED76E0A7012D2D0E94D5
:1049A000621B882381F407C0B501A7012D2D0E9449
:1049B000621B882329F48C2D992D0E942E217BC007
:1049C000C5010E94E515F6E0DF2259F0FE01E05B2B
:1049D000FF4F4081518162817381CE01CD960E944B
:1049E000D5149E01265A3F4FFE01FF96808191818A
:1049F000F9019383828381E294E091838083FE01B5
:104A0000EF5BFF4F8081F9018483FE01EE5BFF4F76
:104A10008081F9018583FE01ED5BFF4F80819181EB
:104A2000A281B381F90186839783A087B187FE01B4
:104A3000E95BFF4F80819181A281B381F901828777
:104A40009387A487B587FE01E55BFF4F8081918145
:104A5000A281B381F90186879787A08BB18BFE0174
:104A6000E15BFF4F8081F901828BFE01E05BFF4F2C
:104A700080819181A281B381F901838B948BA58B75
:104A8000B68BFE01EC5AFF4F80819181A281B381E8
:104A9000F901878B908FA18FB28FFE01E85AFF4FEB
:104AA00080819181F901948F838F8C2D992DB9018B
:104AB000A7010E9420228C2D992DCA58DF4F0FB6D6
:104AC000F894DEBF0FBECDBFCF91DF911F910F9144
:104AD000FF90EF90DF90CF90BF90AF909F900895A0
:104AE0000F931F93CF93DF93EC01462F61E00E9459
:104AF000B3138823D1F08E01045F1F4FC801BE019C
:104B000041E00E94031D882339F4C801BE0140E042
:104B10000E94031D882349F0CE018A96B8010E94A5
:104B20005018882319F081E001C080E0DF91CF9117
:104B30001F910F910895F999FECF72BD61BDF89A4A
:104B400080B50895F999FECF1FBA72BD61BD40BD11
:104B50000FB6F894FA9AF99A0FBE08950F931F931F
:104B60008C01822FF80171836083538342832483F5
:104B7000358360E00E94204EF801808161E00E9450
:104B8000204E84E090E00E94854B1F910F91089584
:104B9000FC01808160E00E94204E84E090E00E9451
:104BA000854B08951F93FC01862F122F608341834C
:104BB000228361E00E946D4D812F61E00E946D4D66
:104BC0001F910895FF920F931F93CF93DF938C0152
:104BD000FC01818160E00E946D4DFF24C0E0D0E0C7
:104BE000F80181810E94534E90E00C2E02C0880F84
:104BF000991F0A94E2F7F82AF801828161E00E9485
:104C0000204EF801828160E00E94204E2196C8303B
:104C1000D10531F78F2DDF91CF911F910F91FF902B
:104C20000895FF920F931F938C01F62EFC01818152
:104C300061E00E946D4DF8018181628140E02F2D7D
:104C40000E94834E1F910F91FF900895CF92DF92A3
:104C5000EF92FF920F931F93DF93CF9300D000D07A
:104C6000CDB7DEB78C017B016E010894C11CD11C4D
:104C7000FB01608141812281C60170E050E030E09B
:104C80000E94AE2583E398E0F8019087878381E056
:104C90008483838312821182108281E090E0968364
:104CA0008583C7016FEB0E941126C7010E94E22590
:104CB000282F2F7722952F7030E0A901E3E0440FD1
:104CC000551FEA95E1F7220F331F420F531F8F70D4
:104CD000840FF8018083C7010E94E225282F2295C6
:104CE0002F7030E0A90163E0440F551F6A95E1F78A
:104CF000220F331F420F531F8F70840FF8018183DF
:104D0000C7010E94E225482F282F30E087FF10C0FE
:104D100020723070B5E035952795BA95E1F7C90155
:104D2000880F991F820F931F282F220F220F11C067
:104D3000C90180739070F4E095958795FA95E1F735
:104D40009C01E3E0220F331FEA95E1F7880F991FDA
:104D5000280F4F70240FF8012283C7010E94E2251B
:104D6000282F22952F7030E0A90163E0440F551FD2
:104D70006A95E1F7220F331F420F531F8F70840F84
:104D8000F8018383C7010E94E225282F22952F7006
:104D900030E0A901B3E0440F551FBA95E1F7220FA7
:104DA000331F420F531F8F70840FF8018483C70194
:104DB0000E94E225282F22952F7030E0A901F3E010
:104DC000440F551FFA95E1F7220F331F420F531F6F
:104DD0008F70840FF80185831682C7010E94E22537
:104DE000282F22952F7030E0A90173E0440F551F42
:104DF0007A95E1F7220F331F420F531F8F70840FF4
:104E000090E08053984FF80190878783C6010E94F5
:104E1000C825C80126960FB6F894DEBF0FBECDBFD9
:104E2000CF91DF911F910F91FF90EF90DF90CF9086
:104E30000895DC0159968C915997882329F06EBD0D
:104E40000DB407FEFDCF089530E840E050E070E07B
:104E5000832F90E0862397235A96ED91FC915B97E0
:104E60009A962C919A97892B21F08081822B8083AE
:104E700004C080812095282320835C96ED91FC91CD
:104E80005D9780819B969C919B97892B80835C96F4
:104E9000ED91FC915D9790819B968C919B9780956D
:104EA0008923808336954F5F5F4F4830510581F6E7
:104EB00008950F931F938C01DC015E96ED91FC9198
:104EC0005F9790819D968C919D9780958923808393
:104ED0005C96ED91FC915D9790819B968C919B9750
:104EE0008095892380839296ED91FC919397908190
:104EF0009C968C91809589238083C8010E941927F4
:104F0000D8019296ED91FC91939780819C969C910B
:104F1000892B80831F910F9108950F931F938C010C
:104F2000DC015E96ED91FC915F9780819D969C914E
:104F30009D97892B80835C96ED91FC915D97908184
:104F40009B968C919B978095892380839296ED9177
:104F5000FC91939790819C968C9180958923808376
:104F6000C8010E941927D8019296ED91FC91939760
:104F700080819C969C91892B80831F910F9108952D
:104F80008F929F92AF92BF92CF92DF92EF92FF9259
:104F90000F931F937C01B62ED72E4A01A22EC32E4B
:104FA0006AE20E945927C7016D2D0E948D27C70113
:104FB0006B2D0E948D27C7016C2D0E948D27C70184
:104FC0006A2D0E948D27C7016BE20E945927C701F5
:104FD000692D0E948D27C701682D0E948D27C7016A
:104FE000612F0E948D27C701602F0E948D27C70166
:104FF0006CE20E9459271F910F91FF90EF90DF9074
:10500000CF90BF90AF909F908F900895EF92FF92B6
:105010000F931F93CF93DF93EC01FB018A0179017A
:1050200077FD2EC088859985681779074CF557FD5F
:1050300027C08A859B854817590714F5CE013196FC
:105040009F010F5F1F4F0E94C027EE8DFF8D808153
:105050009DA5892B8083EAA1FBA190818CA58095D9
:1050600089238083CE016F2D0E941927CE016E2DDA
:105070000E941927EAA1FBA180819CA5892B80832E
:10508000DF91CF911F910F91FF90EF900895CF92F4
:10509000DF92EF92FF920F931F93CF93DF93EC0178
:1050A000FB01790168018885998568177907E4F51E
:1050B0002A853B8542175307BCF5C701840F951F0E
:1050C000281739071CF47901E41AF50A8A010150FE
:1050D00010400E0D1F1DCE01BF019F010E94C02771
:1050E000EE8DFF8D80819DA5892B8083EAA1FBA198
:1050F00090818CA580958923808308C0CE016D2D79
:105100000E941927CE016C2D0E9419270894E108EE
:10511000F1088FEFE8168FEFF80681F7EAA1FBA1FF
:1051200080819CA5892B8083DF91CF911F910F9166
:10513000FF90EF90DF90CF900895CF92DF92EF92A3
:10514000FF920F931F93CF93DF93EC01FA01790144
:1051500068012885398562177307E4F58A859B8580
:1051600048175907BCF5C701860F971F281739073D
:105170001CF47901E61AF70A9B01215030402E0DEC
:105180003F1DCE01AF018F010E94C027EE8DFF8D24
:1051900080819DA5892B8083EAA1FBA190818CA5AC
:1051A00080958923808308C0CE016D2D0E94192728
:1051B000CE016C2D0E9419270894E108F1088FEFA9
:1051C000E8168FEFF80681F7EAA1FBA180819CA584
:1051D000892B8083DF91CF911F910F91FF90EF90EA
:1051E000DF90CF900895EF92FF920F931F93FC01F1
:1051F0007B01A081B18120853185028513851E96B2
:105200000D90BC91A02D60E070E040E050E0FD0109
:1052100019951F910F91FF90EF900895AF92BF9253
:10522000CF92DF92EF92FF920F931F93CF93DF9372
:105230006C015901E801DC0118962D913C911997F8
:10524000621773070CF05BC01A96ED91FC911B97E7
:105250004E175F070CF053C0C501860F971F281724
:1052600039071CF45901A61AB70ACE01840F951FFD
:10527000E817F9071CF4EF01C41BD50B9B01215063
:1052800030402A0D3B1D8A01015010400C0F1D1F9C
:10529000C6010E94C027D6015E96ED91FC915F97F2
:1052A00080819D969C919D97892B80839296ED910C
:1052B000FC91939790819C968C9180958923808313
:1052C0008E010EC0C6016F2D0E941927C6016E2DDA
:1052D0000E94192721971C161D06A4F301501040A7
:1052E0001016110614F4E501F6CFD6019296ED9151
:1052F000FC91939780819C969C91892B8083DF9170
:10530000CF911F910F91FF90EF90DF90CF90BF90C2
:10531000AF9008951F93CF93DF93EC01162F66E3B0
:105320000E94592713701D8B113051F0113028F055
:10533000123049F01330F1F411C0CE0168E405C019
:10534000CE0168E20DC0CE0168E80E948D2780EF93
:1053500090E09987888780E491E00AC0CE0168EEEA
:105360000E948D2780E491E09987888780EF90E004
:105370009B878A87DF91CF911F910895662311F44F
:1053800060E201C061E20E9459270895CF93DF9344
:10539000EC018EA161E00E946D4D8EA160E00E9443
:1053A000204E8DA161E00E946D4D8CA161E00E94B4
:1053B0006D4DECA14E2F50E0FA01EE5BF94FE491F8
:1053C000F0E0EE0FFF1FE25FF94F859194919BA3F0
:1053D0008AA3EDA12E2F30E0F901EE5BF94FE491A5
:1053E000F0E0EE0FFF1FE25FF94F859194919F8FE0
:1053F0008E8F4857594FFA0184918CA72857394FFF
:10540000F90184918DA7898D882361F00E94641130
:1054100084E00E94531181E00E94451180E00E94C7
:105420004E1141C089A561E00E946D4D8FA161E0E0
:105430000E946D4D88A560E00E946D4DE9A54E2F3C
:1054400050E0FA01EE5BF94FE491F0E0EE0FFF1F40
:10545000E25FF94FA591B491BD8FAC8FEFA12E2FD4
:1054600030E0F901EE5BF94FE491F0E0EE0FFF1F41
:10547000E25FF94F859194919B8F8A8F4857594FDE
:10548000FA0194919BA72857394FF90184918AA773
:105490008C91909598239C93EA8DFB8D90818AA5A1
:1054A0008095892380838EA161E00E94204E65E073
:1054B00070E080E090E00E94F14B8EA160E00E94DD
:1054C000204E64E170E080E090E00E94F14B8EA1FC
:1054D00061E00E94204E66E970E080E090E00E946A
:1054E000F14BCE016FEE0E945927CE0163E00E947E
:1054F0008D27CE0160E80E948D27CE0162E00E94D8
:105500008D27CE016FEC0E945927CE0160E00E94EA
:105510008D27CE0161EC0E948D27CE0160E30E94B1
:105520008D27CE016DEE0E945927CE0164E60E94C0
:105530008D27CE0163E00E948D27CE0162E10E949B
:105540008D27CE0161E80E948D27CE0168EE0E9472
:105550005927CE0165E80E948D27CE0160E00E94A8
:105560008D27CE0168E70E948D27CE016BEC0E944B
:105570005927CE0169E30E948D27CE016CE20E947B
:105580008D27CE0160E00E948D27CE0164E30E944A
:105590008D27CE0162E00E948D27CE0167EF0E9429
:1055A0005927CE0160E20E948D27CE016AEE0E944B
:1055B0005927CE0160E00E948D27CE0160E00E9455
:1055C0008D27CE0160EC0E945927CE0163E20E9434
:1055D0008D27CE0161EC0E945927CE0160E10E9427
:1055E0008D27CE0165EC0E945927CE016EE30E9403
:1055F0008D27CE0168E20E948D27CE0167EC0E94C4
:105600005927CE0166E80E948D27CE0166E30E94ED
:105610005927CE0168E40E948D27CE016AE30E94DB
:105620005927CE0165E50E948D27CE0161EB0E94CE
:105630005927CE0160E00E948D27CE0168E10E94CB
:105640008D27CE0166EB0E945927CE0168E00E94AB
:105650008D27CE0162E80E948D27CE0167E20E946D
:105660008D27CE0162EF0E945927CE0160E00E9493
:105670008D27CE0166E20E945927CE0161E00E948B
:105680008D27CE0160EE0E945927CE016FE00E9467
:105690008D27CE0161E30E948D27CE016BE20E942F
:1056A0008D27CE016CE00E948D27CE016EE00E9416
:1056B0008D27CE0168E00E948D27CE016EE40E9406
:1056C0008D27CE0161EF0E948D27CE0167E30E94F6
:1056D0008D27CE0167E00E948D27CE0160E10E94F8
:1056E0008D27CE0163E00E948D27CE016EE00E94DF
:1056F0008D27CE0169E00E948D27CE0160E00E94D7
:105700008D27CE0161EE0E945927CE0160E00E94F4
:105710008D27CE016EE00E948D27CE0164E10E94AC
:105720008D27CE0163E00E948D27CE0161E10E94AA
:105730008D27CE0167E00E948D27CE0161E30E9494
:105740008D27CE0161EC0E948D27CE0168E40E9476
:105750008D27CE0168E00E948D27CE016FE00E9468
:105760008D27CE016CE00E948D27CE0161E30E945F
:105770008D27CE0166E30E948D27CE016FE00E9447
:105780008D27CE0161E10E94592768E770E080E033
:1057900090E00E94F14BCE0169E20E945927DF910F
:1057A000CF910895DF92EF92FF920F931F938C0198
:1057B000F62EE42ED22E60EF70E040E451E00E941D
:1057C000F32B89E394E0F80191838083F4A2E5A2AE
:1057D000D6A281E0818F11A617A21F910F91FF9091
:1057E000EF90DF900895FC011382128281E594E02E
:1057F0009183808375836483578346837187608731
:1058000053874287158A158614861786168621E0E7
:10581000248B8FEF9FEF938B828B918B808B268BCA
:10582000178A08952F923F924F925F926F927F92C4
:105830008F929F92AF92BF92CF92DF92EF92FF92A0
:105840000F931F93DF93CF9300D00F92CDB7DEB7A6
:105850003C017C836B836A015901FA82E98222242C
:1058600033249801241B350B37FF03C03095219555
:105870003F4FC5014B815C81841B950B97FF03C093
:10588000909581959F4F821793075CF481E0282EB5
:10589000312CC601CB80DC809C838B83C8018501C1
:1058A0005C018B819C81A816B90644F4C501AB80CC
:1058B000BC809C838B83C80186016C012501AB8170
:1058C000BC814A1A5B0A7801EC18FD08F7FE04C097
:1058D000F094E194F108F394C016D10624F08824E2
:1058E0008A94982C03C0B1E08B2E912CC20162E007
:1058F00070E00E94F9518B0125C0D301ED91FC911C
:105900002114310441F00480F581E02DC301B6017A
:105910004B815C8107C00480F581E02DC3016B8160
:105920007C81A60129813A8119950E191F0917FF5B
:1059300004C0C80CD91C040D151DEB81FC813196E7
:10594000FC83EB834B815C81A416B506B4F60F9003
:105950000F900F900F90CF91DF911F910F91FF90BB
:10596000EF90DF90CF90BF90AF909F908F907F90FF
:105970006F905F904F903F902F9008954F925F925D
:105980006F927F928F929F92AF92BF92CF92DF924F
:10599000EF92FF920F931F936C015B014A01390153
:1059A0002801DC01ED91FC910284F385E02D870153
:1059B0001995D601ED91FC91A40141505040440D40
:1059C000551D0284F385E02DC601B501930119959B
:1059D000D601ED91FC910084F185E02DC601B50161
:1059E000A40192011995D601ED91FC910894A108AA
:1059F000B108A60CB71C0084F185E02DC601B501E5
:105A0000A401920119951F910F91FF90EF90DF90E3
:105A1000CF90BF90AF909F908F907F906F905F904E
:105A20004F900895CF92DF92EF92FF920F931F93C2
:105A3000DC016B017801ED91FC918A01015010406D
:105A4000020F131F0680F781E02D960119951F9113
:105A50000F91FF90EF90DF90CF900895CF92DF925B
:105A6000EF92FF920F931F93DC016A01C901780145
:105A7000ED91FC9111979B0121503040280F391F67
:105A80000680F781E02DCD01860119951F910F91B8
:105A9000FF90EF90DF90CF9008956F927F928F925A
:105AA0009F92AF92BF92CF92DF92EF92FF920F93AD
:105AB0001F93CF93DF935C013A0169014801EB0129
:105AC000C60ED71E0DC0D501ED91FC910084F18565
:105AD000E02DC501BE01A30194018701199521960E
