:1000000096C300000C9401450C9432450C94634552
:100010000C9494450C94C5450C94F6450C942746D5
:100020000C945846B1C30000AFC30000ADC300003C
:10003000ABC30000A9C30000A7C30000A5C3000014
:10004000A3C30000A1C300009FC300009DC3000024
:100050009BC3000099C3000097C300000C94DC49C7
:1000600093C300000C94C13D0C94E93E8DC3000085
:100070008BC3000089C3000087C3000085C3000054
:1000800083C3000081C300007FC300007DC3000064
:100090000C94FD3D0C941D3F77C3000075C3000018
:1000A00073C3000071C300006FC300006DC3000084
:1000B0006BC3000069C3000067C3000065C3000094
:1000C00063C3000061C300005FC300000C94393EAD
:1000D0000C94513F59C300000C94753E0C94853F1D
:1000E00053C300007C3C3E5E2B3D3F2F5B5D3B2CB1
:1000F0002A225C0000000000003E5B4F5B3E3E6B2E
:100100004F6B3E1C3E7C3E1C183C7E3C181C577DB1
:10011000571C1C5E7F5E1C00183C1800FFE7C3E7FD
:10012000FF0018241800FFE7DBE7FF30483A060E0F
:100130002629792926407F050507407F05253F5A56
:100140003CE73C5A7F3E1C1C08081C1C3E7F1422C6
:100150007F22145F5F005F5F06097F017F00668971
:10016000956A606060606094A2FFA29408047E04B7
:100170000810207E201008082A1C08081C2A0808DD
:100180001E101010100C1E0C1E0C30383E3830069D
:100190000E3E0E06000000000000005F0000000799
:1001A000000700147F147F14242A7F2A12231308C7
:1001B000646236495620500008070300001C2241A3
:1001C000000041221C002A1C7F1C2A08083E080847
:1001D00000807030000808080808000060600020F7
:1001E000100804023E5149453E00427F40007249DA
:1001F0004949462141494D331814127F102745457E
:1002000045393C4A49493141211109073649494993
:1002100036464949291E0000140000004034000001
:10022000000814224114141414140041221408026A
:10023000015909063E415D594E7C1211127C7F49DD
:100240004949363E414141227F4141413E7F494932
:1002500049417F090909013E414151737F0808085E
:100260007F00417F41002040413F017F081422412F
:100270007F404040407F021C027F7F0408107F3E89
:100280004141413E7F090909063E4151215E7F09F6
:10029000192946264949493203017F01033F40405D
:1002A000403F1F2040201F3F4038403F6314081448
:1002B0006303047804036159494D43007F41414180
:1002C0000204081020004141417F04020102044061
:1002D00040404040000307080020545478407F28E5
:1002E0004444383844444428384444287F385454DB
:1002F000541800087E090218A4A49C787F080404FE
:100300007800447D40002040403D007F102844009C
:1003100000417F40007C047804787C08040478382D
:1003200044444438FC1824241818242418FC7C085D
:10033000040408485454542404043F44243C4040DA
:10034000207C1C2040201C3C4030403C442810288D
:10035000444C9090907C4464544C440008364100D6
:100360000000770000004136080002010204023C50
:100370002623263C1EA1A161123A4040207A38541F
:100380005455592155557941225454784221555498
:10039000784020545579400C1E52721239555555EB
:1003A00059395454545939555454580000457C41D6
:1003B0000002457D420001457C407D1211127DF016
:1003C000282528F07C545545002054547C547C0A40
:1003D000097F4932494949323A4444443A324A4809
:1003E00048303A4141217A3A42402078009DA0A00D
:1003F0007D3D4242423D3D4040403D3C24FF24245F
:10040000487E4943662B2FFC2F2BFF0929F620C07D
:10041000887E090320545479410000447D413048CE
:10042000484A32384040227A007A0A0A727D0D1911
:10043000317D2629292F28262929292630484D4073
:1004400020380808080808080808382F10C8ACBA6F
:100450002F102834FA00007B000008142A142222EE
:10046000142A14085500550055AA55AA55AAFF5537
:10047000FF55FF000000FF00101010FF00141414BF
:10048000FF001010FF00FF1010F010F0141414FC07
:10049000001414F700FF0000FF00FF1414F404FC24
:1004A000141417101F10101F101F1414141F001005
:1004B0001010F0000000001F101010101F1010107E
:1004C00010F010000000FF1010101010101010108D
:1004D000FF10000000FF140000FF00FF00001F10CD
:1004E000170000FC04F414141710171414F404F487
:1004F0000000FF00F714141414141414F700F71478
:100500001414171410101F101F141414F4141010C6
:10051000F010F000001F101F0000001F140000006A
:10052000FC140000F010F01010FF10FF141414FF62
:10053000141010101F00000000F010FFFFFFFFFF5D
:10054000F0F0F0F0F0FFFFFF0000000000FFFF0FF1
:100550000F0F0F0F3844443844FC4A4A4A347E0295
:10056000020606027E027E02635549416338444416
:100570003C04407E201E2006027E020299A5E7A5CB
:10058000991C2A492A1C4C7201724C304A4D4D303C
:100590003048784830BC625A463D3E494949007E61
:1005A0000101017E2A2A2A2A2A44445F44444051F8
:1005B0004A444040444A51400000FF0103E080FFAC
:1005C000000008086B6B083612362436060F090F38
:1005D00006000018180000001010003040FF010154
:1005E000001F01011E00191D1712003C3C3C3C007D
:1005F0000000000000002100240027002A002D0038
:100600003000330001010000040107010A0100006D
:100610002200250028002B002E00310034000201AA
:100620000000050108010B01000020002300260046
:1006300029002C002F0032000001000003010601F8
:100640000901050505050705080808080202020258
:100650000A0A08080404040401010101010101015E
:100660000303030303030303040707070C0C0C0C29
:100670000C0C0C0C02020202060606060606060612
:100680000B0B0B0B0B0B0B0B01021020200808109F
:1006900020401020408002010201080402010102F2
:1006A00004081020408080402010080402018004CB
:1006B0000201804020100804020108040201010226
:1006C000040810204080010204081020408000002F
:1006D000090A02080B0C0D070603040100000000C4
:1006E000000000000000000000000000000000000A
:1006F0000000000000000000000011100F000000CA
:1007000000000000000000000000000000000000E9
:1007100000000000FA047108940DF5215E2EF62FFA
:100720005D37C640F5046C08592EF12F5837112457
:100730001FBECFEFD1E2DEBFCDBF00E00CBF14E0A3
:10074000A0E0B2E0EEE7F2EA00E00BBF02C00790E3
:100750000D92A039B107D9F71BBE1AE0A0E9B4E0A9
:1007600001C01D92A132B107E1F717E0C4E2D7E062
:1007700004C02297FE010E94F050C431D107C9F78E
:100780000E94CA490C9433513BCCA0E0B0E0EBECA2
:10079000F3E00C940451EC01A880B980CA80DB809E
:1007A000A114B104C104D10441F484E2A82E89ED5E
:1007B000B82E8BE5C82E87E0D82EC601B5012DE1F5
:1007C00033EF41E050E00E94D35027EA31E440E0AB
:1007D00050E00E946B507B018C01C601B5012DE1F8
:1007E00033EF41E050E00E94D350CA01B9012CEE32
:1007F00034EF4FEF5FEF0E946B506E0D7F1D801F37
:10080000911F97FF04C061507040804090486883FA
:1008100079838A839B839B01AC015F77B901CA010D
:10082000CDB7DEB7EAE00C942051AFCF81E194E080
:10083000ACCF6093110470931204809313049093CF
:1008400014040895FB01DC0104C08D91019080190E
:1008500021F441505040C8F7881B990B0895FB01C3
:10086000DC0102C001900D9241505040D8F708952C
:10087000FC018191861721F08823D9F799270895E3
:100880003197CF010895FB01DC018D910190801912
:100890000110D9F3990B0895FB01DC0101900D9231
:1008A0000020E1F70895FB01DC014150504048F081
:1008B00001900D920020C9F701C01D924150504097
:1008C000E0F70895FB019F01E8944230C4F04532FF
:1008D000B4F44A3029F497FB1EF4909581959F4F0C
:1008E000642F77270E948A50805D8A330CF0895DDF
:1008F0008193CB010097A1F716F45DE2519310822A
:10090000C90148C0FA01CF93FF93EF93223044F11D
:10091000253234F5C22FE894CA3049F497FB3EF4EF
:1009200090958095709561957F4F8F4F9F4F2C2F9D
:10093000332744275527FF93EF930E94B150EF913F
:10094000FF91605D6A330CF0695D6193B901CA0182
:10095000605070408040904051F716F4CDE2C19352
:1009600010828F919F91CF9115C0FB019F01423062
:1009700074F0453264F4642F77270E948A50805DBA
:100980008A330CF0895D8193CB010097A1F7108227
:10099000C90100C0DC01FC01672F71917723E1F7E9
:1009A000329704C07C916D9370836291AE17BF073C
:1009B000C8F308958130910579F46F5F7F4FA1F4FA
:1009C00086E994E00E94102E87E994E00E94BC2FF3
:1009D00080EA94E00C943D37892B31F46F5F7F4FB0
:1009E00019F48CE994E05AC3089580E090E06FEF29
:1009F0007FEFE0CF81E090E06FEF7FEFDBCF809182
:100A00009404909195048230910569F083309105AA
:100A100081F00197A1F487E994E062E974E043E989
:100A200054E00C947F3487E994E062E974E00C941C
:100A3000F23387E994E060E974E00C94F9300895AA
:100A40008CE797E040E855E260E070E00E94B93F33
:100A500087E994E00E94E73286E994E00E946E2FD5
:100A6000909395048093940483E061E00E94174C76
:100A70008BE061E00E94174C88E360E00E94174C15
:100A800089E360E00E94174C8091150460E00E94A9
:100A9000174C8091170460E00E94174C80919404D9
:100AA000909195048230910509F43CC08330910502
:100AB00009F454C0019709F089C0209115043091C0
:100AC00016042230310511F480E00DC023303105C9
:100AD00011F481E008C0C9014297049710F08FEF2C
:100AE00002C087E1821B61E376E043E050E00E94B0
:100AF000854420911704309118042230310511F4F7
:100B000080E00DC02330310511F481E008C0C90137
:100B10004297049710F08FEF02C087E1821B6EE1CD
:100B200076E018C02091150430911604223031056A
:100B300011F480E00DC02330310511F481E008C0CC
:100B4000C9014297049710F08FEF02C087E1821B22
:100B500065E176E043E050E00C9485442091150473
:100B6000309116042230310511F480E00DC023309D
:100B7000310511F481E008C0C9014297049710F0D3
:100B80008FEF02C087E1821B6EEF75E043E050E01B
:100B90000E948544209117043091180422303105B9
:100BA00011F480E00DC02330310511F481E008C05C
:100BB000C9014297049710F08FEF02C087E1821BB2
:100BC00067EE75E043E050E00C948544089564E6D8
:100BD00070E080E090E00E949E4A809117040E949D
:100BE000FC4C892B51F086E994E060E974E00E94A6
:100BF000112E9093910480939004089564E670E020
:100C000080E090E00E949E4A809115040E94FC4C76
:100C1000892B51F086E994E060E974E00E94EF2EA0
:100C20009093910480939004089586E994E062E99A
:100C300074E00E94CE2E80939204089564E670E0E2
:100C400080E090E00E949E4A809117040E94FC4C34
:100C5000892B31F086E994E063E974E00C94332E3B
:100C6000089564E670E080E090E00E949E4A8091E2
:100C700015040E94FC4C892B31F086E994E062E96E
:100C800074E00C94632E089580E090E00E944E4F33
:100C900020E030E040EB52E40E944C4E20E635EE7E
:100CA00040ED5EE30C94045080E090E00E944E4FD3
:100CB00020E635EE40ED5EE30E94B54E20E030E0E8
:100CC00040EB52E40C944D4E0F931F93F8010081BA
:100CD0001181DB0160E070E0E0E0F0E080E090E0B6
:100CE0000DC02D913C9111978217930710F09C0134
:100CF00001C0FB016F5F7F4F1296C901601771073A
:100D000080F3EE0FFF1FE40FF51F808191811F918B
:100D10000F9108958F929F92AF92BF92CF92DF92E0
:100D2000EF92FF920F931F93CF93DF934A01F80145
:100D3000A080B180FB0140E050E0CC24DD2480E0C5
:100D400090E00CC0208131818217930710F09C0144
:100D500001C06A014F5F5F4F3296C9014A155B05BA
:100D600088F37601EE0CFF1C8B010E0D1F1DF801A0
:100D70006081718180E090E00E944E4F2FE832EC5C
:100D800045EF5EE30E9404500E941D4FE801D4012C
:100D9000AE0DBF1DA601E0E0F0E008EE13E014C0C8
:100DA00028813981261B370B37FF03C030952195E9
:100DB0003F4F2017310724F4ED91FC9111978901E1
:100DC0004F5F5F4F229612964A155B0548F3CF019D
:100DD000DF91CF911F910F91FF90EF90DF90CF9017
:100DE000BF90AF909F908F900895AF92BF92CF9297
:100DF000DF92EF92FF920F931F93CF93DF93B42E66
:100E0000A52EF8016701E080F180EB01DB0140E0F5
:100E100050E0E0E0F0E080E090E00DC02D913C91EA
:100E200011978217930710F09C0101C0FA014F5FE0
:100E30005F4F1296C9014E155F0580F3EE0FFF1F3D
:100E4000E60FF71F6081718180E090E00E944E4FB5
:100E50002CE53FE842EC5EE30E9404500E941D4FE7
:100E60002B2D3A2DC901FC0140E050E000E010E0DC
:100E7000A8EEB3E020C0208131812C153D0539F466
:100E80008CE797E060E072E00E943B4317C08881E6
:100E90009981861B970B97FF03C0909581959F4F73
:100EA0008A179B0714F0980101C0DC014F5F5F4F68
:100EB0002296329689014E155F05E8F2C801DF914E
:100EC000CF911F910F91FF90EF90DF90CF90BF9047
:100ED000AF9008952F923F924F925F926F927F92C0
:100EE0008F929F92AF92BF92CF92DF92EF92FF923A
:100EF0000F931F93DF93CF9300D000D0CDB7DEB711
:100F00007C836B83F90127013801808091808114F3
:100F1000910409F4A4C089E190E0FB0191838083EE
:100F20001401220C331C260E371EF101918380839D
:100F30007E836D8381E090E09A8389833DC0ED815B
:100F4000FE816281738180E090E00E944E4F9B01A0
:100F5000AC01C301B2010E9404505B016C0160E06E
:100F600070E080E89FE3A30192010E944C4E7B0158
:100F70008C01ED81FE816081718180E090E00E94B2
:100F80004E4F9B01AC01C801B7010E9404509B0168
:100F9000AC01C601B5010E944D4E0E94224FED8169
:100FA000FE817383628329813A812F5F3F4F3A83A9
:100FB00029833296FE83ED8389819A81881599056C
:100FC00008F4BDCFF401E150F048EE0FFF1F2B8174
:100FD0003C81E20FF31FFE83ED833AC0ED81FE8179
:100FE0006081718180E090E00E944E4F9B01AC01D6
:100FF000C301B2010E9404505B016C0160E070E02B
:1010000080E89FE3A30192010E944C4E7B018C017A
:10101000F1016081718180E090E00E944E4F9B0160
:10102000AC01C801B7010E9404509B01AC01C6018C
:10103000B5010E944D4E0E94224FED81FE817183C9
:1010400060833297FE83ED832EEF3FEF220E331E37
:101050000894810891088114910409F0BFCF269665
:101060000FB6F894DEBF0FBECDBFCF91DF911F91B9
:101070000F91FF90EF90DF90CF90BF90AF909F9037
:101080008F907F906F905F904F903F902F9008953A
:10109000FC018CE294E0918380830895FC018CE252
:1010A00094E09183808308958130910559F46F5FB6
:1010B0007F4F89F481EA94E00E94323A83EA94E017
:1010C0000C943D37892B39F46F5F7F4F21F481EA0F
:1010D00094E00C94383A089580E090E06FEF7FEF51
:1010E000E3CF81E090E06FEF7FEFDECF83EA94E023
:1010F0000C94FC39EF92FF920F931F93DF93CF93E1
:1011000000D000D0CDB7DEB77C018E010F5F1F4F3E
:10111000C80163EA74E00E946237C701B80140E089
:1011200050E025E030E00E945649C8010E94C049C5
:10113000C70126960FB6F894DEBF0FBECDBFCF9184
:10114000DF911F910F91FF90EF9008952F923F92A2
:101150004F925F926F927F928F929F92AF92BF92C7
:10116000CF92DF92EF92FF920F931F93DF93CF9373
:10117000CDB7DEB7E6970FB6F894DEBF0FBECDBF92
:10118000B42E2901CE0107960E94B84939E0632E9A
:1011900032E0732ECE010796B3010E9404484C0141
:1011A000CE010D966B2D4AE00E942649C401BE0176
:1011B000635F7F4F0E941E48B3010E9404484C01A8
:1011C000CE014396B2014AE00E94C848C401BE0164
:1011D0006D5E7F4F0E941E48B3010E9404484C017F
:1011E00029E1222E312C2C0E3D1EC101B8014AE00E
:1011F0000E94C848C401B1010E941E48B3010E9468
:1012000004488C019FE1492E512C4C0E5D1EC201F9
:10121000B7014AE00E94C848C801B2010E941E48B6
:10122000B3010E9404488C0185E2882E912C8C0E1B
:101230009D1EC401B6014AE00E94C848C801B4011D
:101240000E941E48B3010E9404487C018E01055D86
:101250001F4FC8016A2D4AE00E942649C701B80104
:101260000E941E48BC017E010894E11CF11CC701CC
:101270000E94B049C8010E94C049C4010E94C049EF
:10128000C2010E94C049C1010E94C049CE014396DB
:101290000E94C049CE010D960E94C049CE0107961A
:1012A0000E94C5498E010F5C1F4FC801B7010E9403
:1012B000B04983EA94E0B8010E94FA37C8010E945D
:1012C000C049C7010E94C049E6960FB6F894DEBF38
:1012D0000FBECDBFCF91DF911F910F91FF90EF9087
:1012E000DF90CF90BF90AF909F908F907F906F9046
:1012F0005F904F903F902F9008950F931F939B0105
:101300006F3F7105B1F0A8F0CB016FEF70E00E9464
:101310008A508C01281B390B81EA94E06DEC70E057
:10132000A9010E94443A81EA94E06EEC70E0A801C1
:1013300005C081EA94E06DEC70E0A9010E94443A96
:101340001F910F910895AB0181EA94E068EC70E081
:101350000C94443A81EA94E06DEC70E00E943E3ACD
:101360008F3F910511F09C0109C081EA94E06EEC79
:1013700070E00E943E3A9C0121503F4FC901089500
:1013800081EA94E068EC70E00C943E3AFC018CE257
:1013900094E091838083CF010C94D9496F927F921E
:1013A0008F929F92AF92BF92CF92DF92EF92FF9275
:1013B0000F931F93CF93DF934C01EB0104960E9490
:1013C000603A3C01209709F43CC0CE014996883C24
:1013D000910518F4CFEAD0E005C08D52914010F08D
:1013E000C3E1D1E084010D5F1F4FC8010E94503A54
:1013F000B30180E090E00E944E4F5B016C01BE01A2
:101400006A507040C40150DC9B01AC01C601B501BB
:101410000E94B14E882334F4C8016FEF70E00E943F
:101420005D3A4CC02A96C401BE013EDC9B01AC0172
:10143000C601B5010E94005018160CF03FC0C8014B
:101440003BC00E94244A5B016C01A6019501205D0E
:101450003740404050408091A4049091A504A09151
:10146000A604B091A70482179307A407B507B4F5A3
:10147000C40164E170E018DC7B018C01B30180E001
:1014800090E00E944E4FA80197010E94B14E882320
:101490002CF5C40103960E94503AA092A404B09285
:1014A000A504C092A604D092A70404C0C401039668
:1014B0000E94543AC40103960E94583AC301DF9136
:1014C000CF911F910F91FF90EF90DF90CF90BF9041
:1014D000AF909F908F907F906F900895C40165E0CA
:1014E00070E0E2DB7B018C01B30180E090E00E94C0
:1014F0004E4FA80197010E9400501816DCF6D6CF77
:101500006F927F928F929F92AF92BF92CF92DF9213
:10151000EF92FF920F931F93CF93DF93EC018B0118
:1015200094E0C92ED12CCC0EDD1EC6010E94603A7B
:101530003C01F80180818823C1F183E0882E912C41
:101540008C0E9D1EC4010E94503ACE016AE570E0E7
:10155000ABDB7B018C01B30180E090E00E944E4F39
:10156000A80197010E94B14E882334F4C4016FEFA3
:1015700070E00E945D3A56C0C6010E94603A7C014C
:10158000CE0164E670E090DB5B016C0100E010E0EE
:10159000C801B7010E944E4FA60195010E9400505C
:1015A00018160CF03FC0C4013BC00E94244A5B01E6
:1015B0006C01A6019501205D37404040504080916C
:1015C000A4049091A504A091A604B091A704821749
:1015D0009307A407B507DCF5CE0164E170E064DB96
:1015E0007B018C01B30180E090E00E944E4FA80186
:1015F00097010E94B14E882354F5CE0103960E94B4
:10160000503AA092A404B092A504C092A604D0922D
:10161000A70404C0CE0103960E94543ACE0103965B
:101620000E94583ACE01B3012FDB0E94224FCB011A
:10163000DF91CF911F910F91FF90EF90DF90CF90AE
:10164000BF90AF909F908F907F906F900895CE0144
:1016500065E070E029DB7B018C01B30180E090E064
:101660000E944E4FA80197010E9400501816B4F630
:10167000D1CF2F923F924F925F926F927F928F9233
:101680009F92AF92BF92CF92DF92EF92FF920F9311
:101690001F93DF93CF93CDB7DEB7C855D6400FB6B3
:1016A000F894DEBF0FBECDBFC55BD94F9983888349
:1016B000CB54D640C35BD94F79836883CD54D64091
:1016C000C15BD94F59834883CF54D640CF5AD94FA5
:1016D00039832883C155D640CD5AD94F1983088301
:1016E000C355D6401A8219828C010D5F1F4FC80165
:1016F0000E94503AC8016FEF70E00E945D3AC55BEE
:10170000D94FE880F980CB54D64084E090E0E80ED1
:10171000F91EC55BD94F9881CB54D640CB5AD94FCF
:101720009883C555D640C45BD94FE881CC54D64088
:10173000CA5AD94FE883C655D640C7010E94603ABD
:10174000BC01CB5AD94F8881C555D640CA5AD94F0A
:101750009881C655D64098DA20E030E048E453E45A
:101760000E94B14E88234CF4CD5AD94FE881F981BB
:10177000C355D6408081882301F7C8010E94583A9A
:1017800049E2842E43E0942E8C0E9D1EC701B401C5
:10179000AE01475F5F4F20E931E08E010F5F1F4FC1
:1017A000EE24CC24CD5AD94FA880B980C355D64059
:1017B0000E947C3A8CE797E06BE072E00E943B432A
:1017C0001401C75BD94F99828882C954D640C4019D
:1017D000C95AD94F8882C755D640C85AD94F98831D
:1017E000C855D6408E01075B194F1AC0C75BD94F49
:1017F000E881F981C954D64061917191C75BD94F95
:10180000F983E883C954D6408CE797E04AE050E07A
:101810000E94D2428CE797E06DE072E00E943B4369
:10182000C75BD94F88819981C954D64080179107E9
:10183000E9F68CE797E06BE072E00E943B43C55B02
:10184000D94F88819981CB54D6400296C95AD94F35
:101850006881C755D640C85AD94F7881C855D640F7
:1018600040E951E03E010894611C711C93010F2E68
:10187000FAE9EF2EF9E9FF2EF9E10F2FFEE31F2F12
:10188000F02D28DBC55BD94FA880B980CB54D6405A
:101890000894A11CB11C39E0832E912C8C0E9D1E46
:1018A000C501C95AD94F6881C755D640C85AD94FC2
:1018B0007881C855D640A40120E931E0830104DADB
:1018C0006C01C501C95AD94F6881C755D640C85A5D
:1018D000D94F7881C855D640A40120E931E076017E
:1018E00084DA2C01C501C95AD94F6881C755D64041
:1018F000C85AD94F7881C855D640A40120E931E0B3
:1019000009DAC35BD94FE881F981CD54D640D18241
:10191000C082C15BD94FE881F981CF54D640518252
:101920004082CF5AD94FE881F981C155D640918381
:1019300080838CE797E06BE072E00EC0F10161916B
:1019400071911F018CE797E04AE050E00E94D2427B
:101950008CE797E06DE072E00E943B43C75BD94F94
:1019600088819981C954D6402816390639F78CE701
:1019700097E06BE072E00E943B438E01075F1F4FD0
:1019800029E2E22E23E0F22EEC0EFD1E10C0F8013B
:10199000619171918F018CE797E04AE050E00E94DD
:1019A000D2428CE797E06DE072E00E943B430E1557
:1019B0001F0569F78CE797E06BE072E00E943B43FC
:1019C000CD5AD94FE881F981C355D640808188230B
:1019D00009F489C0C55BD94F88819981CB54D64021
:1019E0000796C55BD94F99838883CB54D640CE01E7
:1019F0000396C55BD94F68817981CB54D64097D186
:101A0000C15BD94FE881F981CF54D64060817181A3
:101A1000CB5AD94F8881C555D640CA5AD94F9881DB
:101A2000C655D64031D93B014C01C35BD94FE88143
:101A3000F981CD54D64060817181CB5AD94F8881CC
:101A4000C555D640CA5AD94F9881C655D6401CD9DB
:101A50005B016C01CF5AD94FE881F981C155D6405D
:101A600060817181CB5AD94F8881C555D640CA5AF9
:101A7000D94F9881C655D64007D97B018C01C55BEB
:101A8000D94F88819981CB54D6400297C55BD94FF5
:101A900099838883CB54D640C401B3010E94224F5E
:101AA0001B012C01C601B5010E94224F3B014C01D4
:101AB000C801B7010E94224F5B016C01C55BD94F81
:101AC00088819981CB54D640BE016D5F7F4F40E045
:101AD00020E030E0810173016501AA2437DBCE01EB
:101AE00003960E94C049C85AD94F0FB6F894DEBF7A
:101AF0000FBECDBFCF91DF911F910F91FF90EF905F
:101B0000DF90CF90BF90AF909F908F907F906F901D
:101B10005F904F903F902F90089508958091A80472
:101B200008956093A80408950F931F930DEA14E09D
:101B3000C80165E046E027E00E94672580EB94E05D
:101B4000B8010E94BB251F910F910895DF93CF9399
:101B5000CDB7DEB729970FB6F894DEBF0FBECDBF65
:101B6000CE0101966DEA74E00E94BB258B8190E066
:101B70002091B204821B910920E13EE0829FF00196
:101B8000839FF00D929FF00D11248A8190E02091A7
:101B9000B104821B91092CE330E0AC01429FC001EB
:101BA000439F900D529F900D1124E80FF91F8981DA
:101BB00090E02091B004821B9109E80FF91FCF013A
:101BC0006CE370E00E948A509C019093AA04809379
:101BD000A904CF01821B930B6CE370E00E948A5032
:101BE0007093AC046093AB0429960FB6F894DEBFF3
:101BF0000FBECDBFCF91DF9108950F931F93DF9359
:101C0000CF93CDB7DEB729970FB6F894DEBF0FBEDE
:101C1000CDBF8E010F5F1F4FC8016DEA74E00E94B7
:101C2000BB25A0EBB4E0F80189E001900D92815052
:101C3000E1F729960FB6F894DEBF0FBECDBFCF9166
:101C4000DF911F910F9108950F931F93DF93CF930F
:101C5000CDB7DEB72F970FB6F894DEBF0FBECDBF5E
:101C60008B011092A804CE0107966DEA74E00E94E1
:101C7000BB25CE0101966FE072E00E9451488F8132
:101C800090E02091B004821B9109081B190B8885F4
:101C900090E02091B104821B91092CE330E0AC016B
:101CA000429FC001439F900D529F900D1124081B2D
:101CB000190B898590E02091B204821B910920E1E3
:101CC0003EE0AC01429FC001439F900D529F900D9A
:101CD0001124081B190BC8016CE370E00E948A50A4
:101CE0009C019093AA048093A904C801821B930BC2
:101CF0006CE370E00E948A507093AC046093AB0474
:101D00006115710529F4232B19F481E08093A8044F
:101D1000CE0101960E94C0492F960FB6F894DEBFFF
:101D20000FBECDBFCF91DF911F910F9108952F92DC
:101D30003F924F925F926F927F928F929F92AF925B
:101D4000BF92CF92DF92EF92FF920F931F93DF9398
:101D5000CF93CDB7DEB7C457D0400FB6F894DEBFEF
:101D60000FBECDBFE4968FAFE497E5969FAFE597A2
:101D70002090B7043090B8045090B4047090B3042D
:101D80004090B0046090B104A090B2044E01089459
:101D9000811C911CC4016FE072E00E945148CE0189
:101DA00007966FE072E00E945148CE010D966FE0F9
:101DB00072E00E94514889E08A1568F189E1C82ED5
:101DC000D12CCC0EDD1EC60160E172E00E94694894
:101DD00003E1E02EF12CEC0EFD1EC7016A2D4AE056
:101DE0000E942649C601B7010E941E48BC018E010F
:101DF000015E1F4FC8010E94B049C401B8010E9492
:101E00009B49C8010E94C049C7010E94C049C60140
:101E10000E94C5490FC08E010B5D1F4FC8016A2D7E
:101E20004AE00E942649C401B8010E949B49C801AA
:101E30000E94C04917E0812E912C8C0E9D1E89E0D6
:101E4000861568F1B1E3CB2ED12CCC0EDD1EC60178
:101E500060E172E00E946948ABE2EA2EF12CEC0EE0
:101E6000FD1EC701662D4AE00E942649C601B70142
:101E70000E941E48BC018E01095C1F4FC8010E94D0
:101E8000B049C401B8010E949B49C8010E94C049E1
:101E9000C7010E94C049C6010E94C5490FC08E01FA
:101EA000035C1F4FC801662D4AE00E942649C40109
:101EB000B8010E949B49C8010E94C049FDE08F2ED5
:101EC000912C8C0E9D1E89E0841568F1E9E4CE2EDC
:101ED000D12CCC0EDD1EC60160E172E00E94694883
:101EE00073E4E72EF12CEC0EFD1EC701642D4AE0D1
:101EF0000E942649C601B7010E941E48BC018E01FE
:101F0000015B1F4FC8010E94B049C401B8010E9483
:101F10009B49C8010E94C049C7010E94C049C6012F
:101F20000E94C5490FC08E010B5A1F4FC801642D76
:101F30004AE00E942649C401B8010E949B49C80199
:101F40000E94C0496BE5A62EB12CAC0EBD1EC5018A
:101F5000672D4AE00E94264951E6C52ED12CCC0EB1
:101F6000DD1EC601652D4AE00E94264947E6E42EA3
:101F7000F12CEC0EFD1EC701B1014AE00E94C848D9
:101F80008E0103591F4FC8012E010894411C511C9A
:101F9000B2010E94B849C80162E172E00E9404489F
:101FA00037E0632E712C6C0E7D1EB3010E941E481B
:101FB00062E172E00E9404482DE0822E912C8C0E8A
:101FC0009D1EB4010E941E4864E172E00E94044814
:101FD000B5010E941E4866E172E00E940448B60105
:101FE0000E941E4866E172E00E940448B7010E9408
:101FF0001E48BC01E4968FADE497E5969FADE5974A
:102000000E94B049C8010E94C549C7010E94C04949
:10201000C6010E94C049C5010E94C049C4010E9476
:10202000C049C3010E94C049C2010E94C049E49650
:102030008FADE497E5969FADE597CC58DF4F0FB68F
:10204000F894DEBF0FBECDBFCF91DF911F910F91EE
:10205000FF90EF90DF90CF90BF90AF909F908F90C8
:102060007F906F905F904F903F902F9008956F9268
:102070007F928F929F92AF92BF92CF92DF92EF9218
:10208000FF920F931F93DF93CF93CDB7DEB7C25468
:10209000D0400FB6F894DEBF0FBECDBF782E692EAC
:1020A0006091AB047091AC046E010894C11CD11C0A
:1020B000C6014AE00E94C8486091A9047091AA0430
:1020C000CE0107964AE00E94C848CE010D966FE007
:1020D00072E00E9451486091AB047091AC046A3088
:1020E000710500F563E1E62EF12CEC0EFD1EC70133
:1020F00060E172E00E946948C701B6010E941E4873
:10210000BC018E01075E1F4FC8010E94B049C60185
:10211000B8010E949B49C8010E94C049C7010E94A2
:10212000C5490EC08E01015E1F4FC8014AE00E94E2
:10213000C848C601B8010E949B49C8010E94C04915
:102140006091A9047091AA0457E0C52ED12CCC0E41
:10215000DD1E6A30710500F545E2E42EF12CEC0E2F
:10216000FD1EC70160E172E00E946948C701B60127
:102170000E941E48BC018E01055D1F4FC8010E94D0
:10218000B049C601B8010E949B49C8010E94C049DC
:10219000C7010E94C5490EC08E010F5C1F4FC801C8
:1021A0004AE00E94C848C601B8010E949B49C80184
:1021B0000E94C04937E3E32EF12CEC0EFD1EC7014F
:1021C0004E010894811C911CB4010E94B849C701BA
:1021D00062E172E00E94044827E0A22EB12CAC0E0E
:1021E000BD1EB5010E941E48BC018E01035C1F4F3D
:1021F000C8010E94B0499DE0C92ED12CCC0EDD1E35
:10220000C601B8010E949B49BC01872D962D0E94F2
:10221000B049C8010E94C049C7010E94C549C60112
:102220000E94C049C5010E94C049C4010E94C04922
:10223000872D962DCE5BDF4F0FB6F894DEBF0FBE15
:10224000CDBFCF91DF911F910F91FF90EF90DF9065
:10225000CF90BF90AF909F908F907F906F90089598
:10226000882319F48CB5806202C08CB58F7D8CBD3B
:1022700008959CB5937F982B9CBD08952CB5382F5D
:1022800033702C7F322B3CBD2DB590E09595879512
:102290009595879581702E7F822B8DBD089585E35E
:1022A00061E00E94CA4C85E361E00E94174C8CB546
:1022B00080618CBD8CB580648CBD84E361E00E943C
:1022C000174C83E361E00C94174CFF920F931F931C
:1022D000CF93DF938B010E94244AEB01FF24FA94F1
:1022E000FEBC0DB407FEFDCF8EB58F3F11F481E02B
:1022F00008C00E94244A6C1B7D0B6017710780F395
:1023000080E0DF91CF911F910F91FF900895FC0124
:10231000673020F086E1858380E008956330B9F06E
:10232000643028F4613069F0623070F407C06530C1
:10233000A1F0653078F06630A9F412C084E090E036
:1023400011C080E090E00EC085E090E00BC081E01D
:1023500090E008C086E090E005C082E090E002C016
:1023600083E090E08BDF81E00895FC01848160E0F0
:102370000C94CA4CFC01848161E00C94CA4CDC01D1
:102380006EBD0DB407FEFDCF8EB520E030E0FA0142
:10239000E20FF31F80818EBD0DB407FEFDCF8EB519
:1023A0002F5F3F4F82E02030380789F78FEF8EBDD7
:1023B0000DB407FEFDCF8EB58FEF8EBD0DB407FEB9
:1023C000FDCF8EB58FEF8EBD0DB407FEFDCF8EB560
:1023D0001A968C931A978F71853011F481E00895C5
:1023E00081E115968C931597CD01C4DF80E00895A7
:1023F000FF920F931F93CF93DF93EC010E94244A27
:102400008B01FF24FA9409C00E94244A601B710BBF
:102410006D52714010F08FE00DC0FEBC0DB407FE90
:10242000FDCF8EB58A878F3F79F38E3F11F481E01F
:1024300005C08DE08D83CE019DDF80E0DF91CF91DF
:102440001F910F91FF900895CF93DF93EC018E8140
:102450008823A9F02F8138854FEF05C04EBD0DB4FC
:1024600007FEFDCF8EB52F5F3F4FC9010197825008
:102470009240A0F338872F83CE017CDF1E82DF914C
:10248000CF910895DF92EF92FF920F931F93CF9316
:10249000DF93EC01D62E79018A01D6DFCE0165DF0C
:1024A000CE016CE271E011DF8D2D80648EBD0DB424
:1024B00007FEFDCF8EB528E130E0D801C701022E1E
:1024C00004C0B695A795979587950A94D2F78EBDC7
:1024D0000DB407FEFDCF8EB5285030408FEF283F5A
:1024E000380759F7DD2011F485E906C088E0D816D1
:1024F00011F487E801C08FEF8EBD0DB407FEFDCF4C
:102500008EB590E02FEF2EBD0DB407FEFDCF8EB53A
:1025100087FF02C09150B9F78A87DF91CF911F9151
:102520000F91FF90EF90DF900895CF92DF92EF929E
:10253000FF920F931F93CF93DF93EC017A018B01EE
:102540006901411551056105710511F482E133C03E
:102550008B85833039F099E0EE0CFF1C001F111FB2
:102560009A95D1F7CE0168E1A80197018BDF882306
:1025700011F084E020C0CE016EEFA60100DF8823B9
:10258000D9F0CE0168E572E0A0DE882311F485E180
:1025900012C0CE016DE020E030E040E050E072DF9C
:1025A000882341F48FEF8EBD0DB407FEFDCF8EB5AD
:1025B000882371F084E18D83CE01DCDE80E0DF9141
:1025C000CF911F910F91FF90EF90DF90CF900895E2
:1025D000CE01D0DE81E0F3CF8F929F92AF92BF9277
:1025E000CF92DF92EF92FF920F931F93CF93DF93DF
:1025F000EC015A016B0149010115110509F46CC088
:10260000C801820F931F8150924008F061C08E81F3
:10261000882371F088819981AA81BB814817590765
:102620006A077B0729F48F8198858816990600F53B
:10263000A882B982CA82DB828B85833039F059E067
:10264000AA0CBB1CCC1CDD1C5A95D1F7CE0161E154
:10265000A601950117DF882319F083E08D8338C028
:10266000CE01C6DE8823A1F118861F8281E08E8309
:102670008F8198852FEF06C02EBD0DB407FEFDCFCC
:102680003EB5019688159905B8F398878F8320E0A9
:1026900030E09FEF0BC09EBD0DB407FEFDCF8EB5A1
:1026A000F701E20FF31F80832F5F3F4F20173107A1
:1026B00090F32F813885200F311F38872F8389852C
:1026C000882319F02050324038F0CE01BDDE04C01E
:1026D000CE0150DE80E001C081E0DF91CF911F91FB
:1026E0000F91FF90EF90DF90CF90BF90AF909F90B1
:1026F0008F900895EF92FF920F931F93790120E03E
:1027000030E000E012E068DF1F910F91FF90EF9042
:102710000895BF92CF92DF92EF92FF920F931F9393
:10272000CF93DF93EC01B62E1B8619861E821D8285
:102730004C830E94244A6B018C8161E00E94174CFB
:10274000CE0118DEACDD83E099DD80E09FEF9EBD19
:102750000DB407FEFDCF2EB58F5F8A30C1F7CE01D5
:1027600004DE09C00E94244A6C197D09615D77402E
:1027700010F081E059C0CE0160E020E030E040E0A0
:1027800050E080DE182F8A87813061F7CE0168E043
:102790002AEA31E040E050E075DE82FF02C01B878C
:1027A00011C080E02FEF2EBD0DB407FEFDCF9EB50A
:1027B0008F5F8430C1F79A879A3A11F082E034C073
:1027C00082E08B878B85823021F0EE24FF24870105
:1027D0000FC0E12CF12C012D60E4162F09C00E94DE
:1027E000244A6C197D09615D774010F088E01CC0B7
:1027F000CE0167E320E030E040E050E043DECE0170
:1028000069E2A80197013EDE8A87882341F78B851C
:10281000823021F5CE016AE320E030E040E050E074
:1028200031DE882331F086E08D83CE01A3DD80E0A8
:102830001AC08FEF8EBD0DB407FEFDCF8EB5807C24
:10284000803C11F483E08B8780E09FEF9EBD0DB448
:1028500007FEFDCF2EB58F5F8330C1F7CE018ADD35
:10286000CE016B2D54DDDF91CF911F910F91FF9021
:10287000EF90DF90CF90BF900895CF93DF93EB015F
:10288000DC0190E020E03EE28C91803269F028305B
:1028900029F4FE01E90FF11D30839F5FFE01E90F6E
:1028A000F11D8C9180839F5F2F5F11962B3061F714
:1028B000C90FD11D1882DF91CF910895CF93DF9377
:1028C000EC01DB0180E090E020E2FD01E80FF91F60
:1028D000208301968B309105C1F757E040E021C07D
:1028E0002E3219F084EE90E007C05A3019F15AE008
:1028F00048E017C03217F1F0FC0101963491332300
:10290000C9F75417B8F02132A8F02F3798F4822F66
:1029100081568A3108F42052FD01E40FF11D208315
:102920004F5F29912223E1F690E08C91803219F0DB
:1029300091E001C090E0892FDF91CF9108956F92CF
:102940007F928F929F92AF92BF92CF92DF92EF923F
:10295000FF920F931F93CF93DF93EC017A018B01CA
:102960002D81222309F480C08B899C89AD89BE8981
:1029700084179507A607B70708F476C085C0E11449
:10298000F1040105110549F41E821F82188619867B
:102990001A861B861C861D8665C02A853B854C854C
:1029A0005D85EB8DFC8D858590E00996215030404A
:1029B0004040504039014A01082E04C09694879443
:1029C000779467940A94D2F72F5F3F4F4F4F5F4F32
:1029D0000894E108F108010911095701680104C0D0
:1029E000D694C794B794A7948A95D2F70894E11C1B
:1029F000F11C011D111DA614B704C804D90428F048
:102A0000211531054105510549F48F89988DA98D0E
:102A1000BA8D8E839F83A887B98716C0A618B7087A
:102A2000C808D90811C04E815F81688579858B8D72
:102A30009C8D94010E94881E0894A108B108C108C9
:102A4000D108882331F410C086E0882E912C8C0E9A
:102A50009D1EA114B104C104D10429F7EA86FB86A6
:102A60000C871D8781E001C080E0DF91CF911F912D
:102A70000F91FF90EF90DF90CF90BF90AF909F901D
:102A80008F907F906F900895223009F078CFE6CF35
:102A9000CF93DF93EC01462F6E857F8588899989D6
:102AA0001FD7882319F420E030E00AC08A89282F34
:102AB00030E095E0220F331F9A95E1F725543B4F04
:102AC000C901DF91CF9108950F931F93CF93DF93A7
:102AD0008C01FC0185818823C9F1848187FF34C082
:102AE000C80161E0D5DFEC01009781F1F801858133
:102AF000823040F483899489A589B6898C8F9D8F13
:102B0000AE8FBF8FF8018789908D9B8F8A8F8789C1
:102B1000908DA18DB28DCD01AA27BB279D8B8C8B6B
:102B2000E091B904F091BA04309751F0BE016A5EA9
:102B30007F4FCE0148961995888D998D9B8B8A8BF6
:102B4000F80184818F7784836DD601C080E0DF91A6
:102B5000CF911F910F910895CF93DF93EC01B4DFD4
:102B6000882311F01D8281E0DF91CF9108956F924B
:102B70007F928F929F92AF92BF92CF92DF92EF920D
:102B8000FF920F931F93DF93CF9300D00F92CDB797
:102B9000DEB77C015A016B01DC0115968C9115970B
:102BA000813009F08BC014968C9181FF87C09AC048
:102BB0000097A105B10511F481E081C0F70162849D
:102BC000738484849584C701B601A501B8DE882387
:102BD00009F474C0D7015B968D919C915C97A11408
:102BE000B104C104D10489F457964D915D916D9162
:102BF0007C915A970E94FA1E882309F45FC0F7015E
:102C0000178A108E118E128E3CC0D70116964D91E8
:102C10005D916D917C9119979E012F5F3F4F0E94AE
:102C2000881E882309F44AC0D7015B96ED91FC9178
:102C30005C9749815A816B817C818789803129F039
:102C400088EF9FEFAFEFBFE004C088EF9FEFA0E0F9
:102C5000B0E0481759076A077B0798F4CF010E9434
:102C6000FA1E882359F1F7014681578160857185E5
:102C7000838D948D0FEF1FEF2FEF3FE0AED78823AA
:102C8000E9F0D7015396AD92BD92CD92DC92569762
:102C900014968C911497806814968C93C70114DF56
:102CA000882361F0B601A5016A147B048C049D049D
:102CB00010F4B401A301C70142DE01C080E00F900F
:102CC0000F900F900F90CF91DF911F910F91FF9078
:102CD000EF90DF90CF90BF90AF909F908F907F90BC
:102CE0006F900895F70183899489A589B68984171F
:102CF0009507A607B70708F05BCFE0CF2F923F926A
:102D00004F925F926F927F928F929F92AF92BF92FB
:102D1000CF92DF92EF92FF920F931F93CF93DF93A7
:102D2000EC012A018D81882309F4C4C08C8180FFC5
:102D3000C1C0D6C025014E185F084B0176E0272E92
:102D4000312C2C0E3D1E3201AFC02A853B854C85AF
:102D50005D856FEFA62E61E0B62EA222B3228D8193
:102D600079018A0199E016950795F794E7949A9569
:102D7000D1F7EB8DFC8D823049F4428D538D648DFB
:102D8000758D4E0D5F1D601F711F3EC0D480DA949B
:102D9000DE20A114B104D1F4DD20C1F421153105E8
:102DA0004105510549F48F89988DA98DBA8D8E837F
:102DB0009F83A887B9870AC04E815F81688579851E
:102DC000CF019101A5D7882309F474C0EB8DFC8D48
:102DD0004E815F81688579854250504060407040E7
:102DE000058404C0440F551F661F771F0A94D2F74D
:102DF00086859785A089B189480F591F6A1F7B1F57
:102E00004D0D511D611D711D80E092E08A199B09D5
:102E100063018615970508F46C018C8186FD06C058
:102E200080E0C81682E0D80609F072C080911904CB
:102E300090911A04A0911B04B0911C0448175907E3
:102E40006A077B0709F464C08091BB069091BC06B9
:102E5000950186017401C0DB882361F18C0C9D1CF7
:102E600012C0950125543B4FA9014C0D5D1DD401A5
:102E7000F90102C081918D93E417F507D9F7E21BA0
:102E8000F30B8E0E9F1E960140E050E08A859B85D5
:102E9000AC85BD85820F931FA41FB51F8A879B87B2
:102EA000AC87BD876C187D086114710409F04DCFA3
:102EB000A20102C04FEF5FEFCA01DF91CF911F91D6
:102EC0000F91FF90EF90DF90CF90BF90AF909F90C9
:102ED0008F907F906F905F904F903F902F900895CC
:102EE000AB88BC88CD88DE88EA84FB840C851D8590
:102EF0009A0140E050E0D601C5018E199F09A00B50
:102F0000B10B82179307A407B50708F413CF15CFA9
:102F1000CB01BA0140E0E4D4882309F0A2CFCACFA4
:102F2000CF92DF92EF92FF920F931F93DF93CF9395
:102F30000F92CDB7DEB76C01FC018581823068F05D
:102F4000E284F38404851585C601BE016F5F7F4F5F
:102F500041E050E0D3DE019769F020E030E0C901A4
:102F60000F90CF91DF911F910F91FF90EF90DF9025
:102F7000CF900895F60182859385A485B5854F96F7
:102F8000A11DB11D82879387A487B587F5E01695AB
:102F90000795F794E794FA95D1F78E2D8F70282F27
:102FA00030E0E5E0220F331FEA95E1F725543B4F6F
:102FB000D6CF0F931F93CF93DF938C01EB01FC01CE
:102FC0008581823008F182859385A485B5858F71CE
:102FD0009070A070B0700097A105B105A9F40AC067
:102FE0008881882399F0853E29F08E3219F08B85EF
:102FF00083FF0DC0C801BE0140E250E07FDE982F84
:10300000803271F387FF02C09FEF01C090E0892FEB
:10301000DF91CF911F910F9108950F931F93CF933D
:10302000DF93EC018B018D81882309F040C0FB0107
:1030300087898031B1F482E08D831F8A188E198EC2
:103040001A8E808D918DA0E0B0E045E0880F991F29
:10305000AA1FBB1F4A95D1F78B8B9C8BAD8BBE8B68
:1030600014C0803221F583E08D83FB01428D538DA6
:10307000648D758D4F8B588F698F7A8F9E012D5E71
:103080003F4FC8010ED7882391F01C8F0B8F81E032
:103090008C831E821F82188619861A861B861C86C0
:1030A0001D861E861F86188A198A1A8A01C080E02A
:1030B000DF91CF911F910F9108951F93CF93DF93CD
:1030C000EC01142FE62FF0E075E0EE0FFF1F7A956C
:1030D000E1F7E554FB4F8385817121F0842F8274E1
:1030E00009F052C06A8B8091190490911A04A09142
:1030F0001B04B0911C048E879F87A88BB98B848991
:103100009589A0E0B0E0BC0155274427828D938DBE
:10311000A0E0B0E0482B592B6A2B7B2B4F8B588FAC
:10312000698F7A8F838590E088719070009751F451
:10313000848D958DA68DB78D8B8B9C8BAD8BBE8B27
:1031400081E00BC0409701F59E012D5E3F4F8B8DB6
:103150009C8DA7D68823C1F084E08D83812F8F704A
:103160008C831E821F82188619861A861B861C86EF
:103170001D8616FD02C081E008C0CE0140E050E08F
:1031800060E070E0F4DC01C080E0DF91CF911F913E
:103190000895CF93DF93EC019C012A5F3F4F8B8D05
:1031A0009C8D41E050E060E070E0E9D68823A1F01A
:1031B0008F89988DA98DBA8D0097A105B10559F415
:1031C0008E819F81A885B9858F8B988FA98FBA8FA3
:1031D0008C8180688C8381E0DF91CF9108952F925C
:1031E0003F924F925F927F928F929F92AF92BF9247
:1031F000CF92DF92EF92FF920F931F93DF93CF93C3
:1032000000D000D0CDB7DEB76C01162F072F5E833C
:103210004D83DC0115968C911597813009F069C1B9
:1032200014968C9181FF65C187C1F6014389548949
:103230006589768982859385A485B58584179507E8
:10324000A607B70729F0C6017ADB882309F451C124
:10325000812F902F9C0129012D803E8012C1D60123
:103260005B96ED91FC915C97DA01C90119E0B69586
:10327000A795979587951A95D1F774807A947822B7
:103280007FEF872E71E0972E82229322772009F01C
:103290004CC08114910409F048C0D60116964D9196
:1032A0005D916D917C9119974115510561057105ED
:1032B00081F457968D919D910D90BC91A02D009712
:1032C000A105B10541F1F60186839783A087B187F7
:1032D0002CC0CF019E012F5F3F4F1AD5882309F4E0
:1032E0000FC129813A814B815C81D6015B96ED91BA
:1032F000FC915C978789803129F088EF9FEFAFEFD1
:10330000BFE004C088EF9FEFA0E0B0E028173907C6
:103310004A075B0728F0C6013CDF882331F4E9C087
:10332000F601268337834087518780E092E0881931
:10333000990951018215930508F45C01D6015B9649
:10334000ED91FC915C971696ED90FD900D911C917E
:1033500019978EEF9FEFAFEFBFEFE80EF91E0A1F30
:103360001B1F058404C0EE0CFF1C001F111F0A94D4
:10337000D2F786859785A089B189E80EF91E0A1FC4
:103380001B1FE70CF11C011D111D90E0A91692E016
:10339000B90649F58091190490911A04A0911B0473
:1033A000B0911C048E159F05A007B10761F48FEF43
:1033B0009FEFAFEFBFEF8093190490931A04A0938F
:1033C0001B04B0931C048091BB069091BC06B8010D
:1033D000A7019201AAD8882309F48BC0A0E0B2E02B
:1033E0004A0E5B1E3CC08114910401F5F601228552
:1033F00033854485558583899489A589B68928179D
:1034000039074A075B0790F00DD2882309F471C091
:10341000E0921904F0921A0400931B0410931C0408
:103420008091BD0681608093BD0607C0C801B701C9
:1034300041E056D2882309F45CC0940125543B4FE7
:10344000A9014A0D5B1DF901D20102C08D91819342
:10345000E417F507D9F7E21BF30B4E0E5F1E2A188F
:103460003B08950140E050E0F60182859385A485F4
:10347000B585820F931FA41FB51F82879387A487EA
:10348000B587D6011A962D913D914D915C911D976E
:103490002114310409F0E3CE53968D919D910D9046
:1034A000BC91A02D82179307A407B50748F4F60135
:1034B000238B348B458B568B84818068848311C029
:1034C0008091B9049091BA04892B59F08D819E8125
:1034D000892B39F0D60114968C9114978068149634
:1034E0008C93F601848183FF0DC0C601EDDA882339
:1034F00049F481E090E0D60113969C938E93129745
:103500001E821D828D819E8126960FB6F894DEBFA5
:103510000FBECDBFCF91DF911F910F91FF90EF9024
:10352000DF90CF90BF90AF909F908F907F905F90F3
:103530004F903F902F90089582FD77CE89CEDF93F4
:10354000CF930F92CDB7DEB76983BE016F5F7F4F18
:1035500041E050E044DE0F90CF91DF910895DF927B
:10356000EF92FF920F931F93CF93DF93EC0111DE45
:10357000882309F44DC0EB8DFC8DEE80FF8008851B
:1035800019858EEF9FEFAFEFBFEFE80EF91E0A1F10
:103590001B1F058404C0EE0CFF1C001F111F0A94A2
:1035A000D2F786859785A089B189E80EF91E0A1F92
:1035B0001B1FD4800894E108F108010911090AC011
:1035C000C801B7016D0D711D811D911D66D1882344
:1035D000F9F0DA94DD20A1F7EB8DFC8D20E032E0EC
:1035E00040E050E0058404C0220F331F441F551FE4
:1035F0000A94D2F78B899C89AD89BE89820F931F6B
:10360000A41FB51F8B8B9C8BAD8BBE8B81E001C043
:1036100080E0DF91CF911F910F91FF90EF90DF90AD
:1036200008956F927F928F929F92AF92BF92CF92A6
:10363000DF92EF92FF920F931F93DF93CF93CDB75B
:10364000DEB72B970FB6F894DEBF0FBECDBF5C017F
:103650006B01822EDC0115968C91882309F0CCC079
:10366000CA018E010F5F1F4FB80128D9882309F4C2
:10367000C3C0F601838D948DD5015C969C938E9387
:103680005B971682178210861186D6011A961D92B4
:103690001D921D921C921D979924380140C0C601AD
:1036A0003FDCFC01009709F4A7C085E0169507955B
:1036B000F794E7948A95D1F71E2D1F708081882397
:1036C00011F0853ED1F4992091F4D50152961C93C6
:1036D00052972091190430911A0440911B04509183
:1036E0001C041E962D933D934D935C9351978081BE
:1036F000882399F49924939421C0C301BF014BE01E
:1037000050E00E942204009751F4882D807380338A
:1037100009F472C0C501612F6CC099249394F6011D
:10372000E284F3840485158583899489A589B68903
:10373000E816F9060A071B0708F4B1CF882D827135
:10374000823109F059C0992039F0C50161E0A0D952
:103750008C01009781F450C0D60115968C9182306F
:1037600009F44AC0C601FBDE882309F445C0F5010F
:10377000128A0BEB14E080E2D8011D928A95E9F7DA
:10378000D801FE0131968BE001900D928150E1F756
:10379000E091B904F091BA04309739F0B801625F52
:1037A0007F4FC8014096199509C081E298E2F8015F
:1037B000918B808B80E098E097878687D801509620
:1037C0008D919C91519753969C938E9352975996B5
:1037D0009C938E9358971E968D919C911F97579608
:1037E0009C938E9356971ED0882331F0C501F50126
:1037F0006289482D62DC01C080E02B960FB6F894F8
:10380000DEBF0FBECDBFCF91DF911F910F91FF9013
:10381000EF90DF90CF90BF90AF909F908F907F9070
:103820006F9008958091BD06882399F14091190405
:1038300050911A0460911B0470911C048091BB0686
:103840009091BC062BEB34E00E949512882319F16D
:103850004091BE065091BF066091C0067091C106AE
:10386000411551056105710591F08091BB0690915C
:10387000BC062BEB34E00E949512882361F0109275
:10388000BE061092BF061092C0061092C10610929A
:10389000BD0681E0089580E00895EF92FF920F93B6
:1038A0001F937B018C01BEDF8823A9F0EBEBF4E0D2
:1038B000119286E0EB3BF807D9F7E0921904F092F9
:1038C0001A0400931B0410931C048091BD068160B0
:1038D0008093BD0681E01F910F91FF90EF900895B6
:1038E000DF92EF92FF920F931F937B018C01D42EF6
:1038F0008091190490911A04A0911B04B0911C04AA
:103900008E159F05A007B107B9F08CDF8823D9F089
:103910008091BB069091BC06B801A7012BEB34E067
:103920000E947A13882379F0E0921904F0921A0425
:1039300000931B0410931C048091BD068D29809375
:10394000BD0681E001C080E01F910F91FF90EF90D4
:10395000DF9008958F929F92AF92BF92CF92DF92A5
:10396000EF92FF920F931F93CF93DF936C01142F6D
:103970007093BC066093BB06442321F488249924E9
:1039800054013FC0453008F01AC160E070E080E0AB
:1039900090E040E0A5DF882309F411C1C12FD0E0F9
:1039A0002197FE0174E0EE0FFF1F7A95E1F7E554D1
:1039B000FB4FE254FE4F8081EE5BF14090E08F7749
:1039C0009070892B09F0FBC0E653FE4F80819181F6
:1039D000A281B38184369105A105B10508F4EFC039
:1039E00064E0CC0FDD1F6A95E1F7CF57D94F88808F
:1039F0009980AA80BB8081149104A104B10409F4C8
:103A0000DEC0C501B40140E06BDF882309F4D7C0F4
:103A10008091C6049091C7048050924009F0CFC0B5
:103A20002091CB04222309F4CAC08091C90490914B
:103A3000CA04892B09F4C3C08091C804882309F4FF
:103A4000BEC0F601228B8091C8048483158661E094
:103A500070E007C04F5FF60145874150483008F0DD
:103A6000AEC0F6014585848190E09B01042E02C022
:103A7000220F331F0A94E2F78217930759F7209118
:103A8000D1043091D2042115310519F040E050E005
:103A900008C02091DF043091E0044091E10450918E
:103AA000E204F6012583368347835087E090C904FA
:103AB000F090CA0400E010E0E80CF91C0A1D1B1D80
:103AC000E38AF48A058B168B8091CC049091CD0407
:103AD000918F808F6091CB0470E080E090E00E9435
:103AE0006B506E0D7F1D801F911FF601628F738FCB
:103AF000848F958F2091CC043091CD0455E0220F16
:103B0000331F5A95E1F721503E4F232F3327269537
:103B100040E050E0260F371F481F591F2687378780
:103B2000408B518B8091CE049091CF04009719F077
:103B3000A0E0B0E008C08091DB049091DC04A0918B
:103B4000DD04B091DE0485017401E21AF30A040B6E
:103B5000150BA8019701280F391F4A1F5B1FF6019B
:103B6000058404C056954795379527950A94D2F752
:103B70002187328743875487253FFFE03F07F0E0E6
:103B80004F07F0E05F0710F48CE006C0255F3F4F61
:103B90004040504028F480E1F601878B81E010C05E
:103BA0008091E7049091E804A091E904B091EA04BF
:103BB000F601828F938FA48FB58F80E2EECF80E0E5
:103BC000DF91CF911F910F91FF90EF90DF90CF90F9
:103BD000BF90AF909F908F9008954F925F926F9299
:103BE0007F928F929F92AF92BF92CF92DF92EF928D
:103BF000FF920F931F93CF93DF93EC016A017B0138
:103C000028013901423051056105710508F46EC083
:103C100089859A85AB85BC850196A11DB11D841748
:103C20009507A607B70708F461C02B893C894D8921
:103C30005E898F89803129F499278F2D7E2D6D2DF6
:103C400009C0C701B60117E09695879577956795E6
:103C50001A95D1F74B015C01820E931EA41EB51E6E
:103C60008091190490911A04A0911B04B0911C0436
:103C700088169906AA06BB0631F0C501B40140E0DA
:103C80002FDE882399F18F89803149F4F601F07095
:103C9000EE0FFF1FE554FB4F518240820DC0F6012D
:103CA000EF77F070EE0FFF1FEE0FFF1FE554FB4F95
:103CB00040825182628273828091BD0681608093CE
:103CC000BD068A89823080F08D819E81AF81B88562
:103CD000880E991EAA1EBB1E8092BE069092BF0639
:103CE000A092C006B092C10681E001C080E0DF91E1
:103CF000CF911F910F91FF90EF90DF90CF90BF90E9
:103D0000AF909F908F907F906F905F904F900895AD
:103D1000CF92DF92EF92FF920F931F93CF93DF9397
:103D2000EC017A018B01690189859A85AB85BC8597
:103D30000196A11DB11D84179507A607B70708F4C2
:103D40004FC02B893C894D895E898F89803129F448
:103D50009927812F702F6F2D09C0C801B701E7E0A7
:103D60009695879577956795EA95D1F7260F371F32
:103D7000481F591F8091190490911A04A0911B04A7
:103D8000B0911C04281739074A075B0731F0CA01B4
:103D9000B90140E0A5DD882319F18F89803159F4FC
:103DA000F701F070EE0FFF1FE554FB4F808191810A
:103DB000A0E0B0E00EC0F701EF77F070EE0FFF1F4C
:103DC000EE0FFF1FE554FB4F80819181A281B381EB
:103DD000BF70F60180839183A283B38381E001C029
:103DE00080E0DF91CF911F910F91FF90EF90DF90D6
:103DF000CF900895AF92BF92CF92DF92EF92FF9251
:103E00000F931F93DF93CF9300D00F92CDB7DEB700
:103E10006C017A018B0182E090E0A0E0B0E0F60155
:103E200080839183A283B3835E010894A11CB11C9B
:103E3000C601B801A70195016BDF882311F1C60106
:103E4000B801A70100E010E020E030E0C6DE8823E2
:103E5000C1F0E980FA800B811C81F60187898031ED
:103E600029F088EF9FEFAFEFBFE004C088EF9FEF2E
:103E7000A0E0B0E0E816F9060A071B07C8F281E0E7
:103E800001C080E00F900F900F900F90CF91DF91C5
:103E90001F910F91FF90EF90DF90CF90BF90AF9068
:103EA00008954F925F926F927F928F929F92AF92FE
:103EB000BF92CF92DF92EF92FF920F931F93DF9307
:103EC000CF9300D00F92CDB7DEB76C0149835A83F0
:103ED0006B837C833901EE24FF2487012E01089433
:103EE000411C511C812CA2E09A2EA12CB12C49819D
:103EF0005A816B817C81C60192010ADF882351F1CE
:103F0000D501C401F601058404C0880F991FAA1FBA
:103F1000BB1F0A94D2F7E80EF91E0A1F1B1F298146
:103F20003A814B815C818789803129F088EF9FEF4E
:103F3000AFEFBFE004C088EF9FEFA0E0B0E028172C
:103F400039074A075B0798F2F301E082F1820283A6
:103F5000138381E00F900F900F900F90CF91DF911E
:103F60001F910F91FF90EF90DF90CF90BF90AF9097
:103F70009F908F907F906F905F904F9008952F92B9
:103F80003F924F925F926F927F928F929F92AF92E9
:103F9000BF92CF92DF92EF92FF920F931F93DF9326
:103FA000CF93CDB7DEB72F970FB6F894DEBF0FBE15
:103FB000CDBF1C014A875B876C877D873F872E8733
:103FC000D9010D911D912D913C91011511052105EE
:103FD000310549F0480159010894811C911CA11C2C
:103FE000B11C198610C0FC0180809180A280B38032
:103FF00019868A859B85AC85BD850197A105B1058C
:1040000011F491E09987D10119968D919D910D90B0
:10401000BC91A02D0196A11DB11D8D839E83AF8300
:10402000B887750164014424552432018E010F5F65
:104030001F4FF10181859285A385B48548165906E5
:104040006A067B0608F08CC08D819E81AF81B885A1
:104050008C159D05AE05BF0550F482E0882E912C8D
:10406000A12CB12CB2E0CB2ED12CE12CF12CC10132
:10407000B701A60198014CDE882309F471C089813B
:104080009A81AB81BC81A70196012F5F3F4F4F4FB3
:104090005F4F0097A105B10519F049015A010DC004
:1040A000281939094A095B098A859B85AC85BD8534
:1040B000281739074A075B0759F00894411C511C1F
:1040C000611C711C0894C11CD11CE11CF11CB1CFF6
:1040D000C101A601B7010FEF1FEF2FEF3FE07DDD1C
:1040E000882391F43DC02601370108944108510806
:1040F00061087108C101B301A201970186016DDD5C
:10410000882371F1730162018C149D04AE04BF0415
:1041100050F3AE85BF854D915D916D917C914115B8
:1041200051056105710531F0C1019501840155DD2D
:104130008823B1F0EE85FF8580829182A282B382CE
:10414000F985FF2359F00894811C911CA11CB11C16
:10415000D1018D929D92AD92BC92139781E001C0E6
:1041600080E02F960FB6F894DEBF0FBECDBFCF9183
:10417000DF911F910F91FF90EF90DF90CF90BF9054
:10418000AF909F908F907F906F905F904F903F90F7
:104190002F900895FC011382128288EE93E0A0E034
:1041A000B0E084839583A683B7838CE394E0918306
:1041B0008083128E118E148608959C01245F3F4FD8
:1041C000C9010895DF93CF930F92CDB7DEB7FC01FD
:1041D0006983A081B18112962D913C911397BE0104
:1041E0006F5F7F4F41E050E0F90119950F90CF913B
:1041F000DF910895DC015996ED91FC915A97309723
:1042000019F420E030E018C02389348945895689A3
:1042100082859385A485B585281B390B4A0B5B0BDA
:104220002030B0E83B07B0E04B07B0E05B0720F080
:104230002FEF3FE740E050E0C9010895DC015996B7
:10424000ED91FC915A97309711F480E008958581A3
:10425000811181E00895CF93DF93EC01898D9A8DD0
:10426000009741F00E94AC15898D9A8D0E94283DDF
:104270001A8E198EDF91CF910895FC01818D928D58
:10428000009711F00C9464150895DF93CF930F926B
:10429000CDB7DEB7FC01818D928D009749F0BE014C
:1042A0006F5F7F4F41E050E00E947E16019719F04A
:1042B0002FEF3FEF03C08981282F30E0C9010F9015
:1042C000CF91DF910895EF92FF920F931F93DF93A9
:1042D000CF930F92CDB7DEB77C01DC0159968D915B
:1042E0009C915A97009719F400E010E01FC0BE019E
:1042F0006F5F7F4F41E050E00E947E16019719F0FA
:104300000FEF1FEF13C08981082F10E0D7015996D6
:10431000ED91FC915A97428553856485758541508E
:10432000504060407040CF010E949F14C8010F9020
:10433000CF91DF911F910F91FF90EF900895CF9350
:10434000DF93EC01E98DFA8D309761F013821282D0
:10435000CF010E94EF189C01E98DFA8D8281938133
:10436000892B31F081E090E09B838A8320E030E06C
:10437000C901DF91CF910895EF92FF920F931F93A0
:10438000CF93DF93EC01F62EE72E8A011B821A826F
:1043900088EE93E0A0E0B0E08C839D83AE83BF8382
:1043A0008CE394E0998388838DE190E00E948B3CBC
:1043B0009A8F898F009791F0DC018F2D9E2D9C01A3
:1043C000F9018DE101900D928150E1F7CE010C963B
:1043D000B8014CE050E00E945304188EDF91CF9159
:1043E0001F910F91FF90EF9008951092C7061092C1
:1043F000C8061092CB061092CD0682E090E0A0E0B5
:10440000B0E08093CE069093CF06A093D006B093F1
:10441000D1061092E5061092EF061092EE0684E3A4
:1044200094E09093ED068093EC061092F1060895C7
:104430009F92AF92BF92CF92DF92EF92FF920F9333
:104440001F93DF93CF93CDB7DEB7C756D0400FB6DB
:10445000F894DEBF0FBECDBFB82EA92E7B01942EDF
:104460008E01085B1F4F72C0F8018081882309F418
:1044700076C0853E09F46AC08E3209F467C0F8013F
:10448000838583FD63C0198A188A84E3C82E84E07B
:10449000D82EDF86CE861B8AC8018E010F5F1F4F84
:1044A000B8010E943D14F701618D728DCE010E9608
:1044B000A801292DB6D8882309F451C08889998983
:1044C0009EA78DA7DCA6CBA68A898FA78B8988ABF0
:1044D0008C899D89AE89BF8989AB9AABABABBCABEC
:1044E000888D998DAA8DBB8D8DAB9EABAFABB8AFD0
:1044F0008C8D9D8DAE8DBF8D89AF9AAFABAFBCAFAC
:1045000088A18DAF89A19AA1ABA1BCA1FE01FE96A5
:1045100080839183A283B3838DA19EA1AFA1B8A50F
:10452000FE01EE5BFF4F80839183A283B38389A555
:104530009AA5FE01EA5BFF4F918380838B2D9A2D14
:10454000BE01655D7F4FA80117DF0CC0F701818DAB
:10455000928DB8010E94D91718160CF485CF8B2DB7
:104560009A2D18DE8B2D9A2DC959DF4F0FB6F8946E
:10457000DEBF0FBECDBFCF91DF911F910F91FF9096
:10458000EF90DF90CF90BF90AF909F9008952F92C3
:104590003F924F925F926F927F928F929F92AF92D3
:1045A000BF92CF92DF92EF92FF920F931F93DF9310
:1045B000CF93CDB7DEB7C754D0400FB6F894DEBF67
:1045C0000FBECDBF582E492EFB013A01190184A51B
:1045D00095A5998B888B24E334E03F872E8786A5A9
:1045E0008A8B87A58B8B80A991A9A2A9B3A98C8B53
:1045F0009D8BAE8BBF8B84A995A9A6A9B7A9888FDF
:10460000998FAA8FBB8F80AD91ADA2ADB3AD8C8FCA
:104610009D8FAE8FBF8F84AD88A3FD9681919191C0
:10462000A191B19189A39AA3ABA3BCA381919191CC
:10463000A191B1918DA39EA3AFA3B8A780819181D1
:104640009AA789A71EA61DA63CA72BA718AA7A0180
:104650003BE2A32EB12CAC0EBD1E8E01025F1F4F9C
:104660004E010894811C911C35C0D7018C918F326A
:1046700021F40894E11CF11C2DC0422F4E194D303D
:1046800008F04CE0C42EDD24C401B701A6010E944D
:104690005304F401EC0DFD1D1082C5010E94AC1500
:1046A000C501B801A40121E00E94111B882351F427
:1046B000E52DF42D1382128284E394E091838083AC
:1046C000158266C0EC0CFD1CC8010E94AC15C80127
:1046D00085015C01C7016FE270E00E9438049C0113
:1046E000009719F6E618F708F101F182E082E52D4E
:1046F000F42DD80112968D919C9113979383828308
:1047000084E394E09183808314968C91149784833E
:1047100015968C911597858316962D913D914D9107
:104720005C91199726833783408751871A962D917C
:104730003D914D915C911D97228733874487558722
:104740001E962D913D914D915C915197268737870B
:10475000408B518B52968C915297828B53962D9110
:104760003D914D915C915697238B348B458B568BA5
:1047700057962D913D914D915C915A97278B308F93
:10478000418F528F5B968D919C915C97948F838F14
:10479000852D942DC95BDF4F0FB6F894DEBF0FBE99
:1047A000CDBFCF91DF911F910F91FF90EF90DF90E0
:1047B000CF90BF90AF909F908F907F906F905F90C1
:1047C0004F903F902F9008959F92AF92BF92CF92BB
:1047D000DF92EF92FF920F931F93DF93CF93CDB7AA
:1047E000DEB7C657D0400FB6F894DEBF0FBECDBFC0
:1047F000C82E992E8A01D22E43E0A42EB12CAC0EE5
:10480000BD1EC501A8019E012F5F3F4FC0DEE9809C
:10481000FA80E00EF11EF701808144E354E0288520
:10482000882309F03FC08D819E819BA38AA359A351
:1048300048A38F818CA32DA389859A85AB85BC85E0
:104840008EA39FA3A8A7B9A78D859E85AF85B8899C
:104850008AA79BA7ACA7BDA789899A89AB89BC8980
:104860008EA79FA7A8ABB9AB8D898AAB8E899F898C
:10487000A88DB98D8BAB9CABADABBEAB8A8D9B8D40
:10488000AC8DBD8D8FAB98AFA9AFBAAF8E8D9F8D1C
:104890009CAF8BAF8C2D992DBE01605E7F4F48E1A0
:1048A00052E09EC0FE01FF96118210825EAF4DAFB6
:1048B000FE01EE5BFF4F10822223A9F02250CE01B1
:1048C000CD96223048F46CEE76E0A7012D2D0E94A3
:1048D000111B882379F407C0B501A7012D2D0E9473
:1048E000111B882321F48C2D992D54DC7AC0C5012D
:1048F0000E94AC15F6E0DF2259F0FE01E05BFF4FAD
:104900004081518162817381CE01CD960E949F14B6
:104910009E01265A3F4FFE01FF9680819181F90149
:104920009383828384E394E091838083FE01EF5B31
:10493000FF4F8081F9018483FE01EE5BFF4F808190
:10494000F9018583FE01ED5BFF4F80819181A2819A
:10495000B381F90186839783A087B187FE01E95B64
:10496000FF4F80819181A281B381F9018287938772
:10497000A487B587FE01E55BFF4F80819181A2810D
:10498000B381F90186879787A08BB18BFE01E15B2C
:10499000FF4F8081F901828BFE01E05BFF4F808138
:1049A0009181A281B381F901838B948BA58BB68B06
:1049B000FE01EC5AFF4F80819181A281B381F90100
:1049C000878B908FA18FB28FFE01E85AFF4F8081B5
:1049D0009181F901948F838F8C2D992DB901A701B5
:1049E000CBDC8C2D992DCA58DF4F0FB6F894DEBF63
:1049F0000FBECDBFCF91DF911F910F91FF90EF9030
:104A0000DF90CF90BF90AF909F9008950F931F932A
:104A1000CF93DF93EC01462F61E00E948913882336
:104A2000D1F08E01045F1F4FC801BE0141E00E941A
:104A3000AA1C882339F4C801BE0140E00E94AA1CC8
:104A4000882349F0CE018A96B8010E940D18882368
:104A500019F081E001C080E0DF91CF911F910F91AB
:104A60000895F999FECF72BD61BDF89A80B5089599
:104A7000F999FECF1FBA72BD61BD40BD0FB6F89463
:104A8000FA9AF99A0FBE08950F931F938C01822F03
:104A9000F80171836083538342832483358360E00C
:104AA0000E94CA4CF801808161E00E94CA4C84E0F7
:104AB00090E00E94324A1F910F910895FC0180817D
:104AC00060E00E94CA4C84E090E00C94324A1F934C
:104AD000FC01862F122F60834183228361E00E94B4
:104AE000174C812F61E00E94174C1F910895FF928F
:104AF0000F931F93CF93DF938C01FC01818160E0C2
:104B00000E94174CFF24C0E0D0E0F80181810E9490
:104B1000FC4C90E00C2E02C0880F991F0A94E2F71B
:104B2000F82AF801828161E00E94CA4CF801828172
:104B300060E00E94CA4C2196C830D10531F78F2D14
:104B4000DF91CF911F910F91FF900895FF920F93E6
:104B50001F938C01F62EFC01818161E00E94174CAD
:104B6000F8018181628140E02F2D0E942B4D1F9121
:104B70000F91FF900895CF92DF92EF92FF920F93E3
:104B80001F93DF93CF9300D000D0CDB7DEB78C0159
:104B90007B016E010894C11CD11CFB016081418125
:104BA0002281C60170E050E030E06EDF83E398E0E0
:104BB000F8019087878381E0848383831282118246
:104BC000108281E090E096838583C7016FEBBEDFA2
:104BD000C7018DDF282F2F7722952F7030E0A90194
:104BE000E3E0440F551FEA95E1F7220F331F420F10
:104BF000531F8F70840FF8018083C70178DF282F3F
:104C000022952F7030E0A90163E0440F551F6A958B
:104C1000E1F7220F331F420F531F8F70840FF801EB
:104C20008183C70164DF482F282F30E087FF10C041
:104C300020723070B5E035952795BA95E1F7C90136
:104C4000880F991F820F931F282F220F220F11C048
:104C5000C90180739070F4E095958795FA95E1F716
:104C60009C01E3E0220F331FEA95E1F7880F991FBB
:104C7000280F4F70240FF8012283C70138DF282F37
:104C800022952F7030E0A90163E0440F551F6A950B
:104C9000E1F7220F331F420F531F8F70840FF8016B
:104CA0008383C70124DF282F22952F7030E0A901CC
:104CB000B3E0440F551FBA95E1F7220F331F420F9F
:104CC000531F8F70840FF8018483C70110DF282FD2
:104CD00022952F7030E0A901F3E0440F551FFA959B
:104CE000E1F7220F331F420F531F8F70840FF8011B
:104CF00085831682C701FBDE282F22952F7030E0B6
:104D0000A90173E0440F551F7A95E1F7220F331F75
:104D1000420F531F8F70840F90E08053984FF8011B
:104D200090878783C601CADEC80126960FB6F8941D
:104D3000DEBF0FBECDBFCF91DF911F910F91FF90CE
:104D4000EF90DF90CF900895DC0159968C915997A0
:104D5000882329F06EBD0DB407FEFDCF089530E81D
:104D600040E050E070E0832F90E0862397235A962E
:104D7000ED91FC915B979A962C919A97892B21F053
:104D80008081822B808304C080812095282320830A
:104D90005C96ED91FC915D9780819B969C919B9791
:104DA000892B80835C96ED91FC915D9790819B9619
:104DB0008C919B9780958923808336954F5F5F4FB9
:104DC0004830510581F608950F931F938C01DC0143
:104DD0005E96ED91FC915F9790819D968C919D9749
:104DE0008095892380835C96ED91FC915D979081FD
:104DF0009B968C919B978095892380839296ED91C9
:104E0000FC91939790819C968C91809589238083C7
:104E1000C8019ADFD8019296ED91FC919397808119
:104E20009C969C91892B80831F910F9108950F93DD
:104E30001F938C01DC015E96ED91FC915F97808160
:104E40009D969C919D97892B80835C96ED91FC911A
:104E50005D9790819B968C919B9780958923808309
:104E60009296ED91FC91939790819C968C91809570
:104E700089238083C80168DFD8019296ED91FC9167
:104E8000939780819C969C91892B80831F910F9191
:104E900008958F929F92AF92BF92CF92DF92EF923E
:104EA000FF920F931F937C01B62ED72E4A01A22E9C
:104EB000C32E6AE289DFC7016D2DB9DFC7016B2DF3
:104EC000B6DFC7016C2DB3DFC7016A2DB0DFC701A4
:104ED0006BE27ADFC701692DAADFC701682DA7DF62
:104EE000C701612FA4DFC701602FA1DFC7016CE2FA
:104EF0006BDF1F910F91FF90EF90DF90CF90BF90ED
:104F0000AF909F908F900895EF92FF920F931F9311
:104F1000CF93DF93EC01FB018A01790177FD2BC070
:104F2000888599856817790734F557FD24C08A85E7
:104F30009B8548175907FCF4CE0131969F010F5FFE
:104F40001F4FA7DFEE8DFF8D80819DA5892B80836C
:104F5000EAA1FBA190818CA5809589238083CE0155
:104F60006F2DF2DECE016E2DEFDEEAA1FBA1808176
:104F70009CA5892B8083DF91CF911F910F91FF908A
:104F8000EF900895CF92DF92EF92FF920F931F93CD
:104F9000CF93DF93EC01FB01790168018885998546
:104FA00068177907CCF52A853B8542175307A4F586
:104FB000C701840F951F281739071CF47901E41ADB
:104FC000F50A8A01015010400E0D1F1DCE01BF01D0
:104FD0009F015FDFEE8DFF8D80819DA5892B8083F2
:104FE000EAA1FBA190818CA580958923808306C0CE
:104FF000CE016D2DA9DECE016C2DA6DE0894E10850
:10500000F1088FEFE8168FEFF80691F7EAA1FBA100
:1050100080819CA5892B8083DF91CF911F910F9177
:10502000FF90EF90DF90CF900895CF92DF92EF92B4
:10503000FF920F931F93CF93DF93EC01FA01790155
:1050400068012885398562177307CCF58A859B85A9
:1050500048175907A4F5C701860F971F2817390766
:105060001CF47901E61AF70A9B01215030402E0DFD
:105070003F1DCE01AF018F010CDFEE8DFF8D8081D2
:105080009DA5892B8083EAA1FBA190818CA58095A9
:105090008923808306C0CE016D2D56DECE016C2D96
:1050A00053DE0894E108F1088FEFE8168FEFF80659
:1050B00091F7EAA1FBA180819CA5892B8083DF91D8
:1050C000CF911F910F91FF90EF90DF90CF900895B7
:1050D000EF92FF920F931F93FC017B01A081B1819E
:1050E00020853185028513851E960D90BC91A02DDB
:1050F00060E070E040E050E0FD0119951F910F91D4
:10510000FF90EF900895AF92BF92CF92DF92EF920F
:10511000FF920F931F93CF93DF936C015901E80126
:10512000DC0118962D913C911997621773070CF0CA
:1051300058C01A96ED91FC911B974E175F070CF023
:1051400050C0C501860F971F281739071CF4590155
:10515000A61AB70ACE01840F951FE817F9071CF4A9
:10516000EF01C41BD50B9B01215030402A0D3B1D84
:105170008A01015010400C0F1D1FC6018ADED601A6
:105180005E96ED91FC915F9780819D969C919D9795
:10519000892B80839296ED91FC91939790819C96B8
:1051A0008C918095892380838E010CC0C6016F2D60
:1051B000CBDDC6016E2DC8DD21971C161D06B4F38C
:1051C000015010401016110614F4E501F6CFD60177
:1051D0009296ED91FC91939780819C969C91892B5E
:1051E0008083DF91CF911F910F91FF90EF90DF901F
:1051F000CF90BF90AF9008951F93CF93DF93EC01B2
:10520000162F66E3E1DD13701D8B113051F0113064
:1052100028F0123049F01330E1F410C0CE0168E4F8
:1052200005C0CE0168E20CC0CE0168E800DE80EF68
:1052300090E09987888780E491E009C0CE0168EE0C
:10524000F6DD80E491E09987888780EF90E09B8786
:105250008A87DF91CF911F910895662311F460E250
:1052600001C061E2B1CDCF93DF93EC018EA161E08B
:105270000E94174C8EA160E00E94CA4C8DA161E093
:105280000E94174C8CA161E00E94174CECA14E2F9C
:1052900050E0FA01EE5BF94FE491F0E0EE0FFF1FF2
:1052A000E25FF94F859194919BA38AA3EDA12E2FE4
:1052B00030E0F901EE5BF94FE491F0E0EE0FFF1FF3
:1052C000E25FF94F859194919F8F8E8F4857594F88
:1052D000FA0184918CA72857394FF90184918DA741
:1052E000898D882361F00E944F1184E00E943E1155
:1052F00081E00E94301180E00E94391141C089A5EF
:1053000061E00E94174C8FA161E00E94174C88A5B4
:1053100060E00E94174CE9A54E2F50E0FA01EE5BC9
:10532000F94FE491F0E0EE0FFF1FE25FF94FA59116
:10533000B491BD8FAC8FEFA12E2F30E0F901EE5B61
:10534000F94FE491F0E0EE0FFF1FE25FF94F859116
:1053500094919B8F8A8F4857594FFA0194919BA73C
:105360002857394FF90184918AA78C9190959823F9
:105370009C93EA8DFB8D90818AA5809589238083FB
:105380008EA161E00E94CA4C65E070E080E090E090
:105390000E949E4A8EA160E00E94CA4C64E170E0C7
:1053A00080E090E00E949E4A8EA161E00E94CA4C7B
:1053B00066E970E080E090E00E949E4ACE016FEEC8
:1053C00003DDCE0163E033DDCE0160E830DDCE01E8
:1053D00062E02DDDCE016FECF7DCCE0160E027DD71
:1053E000CE0161EC24DDCE0160E321DDCE016DEE66
:1053F000EBDCCE0164E61BDDCE0163E018DDCE01FF
:1054000062E115DDCE0161E812DDCE0168EEDCDC83
:10541000CE0165E80CDDCE0160E009DDCE0168E774
:1054200006DDCE016BECD0DCCE0169E300DDCE0100
:105430006CE2FDDCCE0160E0FADCCE0164E3F7DC77
:10544000CE0162E0F4DCCE0167EFBEDCCE0160E2AB
:10545000EEDCCE016AEEB8DCCE0160E0E8DCCE0125
:1054600060E0E5DCCE0160ECAFDCCE0163E2DFDCC6
:10547000CE0161ECA9DCCE0160E1D9DCCE0165ECA6
:10548000A3DCCE016EE3D3DCCE0168E2D0DCCE013A
:1054900067EC9ADCCE0166E8CADCCE0166E394DCF8
:1054A000CE0168E4C4DCCE016AE38EDCCE0165E5A2
:1054B000BEDCCE0161EB88DCCE0160E0B8DCCE0161
:1054C00068E1B5DCCE0166EB7FDCCE0168E0AFDCE5
:1054D000CE0162E8ACDCCE0167E2A9DCCE0162EF6E
:1054E00073DCCE0160E0A3DCCE0166E26DDCCE01B0
:1054F00061E09DDCCE0160EE67DCCE016FE097DC01
:10550000CE0161E394DCCE016BE291DCCE016CE074
:105510008EDCCE016EE08BDCCE0168E088DCCE0153
:105520006EE485DCCE0161EF82DCCE0167E37FDCD7
:10553000CE0167E07CDCCE0160E179DCCE0163E086
:1055400076DCCE016EE073DCCE0169E070DCCE016A
:1055500060E06DDCCE0161EE37DCCE0160E067DC3F
:10556000CE016EE064DCCE0164E161DCCE0163E07B
:105570005EDCCE0161E15BDCCE0167E058DCCE0190
:1055800061E355DCCE0161EC52DCCE0168E44FDC16
:10559000CE0168E04CDCCE016FE049DCCE016CE06E
:1055A00046DCCE0161E343DCCE0166E340DCCE01A4
:1055B0006FE03DDCCE0161E107DC68E770E080E090
:1055C00090E00E949E4ACE0169E2FEDBDF91CF911E
:1055D0000895DF92EF92FF920F931F938C01F62EA6
:1055E000E42ED22E60EF70E040E451E012D08CE463
:1055F00094E0F80191838083F4A2E5A2D6A281E031
:10560000818F11A617A21F910F91FF90EF90DF904D
:105610000895FC011382128284E694E091838083D2
:105620007583648357834683718760875387428776
:10563000158A158614861786168621E0248B8FEF2F
:105640009FEF938B828B918B808B268B178A08958B
:105650002F923F924F925F926F927F928F929F9282
:10566000AF92BF92CF92DF92EF92FF920F931F9370
:10567000DF93CF9300D00F92CDB7DEB73C017C8390
:105680006B836A015901FA82E9822224332498014A
:10569000241B350B37FF03C0309521953F4FC501C3
:1056A0004B815C81841B950B97FF03C0909581957E
:1056B0009F4F821793075CF481E0282E312CC6019E
:1056C000CB80DC809C838B83C80185015C018B814E
:1056D0009C81A816B90644F4C501AB80BC809C83AC
:1056E0008B83C80186016C012501AB81BC814A1AFC
:1056F0005B0A7801EC18FD08F7FE04C0F094E19411
:10570000F108F394C016D10624F088248A94982CCA
:1057100003C0B1E08B2E912CC20162E070E00E94C8
:105720009E508B0125C0D301ED91FC9121143104D1
:1057300041F00480F581E02DC301B6014B815C810D
:1057400007C00480F581E02DC3016B817C81A60137
:1057500029813A8119950E191F0917FF04C0C80C39
:10576000D91C040D151DEB81FC813196FC83EB8364
:105770004B815C81A416B506B4F60F900F900F9084
:105780000F90CF91DF911F910F91FF90EF90DF90DD
:10579000CF90BF90AF909F908F907F906F905F90D1
:1057A0004F903F902F9008954F925F926F927F920B
:1057B0008F929F92AF92BF92CF92DF92EF92FF9221
:1057C0000F931F936C015B014A0139012801DC0131
:1057D000ED91FC910284F385E02D87011995D601A6
:1057E000ED91FC91A40141505040440D551D02849F
:1057F000F385E02DC601B50193011995D601ED9110
:10580000FC910084F185E02DC601B501A40192014F
:105810001995D601ED91FC910894A108B108A60C48
:10582000B71C0084F185E02DC601B501A4019201E9
:1058300019951F910F91FF90EF90DF90CF90BF903F
:10584000AF909F908F907F906F905F904F90089552
:10585000CF92DF92EF92FF920F931F93DC016B01C7
:105860007801ED91FC918A0101501040020F131F45
:105870000680F781E02D960119951F910F91FF90F9
:10588000EF90DF90CF900895CF92DF92EF92FF924A
:105890000F931F93DC016A01C9017801ED91FC911E
:1058A00011979B0121503040280F391F0680F78146
:1058B000E02DCD01860119951F910F91FF90EF907A
:1058C000DF90CF9008956F927F928F929F92AF92C8
:1058D000BF92CF92DF92EF92FF920F931F93CF93DD
:1058E000DF935C013A0169014801EB01C60ED71E46
:1058F0000DC0D501ED91FC910084F185E02DC5012D
:10590000BE01A3019401870119952196CC15DD05EF
:1059100084F3DF91CF911F910F91FF90EF90DF9073
:10592000CF90BF90AF909F908F907F906F90089591
:10593000EF92FF920F931F93FC017B01A081B18135
:1059400020853185028513851E960D90BC91A02D72
:1059500060E070E040E050E0FD0119951F910F916B
:10596000FF90EF9008952F923F924F925F926F9227
:105970007F928F929F92AF92BF92CF92DF92EF92DF
:10598000FF920F931F93DF93CF93CDB7DEB72F977F
:105990000FB6F894DEBF0FBECDBF5C015E834D83B2
:1059A00018870F83FA86E986CB86DC0118968D91DD
:1059B0009C911997681779070CF0ABC01A968D91D6
:1059C0009C911B97481759070CF0A3C0EC2DF0E0F1
:1059D000FF87EE87CF01880F991F8E0F9F1F880FBB
:1059E000991F860F971F181619060CF092C0CF0149
:1059F00003E0880F991F0A95E1F7840F951F181689
:105A000019060CF086C057968C91882319F4203B18
:105A100008F02F5F85E0289FA00111245A83498355
:105A20002B011B011C825C81553011F480E005C004
:105A3000E981FA81EC50FF4F84912C863D866D8080
:105A40007E8043011B82C82EDD2480FF1CC0D5014F
:105A5000ED91FC91BB85B13049F40480F581E02DD6
:105A6000C501B201A4012F81388522C00684F785C3
:105A7000E02DC5016C857D85A3012E853F858901BB
:105A8000EF80F88423C0E985FA852F813885E217F5
:105A9000F307E9F0D501ED91FC91BB85B13051F4EC
:105AA0000480F581E02DC501B201A40129853A8564
:105AB00019950DC00684F785E02DC5016C857D859F
:105AC000A3012E853F858901E984FA841995EB812C
:105AD000EF5FEB832E853F85620E731E0894811C59
