:100000000C9403010C9430010C9430010C943001D9
:100010000C9430010C9430010C9430010C9430019C
:100020000C9430010C9430010C9430010C9430018C
:100030000C9430010C9430010C9430010C9430017C
:100040000C9430010C9430010C9430010C9430016C
:100050000C9430010C9430010C9430010C942D0858
:100060000C9430010C94E9010C9415030C943001AC
:100070000C9430010C9430010C9430010C9430013C
:100080000C9430010C9430010C9430010C9430012C
:100090000C9425020C9449030C9430010C9430010B
:1000A0000C9430010C9430010C9430010C9430010C
:1000B0000C9430010C9430010C9430010C943001FC
:1000C0000C9430010C9430010C9430010C946102BA
:1000D0000C947D030C9430010C949D020C94B1039C
:1000E0000C94300100002100240027002A002D007C
:1000F0003000330001010000040107010A01000083
:100100002200250028002B002E00310034000201BF
:100110000000050108010B0100002000230026005B
:1001200029002C002F00320000010000030106010D
:10013000090105050505070508080808020202026D
:100140000A0A080804040404010101010101010173
:100150000303030303030303040707070C0C0C0C3E
:100160000C0C0C0C02020202060606060606060627
:100170000B0B0B0B0B0B0B0B0102102020080810B4
:100180002040102040800201020108040201010207
:1001900004081020408080402010080402018004E0
:1001A000020180402010080402010804020101023B
:1001B0000408102040800102040810204080000044
:1001C000090A02080B0C0D070603040100000000D9
:1001D000000000000000000000000000000000001F
:1001E0000000000000000000000011100F000000DF
:1001F00000000000000000000000000000000000FF
:1002000000000000F20411241FBECFEFD1E2DEBFD8
:10021000CDBF00E00CBF12E0A0E0B2E0E4EAFBE1F9
:1002200000E00BBF02C007900D92A834B107D9F7C8
:100230001BBE14E0A8E4B2E001C01D92AB3DB107C3
:10024000E1F712E0C6E0D2E004C02297FE010E946E
:10025000CC0DC430D107C9F70E941E080C94D00DF4
:100260000C94000080912D020E94390B019719F423
:1002700083E061E00EC0809131020E94390B01974A
:1002800031F483E06CE870E00E94730904C083E0FD
:1002900060E00E94060B80912F020E94390B0197AB
:1002A00019F48BE061E002C08BE060E00E94060B75
:1002B000809133020E943F098D9790934902809369
:1002C0004802AA2797FDA095BA2FBC01CD010E9434
:1002D0006E0C28E431EE4AE95FE30E94D30BAB01D8
:1002E000BC018AE492E022E030E00E941B088AE42C
:1002F00092E060E072E00E943407609148027091E1
:1003000049028AE492E04AE050E00E9421078AE430
:1003100092E066E072E00E94340786E30E943F09A3
:100320002091350230913602829FB001839F700D7B
:10033000929F700D11248AE492E04AE050E00E94FE
:1003400021078AE492E069E172E00E94340764E6E2
:1003500070E080E090E00E94D708089580912B0221
:1003600060E00E94530A80912D0260E00E94530ACF
:1003700080912F0260E00E94530A8091310260E078
:100380000E94530A8CE061E00E94530A89E061E018
:100390000E94530A83E061E00E94530A8BE061E00F
:1003A0000E94530A8091330260E00E94530A8AE45B
:1003B00092E040E855E260E070E00E94E5038CE0E6
:1003C00060E00E94060B89E060E00E94060B089541
:1003D00008951F920F920FB60F920BB60F92112431
:1003E0002F933F934F938F939F93EF93FF9380911E
:1003F000C00082FD19C04091C60080916802282F7C
:1004000030E02F5F3F4F2F7330708091690290E092
:100410002817390759F0E0916802F0E0E65BFD4FDC
:1004200042A32093680202C08091C600FF91EF9121
:100430009F918F914F913F912F910F900BBE0F90F5
:100440000FBE0F901F90189508951F920F920FB630
:100450000F920BB60F9211242F933F934F938F93CC
:100460009F93EF93FF938091C80082FD19C0409144
:10047000CE0080910A03282F30E02F5F3F4F2F736B
:10048000307080910B0390E02817390759F0E09104
:100490000A03F0E0E451FD4F42A320930A0302C097
:1004A0008091CE00FF91EF919F918F914F913F915D
:1004B0002F910F900BBE0F900FBE0F901F901895AD
:1004C00008951F920F920FB60F920BB60F92112440
:1004D0002F933F934F938F939F93EF93FF9380912D
:1004E000D00082FD19C04091D6008091AC03282F26
:1004F00030E02F5F3F4F2F7330708091AD0390E05D
:100500002817390759F0E091AC03F0E0E257FC4FAF
:1005100042A32093AC0302C08091D600FF91EF91DB
:100520009F918F914F913F912F910F900BBE0F9004
:100530000FBE0F901F90189508951F920F920FB63F
:100540000F920BB60F9211242F933F934F938F93DB
:100550009F93EF93FF938091300182FD19C04091EA
:10056000360180914E04282F30E02F5F3F4F2F73CC
:10057000307080914F0490E02817390759F0E091CE
:100580004E04F0E0E05DFB4F42A320934E0402C016
:1005900080913601FF91EF919F918F914F913F9103
:1005A0002F910F900BBE0F900FBE0F901F901895BC
:1005B000809168022091690290E0805C9F4F821BCD
:1005C00091098F739070892B11F00E94E80180913E
:1005D0000A0320910B0390E0805C9F4F821B9109DE
:1005E0008F739070892B11F00E9424028091AC03CC
:1005F0002091AD0390E0805C9F4F821B91098F7327
:100600009070892B11F00E94600280914E0420911D
:100610004F0490E0805C9F4F821B91098F73907014
:10062000892B11F00E949C0208951F920F920FB621
:100630000F920BB60F9211242F938F939F93EF93EA
:10064000FF9390916A0280916B02981731F4809128
:10065000C1008F7D8093C10010C0E0916B02F0E07B
:10066000E455FD4F208180916B0290E001968F73DD
:10067000907080936B022093C600FF91EF919F9141
:100680008F912F910F900BBE0F900FBE0F901F9068
:1006900018951F920F920FB60F920BB60F9211245E
:1006A0002F938F939F93EF93FF9390910C038091DF
:1006B0000D03981731F48091C9008F7D8093C90094
:1006C00010C0E0910D03F0E0E25BFC4F20818091CF
:1006D0000D0390E001968F73907080930D0320932B
:1006E000CE00FF91EF919F918F912F910F900BBEB4
:1006F0000F900FBE0F901F9018951F920F920FB67C
:100700000F920BB60F9211242F938F939F93EF9319
:10071000FF939091AE038091AF03981731F48091CD
:10072000D1008F7D8093D10010C0E091AF03F0E045
:10073000E051FC4F20818091AF0390E001968F73D0
:1007400090708093AF032093D600FF91EF919F911B
:100750008F912F910F900BBE0F900FBE0F901F9097
:1007600018951F920F920FB60F920BB60F9211248D
:100770002F938F939F93EF93FF93909150048091C9
:100780005104981731F4809131018F7D80933101AC
:1007900010C0E0915104F0E0EE56FB4F20818091B3
:1007A000510490E001968F739070809351042093D0
:1007B0003601FF91EF919F918F912F910F900BBE7A
:1007C0000F900FBE0F901F901895AF92BF92DF92BF
:1007D000EF92FF920F931F93CF93DF93EC017A0177
:1007E0008B01DD24403081EE580780E0680780E00F
:1007F000780711F0DD24D39491E0A92EB12CE8897B
:10080000F989DD2069F0C5010C8C02C0880F991FA1
:100810000A94E2F7808360E079E08DE390E005C020
:10082000108260E874E88EE190E0A80197010E94D0
:10083000A80D21503040404050405695479537957F
:10084000279580E12030380720F0DD2011F0DD24ED
:10085000D6CFEC85FD853083EE85FF8520831D8E08
:10086000EA89FB89408121E030E0C901088C02C09F
:10087000880F991F0A94E2F7482B4083EA89FB8985
:100880004081C901098C02C0880F991F0A94E2F7C0
:10089000482B4083EA89FB894081C9010A8C02C048
:1008A000880F991F0A94E2F7482B4083EA89FB8955
:1008B00080810B8C02C0220F331F0A94E2F720952F
:1008C00028232083DF91CF911F910F91FF90EF900C
:1008D000DF90BF90AF900895FC01268D878D30E0AA
:1008E000205C3F4F281B31092F733070C9010895D8
:1008F000FC01968D878D981719F42FEF3FEF06C0F6
:10090000878DE80FF11D82A1282F30E0C9010895DD
:10091000DC015E969C915E975F968C915F9798172D
:1009200019F42FEF3FEF10C05F968C915F97FD0198
:10093000E80FF11D92A15F968C915F978F5F8F7387
:100940005F968C93292F30E0C9010895DC015D96F4
:100950008C915D97882339F05096ED91FC915197D9
:10096000808186FFF9CF5D961C920895DC019096F8
:100970008C919097282F30E02F5F3F4F2F7330706E
:1009800091968C91919790E028173907C9F390962A
:100990008C919097FD01E80FF11DEE59FF4F608398
:1009A00090962C9390975296ED91FC9153972081BD
:1009B00081E090E05B960C905B9702C0880F991FD6
:1009C0000A94E2F7282B208381E05D968C935D9753
:1009D0005096ED91FC91519780818064808381E0F5
:1009E00090E008951F9310924D0210924C0228EE51
:1009F00033E040E050E020934E0230934F024093AA
:100A00005002509351026CE372E070934B0260937A
:100A10004A0210926B0280916B0280936A021092DC
:100A20006902809169028093680285EC90E090935E
:100A300057028093560284EC90E090935902809381
:100A4000580280EC90E090935B0280935A0281EC14
:100A500090E090935D0280935C0282EC90E0909332
:100A60005F0280935E0286EC90E090936102809337
:100A7000600214E010936202B3E0B0936302A7E057
:100A8000A0936402F5E0F0936502E1E0E093660272
:100A90001092EF021092EE022093F0023093F102D6
:100AA0004093F2025093F3027093ED026093EC02D4
:100AB00010920D0380910D0380930C0310920B0391
:100AC00080910B0380930A038DEC90E09093F902E0
:100AD0008093F8028CEC90E09093FB028093FA02F2
:100AE00088EC90E09093FD028093FC0289EC90E00A
:100AF0009093FF028093FE028AEC90E090930103B2
:100B0000809300038EEC90E09093030380930203A4
:100B100010930403B0930503A0930603F093070317
:100B2000E093080310929103109290032093920394
:100B300030939303409394035093950370938F03E2
:100B400060938E031092AF038091AF038093AE0346
:100B50001092AD038091AD038093AC0385ED90E0DE
:100B600090939B0380939A0384ED90E090939D0370
:100B700080939C0380ED90E090939F0380939E036D
:100B800081ED90E09093A1038093A00382ED90E02B
:100B90009093A3038093A20386ED90E09093A50326
:100BA0008093A4031093A603B093A703A093A80374
:100BB000F093A903E093AA03109233041092320435
:100BC0002093340430933504409336045093370413
:100BD0007093310460933004109251048091510459
:100BE0008093500410924F0480914F0480934E04E0
:100BF00085E391E090933D0480933C0484E391E08D
:100C000090933F0480933E0480E391E090934104ED
:100C10008093400481E391E09093430480934204E5
:100C200082E391E0909345048093440486E391E04D
:100C3000909347048093460410934804B09349046A
:100C4000A0934A04F0934B04E0934C041F91089541
:100C5000CF92DF92EF92FF920F931F93CF93DF9388
:100C60007C016B018A01C0E0D0E00FC0D6016D911C
:100C70006D01D701ED91FC910190F081E02DC7014C
:100C80001995C80FD91F015010400115110571F7B2
:100C9000CE01DF91CF911F910F91FF90EF90DF90E8
:100CA000CF900895CF93DF93EC016115710519F48E
:100CB00020E030E00FC0DB010D900020E9F7119734
:100CC000A61BB70BE881F9810280F381E02DAD010D
:100CD00019959C01C901DF91CF9108954F925F92C0
:100CE0007F928F929F92AF92BF92CF92DF92EF92BC
:100CF000FF920F931F93DF93CF93CDB7DEB7A197EA
:100D00000FB6F894DEBF0FBECDBF2C01742ECB0101
:100D1000223008F42AE019A231E2C32ED12CCC0EE5
:100D2000DD1E822E9924AA24BB24672D752FA501D0
:100D300094010E94A80D79018A01C801B701A5019B
:100D400094010E94890D472D461B0894C108D108C3
:100D50004A3014F4405D01C0495CF6014083E1145F
:100D6000F1040105110521F07E2C5F2DC801DDCFB6
:100D7000C201B6010E945206A1960FB6F894DEBFDA
:100D80000FBECDBFCF91DF911F910F91FF90EF90DC
:100D9000DF90CF90BF90AF909F908F907F905F90AB
:100DA0004F900895DC012115310541F4ED91FC913E
:100DB0000190F081E02D642F199508950E946E0630
:100DC0000895CF92DF92EF92FF920F931F93CF93EC
:100DD000DF93EC016A017B012115310541F4E881C3
:100DE000F9810190F081E02D642F19951FC02A3000
:100DF0003105D1F477FF17C0E881F9810190F081C6
:100E0000E02D6DE219958C0144275527BA014C1944
:100E10005D096E097F09CE012AE00E946E069801E5
:100E2000280F391F04C02AE00E946E069C01C901E8
:100E3000DF91CF911F910F91FF90EF90DF90CF90B6
:100E40000895EF92FF920F931F937B019A01002761
:100E5000F7FC0095102FB801A7010E94E1061F9131
:100E60000F91FF90EF9008950E94520608957F928F
:100E70008F929F92AF92BF92CF92DF92EF92FF92AA
:100E80000F931F93CF93DF934C017A018B01722E46
:100E9000CB01BA01A80197010E94850D882321F09A
:100EA000C4016DE172E021C0C0E0D0E057016801EB
:100EB000E894D7F8C601B5012FEF3FEF4FE75FE7A2
:100EC0000E94850D882351F4C601B5012FEF3FEF35
:100ED0004FE75FE70E94CF0B181614F0C1E0D0E097
:100EE000219739F0C40161E272E00E945206EC01E0
:100EF00093C0C801B7012FEF3FEF4FE75FE40E94B7
:100F00001E0D181654F0C801B7012FEF3FEF4FE741
:100F10005FEC0E94CF0B882324F4C40165E272E0E9
:100F2000E4CFC801B70120E030E040E050E00E948B
:100F3000CF0B87FD03C0C0E0D0E00EC0D401ED911F
:100F4000FC910190F081E02DC4016DE21995EC0156
:100F500017FB109517F9109520E030E040E05FE3B3
:100F6000DD240BC0CA01B90120E030E040E251E4C9
:100F70000E94D30B9B01AC01D394D71498F3C80102
:100F8000B7010E946B0B5B016C010E94400C7B015E
:100F90008C01C401B801A7012AE030E00E94D2060A
:100FA000C80FD91F772039F0C40169E272E00E94AE
:100FB0005206C80FD91FC801B7010E946C0C9B01D3
:100FC000AC01C601B5010E946A0B24C020E030E0EC
:100FD00040E251E40E94220D7B018C010E943B0CF7
:100FE0005B016C01CC24B7FCC094DC2CC401B601BD
:100FF000A5012AE030E00E94E106C80FD91FC60112
:10100000B5010E946E0C9B01AC01C801B7010E94A2
:101010006A0B7A947720D1F6CE01DF91CF911F91A0
:101020000F91FF90EF90DF90CF90BF90AF909F9087
:101030008F907F9008950E9437070895CF93DF9394
:101040000E9475080E94AE01C8EDD2E00E943201F4
:101050002097E1F30E94D802F9CF1F920F920FB6AA
:101060000F9211242F933F938F939F93AF93BF932E
:101070008091D6049091D704A091D804B091D9045E
:101080003091DA040196A11DB11D232F2D5F2D375C
:1010900020F02D570196A11DB11D2093DA048093F5
:1010A000D6049093D704A093D804B093D904809128
:1010B000D2049091D304A091D404B091D5040196A8
:1010C000A11DB11D8093D2049093D304A093D404A6
:1010D000B093D504BF91AF919F918F913F912F9184
:1010E0000F900FBE0F901F901895789484B5826072
:1010F00084BD84B5816084BD85B5826085BD85B5BC
:10110000816085BDEEE6F0E0808181608083E1E86A
:10111000F0E01082808182608083808181608083A2
:10112000E0E8F0E0808181608083E1EBF0E08081A5
:1011300084608083E0EBF0E0808181608083E1E97E
:10114000F0E0808182608083808181608083E0E93B
:10115000F0E0808181608083E1EAF0E0808182605C
:101160008083808181608083E0EAF0E0808181601B
:101170008083E1E2F1E08081826080838081816010
:101180008083E0E2F1E0808181608083EAE7F0E043
:10119000808184608083808182608083808181609F
:1011A00080838081806880831092C1000895EF92CF
:1011B000FF920F931F93CF93DF937B018C013FB777
:1011C000F8948091D2049091D304A091D404B0916A
:1011D000D50426B5A89B05C02F3F19F00196A11D87
:1011E000B11D3FBFBA2FA92F982F8827820F911DBD
:1011F000A11DB11D52E0880F991FAA1FBB1F5A9550
:10120000D1F7EC0130C00E94690B3FB7F894809190
:10121000D2049091D304A091D404B091D50426B502
:10122000A89B05C02F3F19F00196A11DB11D3FBF1E
:10123000BA2FA92F982F8827820F911DA11DB11DAC
:1012400032E0880F991FAA1FBB1F3A95D1F78C1B5C
:101250009D0B885E9340B8F20894E108F1080109FB
:101260001109C851DC4FE114F1040105110559F6CB
:10127000DF91CF911F910F91FF90EF900895382F3C
:10128000863308F0365320917B00832F8695869510
:10129000869590E08170907043E0880F991F4A9581
:1012A000E1F7277F282B20937B003770809137024E
:1012B0008295880F880F807C832B80937C0080919F
:1012C0007A00806480937A0080917A0086FDFCCF5A
:1012D0002091780040917900942F80E030E0282B15
:1012E000392BC90108951F93CF93DF93182FEB017A
:1012F00061E00E94530A209709F4CAC0CF3FD1058C
:1013000009F4C9C0E12FF0E0E254FE4F8491893026
:1013100009F466C08A30B0F48430F1F1853040F4CD
:10132000823059F1833070F5813009F0AEC020C0B1
:10133000873009F443C0883008F048C0863009F08F
:10134000A4C034C08D3009F478C08E3038F48B30AE
:1013500009F45AC08C3008F066C04CC0803109F4E2
:1013600080C0813109F487C08F3009F08EC06FC012
:1013700084B5806884BDC7BD92C084B5806284BDD9
:10138000C8BD8DC080918000806880938000D0931C
:101390008900C093880083C0809180008062809320
:1013A0008000D0938B00C0938A0079C08091B000F8
:1013B00080688093B000C093B30071C08091B0008A
:1013C00080628093B000C093B40069C080919000A7
:1013D000806880939000D0939900C09398005FC07C
:1013E00080919000806280939000D0939B00C09386
:1013F0009A0055C080919000886080939000D093AF
:101400009D00C0939C004BC08091A0008068809399
:10141000A0008091A0008F7B8093A000D093A900B2
:10142000C093A8003CC08091A00080628093A0007F
:10143000D093AB00C093AA0032C08091A000886016
:101440008093A000D093AD00C093AC0028C08091E1
:101450002001806880932001D0932901C093280146
:101460001EC080912001806280932001D0932B01C7
:10147000C0932A0114C080912001886080932001CC
:10148000D0932D01C0932C010AC0C038D1051CF4A3
:10149000812F60E002C0812F61E00E94060BDF9186
:1014A000CF911F910895CF93DF93482F50E0CA0149
:1014B00088589E4FFC0134914E5C5E4FFA01849136
:1014C000882369F190E0880F991FFC01EC51FF4FD0
:1014D000A591B491FC01E250FF4FC591D4916623D0
:1014E00051F42FB7F8948C91932F909589238C9376
:1014F000888189230BC0623061F42FB7F8948C91F6
:10150000932F909589238C938881832B88832FBF79
:1015100006C09FB7F8948C91832B8C939FBFDF916B
:10152000CF910895893009F449C08A30A0F48430FD
:1015300051F1853040F4823079F1833000F581300B
:1015400009F063C026C0873079F1883098F586307D
:1015500009F05BC025C08D3009F442C08E3028F4FC
:101560008B30B1F18C30C0F52DC0803109F442C010
:10157000813109F445C08F3009F047C037C08091F0
:1015800080008F7703C0809180008F7D80938000E2
:10159000089584B58F7702C084B58F7D84BD08958A
:1015A0008091B0008F7703C08091B0008F7D8093D1
:1015B000B0000895809190008F7707C080919000CF
:1015C0008F7D03C080919000877F80939000089565
:1015D0008091A0008F7707C08091A0008F7D03C00D
:1015E0008091A000877F8093A000089580912001C2
:1015F0008F7703C0809120018F7D80932001089513
:1016000080912001877F809320010895FF920F939E
:101610001F93F62E482F50E0CA0182549E4FFC01C2
:101620002491CA0188589E4FFC0114914E5C5E4F74
:10163000FA0104910023C9F0222319F0822F0E949D
:10164000920AE02FF0E0EE0FFF1FE250FF4FA5914E
:10165000B4919FB7F894FF2021F48C9110958123C9
:1016600002C08C91812B8C939FBF1F910F91FF9093
:1016700008950F931F93482F50E0CA0182549E4F44
:10168000FC012491CA0188589E4FFC0104914E5CD4
:101690005E4FFA011491112319F420E030E015C0D7
:1016A000222319F0822F0E94920A812F90E0880F46
:1016B000991F885E9E4FFC01A591B4918C9120E00A
:1016C00030E0802311F021E030E0C9011F910F913B
:1016D000089508955058BB27AA270ED075C166D12A
:1016E00030F06BD120F031F49F3F11F41EF45BC158
:1016F0000EF4E095E7FB51C1E92F77D180F3BA17DB
:10170000620773078407950718F071F49EF58FC17F
:101710000EF4E0950B2EBA2FA02D0B01B90190010C
:101720000C01CA01A0011124FF27591B99F0593F50
:1017300050F4503E68F11A16F040A22F232F342F98
:101740004427585FF3CF469537952795A795F040E6
:101750005395C9F77EF41F16BA0B620B730B840BFB
:10176000BAF09150A1F0FF0FBB1F661F771F881FB3
:10177000C2F70EC0BA0F621F731F841F48F487950B
:1017800077956795B795F7959E3F08F0B3CF9395FA
:10179000880F08F09927EE0F979587950895D9D06F
:1017A00008F481E008950CD00FC107D140F0FED0BD
:1017B00030F021F45F3F19F0F0C0511139C1F3C08E
:1017C00014D198F39923C9F35523B1F3951B550B05
:1017D000BB27AA2762177307840738F09F5F5F4F04
:1017E000220F331F441FAA1FA9F333D00E2E3AF045
:1017F000E0E830D091505040E695001CCAF729D05F
:10180000FE2F27D0660F771F881FBB1F26173707AD
:101810004807AB07B0E809F0BB0B802DBF01FF27DD
:1018200093585F4F2AF09E3F510568F0B6C000C143
:101830005F3FECF3983EDCF3869577956795B79517
:10184000F7959F5FC9F7880F911D9695879597F932
:101850000895E1E0660F771F881FBB1F62177307AB
:101860008407BA0720F0621B730B840BBA0BEE1FC0
:1018700088F7E095089504D06894B111D9C008950F
:10188000BCD088F09F5790F0B92F9927B751A0F09E
:10189000D1F0660F771F881F991F1AF0BA95C9F704
:1018A00012C0B13081F0C3D0B1E00895C0C0672F3D
:1018B000782F8827B85F39F0B93FCCF386957795B4
:1018C0006795B395D9F73EF490958095709561959D
:1018D0007F4F8F4F9F4F0895E89409C097FB3EF4C8
:1018E00090958095709561957F4F8F4F9F4F99236D
:1018F000A9F0F92F96E9BB279395F69587957795EB
:101900006795B795F111F8CFFAF4BB0F11F460FFAA
:101910001BC06F5F7F4F8F4F9F4F16C0882311F002
:1019200096E911C0772321F09EE8872F762F05C016
:10193000662371F096E8862F70E060E02AF09A95B1
:10194000660F771F881FDAF7880F9695879597F9A6
:101950000895990F0008550FAA0BE0E8FEEF161640
:101960001706E807F907C0F012161306E407F50793
:1019700098F0621B730B840B950B39F40A2661F007
:10198000232B242B252B21F408950A2609F4A140AA
:10199000A6958FEF811D811D089597F99F6780E8B7
:1019A00070E060E008959FEF80EC089500240A94B1
:1019B0001616170618060906089500240A9412162A
:1019C0001306140605060895092E0394000C11F45D
:1019D000882352F0BB0F40F4BF2B11F460FF04C00A
:1019E0006F5F7F4F8F4F9F4F089557FD9058440F63
:1019F000551F59F05F3F71F04795880F97FB991F6E
:101A000061F09F3F79F0879508951216130614062A
:101A1000551FF2CF4695F1DF08C0161617061806B7
:101A2000991FF1CF86957105610508940895E89492
:101A3000BB2766277727CB0197F908958ADF08F43B
:101A40008FEF08950BD0C0CFB1DF28F0B6DF18F0CC
:101A5000952309F0A2CFA7CF1124EACFC6DFA0F3C8
:101A6000959FD1F3950F50E0551F629FF001729F33
:101A7000BB27F00DB11D639FAA27F00DB11DAA1F52
:101A8000649F6627B00DA11D661F829F2227B00D9F
:101A9000A11D621F739FB00DA11D621F839FA00D2A
:101AA000611D221F749F3327A00D611D231F849F7A
:101AB000600D211D822F762F6A2F11249F575040D1
:101AC0008AF0E1F088234AF0EE0FFF1FBB1F661F6C
:101AD000771F881F91505040A9F79E3F510570F025
:101AE0005CCFA6CF5F3FECF3983EDCF3869577950D
:101AF0006795B795F795E7959F5FC1F7FE2B880F20
:101B0000911D9695879597F9089523DF880B990B7A
:101B10000895629FD001739FF001829FE00DF11D37
:101B2000649FE00DF11D929FF00D839FF00D749F57
:101B3000F00D659FF00D9927729FB00DE11DF91F03
:101B4000639FB00DE11DF91FBD01CF011124089560
:101B5000A1E21A2EAA1BBB1BFD010DC0AA1FBB1FB1
:101B6000EE1FFF1FA217B307E407F50720F0A21B23
:101B7000B30BE40BF50B661F771F881F991F1A9490
:101B800069F760957095809590959B01AC01BD01BA
:101B9000CF010895EE0FFF1F0590F491E02D1994E9
:041BA000F894FFCFE7
:101BA4006D6D48670900526177094D6F7465724322
:101BB400757272656E743A20006D410A006E616E32
:101BC40000696E66006F7666002E000A0007000545
:101BD400000200380003000100000000B6042806DB
:081BE4006C0488047804A604D7
:00000001FF
