:100000000C9435000C945D000C945D000C945D0024
:100010000C945D000C945D000C945D000C945D00EC
:100020000C945D000C945D000C945D000C945D00DC
:100030000C945D000C945D000C945D000C945D00CC
:100040000C94DE030C945D000C94EC000C943301D2
:100050000C945D000C945D000C945D000C945D00AC
:100060000C945D000C945D00700211241FBECFEF54
:10007000D8E0DEBFCDBF11E0A0E0B1E0E6E8FAE0F5
:1000800002C005900D92AE31B107D9F71BE0AEE189
:10009000B1E001C01D92AC32B107E1F710E0CAE651
:1000A000D0E004C02297FE010E943D05C836D1076A
:1000B000C9F70E94CF030C9441050C940000DF9314
:1000C000CF93CDB7DEB7A8970FB6F894DEBF0FBEBB
:1000D000CDBF8BEA9DEC9A83898382E090E09C837C
:1000E0008B837E836D8381E89AE0BE016F5F7F4FD3
:1000F00046E050E00E94C602A8960FB6F894DEBF14
:100100000FBECDBFCF91DF9108950F931F93CF9373
:10011000DF9310921F0110921E0123C00E9426043B
:10012000C05EDE4F7983688300911E0110911F012C
:1001300080E00E94D704000F111F00531A4FF801EE
:100140009183808361E070E080E090E00E946F0422
:1001500080911E0190911F01019690931F01809341
:100160001E0180911E0190911F01EC01CC0FDD1F3B
:100170008855924098F2C053DA4F6881798180E8BF
:100180009AE00E945F0060911E0170911F0181E85A
:100190009AE04AE050E00E949F0364EF71E080E043
:1001A00090E00E946F04DF91CF911F910F9108950D
:1001B0000F931F9301E81AE0C80140E855E260E0A0
:1001C00070E00E946301C80160E071E00E94BC031E
:1001D0001F910F91089508951F920F920FB60F92DD
:1001E00011242F933F934F938F939F93EF93FF93FC
:1001F0008091C00082FD19C04091C60080919F0A85
:10020000282F30E02F5F3F4F2F7330708091A00A6E
:1002100090E02817390759F0E0919F0AF0E0EF5776
:10022000F54F42A320939F0A02C08091C600FF9120
:10023000EF919F918F914F913F912F910F900FBE12
:100240000F901F90189580919F0A2091A00A90E02E
:10025000805C9F4F821B91098F739070892B11F0E6
:100260000E94EB0008951F920F920FB60F92112477
:100270002F938F939F93EF93FF939091A10A809177
:10028000A20A981731F48091C1008F7D8093C1003C
:1002900010C0E091A20AF0E0ED51F54F208180916D
:1002A000A20A90E001968F7390708093A20A209327
:1002B000C600FF91EF919F918F912F910F900FBEEC
:1002C0000F901F901895AF92BF92DF92EF92FF921E
:1002D0000F931F93CF93DF93EC017A018B01DD2401
:1002E000403081EE580780E0680780E0780711F021
:1002F000DD24D39491E0A92EB12CE889F989DD2081
:1003000069F0C5010C8C02C0880F991F0A94E2F7AE
:10031000808360E079E08DE390E005C0108260E8C2
:1003200074E88EE190E0A80197010E941905215020
:10033000304040405040569547953795279580E18D
:100340002030380720F0DD2011F0DD24D6CFEC85F9
:10035000FD853083EE85FF8520831D8EEA89FB892C
:10036000408121E030E0C901088C02C0880F991F4C
:100370000A94E2F7482B4083EA89FB894081C9014E
:10038000098C02C0880F991F0A94E2F7482B40831A
:10039000EA89FB894081C9010A8C02C0880F991F34
:1003A0000A94E2F7482B4083EA89FB8980810B8C11
:1003B00002C0220F331F0A94E2F7209528232083DE
:1003C000DF91CF911F910F91FF90EF90DF90BF9041
:1003D000AF900895FC01268D878D30E0205C3F4F63
:1003E000281B31092F733070C9010895FC01968DC7
:1003F000878D981719F42FEF3FEF06C0878DE80F10
:10040000F11D82A1282F30E0C9010895DC015E961C
:100410009C915E975F968C915F97981719F42FEFD8
:100420003FEF10C05F968C915F97FD01E80FF11DC3
:1004300092A15F968C915F978F5F8F735F968C937D
:10044000292F30E0C9010895DC015D968C915D97FC
:10045000882339F05096ED91FC915197808186FF69
:10046000F9CF5D961C920895DC0190968C9190973F
:10047000282F30E02F5F3F4F2F73307091968C9173
:10048000919790E028173907C9F390968C9190972F
:10049000FD01E80FF11DEE59FF4F608390962C93FC
:1004A00090975296ED91FC915397208181E090E0D6
:1004B0005B960C905B9702C0880F991F0A94E2F735
:1004C000282B208381E05D968C935D975096ED916B
:1004D000FC91519780818064808381E090E0089551
:1004E0001092840A1092830A88EE93E0A0E0B0E0B4
:1004F0008093850A9093860AA093870AB093880A0E
:1005000082E191E09093820A8093810A1092A20A7C
:100510008091A20A8093A10A1092A00A8091A00A59
:1005200080939F0A85EC90E090938E0A80938D0AC9
:1005300084EC90E09093900A80938F0A80EC90E096
:100540009093920A8093910A81EC90E09093940AA0
:100550008093930A82EC90E09093960A8093950A98
:1005600086EC90E09093980A8093970A84E08093B9
:10057000990A83E080939A0A87E080939B0A85E03A
:1005800080939C0A81E080939D0A0895CF92DF9228
:10059000EF92FF920F931F93CF93DF937C016B0138
:1005A0008A01C0E0D0E00FC0D6016D916D01D70186
:1005B000ED91FC910190F081E02DC7010995C80FE4
:1005C000D91F015010400115110571F7CE01DF91BF
:1005D000CF911F910F91FF90EF90DF90CF900895F2
:1005E000EF92FF920F931F938C01DC01ED91FC9130
:1005F0000190F081E02D6DE009957C01D801ED912D
:10060000FC910190F081E02DC8016AE009959C0100
:100610002E0D3F1DC9011F910F91FF90EF9008957E
:10062000CF93DF93EC016115710519F420E030E000
:100630000FC0DB010D900020E9F71197A61BB70B47
:10064000E881F9810280F381E02DAD0109959C01DB
:10065000C901DF91CF9108954F925F927F928F925F
:100660009F92AF92BF92CF92DF92EF92FF920F9341
:100670001F93DF93CF93CDB7DEB7A1970FB6F89452
:10068000DEBF0FBECDBF2C01742ECB01223008F48B
:100690002AE019A231E2C32ED12CCC0EDD1E822E0F
:1006A0009924AA24BB24672D752FA50194010E94CB
:1006B000190579018A01C801B701A50194010E94B9
:1006C000FA04472D461B0894C108D1084A3014F497
:1006D000405D01C0495CF6014083E114F10401056D
:1006E000110521F07E2C5F2DC801DDCFC201B601BE
:1006F0000E941003A1960FB6F894DEBF0FBECDBFC7
:10070000CF91DF911F910F91FF90EF90DF90CF90ED
:10071000BF90AF909F908F907F905F904F90089583
:10072000DC012115310541F4ED91FC910190F0813E
:10073000E02D642F099508950E942C030895CF920F
:10074000DF92EF92FF920F931F936C017B019A014E
:1007500000E010E0B801A7010E9490038C01C601DF
:100760000E94F002080F191FC8011F910F91FF90FE
:10077000EF90DF90CF900895EF92FF920F931F9329
:100780007C010E9410038C01C7010E94F002080F37
:10079000191FC8011F910F91FF90EF900895CF93FB
:1007A000DF930E9434040E94D800C3E2D1E00E948B
:1007B00085002097E1F30E942301F9CF1F920F9249
:1007C0000FB60F9211242F933F938F939F93AF9364
:1007D000BF938091270B9091280BA091290BB0918A
:1007E0002A0B30912B0B0196A11DB11D232F2D5FDC
:1007F0002D3720F02D570196A11DB11D20932B0BF5
:100800008093270B9093280BA093290BB0932A0B6E
:100810008091230B9091240BA091250BB091260B76
:100820000196A11DB11D8093230B9093240BA093DF
:10083000250BB093260BBF91AF919F918F913F9164
:100840002F910F900FBE0F901F9018958FB7F894AF
:100850002091270B3091280B4091290B50912A0BA6
:100860008FBFB901CA010895789484B5826084BDB0
:1008700084B5816084BD85B5826085BD85B58160A4
:1008800085BDEEE6F0E0808181608083E1E8F0E004
:100890001082808182608083808181608083E0E833
:1008A000F0E0808181608083E1EBF0E08081846012
:1008B0008083E0EBF0E0808181608083EAE7F0E014
:1008C0008081846080838081826080838081816078
:1008D00080838081806880831092C1000895EF92A8
:1008E000FF920F931F93CF93DF937B018C013FB750
:1008F000F8948091230B9091240BA091250BB0913B
:10090000260B26B5A89B05C02F3F19F00196A11D07
:10091000B11D3FBFBA2FA92F982F8827820F911D95
:10092000A11DB11D52E0880F991FAA1FBB1F5A9528
:10093000D1F7EC0130C00E94F9043FB7F8948091E0
:10094000230B9091240BA091250BB091260B26B57B
:10095000A89B05C02F3F19F00196A11DB11D3FBFF7
:10096000BA2FA92F982F8827820F911DA11DB11D85
:1009700032E0880F991FAA1FBB1F3A95D1F78C1B35
:100980009D0B885E9340B8F20894E108F1080109D4
:100990001109C851DC4FE114F1040105110559F6A4
:1009A000DF91CF911F910F91FF90EF900895982FB5
:1009B0008E3008F09E50977080910D018295880FBF
:1009C000880F807C892B80937C0080917A008064E2
:1009D00080937A0080917A0086FDFCCF2091780088
:1009E00040917900942F80E030E0282B392BC90109
:1009F00008950895629FD001739FF001829FE00DDA
:100A0000F11D649FE00DF11D929FF00D839FF00D8D
:100A1000749FF00D659FF00D9927729FB00DE11D39
:100A2000F91F639FB00DE11DF91FBD01CF01112416
:100A30000895A1E21A2EAA1BBB1BFD010DC0AA1F1F
:100A4000BB1FEE1FFF1FA217B307E407F50720F037
:100A5000A21BB30BE40BF50B661F771F881F991FB2
:100A60001A9469F760957095809590959B01AC01FB
:100A7000BD01CF010895EE0FFF1F0590F491E02D09
:060A80000994F894FFCF79
:100A860048656C6C6F20776F726C64210001000002
:0E0A960000003402C602EA010602F601240244
:00000001FF
