:100000000C9473000C94A0000C94A0000C94A0001D
:100010000C94A0000C94A0000C94A0000C94A000E0
:100020000C94A0000C94A0000C94A0000C94A000D0
:100030000C94A0000C94A0000C94A0000C94A000C0
:100040000C94A0000C94A0000C94A0000C94A000B0
:100050000C94A0000C94A0000C94A0000C94E1055A
:100060000C94A0000C9467010C9493020C94A000D3
:100070000C94A0000C94A0000C94A0000C94A00080
:100080000C94A0000C94A0000C94A0000C94A00070
:100090000C94A3010C94C7020C94A0000C94A00033
:1000A0000C94A0000C94A0000C94A0000C94A00050
:1000B0000C94A0000C94A0000C94A0000C94A00040
:1000C0000C94A0000C94A0000C94A0000C94DF01F0
:1000D0000C94FB020C94A0000C941B020C942F03B4
:1000E0000C94A000720411241FBECFEFD1E2DEBF3A
:1000F000CDBF00E00CBF12E0A0E0B2E0E4EAFEE019
:1001000000E00BBF02C007900D92A231B107D9F7F2
:100110001BBE18E0A2E1B2E001C01D92A233B107FC
:10012000E1F710E0C6EED0E004C02297FE010E9485
:100130004C07C43ED107C9F70E94D2050C94500762
:100140000C940000109216021092150210921802E0
:100150001092170210921402109213022CC089E31D
:100160000E94F3069C019093160280931502E09181
:100170001302F0911402EE0FFF1FE35EFD4F918317
:10018000808380911702909118028217930724F4BC
:10019000309318022093170261E070E080E090E055
:1001A0000E948B0680911302909114020196909305
:1001B0001402809313028091130290911402C2974B
:1001C00074F288E30E94F3068093190290931A0256
:1001D00020911B0230911C02F901EE0FFF1FDF017D
:1001E000AF57BD4F8C9311969C93EF5EFB4F809160
:1001F000170290911802918380832F5F3F4F3093B5
:100200001C0220931B02283C310541F51092140278
:100210001092130218C0EE0FFF1FDF01AF5EBB4F3D
:100220006D917C91EF57FD4F4081518182E192E0C9
:100230000E943E01809113029091140201969093C6
:10024000140280931302E0911302F0911402E83C2F
:10025000F1050CF310921C0210921B02089581EA22
:1002600095E040E855E260E070E00E94630381EAB7
:1002700095E00E9470048823D1F30895DF93CF9313
:10028000CDB7DEB7A8970FB6F894DEBF0FBECDBFCF
:100290008BEA9DEC9A83898384E090E09C838B8336
:1002A0007E836D8358874F8381EA95E0BE016F5F3F
:1002B0007F4F48E050E00E94A805A8960FB6F8943A
:1002C000DEBF0FBECDBFCF91DF91089508951F927D
:1002D0000F920FB60F920BB60F9211242F933F93EC
:1002E0004F938F939F93EF93FF938091C00082FD74
:1002F00019C04091C6008091BF05282F30E02F5FC4
:100300003F4F2F7330708091C00590E02817390758
:1003100059F0E091BF05F0E0EF55FA4F42A320936A
:10032000BF0502C08091C600FF91EF919F918F9110
:100330004F913F912F910F900BBE0F900FBE0F90DA
:100340001F90189508951F920F920FB60F920BB63B
:100350000F9211242F933F934F938F939F93EF937B
:10036000FF938091C80082FD19C04091CE0080911A
:100370006106282F30E02F5F3F4F2F733070809140
:10038000620690E02817390759F0E0916106F0E025
:10039000ED5BF94F42A32093610602C08091CE002D
:1003A000FF91EF919F918F914F913F912F910F90DE
:1003B0000BBE0F900FBE0F901F90189508951F92BF
:1003C0000F920FB60F920BB60F9211242F933F93FB
:1003D0004F938F939F93EF93FF938091D00082FD73
:1003E00019C04091D60080910307282F30E02F5F7D
:1003F0003F4F2F7330708091040790E02817390722
:1004000059F0E0910307F0E0EB51F94F42A320933C
:10041000030702C08091D600FF91EF919F918F91C9
:100420004F913F912F910F900BBE0F900FBE0F90E9
:100430001F90189508951F920F920FB60F920BB64A
:100440000F9211242F933F934F938F939F93EF938A
:10045000FF938091300182FD19C040913601809157
:10046000A507282F30E02F5F3F4F2F73307080910A
:10047000A60790E02817390759F0E091A507F0E0AA
:10048000E957F84F42A32093A50702C08091360197
:10049000FF91EF919F918F914F913F912F910F90ED
:1004A0000BBE0F900FBE0F901F9018958091BF0547
:1004B0002091C00590E0805C9F4F821B91098F7353
:1004C0009070892B11F00E94660180916106209145
:1004D000620690E0805C9F4F821B91098F73907041
:1004E000892B11F00E94A20180910307209104073B
:1004F00090E0805C9F4F821B91098F739070892BD5
:1005000011F00E94DE018091A5072091A60790E0DE
:10051000805C9F4F821B91098F739070892B11F023
:100520000E941A0208951F920F920FB60F920BB6F7
:100530000F9211242F938F939F93EF93FF9390919A
:10054000C1058091C205981731F48091C1008F7D5B
:100550008093C10010C0E091C205F0E0ED5FF94F5B
:1005600020818091C20590E001968F7390708093F6
:10057000C2052093C600FF91EF919F918F912F911B
:100580000F900BBE0F900FBE0F901F9018951F92EB
:100590000F920FB60F920BB60F9211242F938F93D9
:1005A0009F93EF93FF939091630680916406981751
:1005B00031F48091C9008F7D8093C90010C0E09113
:1005C0006406F0E0EB55F94F20818091640690E0DD
:1005D00001968F739070809364062093CE00FF91F4
:1005E000EF919F918F912F910F900BBE0F900FBEA7
:1005F0000F901F9018951F920F920FB60F920BB687
:100600000F9211242F938F939F93EF93FF939091C9
:10061000050780910607981731F48091D1008F7DEE
:100620008093D10010C0E0910607F0E0E95BF84F3D
:1006300020818091060790E001968F7390708093DF
:1006400006072093D600FF91EF919F918F912F91F4
:100650000F900BBE0F900FBE0F901F9018951F921A
:100660000F920FB60F920BB60F9211242F938F9308
:100670009F93EF93FF939091A7078091A8079817F6
:1006800031F4809131018F7D8093310110C0E09170
:10069000A807F0E0E751F84F20818091A80790E08B
:1006A00001968F7390708093A80720933601FF9175
:1006B000EF919F918F912F910F900BBE0F900FBED6
:1006C0000F901F901895AF92BF92DF92EF92FF921A
:1006D0000F931F93CF93DF93EC017A018B01DD24FD
:1006E000403081EE580780E0680780E0780711F01D
:1006F000DD24D39491E0A92EB12CE889F989DD207D
:1007000069F0C5010C8C02C0880F991F0A94E2F7AA
:10071000808360E079E08DE390E005C0108260E8BE
:1007200074E88EE190E0A80197010E94280721500B
:10073000304040405040569547953795279580E189
:100740002030380720F0DD2011F0DD24D6CFEC85F5
:10075000FD853083EE85FF8520831D8EEA89FB8928
:10076000408121E030E0C901088C02C0880F991F48
:100770000A94E2F7482B4083EA89FB894081C9014A
:10078000098C02C0880F991F0A94E2F7482B408316
:10079000EA89FB894081C9010A8C02C0880F991F30
:1007A0000A94E2F7482B4083EA89FB8980810B8C0D
:1007B00002C0220F331F0A94E2F7209528232083DA
:1007C000DF91CF911F910F91FF90EF90DF90BF903D
:1007D000AF900895FC01268D878D30E0205C3F4F5F
:1007E000281B31092F733070C9010895FC01968DC3
:1007F000878D981719F42FEF3FEF06C0878DE80F0C
:10080000F11D82A1282F30E0C9010895DC015E9618
:100810009C915E975F968C915F97981719F42FEFD4
:100820003FEF10C05F968C915F97FD01E80FF11DBF
:1008300092A15F968C915F978F5F8F735F968C9379
:10084000292F30E0C9010895DC015D968C915D97F8
:10085000882339F05096ED91FC915197808186FF65
:10086000F9CF5D961C920895DC0190968C9190973B
:10087000282F30E02F5F3F4F2F73307091968C916F
:10088000919790E028173907C9F390968C9190972B
:10089000FD01E80FF11DEE59FF4F608390962C93F8
:1008A00090975296ED91FC915397208181E090E0D2
:1008B0005B960C905B9702C0880F991F0A94E2F731
:1008C000282B208381E05D968C935D975096ED9167
:1008D000FC91519780818064808381E090E008954D
:1008E00081E008951F931092A4051092A30528EEAD
:1008F00033E040E050E02093A5053093A6054093F7
:10090000A7055093A80565E072E07093A205609377
:10091000A1051092C2058091C2058093C105109275
:10092000C0058091C0058093BF0585EC90E0909351
:10093000AE058093AD0584EC90E09093B005809374
:10094000AF0580EC90E09093B2058093B10581EC07
:1009500090E09093B4058093B30582EC90E090937F
:10096000B6058093B50586EC90E09093B80580932A
:10097000B70514E01093B905B3E0B093BA05A7E04A
:10098000A093BB05F5E0F093BC05E1E0E093BD0565
:10099000109246061092450620934706309348066B
:1009A0004093490650934A06709344066093430669
:1009B000109264068091640680936306109262062A
:1009C00080916206809361068DEC90E090935006D2
:1009D00080934F068CEC90E09093520680935106E2
:1009E00088EC90E0909354068093530689EC90E055
:1009F00090935606809355068AEC90E090935806A3
:100A0000809357068EEC90E090935A068093590697
:100A100010935B06B0935C06A0935D06F0935E06B0
:100A2000E0935F061092E8061092E7062093E9062D
:100A30003093EA064093EB065093EC067093E6067B
:100A40006093E506109206078091060780930507DC
:100A500010920407809104078093030785ED90E0CE
:100A60009093F2068093F10684ED90E09093F40663
:100A70008093F30680ED90E09093F6068093F50660
:100A800081ED90E09093F8068093F70682ED90E078
:100A90009093FA068093F90686ED90E09093FC0619
:100AA0008093FB061093FD06B093FE06A093FF060D
:100AB000F0930007E093010710928A0710928907CC
:100AC00020938B0730938C0740938D0750938E07AC
:100AD00070938807609387071092A8078091A807F2
:100AE0008093A7071092A6078091A6078093A50779
:100AF00085E391E0909394078093930784E391E0DA
:100B0000909396078093950780E391E090939807E0
:100B10008093970781E391E090939A0780939907D8
:100B200082E391E090939C0780939B0786E391E09A
:100B300090939E0780939D0710939F07B093A00703
:100B4000A093A107F093A207E093A3071F91089534
:100B5000CF92DF92EF92FF920F931F93CF93DF9389
:100B60007C016B018A01C0E0D0E00FC0D6016D911D
:100B70006D01D701ED91FC910190F081E02DC7014D
:100B80001995C80FD91F015010400115110571F7B3
:100B9000CE01DF91CF911F910F91FF90EF90DF90E9
:100BA000CF900895CF93DF930E9429060E942F01D2
:100BB000C6E5D2E00E94A2002097E1F30E9456020F
:100BC000F9CF1F920F920FB60F9211242F933F93DC
:100BD0008F939F93AF93BF9380912D0890912E0890
:100BE000A0912F08B0913008309131080196A11DD5
:100BF000B11D232F2D5F2D3720F02D570196A11DFC
:100C0000B11D2093310880932D0890932E08A09356
:100C10002F08B09330088091290890912A08A0915C
:100C20002B08B0912C080196A11DB11D80932908B5
:100C300090932A08A0932B08B0932C08BF91AF91F2
:100C40009F918F913F912F910F900FBE0F901F900A
:100C50001895789484B5826084BD84B5816084BD24
:100C600085B5826085BD85B5816085BDEEE6F0E025
:100C7000808181608083E1E8F0E010828081826081
:100C80008083808181608083E0E8F0E08081816002
:100C90008083E1EBF0E0808184608083E0EBF0E032
:100CA000808181608083E1E9F0E0808182608083DF
:100CB000808181608083E0E9F0E0808181608083D1
:100CC000E1EAF0E0808182608083808181608083BE
:100CD000E0EAF0E0808181608083E1E2F1E0808100
:100CE00082608083808181608083E0E2F1E08081A6
:100CF00081608083EAE7F0E0808184608083808186
:100D0000826080838081816080838081806880832D
:100D10001092C1000895EF92FF920F931F93CF930B
:100D2000DF937B018C013FB7F89480912908909163
:100D30002A08A0912B08B0912C0826B5A89B05C0C5
:100D40002F3F19F00196A11DB11D3FBFBA2FA92F4A
:100D5000982F8827820F911DA11DB11D52E0880F89
:100D6000991FAA1FBB1F5A95D1F7EC0130C00E94F2
:100D700027073FB7F8948091290890912A08A091FD
:100D80002B08B0912C0826B5A89B05C02F3F19F061
:100D90000196A11DB11D3FBFBA2FA92F982F8827FB
:100DA000820F911DA11DB11D32E0880F991FAA1F4E
:100DB000BB1F3A95D1F78C1B9D0B885E9340B8F210
:100DC0000894E108F10801091109C851DC4FE11448
:100DD000F1040105110559F6DF91CF911F910F9193
:100DE000FF90EF900895382F863308F03653209106
:100DF0007B00832F86958695869590E08170907014
:100E000043E0880F991F4A95E1F7277F282B20930D
:100E10007B003770809100028295880F880F807C5C
:100E2000832B80937C0080917A00806480937A0089
:100E300080917A0086FDFCCF209178004091790066
:100E4000942F80E030E0282B392BC90108950895B4
:100E5000A1E21A2EAA1BBB1BFD010DC0AA1FBB1FBE
:100E6000EE1FFF1FA217B307E407F50720F0A21B30
:100E7000B30BE40BF50B661F771F881F991F1A949D
:100E800069F760957095809590959B01AC01BD01C7
:100E9000CF010895EE0FFF1F0590F491E02D1994F6
:040EA000F894FFCFF4
:100EA40001000000003404A805EA030604F6032444
:020EB400040038
:00000001FF
